{"abi":[{"inputs":[{"internalType":"address[]","name":"_validators","type":"address[]"},{"internalType":"contract ERC20","name":"_token","type":"address"}],"stateMutability":"nonpayable","type":"constructor"},{"anonymous":false,"inputs":[{"indexed":false,"internalType":"address","name":"_address","type":"address"}],"name":"Address","type":"event"},{"anonymous":false,"inputs":[{"indexed":false,"internalType":"address","name":"_address","type":"address"},{"indexed":false,"internalType":"string","name":"_m","type":"string"}],"name":"AddressM","type":"event"},{"anonymous":false,"inputs":[{"indexed":false,"internalType":"bool","name":"_bool","type":"bool"}],"name":"Bool","type":"event"},{"anonymous":false,"inputs":[{"indexed":false,"internalType":"bytes1","name":"_byte","type":"bytes1"}],"name":"Byte","type":"event"},{"anonymous":false,"inputs":[{"indexed":false,"internalType":"bytes","name":"_bytes","type":"bytes"}],"name":"Bytes","type":"event"},{"anonymous":false,"inputs":[{"indexed":false,"internalType":"bytes32","name":"_bytes32","type":"bytes32"}],"name":"Bytes32","type":"event"},{"anonymous":false,"inputs":[{"indexed":false,"internalType":"bytes32","name":"_bytes32","type":"bytes32"},{"indexed":false,"internalType":"string","name":"_m","type":"string"}],"name":"Bytes32M","type":"event"},{"anonymous":false,"inputs":[{"indexed":false,"internalType":"bytes","name":"_bytes","type":"bytes"},{"indexed":false,"internalType":"string","name":"_m","type":"string"}],"name":"BytesM","type":"event"},{"anonymous":false,"inputs":[{"indexed":false,"internalType":"uint256","name":"_startBlockNumber","type":"uint256"},{"indexed":false,"internalType":"uint256","name":"_bunchDepth","type":"uint256"},{"indexed":false,"internalType":"uint256","name":"_bunchIndex","type":"uint256"}],"name":"NewBunchHeader","type":"event"},{"anonymous":false,"inputs":[{"indexed":false,"internalType":"uint256","name":"_uint256","type":"uint256"}],"name":"Uint256","type":"event"},{"anonymous":false,"inputs":[{"indexed":false,"internalType":"uint256","name":"_num","type":"uint256"},{"indexed":false,"internalType":"string","name":"_m","type":"string"}],"name":"Uint256M","type":"event"},{"anonymous":false,"inputs":[{"indexed":false,"internalType":"uint8","name":"_uint8","type":"uint8"}],"name":"Uint8","type":"event"},{"inputs":[{"internalType":"uint256","name":"","type":"uint256"}],"name":"bunches","outputs":[{"internalType":"uint256","name":"startBlockNumber","type":"uint256"},{"internalType":"uint256","name":"bunchDepth","type":"uint256"},{"internalType":"bytes32","name":"transactionsMegaRoot","type":"bytes32"},{"internalType":"bytes32","name":"receiptsMegaRoot","type":"bytes32"}],"stateMutability":"view","type":"function"},{"inputs":[{"internalType":"bytes","name":"_rawTransactionProof","type":"bytes"}],"name":"claimWithdrawal","outputs":[],"stateMutability":"nonpayable","type":"function"},{"inputs":[],"name":"esnDepositAddress","outputs":[{"internalType":"address","name":"","type":"address"}],"stateMutability":"view","type":"function"},{"inputs":[],"name":"getAllSigners","outputs":[{"internalType":"address[]","name":"","type":"address[]"}],"stateMutability":"view","type":"function"},{"inputs":[],"name":"getAllValidators","outputs":[{"internalType":"address[]","name":"","type":"address[]"}],"stateMutability":"view","type":"function"},{"inputs":[{"internalType":"address","name":"","type":"address"}],"name":"isValidator","outputs":[{"internalType":"bool","name":"","type":"bool"}],"stateMutability":"view","type":"function"},{"inputs":[],"name":"lastBunchIndex","outputs":[{"internalType":"uint256","name":"","type":"uint256"}],"stateMutability":"view","type":"function"},{"inputs":[],"name":"numberOfValidators","outputs":[{"internalType":"uint256","name":"","type":"uint256"}],"stateMutability":"view","type":"function"},{"inputs":[{"internalType":"bytes","name":"_rawTx","type":"bytes"}],"name":"parseTransaction","outputs":[{"internalType":"address","name":"","type":"address"},{"internalType":"address","name":"","type":"address"},{"internalType":"uint256","name":"","type":"uint256"},{"internalType":"uint256","name":"","type":"uint256"}],"stateMutability":"pure","type":"function"},{"inputs":[{"internalType":"bytes32","name":"","type":"bytes32"}],"name":"processedWithdrawals","outputs":[{"internalType":"bool","name":"","type":"bool"}],"stateMutability":"view","type":"function"},{"inputs":[{"internalType":"address","name":"_esnDepositAddress","type":"address"}],"name":"setESNDepositAddress","outputs":[],"stateMutability":"nonpayable","type":"function"},{"inputs":[{"internalType":"uint256","name":"","type":"uint256"}],"name":"signers","outputs":[{"internalType":"address","name":"","type":"address"}],"stateMutability":"view","type":"function"},{"inputs":[{"internalType":"bytes","name":"_signedHeader","type":"bytes"}],"name":"submitBunchHeader","outputs":[],"stateMutability":"nonpayable","type":"function"},{"inputs":[],"name":"token","outputs":[{"internalType":"contract ERC20","name":"","type":"address"}],"stateMutability":"view","type":"function"},{"inputs":[{"internalType":"uint256","name":"","type":"uint256"}],"name":"validators","outputs":[{"internalType":"address","name":"","type":"address"}],"stateMutability":"view","type":"function"},{"inputs":[{"internalType":"bytes32","name":"leaf","type":"bytes32"},{"internalType":"uint256","name":"mainIndex","type":"uint256"},{"internalType":"bytes32","name":"rootHash","type":"bytes32"},{"internalType":"bytes","name":"proof","type":"bytes"}],"name":"verifyMerkleProof","outputs":[{"internalType":"bool","name":"","type":"bool"}],"stateMutability":"pure","type":"function"},{"inputs":[],"name":"zemse","outputs":[{"internalType":"uint8","name":"","type":"uint8"}],"stateMutability":"view","type":"function"}],"devdoc":{"methods":{}},"evm":{"assembly":"    /* \"PlasmaManager.sol\":257:8768  contract PlasmaManager {... */\n  mstore(0x40, 0x80)\n    /* \"PlasmaManager.sol\":1603:1873  constructor(address[] memory _validators, ERC20 _token) public {... */\n  callvalue\n    /* \"--CODEGEN--\":5:14   */\n  dup1\n    /* \"--CODEGEN--\":2:4   */\n  iszero\n  tag_1\n  jumpi\n    /* \"--CODEGEN--\":27:28   */\n  0x00\n    /* \"--CODEGEN--\":24:25   */\n  dup1\n    /* \"--CODEGEN--\":17:29   */\n  revert\n    /* \"--CODEGEN--\":2:4   */\ntag_1:\n    /* \"PlasmaManager.sol\":1603:1873  constructor(address[] memory _validators, ERC20 _token) public {... */\n  pop\n  mload(0x40)\n  sub(codesize, bytecodeSize)\n  dup1\n  bytecodeSize\n  dup4\n  codecopy\n  dup2\n  dup2\n  add\n  0x40\n  mstore\n    /* \"--CODEGEN--\":15:17   */\n  0x40\n    /* \"--CODEGEN--\":10:13   */\n  dup2\n    /* \"--CODEGEN--\":7:18   */\n  lt\n    /* \"--CODEGEN--\":4:6   */\n  iszero\n  tag_2\n  jumpi\n    /* \"--CODEGEN--\":31:32   */\n  0x00\n    /* \"--CODEGEN--\":28:29   */\n  dup1\n    /* \"--CODEGEN--\":21:33   */\n  revert\n    /* \"--CODEGEN--\":4:6   */\ntag_2:\n    /* \"PlasmaManager.sol\":1603:1873  constructor(address[] memory _validators, ERC20 _token) public {... */\n  dup2\n  add\n  swap1\n  dup1\n  dup1\n  mload\n  mload(0x40)\n  swap4\n  swap3\n  swap2\n  swap1\n  dup5\n    /* \"--CODEGEN--\":19:30   */\n  0x0100000000\n    /* \"--CODEGEN--\":14:17   */\n  dup3\n    /* \"--CODEGEN--\":11:31   */\n  gt\n    /* \"--CODEGEN--\":8:10   */\n  iszero\n  tag_3\n  jumpi\n    /* \"--CODEGEN--\":44:45   */\n  0x00\n    /* \"--CODEGEN--\":41:42   */\n  dup1\n    /* \"--CODEGEN--\":34:46   */\n  revert\n    /* \"--CODEGEN--\":8:10   */\ntag_3:\n    /* \"--CODEGEN--\":71:82   */\n  dup4\n    /* \"--CODEGEN--\":66:69   */\n  dup3\n    /* \"--CODEGEN--\":62:83   */\n  add\n    /* \"--CODEGEN--\":55:83   */\n  swap2\n  pop\n    /* \"--CODEGEN--\":123:127   */\n  0x20\n    /* \"--CODEGEN--\":118:121   */\n  dup3\n    /* \"--CODEGEN--\":114:128   */\n  add\n    /* \"--CODEGEN--\":159:168   */\n  dup6\n    /* \"--CODEGEN--\":141:157   */\n  dup2\n    /* \"--CODEGEN--\":138:169   */\n  gt\n    /* \"--CODEGEN--\":135:137   */\n  iszero\n  tag_4\n  jumpi\n    /* \"--CODEGEN--\":182:183   */\n  0x00\n    /* \"--CODEGEN--\":179:180   */\n  dup1\n    /* \"--CODEGEN--\":172:184   */\n  revert\n    /* \"--CODEGEN--\":135:137   */\ntag_4:\n    /* \"--CODEGEN--\":219:222   */\n  dup3\n    /* \"--CODEGEN--\":213:223   */\n  mload\n    /* \"--CODEGEN--\":331:340   */\n  dup7\n    /* \"--CODEGEN--\":325:327   */\n  0x20\n    /* \"--CODEGEN--\":311:323   */\n  dup3\n    /* \"--CODEGEN--\":307:328   */\n  mul\n    /* \"--CODEGEN--\":289:305   */\n  dup4\n    /* \"--CODEGEN--\":285:329   */\n  add\n    /* \"--CODEGEN--\":282:341   */\n  gt\n    /* \"--CODEGEN--\":261:272   */\n  0x0100000000\n    /* \"--CODEGEN--\":247:259   */\n  dup3\n    /* \"--CODEGEN--\":244:273   */\n  gt\n    /* \"--CODEGEN--\":233:349   */\n  or\n    /* \"--CODEGEN--\":230:232   */\n  iszero\n  tag_5\n  jumpi\n    /* \"--CODEGEN--\":362:363   */\n  0x00\n    /* \"--CODEGEN--\":359:360   */\n  dup1\n    /* \"--CODEGEN--\":352:364   */\n  revert\n    /* \"--CODEGEN--\":230:232   */\ntag_5:\n    /* \"--CODEGEN--\":385:397   */\n  dup1\n    /* \"--CODEGEN--\":380:383   */\n  dup4\n    /* \"--CODEGEN--\":373:398   */\n  mstore\n    /* \"--CODEGEN--\":421:425   */\n  0x20\n    /* \"--CODEGEN--\":416:419   */\n  dup4\n    /* \"--CODEGEN--\":412:426   */\n  add\n    /* \"--CODEGEN--\":405:426   */\n  swap3\n  pop\n    /* \"--CODEGEN--\":0:433   */\n  pop\n  pop\n    /* \"PlasmaManager.sol\":1603:1873  constructor(address[] memory _validators, ERC20 _token) public {... */\n  swap1\n  dup1\n  mload\n  swap1\n  0x20\n  add\n  swap1\n  0x20\n  mul\n  dup1\n  dup4\n  dup4\n    /* \"--CODEGEN--\":23:24   */\n  0x00\n    /* \"--CODEGEN--\":8:108   */\ntag_6:\n    /* \"--CODEGEN--\":33:36   */\n  dup4\n    /* \"--CODEGEN--\":30:31   */\n  dup2\n    /* \"--CODEGEN--\":27:37   */\n  lt\n    /* \"--CODEGEN--\":8:108   */\n  iszero\n  tag_8\n  jumpi\n    /* \"--CODEGEN--\":99:100   */\n  dup1\n    /* \"--CODEGEN--\":94:97   */\n  dup3\n    /* \"--CODEGEN--\":90:101   */\n  add\n    /* \"--CODEGEN--\":84:102   */\n  mload\n    /* \"--CODEGEN--\":80:81   */\n  dup2\n    /* \"--CODEGEN--\":75:78   */\n  dup5\n    /* \"--CODEGEN--\":71:82   */\n  add\n    /* \"--CODEGEN--\":64:103   */\n  mstore\n    /* \"--CODEGEN--\":52:54   */\n  0x20\n    /* \"--CODEGEN--\":49:50   */\n  dup2\n    /* \"--CODEGEN--\":45:55   */\n  add\n    /* \"--CODEGEN--\":40:55   */\n  swap1\n  pop\n    /* \"--CODEGEN--\":8:108   */\n  jump(tag_6)\ntag_8:\n    /* \"--CODEGEN--\":12:26   */\n  pop\n    /* \"PlasmaManager.sol\":1603:1873  constructor(address[] memory _validators, ERC20 _token) public {... */\n  pop\n  pop\n  pop\n  swap1\n  pop\n  add\n  0x40\n  mstore\n  0x20\n  add\n  dup1\n  mload\n  swap1\n  0x20\n  add\n  swap1\n  swap3\n  swap2\n  swap1\n  pop\n  pop\n  pop\n    /* \"PlasmaManager.sol\":1676:1686  uint256 _i */\n  0x00\n    /* \"PlasmaManager.sol\":1689:1690  0 */\n  dup1\n    /* \"PlasmaManager.sol\":1676:1690  uint256 _i = 0 */\n  swap1\n  pop\n    /* \"PlasmaManager.sol\":1672:1773  for(uint256 _i = 0; _i < _validators.length; _i++) {... */\ntag_11:\n    /* \"PlasmaManager.sol\":1697:1708  _validators */\n  dup3\n    /* \"PlasmaManager.sol\":1697:1715  _validators.length */\n  mload\n    /* \"PlasmaManager.sol\":1692:1694  _i */\n  dup2\n    /* \"PlasmaManager.sol\":1692:1715  _i < _validators.length */\n  lt\n    /* \"PlasmaManager.sol\":1672:1773  for(uint256 _i = 0; _i < _validators.length; _i++) {... */\n  iszero\n  tag_12\n  jumpi\n    /* \"PlasmaManager.sol\":1762:1766  true */\n  0x01\n    /* \"PlasmaManager.sol\":1731:1742  isValidator */\n  dup1\n    /* \"PlasmaManager.sol\":1731:1759  isValidator[_validators[_i]] */\n  0x00\n    /* \"PlasmaManager.sol\":1743:1754  _validators */\n  dup6\n    /* \"PlasmaManager.sol\":1755:1757  _i */\n  dup5\n    /* \"PlasmaManager.sol\":1743:1758  _validators[_i] */\n  dup2\n  mload\n  dup2\n  lt\n  tag_14\n  jumpi\n  invalid\ntag_14:\n  0x20\n  mul\n  0x20\n  add\n  add\n  mload\n    /* \"PlasmaManager.sol\":1731:1759  isValidator[_validators[_i]] */\n  0xffffffffffffffffffffffffffffffffffffffff\n  and\n  0xffffffffffffffffffffffffffffffffffffffff\n  and\n  dup2\n  mstore\n  0x20\n  add\n  swap1\n  dup2\n  mstore\n  0x20\n  add\n  0x00\n  keccak256\n  0x00\n    /* \"PlasmaManager.sol\":1731:1766  isValidator[_validators[_i]] = true */\n  0x0100\n  exp\n  dup2\n  sload\n  dup2\n  0xff\n  mul\n  not\n  and\n  swap1\n  dup4\n  iszero\n  iszero\n  mul\n  or\n  swap1\n  sstore\n  pop\n    /* \"PlasmaManager.sol\":1717:1721  _i++ */\n  dup1\n  dup1\n  0x01\n  add\n  swap2\n  pop\n  pop\n    /* \"PlasmaManager.sol\":1672:1773  for(uint256 _i = 0; _i < _validators.length; _i++) {... */\n  jump(tag_11)\ntag_12:\n  pop\n    /* \"PlasmaManager.sol\":1799:1810  _validators */\n  dup2\n    /* \"PlasmaManager.sol\":1799:1817  _validators.length */\n  mload\n    /* \"PlasmaManager.sol\":1778:1796  numberOfValidators */\n  0x00\n    /* \"PlasmaManager.sol\":1778:1817  numberOfValidators = _validators.length */\n  dup2\n  swap1\n  sstore\n  pop\n    /* \"PlasmaManager.sol\":1836:1847  _validators */\n  dup2\n    /* \"PlasmaManager.sol\":1823:1833  validators */\n  0x03\n    /* \"PlasmaManager.sol\":1823:1847  validators = _validators */\n  swap1\n  dup1\n  mload\n  swap1\n  0x20\n  add\n  swap1\n  tag_15\n  swap3\n  swap2\n  swap1\n  tag_16\n  jump\t// in\ntag_15:\n  pop\n    /* \"PlasmaManager.sol\":1862:1868  _token */\n  dup1\n    /* \"PlasmaManager.sol\":1854:1859  token */\n  0x06\n  0x00\n    /* \"PlasmaManager.sol\":1854:1868  token = _token */\n  0x0100\n  exp\n  dup2\n  sload\n  dup2\n  0xffffffffffffffffffffffffffffffffffffffff\n  mul\n  not\n  and\n  swap1\n  dup4\n  0xffffffffffffffffffffffffffffffffffffffff\n  and\n  mul\n  or\n  swap1\n  sstore\n  pop\n    /* \"PlasmaManager.sol\":1603:1873  constructor(address[] memory _validators, ERC20 _token) public {... */\n  pop\n  pop\n    /* \"PlasmaManager.sol\":257:8768  contract PlasmaManager {... */\n  jump(tag_17)\ntag_16:\n  dup3\n  dup1\n  sload\n  dup3\n  dup3\n  sstore\n  swap1\n  0x00\n  mstore\n  keccak256(0x00, 0x20)\n  swap1\n  dup2\n  add\n  swap3\n  dup3\n  iszero\n  tag_18\n  jumpi\n  swap2\n  0x20\n  mul\n  dup3\n  add\ntag_19:\n  dup3\n  dup2\n  gt\n  iszero\n  tag_20\n  jumpi\n  dup3\n  mload\n  dup3\n  exp(0x0100, 0x00)\n  dup2\n  sload\n  dup2\n  0xffffffffffffffffffffffffffffffffffffffff\n  mul\n  not\n  and\n  swap1\n  dup4\n  0xffffffffffffffffffffffffffffffffffffffff\n  and\n  mul\n  or\n  swap1\n  sstore\n  pop\n  swap2\n  0x20\n  add\n  swap2\n  swap1\n  0x01\n  add\n  swap1\n  jump(tag_19)\ntag_20:\ntag_18:\n  pop\n  swap1\n  pop\n  tag_21\n  swap2\n  swap1\n  tag_22\n  jump\t// in\ntag_21:\n  pop\n  swap1\n  jump\t// out\ntag_22:\n  tag_23\n  swap2\n  swap1\ntag_24:\n  dup1\n  dup3\n  gt\n  iszero\n  tag_25\n  jumpi\n  0x00\n  dup2\n  dup2\n  0x0100\n  exp\n  dup2\n  sload\n  swap1\n  0xffffffffffffffffffffffffffffffffffffffff\n  mul\n  not\n  and\n  swap1\n  sstore\n  pop\n  0x01\n  add\n  jump(tag_24)\ntag_25:\n  pop\n  swap1\n  jump\ntag_23:\n  swap1\n  jump\t// out\ntag_17:\n  dataSize(sub_0)\n  dup1\n  dataOffset(sub_0)\n  0x00\n  codecopy\n  0x00\n  return\nstop\n\nsub_0: assembly {\n        /* \"PlasmaManager.sol\":257:8768  contract PlasmaManager {... */\n      mstore(0x40, 0x80)\n      callvalue\n        /* \"--CODEGEN--\":5:14   */\n      dup1\n        /* \"--CODEGEN--\":2:4   */\n      iszero\n      tag_1\n      jumpi\n        /* \"--CODEGEN--\":27:28   */\n      0x00\n        /* \"--CODEGEN--\":24:25   */\n      dup1\n        /* \"--CODEGEN--\":17:29   */\n      revert\n        /* \"--CODEGEN--\":2:4   */\n    tag_1:\n        /* \"PlasmaManager.sol\":257:8768  contract PlasmaManager {... */\n      pop\n      jumpi(tag_2, lt(calldatasize, 0x04))\n      shr(0xe0, calldataload(0x00))\n      dup1\n      0x76f5e6da\n      gt\n      tag_20\n      jumpi\n      dup1\n      0xd42f2f35\n      gt\n      tag_21\n      jumpi\n      dup1\n      0xd42f2f35\n      eq\n      tag_15\n      jumpi\n      dup1\n      0xd6832ea9\n      eq\n      tag_16\n      jumpi\n      dup1\n      0xf3513a37\n      eq\n      tag_17\n      jumpi\n      dup1\n      0xfacd743b\n      eq\n      tag_18\n      jumpi\n      dup1\n      0xfc0c546a\n      eq\n      tag_19\n      jumpi\n      jump(tag_2)\n    tag_21:\n      dup1\n      0x76f5e6da\n      eq\n      tag_11\n      jumpi\n      dup1\n      0x974275cf\n      eq\n      tag_12\n      jumpi\n      dup1\n      0xbf49d631\n      eq\n      tag_13\n      jumpi\n      dup1\n      0xca5d0926\n      eq\n      tag_14\n      jumpi\n      jump(tag_2)\n    tag_20:\n      dup1\n      0x2ceea82a\n      gt\n      tag_22\n      jumpi\n      dup1\n      0x2ceea82a\n      eq\n      tag_7\n      jumpi\n      dup1\n      0x35aa2e44\n      eq\n      tag_8\n      jumpi\n      dup1\n      0x6750d35b\n      eq\n      tag_9\n      jumpi\n      dup1\n      0x75080de8\n      eq\n      tag_10\n      jumpi\n      jump(tag_2)\n    tag_22:\n      dup1\n      0x0a917b15\n      eq\n      tag_3\n      jumpi\n      dup1\n      0x15c09850\n      eq\n      tag_4\n      jumpi\n      dup1\n      0x2079fb9a\n      eq\n      tag_5\n      jumpi\n      dup1\n      0x255032ab\n      eq\n      tag_6\n      jumpi\n    tag_2:\n        /* \"--CODEGEN--\":12:13   */\n      0x00\n        /* \"--CODEGEN--\":9:10   */\n      dup1\n        /* \"--CODEGEN--\":2:14   */\n      revert\n        /* \"PlasmaManager.sol\":1077:1095  uint8 public zemse */\n    tag_3:\n      tag_23\n      tag_24\n      jump\t// in\n    tag_23:\n      mload(0x40)\n      dup1\n      dup3\n      0xff\n      and\n      0xff\n      and\n      dup2\n      mstore\n      0x20\n      add\n      swap2\n      pop\n      pop\n      mload(0x40)\n      dup1\n      swap2\n      sub\n      swap1\n      return\n        /* \"PlasmaManager.sol\":1040:1072  address public esnDepositAddress */\n    tag_4:\n      tag_25\n      tag_26\n      jump\t// in\n    tag_25:\n      mload(0x40)\n      dup1\n      dup3\n      0xffffffffffffffffffffffffffffffffffffffff\n      and\n      0xffffffffffffffffffffffffffffffffffffffff\n      and\n      dup2\n      mstore\n      0x20\n      add\n      swap2\n      pop\n      pop\n      mload(0x40)\n      dup1\n      swap2\n      sub\n      swap1\n      return\n        /* \"PlasmaManager.sol\":699:723  address[] public signers */\n    tag_5:\n      tag_27\n      0x04\n      dup1\n      calldatasize\n      sub\n        /* \"--CODEGEN--\":15:17   */\n      0x20\n        /* \"--CODEGEN--\":10:13   */\n      dup2\n        /* \"--CODEGEN--\":7:18   */\n      lt\n        /* \"--CODEGEN--\":4:6   */\n      iszero\n      tag_28\n      jumpi\n        /* \"--CODEGEN--\":31:32   */\n      0x00\n        /* \"--CODEGEN--\":28:29   */\n      dup1\n        /* \"--CODEGEN--\":21:33   */\n      revert\n        /* \"--CODEGEN--\":4:6   */\n    tag_28:\n        /* \"PlasmaManager.sol\":699:723  address[] public signers */\n      dup2\n      add\n      swap1\n      dup1\n      dup1\n      calldataload\n      swap1\n      0x20\n      add\n      swap1\n      swap3\n      swap2\n      swap1\n      pop\n      pop\n      pop\n      tag_29\n      jump\t// in\n    tag_27:\n      mload(0x40)\n      dup1\n      dup3\n      0xffffffffffffffffffffffffffffffffffffffff\n      and\n      0xffffffffffffffffffffffffffffffffffffffff\n      and\n      dup2\n      mstore\n      0x20\n      add\n      swap2\n      pop\n      pop\n      mload(0x40)\n      dup1\n      swap2\n      sub\n      swap1\n      return\n        /* \"PlasmaManager.sol\":7312:8060  function verifyMerkleProof(... */\n    tag_6:\n      tag_30\n      0x04\n      dup1\n      calldatasize\n      sub\n        /* \"--CODEGEN--\":15:18   */\n      0x80\n        /* \"--CODEGEN--\":10:13   */\n      dup2\n        /* \"--CODEGEN--\":7:19   */\n      lt\n        /* \"--CODEGEN--\":4:6   */\n      iszero\n      tag_31\n      jumpi\n        /* \"--CODEGEN--\":32:33   */\n      0x00\n        /* \"--CODEGEN--\":29:30   */\n      dup1\n        /* \"--CODEGEN--\":22:34   */\n      revert\n        /* \"--CODEGEN--\":4:6   */\n    tag_31:\n        /* \"PlasmaManager.sol\":7312:8060  function verifyMerkleProof(... */\n      dup2\n      add\n      swap1\n      dup1\n      dup1\n      calldataload\n      swap1\n      0x20\n      add\n      swap1\n      swap3\n      swap2\n      swap1\n      dup1\n      calldataload\n      swap1\n      0x20\n      add\n      swap1\n      swap3\n      swap2\n      swap1\n      dup1\n      calldataload\n      swap1\n      0x20\n      add\n      swap1\n      swap3\n      swap2\n      swap1\n      dup1\n      calldataload\n      swap1\n      0x20\n      add\n      swap1\n        /* \"--CODEGEN--\":27:38   */\n      0x0100000000\n        /* \"--CODEGEN--\":14:25   */\n      dup2\n        /* \"--CODEGEN--\":11:39   */\n      gt\n        /* \"--CODEGEN--\":8:10   */\n      iszero\n      tag_32\n      jumpi\n        /* \"--CODEGEN--\":52:53   */\n      0x00\n        /* \"--CODEGEN--\":49:50   */\n      dup1\n        /* \"--CODEGEN--\":42:54   */\n      revert\n        /* \"--CODEGEN--\":8:10   */\n    tag_32:\n        /* \"PlasmaManager.sol\":7312:8060  function verifyMerkleProof(... */\n      dup3\n      add\n        /* \"--CODEGEN--\":41:50   */\n      dup4\n        /* \"--CODEGEN--\":34:38   */\n      0x20\n        /* \"--CODEGEN--\":18:32   */\n      dup3\n        /* \"--CODEGEN--\":14:39   */\n      add\n        /* \"--CODEGEN--\":11:51   */\n      gt\n        /* \"--CODEGEN--\":8:10   */\n      iszero\n      tag_33\n      jumpi\n        /* \"--CODEGEN--\":64:65   */\n      0x00\n        /* \"--CODEGEN--\":61:62   */\n      dup1\n        /* \"--CODEGEN--\":54:66   */\n      revert\n        /* \"--CODEGEN--\":8:10   */\n    tag_33:\n        /* \"PlasmaManager.sol\":7312:8060  function verifyMerkleProof(... */\n      dup1\n      calldataload\n      swap1\n      0x20\n      add\n      swap2\n        /* \"--CODEGEN--\":100:109   */\n      dup5\n        /* \"--CODEGEN--\":95:96   */\n      0x01\n        /* \"--CODEGEN--\":81:93   */\n      dup4\n        /* \"--CODEGEN--\":77:97   */\n      mul\n        /* \"--CODEGEN--\":67:75   */\n      dup5\n        /* \"--CODEGEN--\":63:98   */\n      add\n        /* \"--CODEGEN--\":60:110   */\n      gt\n        /* \"--CODEGEN--\":39:50   */\n      0x0100000000\n        /* \"--CODEGEN--\":25:37   */\n      dup4\n        /* \"--CODEGEN--\":22:51   */\n      gt\n        /* \"--CODEGEN--\":11:118   */\n      or\n        /* \"--CODEGEN--\":8:10   */\n      iszero\n      tag_34\n      jumpi\n        /* \"--CODEGEN--\":131:132   */\n      0x00\n        /* \"--CODEGEN--\":128:129   */\n      dup1\n        /* \"--CODEGEN--\":121:133   */\n      revert\n        /* \"--CODEGEN--\":8:10   */\n    tag_34:\n        /* \"PlasmaManager.sol\":7312:8060  function verifyMerkleProof(... */\n      swap2\n      swap1\n      dup1\n      dup1\n      0x1f\n      add\n      0x20\n      dup1\n      swap2\n      div\n      mul\n      0x20\n      add\n      mload(0x40)\n      swap1\n      dup2\n      add\n      0x40\n      mstore\n      dup1\n      swap4\n      swap3\n      swap2\n      swap1\n      dup2\n      dup2\n      mstore\n      0x20\n      add\n      dup4\n      dup4\n        /* \"--CODEGEN--\":30:33   */\n      dup1\n        /* \"--CODEGEN--\":22:28   */\n      dup3\n        /* \"--CODEGEN--\":14:20   */\n      dup5\n        /* \"--CODEGEN--\":1:34   */\n      calldatacopy\n        /* \"--CODEGEN--\":99:100   */\n      0x00\n        /* \"--CODEGEN--\":93:96   */\n      dup2\n        /* \"--CODEGEN--\":85:91   */\n      dup5\n        /* \"--CODEGEN--\":81:97   */\n      add\n        /* \"--CODEGEN--\":74:101   */\n      mstore\n        /* \"--CODEGEN--\":137:141   */\n      0x1f\n        /* \"--CODEGEN--\":133:142   */\n      not\n        /* \"--CODEGEN--\":126:130   */\n      0x1f\n        /* \"--CODEGEN--\":121:124   */\n      dup3\n        /* \"--CODEGEN--\":117:131   */\n      add\n        /* \"--CODEGEN--\":113:143   */\n      and\n        /* \"--CODEGEN--\":106:143   */\n      swap1\n      pop\n        /* \"--CODEGEN--\":169:172   */\n      dup1\n        /* \"--CODEGEN--\":161:167   */\n      dup4\n        /* \"--CODEGEN--\":157:173   */\n      add\n        /* \"--CODEGEN--\":147:173   */\n      swap3\n      pop\n        /* \"PlasmaManager.sol\":7312:8060  function verifyMerkleProof(... */\n      pop\n      pop\n      pop\n      pop\n      pop\n      pop\n      swap2\n      swap3\n      swap2\n      swap3\n      swap1\n      pop\n      pop\n      pop\n      tag_35\n      jump\t// in\n    tag_30:\n      mload(0x40)\n      dup1\n      dup3\n      iszero\n      iszero\n      iszero\n      iszero\n      dup2\n      mstore\n      0x20\n      add\n      swap2\n      pop\n      pop\n      mload(0x40)\n      dup1\n      swap2\n      sub\n      swap1\n      return\n        /* \"PlasmaManager.sol\":2069:2157  function lastBunchIndex() public view returns (uint256) {... */\n    tag_7:\n      tag_36\n      tag_37\n      jump\t// in\n    tag_36:\n      mload(0x40)\n      dup1\n      dup3\n      dup2\n      mstore\n      0x20\n      add\n      swap2\n      pop\n      pop\n      mload(0x40)\n      dup1\n      swap2\n      sub\n      swap1\n      return\n        /* \"PlasmaManager.sol\":668:695  address[] public validators */\n    tag_8:\n      tag_38\n      0x04\n      dup1\n      calldatasize\n      sub\n        /* \"--CODEGEN--\":15:17   */\n      0x20\n        /* \"--CODEGEN--\":10:13   */\n      dup2\n        /* \"--CODEGEN--\":7:18   */\n      lt\n        /* \"--CODEGEN--\":4:6   */\n      iszero\n      tag_39\n      jumpi\n        /* \"--CODEGEN--\":31:32   */\n      0x00\n        /* \"--CODEGEN--\":28:29   */\n      dup1\n        /* \"--CODEGEN--\":21:33   */\n      revert\n        /* \"--CODEGEN--\":4:6   */\n    tag_39:\n        /* \"PlasmaManager.sol\":668:695  address[] public validators */\n      dup2\n      add\n      swap1\n      dup1\n      dup1\n      calldataload\n      swap1\n      0x20\n      add\n      swap1\n      swap3\n      swap2\n      swap1\n      pop\n      pop\n      pop\n      tag_40\n      jump\t// in\n    tag_38:\n      mload(0x40)\n      dup1\n      dup3\n      0xffffffffffffffffffffffffffffffffffffffff\n      and\n      0xffffffffffffffffffffffffffffffffffffffff\n      and\n      dup2\n      mstore\n      0x20\n      add\n      swap2\n      pop\n      pop\n      mload(0x40)\n      dup1\n      swap2\n      sub\n      swap1\n      return\n        /* \"PlasmaManager.sol\":6120:7308  function parseTransaction(bytes memory _rawTx) public pure returns (address, address, uint256, uint256) {... */\n    tag_9:\n      tag_41\n      0x04\n      dup1\n      calldatasize\n      sub\n        /* \"--CODEGEN--\":15:17   */\n      0x20\n        /* \"--CODEGEN--\":10:13   */\n      dup2\n        /* \"--CODEGEN--\":7:18   */\n      lt\n        /* \"--CODEGEN--\":4:6   */\n      iszero\n      tag_42\n      jumpi\n        /* \"--CODEGEN--\":31:32   */\n      0x00\n        /* \"--CODEGEN--\":28:29   */\n      dup1\n        /* \"--CODEGEN--\":21:33   */\n      revert\n        /* \"--CODEGEN--\":4:6   */\n    tag_42:\n        /* \"PlasmaManager.sol\":6120:7308  function parseTransaction(bytes memory _rawTx) public pure returns (address, address, uint256, uint256) {... */\n      dup2\n      add\n      swap1\n      dup1\n      dup1\n      calldataload\n      swap1\n      0x20\n      add\n      swap1\n        /* \"--CODEGEN--\":27:38   */\n      0x0100000000\n        /* \"--CODEGEN--\":14:25   */\n      dup2\n        /* \"--CODEGEN--\":11:39   */\n      gt\n        /* \"--CODEGEN--\":8:10   */\n      iszero\n      tag_43\n      jumpi\n        /* \"--CODEGEN--\":52:53   */\n      0x00\n        /* \"--CODEGEN--\":49:50   */\n      dup1\n        /* \"--CODEGEN--\":42:54   */\n      revert\n        /* \"--CODEGEN--\":8:10   */\n    tag_43:\n        /* \"PlasmaManager.sol\":6120:7308  function parseTransaction(bytes memory _rawTx) public pure returns (address, address, uint256, uint256) {... */\n      dup3\n      add\n        /* \"--CODEGEN--\":41:50   */\n      dup4\n        /* \"--CODEGEN--\":34:38   */\n      0x20\n        /* \"--CODEGEN--\":18:32   */\n      dup3\n        /* \"--CODEGEN--\":14:39   */\n      add\n        /* \"--CODEGEN--\":11:51   */\n      gt\n        /* \"--CODEGEN--\":8:10   */\n      iszero\n      tag_44\n      jumpi\n        /* \"--CODEGEN--\":64:65   */\n      0x00\n        /* \"--CODEGEN--\":61:62   */\n      dup1\n        /* \"--CODEGEN--\":54:66   */\n      revert\n        /* \"--CODEGEN--\":8:10   */\n    tag_44:\n        /* \"PlasmaManager.sol\":6120:7308  function parseTransaction(bytes memory _rawTx) public pure returns (address, address, uint256, uint256) {... */\n      dup1\n      calldataload\n      swap1\n      0x20\n      add\n      swap2\n        /* \"--CODEGEN--\":100:109   */\n      dup5\n        /* \"--CODEGEN--\":95:96   */\n      0x01\n        /* \"--CODEGEN--\":81:93   */\n      dup4\n        /* \"--CODEGEN--\":77:97   */\n      mul\n        /* \"--CODEGEN--\":67:75   */\n      dup5\n        /* \"--CODEGEN--\":63:98   */\n      add\n        /* \"--CODEGEN--\":60:110   */\n      gt\n        /* \"--CODEGEN--\":39:50   */\n      0x0100000000\n        /* \"--CODEGEN--\":25:37   */\n      dup4\n        /* \"--CODEGEN--\":22:51   */\n      gt\n        /* \"--CODEGEN--\":11:118   */\n      or\n        /* \"--CODEGEN--\":8:10   */\n      iszero\n      tag_45\n      jumpi\n        /* \"--CODEGEN--\":131:132   */\n      0x00\n        /* \"--CODEGEN--\":128:129   */\n      dup1\n        /* \"--CODEGEN--\":121:133   */\n      revert\n        /* \"--CODEGEN--\":8:10   */\n    tag_45:\n        /* \"PlasmaManager.sol\":6120:7308  function parseTransaction(bytes memory _rawTx) public pure returns (address, address, uint256, uint256) {... */\n      swap2\n      swap1\n      dup1\n      dup1\n      0x1f\n      add\n      0x20\n      dup1\n      swap2\n      div\n      mul\n      0x20\n      add\n      mload(0x40)\n      swap1\n      dup2\n      add\n      0x40\n      mstore\n      dup1\n      swap4\n      swap3\n      swap2\n      swap1\n      dup2\n      dup2\n      mstore\n      0x20\n      add\n      dup4\n      dup4\n        /* \"--CODEGEN--\":30:33   */\n      dup1\n        /* \"--CODEGEN--\":22:28   */\n      dup3\n        /* \"--CODEGEN--\":14:20   */\n      dup5\n        /* \"--CODEGEN--\":1:34   */\n      calldatacopy\n        /* \"--CODEGEN--\":99:100   */\n      0x00\n        /* \"--CODEGEN--\":93:96   */\n      dup2\n        /* \"--CODEGEN--\":85:91   */\n      dup5\n        /* \"--CODEGEN--\":81:97   */\n      add\n        /* \"--CODEGEN--\":74:101   */\n      mstore\n        /* \"--CODEGEN--\":137:141   */\n      0x1f\n        /* \"--CODEGEN--\":133:142   */\n      not\n        /* \"--CODEGEN--\":126:130   */\n      0x1f\n        /* \"--CODEGEN--\":121:124   */\n      dup3\n        /* \"--CODEGEN--\":117:131   */\n      add\n        /* \"--CODEGEN--\":113:143   */\n      and\n        /* \"--CODEGEN--\":106:143   */\n      swap1\n      pop\n        /* \"--CODEGEN--\":169:172   */\n      dup1\n        /* \"--CODEGEN--\":161:167   */\n      dup4\n        /* \"--CODEGEN--\":157:173   */\n      add\n        /* \"--CODEGEN--\":147:173   */\n      swap3\n      pop\n        /* \"PlasmaManager.sol\":6120:7308  function parseTransaction(bytes memory _rawTx) public pure returns (address, address, uint256, uint256) {... */\n      pop\n      pop\n      pop\n      pop\n      pop\n      pop\n      swap2\n      swap3\n      swap2\n      swap3\n      swap1\n      pop\n      pop\n      pop\n      tag_46\n      jump\t// in\n    tag_41:\n      mload(0x40)\n      dup1\n      dup6\n      0xffffffffffffffffffffffffffffffffffffffff\n      and\n      0xffffffffffffffffffffffffffffffffffffffff\n      and\n      dup2\n      mstore\n      0x20\n      add\n      dup5\n      0xffffffffffffffffffffffffffffffffffffffff\n      and\n      0xffffffffffffffffffffffffffffffffffffffff\n      and\n      dup2\n      mstore\n      0x20\n      add\n      dup4\n      dup2\n      mstore\n      0x20\n      add\n      dup3\n      dup2\n      mstore\n      0x20\n      add\n      swap5\n      pop\n      pop\n      pop\n      pop\n      pop\n      mload(0x40)\n      dup1\n      swap2\n      sub\n      swap1\n      return\n        /* \"PlasmaManager.sol\":727:755  BunchHeader[] public bunches */\n    tag_10:\n      tag_47\n      0x04\n      dup1\n      calldatasize\n      sub\n        /* \"--CODEGEN--\":15:17   */\n      0x20\n        /* \"--CODEGEN--\":10:13   */\n      dup2\n        /* \"--CODEGEN--\":7:18   */\n      lt\n        /* \"--CODEGEN--\":4:6   */\n      iszero\n      tag_48\n      jumpi\n        /* \"--CODEGEN--\":31:32   */\n      0x00\n        /* \"--CODEGEN--\":28:29   */\n      dup1\n        /* \"--CODEGEN--\":21:33   */\n      revert\n        /* \"--CODEGEN--\":4:6   */\n    tag_48:\n        /* \"PlasmaManager.sol\":727:755  BunchHeader[] public bunches */\n      dup2\n      add\n      swap1\n      dup1\n      dup1\n      calldataload\n      swap1\n      0x20\n      add\n      swap1\n      swap3\n      swap2\n      swap1\n      pop\n      pop\n      pop\n      tag_49\n      jump\t// in\n    tag_47:\n      mload(0x40)\n      dup1\n      dup6\n      dup2\n      mstore\n      0x20\n      add\n      dup5\n      dup2\n      mstore\n      0x20\n      add\n      dup4\n      dup2\n      mstore\n      0x20\n      add\n      dup3\n      dup2\n      mstore\n      0x20\n      add\n      swap5\n      pop\n      pop\n      pop\n      pop\n      pop\n      mload(0x40)\n      dup1\n      swap2\n      sub\n      swap1\n      return\n        /* \"PlasmaManager.sol\":2279:4184  function submitBunchHeader(bytes memory _signedHeader) public {... */\n    tag_11:\n      tag_50\n      0x04\n      dup1\n      calldatasize\n      sub\n        /* \"--CODEGEN--\":15:17   */\n      0x20\n        /* \"--CODEGEN--\":10:13   */\n      dup2\n        /* \"--CODEGEN--\":7:18   */\n      lt\n        /* \"--CODEGEN--\":4:6   */\n      iszero\n      tag_51\n      jumpi\n        /* \"--CODEGEN--\":31:32   */\n      0x00\n        /* \"--CODEGEN--\":28:29   */\n      dup1\n        /* \"--CODEGEN--\":21:33   */\n      revert\n        /* \"--CODEGEN--\":4:6   */\n    tag_51:\n        /* \"PlasmaManager.sol\":2279:4184  function submitBunchHeader(bytes memory _signedHeader) public {... */\n      dup2\n      add\n      swap1\n      dup1\n      dup1\n      calldataload\n      swap1\n      0x20\n      add\n      swap1\n        /* \"--CODEGEN--\":27:38   */\n      0x0100000000\n        /* \"--CODEGEN--\":14:25   */\n      dup2\n        /* \"--CODEGEN--\":11:39   */\n      gt\n        /* \"--CODEGEN--\":8:10   */\n      iszero\n      tag_52\n      jumpi\n        /* \"--CODEGEN--\":52:53   */\n      0x00\n        /* \"--CODEGEN--\":49:50   */\n      dup1\n        /* \"--CODEGEN--\":42:54   */\n      revert\n        /* \"--CODEGEN--\":8:10   */\n    tag_52:\n        /* \"PlasmaManager.sol\":2279:4184  function submitBunchHeader(bytes memory _signedHeader) public {... */\n      dup3\n      add\n        /* \"--CODEGEN--\":41:50   */\n      dup4\n        /* \"--CODEGEN--\":34:38   */\n      0x20\n        /* \"--CODEGEN--\":18:32   */\n      dup3\n        /* \"--CODEGEN--\":14:39   */\n      add\n        /* \"--CODEGEN--\":11:51   */\n      gt\n        /* \"--CODEGEN--\":8:10   */\n      iszero\n      tag_53\n      jumpi\n        /* \"--CODEGEN--\":64:65   */\n      0x00\n        /* \"--CODEGEN--\":61:62   */\n      dup1\n        /* \"--CODEGEN--\":54:66   */\n      revert\n        /* \"--CODEGEN--\":8:10   */\n    tag_53:\n        /* \"PlasmaManager.sol\":2279:4184  function submitBunchHeader(bytes memory _signedHeader) public {... */\n      dup1\n      calldataload\n      swap1\n      0x20\n      add\n      swap2\n        /* \"--CODEGEN--\":100:109   */\n      dup5\n        /* \"--CODEGEN--\":95:96   */\n      0x01\n        /* \"--CODEGEN--\":81:93   */\n      dup4\n        /* \"--CODEGEN--\":77:97   */\n      mul\n        /* \"--CODEGEN--\":67:75   */\n      dup5\n        /* \"--CODEGEN--\":63:98   */\n      add\n        /* \"--CODEGEN--\":60:110   */\n      gt\n        /* \"--CODEGEN--\":39:50   */\n      0x0100000000\n        /* \"--CODEGEN--\":25:37   */\n      dup4\n        /* \"--CODEGEN--\":22:51   */\n      gt\n        /* \"--CODEGEN--\":11:118   */\n      or\n        /* \"--CODEGEN--\":8:10   */\n      iszero\n      tag_54\n      jumpi\n        /* \"--CODEGEN--\":131:132   */\n      0x00\n        /* \"--CODEGEN--\":128:129   */\n      dup1\n        /* \"--CODEGEN--\":121:133   */\n      revert\n        /* \"--CODEGEN--\":8:10   */\n    tag_54:\n        /* \"PlasmaManager.sol\":2279:4184  function submitBunchHeader(bytes memory _signedHeader) public {... */\n      swap2\n      swap1\n      dup1\n      dup1\n      0x1f\n      add\n      0x20\n      dup1\n      swap2\n      div\n      mul\n      0x20\n      add\n      mload(0x40)\n      swap1\n      dup2\n      add\n      0x40\n      mstore\n      dup1\n      swap4\n      swap3\n      swap2\n      swap1\n      dup2\n      dup2\n      mstore\n      0x20\n      add\n      dup4\n      dup4\n        /* \"--CODEGEN--\":30:33   */\n      dup1\n        /* \"--CODEGEN--\":22:28   */\n      dup3\n        /* \"--CODEGEN--\":14:20   */\n      dup5\n        /* \"--CODEGEN--\":1:34   */\n      calldatacopy\n        /* \"--CODEGEN--\":99:100   */\n      0x00\n        /* \"--CODEGEN--\":93:96   */\n      dup2\n        /* \"--CODEGEN--\":85:91   */\n      dup5\n        /* \"--CODEGEN--\":81:97   */\n      add\n        /* \"--CODEGEN--\":74:101   */\n      mstore\n        /* \"--CODEGEN--\":137:141   */\n      0x1f\n        /* \"--CODEGEN--\":133:142   */\n      not\n        /* \"--CODEGEN--\":126:130   */\n      0x1f\n        /* \"--CODEGEN--\":121:124   */\n      dup3\n        /* \"--CODEGEN--\":117:131   */\n      add\n        /* \"--CODEGEN--\":113:143   */\n      and\n        /* \"--CODEGEN--\":106:143   */\n      swap1\n      pop\n        /* \"--CODEGEN--\":169:172   */\n      dup1\n        /* \"--CODEGEN--\":161:167   */\n      dup4\n        /* \"--CODEGEN--\":157:173   */\n      add\n        /* \"--CODEGEN--\":147:173   */\n      swap3\n      pop\n        /* \"PlasmaManager.sol\":2279:4184  function submitBunchHeader(bytes memory _signedHeader) public {... */\n      pop\n      pop\n      pop\n      pop\n      pop\n      pop\n      swap2\n      swap3\n      swap2\n      swap3\n      swap1\n      pop\n      pop\n      pop\n      tag_55\n      jump\t// in\n    tag_50:\n      stop\n        /* \"PlasmaManager.sol\":2161:2275  function setESNDepositAddress(address _esnDepositAddress) public {... */\n    tag_12:\n      tag_56\n      0x04\n      dup1\n      calldatasize\n      sub\n        /* \"--CODEGEN--\":15:17   */\n      0x20\n        /* \"--CODEGEN--\":10:13   */\n      dup2\n        /* \"--CODEGEN--\":7:18   */\n      lt\n        /* \"--CODEGEN--\":4:6   */\n      iszero\n      tag_57\n      jumpi\n        /* \"--CODEGEN--\":31:32   */\n      0x00\n        /* \"--CODEGEN--\":28:29   */\n      dup1\n        /* \"--CODEGEN--\":21:33   */\n      revert\n        /* \"--CODEGEN--\":4:6   */\n    tag_57:\n        /* \"PlasmaManager.sol\":2161:2275  function setESNDepositAddress(address _esnDepositAddress) public {... */\n      dup2\n      add\n      swap1\n      dup1\n      dup1\n      calldataload\n      0xffffffffffffffffffffffffffffffffffffffff\n      and\n      swap1\n      0x20\n      add\n      swap1\n      swap3\n      swap2\n      swap1\n      pop\n      pop\n      pop\n      tag_58\n      jump\t// in\n    tag_56:\n      stop\n        /* \"PlasmaManager.sol\":612:664  mapping(bytes32 => bool) public processedWithdrawals */\n    tag_13:\n      tag_59\n      0x04\n      dup1\n      calldatasize\n      sub\n        /* \"--CODEGEN--\":15:17   */\n      0x20\n        /* \"--CODEGEN--\":10:13   */\n      dup2\n        /* \"--CODEGEN--\":7:18   */\n      lt\n        /* \"--CODEGEN--\":4:6   */\n      iszero\n      tag_60\n      jumpi\n        /* \"--CODEGEN--\":31:32   */\n      0x00\n        /* \"--CODEGEN--\":28:29   */\n      dup1\n        /* \"--CODEGEN--\":21:33   */\n      revert\n        /* \"--CODEGEN--\":4:6   */\n    tag_60:\n        /* \"PlasmaManager.sol\":612:664  mapping(bytes32 => bool) public processedWithdrawals */\n      dup2\n      add\n      swap1\n      dup1\n      dup1\n      calldataload\n      swap1\n      0x20\n      add\n      swap1\n      swap3\n      swap2\n      swap1\n      pop\n      pop\n      pop\n      tag_61\n      jump\t// in\n    tag_59:\n      mload(0x40)\n      dup1\n      dup3\n      iszero\n      iszero\n      iszero\n      iszero\n      dup2\n      mstore\n      0x20\n      add\n      swap2\n      pop\n      pop\n      mload(0x40)\n      dup1\n      swap2\n      sub\n      swap1\n      return\n        /* \"PlasmaManager.sol\":4188:6116  function claimWithdrawal(... */\n    tag_14:\n      tag_62\n      0x04\n      dup1\n      calldatasize\n      sub\n        /* \"--CODEGEN--\":15:17   */\n      0x20\n        /* \"--CODEGEN--\":10:13   */\n      dup2\n        /* \"--CODEGEN--\":7:18   */\n      lt\n        /* \"--CODEGEN--\":4:6   */\n      iszero\n      tag_63\n      jumpi\n        /* \"--CODEGEN--\":31:32   */\n      0x00\n        /* \"--CODEGEN--\":28:29   */\n      dup1\n        /* \"--CODEGEN--\":21:33   */\n      revert\n        /* \"--CODEGEN--\":4:6   */\n    tag_63:\n        /* \"PlasmaManager.sol\":4188:6116  function claimWithdrawal(... */\n      dup2\n      add\n      swap1\n      dup1\n      dup1\n      calldataload\n      swap1\n      0x20\n      add\n      swap1\n        /* \"--CODEGEN--\":27:38   */\n      0x0100000000\n        /* \"--CODEGEN--\":14:25   */\n      dup2\n        /* \"--CODEGEN--\":11:39   */\n      gt\n        /* \"--CODEGEN--\":8:10   */\n      iszero\n      tag_64\n      jumpi\n        /* \"--CODEGEN--\":52:53   */\n      0x00\n        /* \"--CODEGEN--\":49:50   */\n      dup1\n        /* \"--CODEGEN--\":42:54   */\n      revert\n        /* \"--CODEGEN--\":8:10   */\n    tag_64:\n        /* \"PlasmaManager.sol\":4188:6116  function claimWithdrawal(... */\n      dup3\n      add\n        /* \"--CODEGEN--\":41:50   */\n      dup4\n        /* \"--CODEGEN--\":34:38   */\n      0x20\n        /* \"--CODEGEN--\":18:32   */\n      dup3\n        /* \"--CODEGEN--\":14:39   */\n      add\n        /* \"--CODEGEN--\":11:51   */\n      gt\n        /* \"--CODEGEN--\":8:10   */\n      iszero\n      tag_65\n      jumpi\n        /* \"--CODEGEN--\":64:65   */\n      0x00\n        /* \"--CODEGEN--\":61:62   */\n      dup1\n        /* \"--CODEGEN--\":54:66   */\n      revert\n        /* \"--CODEGEN--\":8:10   */\n    tag_65:\n        /* \"PlasmaManager.sol\":4188:6116  function claimWithdrawal(... */\n      dup1\n      calldataload\n      swap1\n      0x20\n      add\n      swap2\n        /* \"--CODEGEN--\":100:109   */\n      dup5\n        /* \"--CODEGEN--\":95:96   */\n      0x01\n        /* \"--CODEGEN--\":81:93   */\n      dup4\n        /* \"--CODEGEN--\":77:97   */\n      mul\n        /* \"--CODEGEN--\":67:75   */\n      dup5\n        /* \"--CODEGEN--\":63:98   */\n      add\n        /* \"--CODEGEN--\":60:110   */\n      gt\n        /* \"--CODEGEN--\":39:50   */\n      0x0100000000\n        /* \"--CODEGEN--\":25:37   */\n      dup4\n        /* \"--CODEGEN--\":22:51   */\n      gt\n        /* \"--CODEGEN--\":11:118   */\n      or\n        /* \"--CODEGEN--\":8:10   */\n      iszero\n      tag_66\n      jumpi\n        /* \"--CODEGEN--\":131:132   */\n      0x00\n        /* \"--CODEGEN--\":128:129   */\n      dup1\n        /* \"--CODEGEN--\":121:133   */\n      revert\n        /* \"--CODEGEN--\":8:10   */\n    tag_66:\n        /* \"PlasmaManager.sol\":4188:6116  function claimWithdrawal(... */\n      swap2\n      swap1\n      dup1\n      dup1\n      0x1f\n      add\n      0x20\n      dup1\n      swap2\n      div\n      mul\n      0x20\n      add\n      mload(0x40)\n      swap1\n      dup2\n      add\n      0x40\n      mstore\n      dup1\n      swap4\n      swap3\n      swap2\n      swap1\n      dup2\n      dup2\n      mstore\n      0x20\n      add\n      dup4\n      dup4\n        /* \"--CODEGEN--\":30:33   */\n      dup1\n        /* \"--CODEGEN--\":22:28   */\n      dup3\n        /* \"--CODEGEN--\":14:20   */\n      dup5\n        /* \"--CODEGEN--\":1:34   */\n      calldatacopy\n        /* \"--CODEGEN--\":99:100   */\n      0x00\n        /* \"--CODEGEN--\":93:96   */\n      dup2\n        /* \"--CODEGEN--\":85:91   */\n      dup5\n        /* \"--CODEGEN--\":81:97   */\n      add\n        /* \"--CODEGEN--\":74:101   */\n      mstore\n        /* \"--CODEGEN--\":137:141   */\n      0x1f\n        /* \"--CODEGEN--\":133:142   */\n      not\n        /* \"--CODEGEN--\":126:130   */\n      0x1f\n        /* \"--CODEGEN--\":121:124   */\n      dup3\n        /* \"--CODEGEN--\":117:131   */\n      add\n        /* \"--CODEGEN--\":113:143   */\n      and\n        /* \"--CODEGEN--\":106:143   */\n      swap1\n      pop\n        /* \"--CODEGEN--\":169:172   */\n      dup1\n        /* \"--CODEGEN--\":161:167   */\n      dup4\n        /* \"--CODEGEN--\":157:173   */\n      add\n        /* \"--CODEGEN--\":147:173   */\n      swap3\n      pop\n        /* \"PlasmaManager.sol\":4188:6116  function claimWithdrawal(... */\n      pop\n      pop\n      pop\n      pop\n      pop\n      pop\n      swap2\n      swap3\n      swap2\n      swap3\n      swap1\n      pop\n      pop\n      pop\n      tag_67\n      jump\t// in\n    tag_62:\n      stop\n        /* \"PlasmaManager.sol\":1976:2065  function getAllSigners() public view returns (address[] memory) {... */\n    tag_15:\n      tag_68\n      tag_69\n      jump\t// in\n    tag_68:\n      mload(0x40)\n      dup1\n      dup1\n      0x20\n      add\n      dup3\n      dup2\n      sub\n      dup3\n      mstore\n      dup4\n      dup2\n      dup2\n      mload\n      dup2\n      mstore\n      0x20\n      add\n      swap2\n      pop\n      dup1\n      mload\n      swap1\n      0x20\n      add\n      swap1\n      0x20\n      mul\n      dup1\n      dup4\n      dup4\n        /* \"--CODEGEN--\":23:24   */\n      0x00\n        /* \"--CODEGEN--\":8:108   */\n    tag_70:\n        /* \"--CODEGEN--\":33:36   */\n      dup4\n        /* \"--CODEGEN--\":30:31   */\n      dup2\n        /* \"--CODEGEN--\":27:37   */\n      lt\n        /* \"--CODEGEN--\":8:108   */\n      iszero\n      tag_72\n      jumpi\n        /* \"--CODEGEN--\":99:100   */\n      dup1\n        /* \"--CODEGEN--\":94:97   */\n      dup3\n        /* \"--CODEGEN--\":90:101   */\n      add\n        /* \"--CODEGEN--\":84:102   */\n      mload\n        /* \"--CODEGEN--\":80:81   */\n      dup2\n        /* \"--CODEGEN--\":75:78   */\n      dup5\n        /* \"--CODEGEN--\":71:82   */\n      add\n        /* \"--CODEGEN--\":64:103   */\n      mstore\n        /* \"--CODEGEN--\":52:54   */\n      0x20\n        /* \"--CODEGEN--\":49:50   */\n      dup2\n        /* \"--CODEGEN--\":45:55   */\n      add\n        /* \"--CODEGEN--\":40:55   */\n      swap1\n      pop\n        /* \"--CODEGEN--\":8:108   */\n      jump(tag_70)\n    tag_72:\n        /* \"--CODEGEN--\":12:26   */\n      pop\n        /* \"PlasmaManager.sol\":1976:2065  function getAllSigners() public view returns (address[] memory) {... */\n      pop\n      pop\n      pop\n      swap1\n      pop\n      add\n      swap3\n      pop\n      pop\n      pop\n      mload(0x40)\n      dup1\n      swap2\n      sub\n      swap1\n      return\n        /* \"PlasmaManager.sol\":528:561  uint256 public numberOfValidators */\n    tag_16:\n      tag_73\n      tag_74\n      jump\t// in\n    tag_73:\n      mload(0x40)\n      dup1\n      dup3\n      dup2\n      mstore\n      0x20\n      add\n      swap2\n      pop\n      pop\n      mload(0x40)\n      dup1\n      swap2\n      sub\n      swap1\n      return\n        /* \"PlasmaManager.sol\":1877:1972  function getAllValidators() public view returns (address[] memory) {... */\n    tag_17:\n      tag_75\n      tag_76\n      jump\t// in\n    tag_75:\n      mload(0x40)\n      dup1\n      dup1\n      0x20\n      add\n      dup3\n      dup2\n      sub\n      dup3\n      mstore\n      dup4\n      dup2\n      dup2\n      mload\n      dup2\n      mstore\n      0x20\n      add\n      swap2\n      pop\n      dup1\n      mload\n      swap1\n      0x20\n      add\n      swap1\n      0x20\n      mul\n      dup1\n      dup4\n      dup4\n        /* \"--CODEGEN--\":23:24   */\n      0x00\n        /* \"--CODEGEN--\":8:108   */\n    tag_77:\n        /* \"--CODEGEN--\":33:36   */\n      dup4\n        /* \"--CODEGEN--\":30:31   */\n      dup2\n        /* \"--CODEGEN--\":27:37   */\n      lt\n        /* \"--CODEGEN--\":8:108   */\n      iszero\n      tag_79\n      jumpi\n        /* \"--CODEGEN--\":99:100   */\n      dup1\n        /* \"--CODEGEN--\":94:97   */\n      dup3\n        /* \"--CODEGEN--\":90:101   */\n      add\n        /* \"--CODEGEN--\":84:102   */\n      mload\n        /* \"--CODEGEN--\":80:81   */\n      dup2\n        /* \"--CODEGEN--\":75:78   */\n      dup5\n        /* \"--CODEGEN--\":71:82   */\n      add\n        /* \"--CODEGEN--\":64:103   */\n      mstore\n        /* \"--CODEGEN--\":52:54   */\n      0x20\n        /* \"--CODEGEN--\":49:50   */\n      dup2\n        /* \"--CODEGEN--\":45:55   */\n      add\n        /* \"--CODEGEN--\":40:55   */\n      swap1\n      pop\n        /* \"--CODEGEN--\":8:108   */\n      jump(tag_77)\n    tag_79:\n        /* \"--CODEGEN--\":12:26   */\n      pop\n        /* \"PlasmaManager.sol\":1877:1972  function getAllValidators() public view returns (address[] memory) {... */\n      pop\n      pop\n      pop\n      swap1\n      pop\n      add\n      swap3\n      pop\n      pop\n      pop\n      mload(0x40)\n      dup1\n      swap2\n      sub\n      swap1\n      return\n        /* \"PlasmaManager.sol\":565:608  mapping(address => bool) public isValidator */\n    tag_18:\n      tag_80\n      0x04\n      dup1\n      calldatasize\n      sub\n        /* \"--CODEGEN--\":15:17   */\n      0x20\n        /* \"--CODEGEN--\":10:13   */\n      dup2\n        /* \"--CODEGEN--\":7:18   */\n      lt\n        /* \"--CODEGEN--\":4:6   */\n      iszero\n      tag_81\n      jumpi\n        /* \"--CODEGEN--\":31:32   */\n      0x00\n        /* \"--CODEGEN--\":28:29   */\n      dup1\n        /* \"--CODEGEN--\":21:33   */\n      revert\n        /* \"--CODEGEN--\":4:6   */\n    tag_81:\n        /* \"PlasmaManager.sol\":565:608  mapping(address => bool) public isValidator */\n      dup2\n      add\n      swap1\n      dup1\n      dup1\n      calldataload\n      0xffffffffffffffffffffffffffffffffffffffff\n      and\n      swap1\n      0x20\n      add\n      swap1\n      swap3\n      swap2\n      swap1\n      pop\n      pop\n      pop\n      tag_82\n      jump\t// in\n    tag_80:\n      mload(0x40)\n      dup1\n      dup3\n      iszero\n      iszero\n      iszero\n      iszero\n      dup2\n      mstore\n      0x20\n      add\n      swap2\n      pop\n      pop\n      mload(0x40)\n      dup1\n      swap2\n      sub\n      swap1\n      return\n        /* \"PlasmaManager.sol\":929:947  ERC20 public token */\n    tag_19:\n      tag_83\n      tag_84\n      jump\t// in\n    tag_83:\n      mload(0x40)\n      dup1\n      dup3\n      0xffffffffffffffffffffffffffffffffffffffff\n      and\n      0xffffffffffffffffffffffffffffffffffffffff\n      and\n      dup2\n      mstore\n      0x20\n      add\n      swap2\n      pop\n      pop\n      mload(0x40)\n      dup1\n      swap2\n      sub\n      swap1\n      return\n        /* \"PlasmaManager.sol\":1077:1095  uint8 public zemse */\n    tag_24:\n      0x07\n      0x14\n      swap1\n      sload\n      swap1\n      0x0100\n      exp\n      swap1\n      div\n      0xff\n      and\n      dup2\n      jump\t// out\n        /* \"PlasmaManager.sol\":1040:1072  address public esnDepositAddress */\n    tag_26:\n      0x07\n      0x00\n      swap1\n      sload\n      swap1\n      0x0100\n      exp\n      swap1\n      div\n      0xffffffffffffffffffffffffffffffffffffffff\n      and\n      dup2\n      jump\t// out\n        /* \"PlasmaManager.sol\":699:723  address[] public signers */\n    tag_29:\n      0x04\n      dup2\n      dup2\n      sload\n      dup2\n      lt\n      tag_85\n      jumpi\n      invalid\n    tag_85:\n      swap1\n      0x00\n      mstore\n      keccak256(0x00, 0x20)\n      add\n      0x00\n      swap2\n      pop\n      sload\n      swap1\n      0x0100\n      exp\n      swap1\n      div\n      0xffffffffffffffffffffffffffffffffffffffff\n      and\n      dup2\n      jump\t// out\n        /* \"PlasmaManager.sol\":7312:8060  function verifyMerkleProof(... */\n    tag_35:\n        /* \"PlasmaManager.sol\":7451:7455  bool */\n      0x00\n        /* \"PlasmaManager.sol\":7463:7483  bytes32 proofElement */\n      dup1\n        /* \"PlasmaManager.sol\":7489:7509  bytes32 computedHash */\n      0x00\n        /* \"PlasmaManager.sol\":7512:7516  leaf */\n      dup7\n        /* \"PlasmaManager.sol\":7489:7516  bytes32 computedHash = leaf */\n      swap1\n      pop\n        /* \"PlasmaManager.sol\":7551:7552  0 */\n      0x00\n        /* \"PlasmaManager.sol\":7545:7547  32 */\n      0x20\n        /* \"PlasmaManager.sol\":7530:7535  proof */\n      dup6\n        /* \"PlasmaManager.sol\":7530:7542  proof.length */\n      mload\n        /* \"PlasmaManager.sol\":7530:7547  proof.length % 32 */\n      dup2\n      tag_88\n      jumpi\n      invalid\n    tag_88:\n      mod\n        /* \"PlasmaManager.sol\":7530:7552  proof.length % 32 == 0 */\n      eq\n        /* \"PlasmaManager.sol\":7522:7577  require(proof.length % 32 == 0, \"Invalid proof length\") */\n      tag_89\n      jumpi\n      mload(0x40)\n      0x08c379a000000000000000000000000000000000000000000000000000000000\n      dup2\n      mstore\n      0x04\n      add\n      dup1\n      dup1\n      0x20\n      add\n      dup3\n      dup2\n      sub\n      dup3\n      mstore\n      0x14\n      dup2\n      mstore\n      0x20\n      add\n      dup1\n      0x496e76616c69642070726f6f66206c656e677468000000000000000000000000\n      dup2\n      mstore\n      pop\n      0x20\n      add\n      swap2\n      pop\n      pop\n      mload(0x40)\n      dup1\n      swap2\n      sub\n      swap1\n      revert\n    tag_89:\n        /* \"PlasmaManager.sol\":7584:7597  uint256 index */\n      0x00\n        /* \"PlasmaManager.sol\":7600:7609  mainIndex */\n      dup7\n        /* \"PlasmaManager.sol\":7584:7609  uint256 index = mainIndex */\n      swap1\n      pop\n        /* \"PlasmaManager.sol\":7620:7629  uint256 i */\n      0x00\n        /* \"PlasmaManager.sol\":7632:7634  32 */\n      0x20\n        /* \"PlasmaManager.sol\":7620:7634  uint256 i = 32 */\n      swap1\n      pop\n        /* \"PlasmaManager.sol\":7615:8019  for (uint256 i = 32; i <= proof.length; i += 32) {... */\n    tag_90:\n        /* \"PlasmaManager.sol\":7641:7646  proof */\n      dup6\n        /* \"PlasmaManager.sol\":7641:7653  proof.length */\n      mload\n        /* \"PlasmaManager.sol\":7636:7637  i */\n      dup2\n        /* \"PlasmaManager.sol\":7636:7653  i <= proof.length */\n      gt\n        /* \"PlasmaManager.sol\":7615:8019  for (uint256 i = 32; i <= proof.length; i += 32) {... */\n      tag_91\n      jumpi\n        /* \"PlasmaManager.sol\":7724:7725  i */\n      dup1\n        /* \"PlasmaManager.sol\":7717:7722  proof */\n      dup7\n        /* \"PlasmaManager.sol\":7713:7726  add(proof, i) */\n      add\n        /* \"PlasmaManager.sol\":7707:7727  mload(add(proof, i)) */\n      mload\n        /* \"PlasmaManager.sol\":7691:7727  proofElement := mload(add(proof, i)) */\n      swap4\n      pop\n        /* \"PlasmaManager.sol\":7760:7761  0 */\n      0x00\n        /* \"PlasmaManager.sol\":7755:7756  2 */\n      0x02\n        /* \"PlasmaManager.sol\":7747:7752  index */\n      dup4\n        /* \"PlasmaManager.sol\":7747:7756  index % 2 */\n      dup2\n      tag_93\n      jumpi\n      invalid\n    tag_93:\n      mod\n        /* \"PlasmaManager.sol\":7747:7761  index % 2 == 0 */\n      eq\n        /* \"PlasmaManager.sol\":7743:7987  if (index % 2 == 0) {... */\n      iszero\n      tag_94\n      jumpi\n        /* \"PlasmaManager.sol\":7826:7838  computedHash */\n      dup3\n        /* \"PlasmaManager.sol\":7840:7852  proofElement */\n      dup5\n        /* \"PlasmaManager.sol\":7809:7853  abi.encodePacked(computedHash, proofElement) */\n      add(0x20, mload(0x40))\n      dup1\n      dup4\n      dup2\n      mstore\n      0x20\n      add\n      dup3\n      dup2\n      mstore\n      0x20\n      add\n      swap3\n      pop\n      pop\n      pop\n      mload(0x40)\n        /* \"--CODEGEN--\":49:53   */\n      0x20\n        /* \"--CODEGEN--\":39:46   */\n      dup2\n        /* \"--CODEGEN--\":30:37   */\n      dup4\n        /* \"--CODEGEN--\":26:47   */\n      sub\n        /* \"--CODEGEN--\":22:54   */\n      sub\n        /* \"--CODEGEN--\":13:20   */\n      dup2\n        /* \"--CODEGEN--\":6:55   */\n      mstore\n        /* \"PlasmaManager.sol\":7809:7853  abi.encodePacked(computedHash, proofElement) */\n      swap1\n      0x40\n      mstore\n        /* \"PlasmaManager.sol\":7788:7863  keccak256(... */\n      dup1\n      mload\n      swap1\n      0x20\n      add\n      keccak256\n        /* \"PlasmaManager.sol\":7773:7863  computedHash = keccak256(... */\n      swap3\n      pop\n        /* \"PlasmaManager.sol\":7743:7987  if (index % 2 == 0) {... */\n      jump(tag_95)\n    tag_94:\n        /* \"PlasmaManager.sol\":7941:7953  proofElement */\n      dup4\n        /* \"PlasmaManager.sol\":7955:7967  computedHash */\n      dup4\n        /* \"PlasmaManager.sol\":7924:7968  abi.encodePacked(proofElement, computedHash) */\n      add(0x20, mload(0x40))\n      dup1\n      dup4\n      dup2\n      mstore\n      0x20\n      add\n      dup3\n      dup2\n      mstore\n      0x20\n      add\n      swap3\n      pop\n      pop\n      pop\n      mload(0x40)\n        /* \"--CODEGEN--\":49:53   */\n      0x20\n        /* \"--CODEGEN--\":39:46   */\n      dup2\n        /* \"--CODEGEN--\":30:37   */\n      dup4\n        /* \"--CODEGEN--\":26:47   */\n      sub\n        /* \"--CODEGEN--\":22:54   */\n      sub\n        /* \"--CODEGEN--\":13:20   */\n      dup2\n        /* \"--CODEGEN--\":6:55   */\n      mstore\n        /* \"PlasmaManager.sol\":7924:7968  abi.encodePacked(proofElement, computedHash) */\n      swap1\n      0x40\n      mstore\n        /* \"PlasmaManager.sol\":7903:7978  keccak256(... */\n      dup1\n      mload\n      swap1\n      0x20\n      add\n      keccak256\n        /* \"PlasmaManager.sol\":7888:7978  computedHash = keccak256(... */\n      swap3\n      pop\n        /* \"PlasmaManager.sol\":7743:7987  if (index % 2 == 0) {... */\n    tag_95:\n        /* \"PlasmaManager.sol\":8011:8012  2 */\n      0x02\n        /* \"PlasmaManager.sol\":8003:8008  index */\n      dup3\n        /* \"PlasmaManager.sol\":8003:8012  index / 2 */\n      dup2\n      tag_96\n      jumpi\n      invalid\n    tag_96:\n      div\n        /* \"PlasmaManager.sol\":7995:8012  index = index / 2 */\n      swap2\n      pop\n        /* \"PlasmaManager.sol\":7660:7662  32 */\n      0x20\n        /* \"PlasmaManager.sol\":7655:7662  i += 32 */\n      dup2\n      add\n      swap1\n      pop\n        /* \"PlasmaManager.sol\":7615:8019  for (uint256 i = 32; i <= proof.length; i += 32) {... */\n      jump(tag_90)\n    tag_91:\n      pop\n        /* \"PlasmaManager.sol\":8047:8055  rootHash */\n      dup6\n        /* \"PlasmaManager.sol\":8031:8043  computedHash */\n      dup3\n        /* \"PlasmaManager.sol\":8031:8055  computedHash == rootHash */\n      eq\n        /* \"PlasmaManager.sol\":8024:8055  return computedHash == rootHash */\n      swap4\n      pop\n      pop\n      pop\n      pop\n        /* \"PlasmaManager.sol\":7312:8060  function verifyMerkleProof(... */\n      swap5\n      swap4\n      pop\n      pop\n      pop\n      pop\n      jump\t// out\n        /* \"PlasmaManager.sol\":2069:2157  function lastBunchIndex() public view returns (uint256) {... */\n    tag_37:\n        /* \"PlasmaManager.sol\":2116:2123  uint256 */\n      0x00\n        /* \"PlasmaManager.sol\":2138:2145  bunches */\n      0x05\n        /* \"PlasmaManager.sol\":2138:2152  bunches.length */\n      dup1\n      sload\n      swap1\n      pop\n        /* \"PlasmaManager.sol\":2131:2152  return bunches.length */\n      swap1\n      pop\n        /* \"PlasmaManager.sol\":2069:2157  function lastBunchIndex() public view returns (uint256) {... */\n      swap1\n      jump\t// out\n        /* \"PlasmaManager.sol\":668:695  address[] public validators */\n    tag_40:\n      0x03\n      dup2\n      dup2\n      sload\n      dup2\n      lt\n      tag_98\n      jumpi\n      invalid\n    tag_98:\n      swap1\n      0x00\n      mstore\n      keccak256(0x00, 0x20)\n      add\n      0x00\n      swap2\n      pop\n      sload\n      swap1\n      0x0100\n      exp\n      swap1\n      div\n      0xffffffffffffffffffffffffffffffffffffffff\n      and\n      dup2\n      jump\t// out\n        /* \"PlasmaManager.sol\":6120:7308  function parseTransaction(bytes memory _rawTx) public pure returns (address, address, uint256, uint256) {... */\n    tag_46:\n        /* \"PlasmaManager.sol\":6188:6195  address */\n      0x00\n        /* \"PlasmaManager.sol\":6197:6204  address */\n      dup1\n        /* \"PlasmaManager.sol\":6206:6213  uint256 */\n      0x00\n        /* \"PlasmaManager.sol\":6215:6222  uint256 */\n      dup1\n        /* \"PlasmaManager.sol\":6230:6261  RLP.RLPItem[] memory _txDecoded */\n      0x60\n        /* \"PlasmaManager.sol\":6264:6291  _rawTx.toRLPItem().toList() */\n      tag_101\n        /* \"PlasmaManager.sol\":6264:6282  _rawTx.toRLPItem() */\n      tag_102\n        /* \"PlasmaManager.sol\":6264:6270  _rawTx */\n      dup8\n        /* \"PlasmaManager.sol\":6264:6280  _rawTx.toRLPItem */\n      tag_103\n        /* \"PlasmaManager.sol\":6264:6282  _rawTx.toRLPItem() */\n      jump\t// in\n    tag_102:\n        /* \"PlasmaManager.sol\":6264:6289  _rawTx.toRLPItem().toList */\n      tag_104\n        /* \"PlasmaManager.sol\":6264:6291  _rawTx.toRLPItem().toList() */\n      jump\t// in\n    tag_101:\n        /* \"PlasmaManager.sol\":6230:6291  RLP.RLPItem[] memory _txDecoded = _rawTx.toRLPItem().toList() */\n      swap1\n      pop\n        /* \"PlasmaManager.sol\":6298:6309  address _to */\n      0x00\n        /* \"PlasmaManager.sol\":6312:6337  _txDecoded[3].toAddress() */\n      tag_105\n        /* \"PlasmaManager.sol\":6312:6322  _txDecoded */\n      dup3\n        /* \"PlasmaManager.sol\":6323:6324  3 */\n      0x03\n        /* \"PlasmaManager.sol\":6312:6325  _txDecoded[3] */\n      dup2\n      mload\n      dup2\n      lt\n      tag_106\n      jumpi\n      invalid\n    tag_106:\n      0x20\n      mul\n      0x20\n      add\n      add\n      mload\n        /* \"PlasmaManager.sol\":6312:6335  _txDecoded[3].toAddress */\n      tag_107\n        /* \"PlasmaManager.sol\":6312:6337  _txDecoded[3].toAddress() */\n      jump\t// in\n    tag_105:\n        /* \"PlasmaManager.sol\":6298:6337  address _to = _txDecoded[3].toAddress() */\n      swap1\n      pop\n        /* \"PlasmaManager.sol\":6343:6357  uint256 _value */\n      0x00\n        /* \"PlasmaManager.sol\":6360:6382  _txDecoded[4].toUint() */\n      tag_108\n        /* \"PlasmaManager.sol\":6360:6370  _txDecoded */\n      dup4\n        /* \"PlasmaManager.sol\":6371:6372  4 */\n      0x04\n        /* \"PlasmaManager.sol\":6360:6373  _txDecoded[4] */\n      dup2\n      mload\n      dup2\n      lt\n      tag_109\n      jumpi\n      invalid\n    tag_109:\n      0x20\n      mul\n      0x20\n      add\n      add\n      mload\n        /* \"PlasmaManager.sol\":6360:6380  _txDecoded[4].toUint */\n      tag_110\n        /* \"PlasmaManager.sol\":6360:6382  _txDecoded[4].toUint() */\n      jump\t// in\n    tag_108:\n        /* \"PlasmaManager.sol\":6343:6382  uint256 _value = _txDecoded[4].toUint() */\n      swap1\n      pop\n        /* \"PlasmaManager.sol\":6389:6399  uint256 _v */\n      0x00\n        /* \"PlasmaManager.sol\":6402:6424  _txDecoded[6].toUint() */\n      tag_111\n        /* \"PlasmaManager.sol\":6402:6412  _txDecoded */\n      dup5\n        /* \"PlasmaManager.sol\":6413:6414  6 */\n      0x06\n        /* \"PlasmaManager.sol\":6402:6415  _txDecoded[6] */\n      dup2\n      mload\n      dup2\n      lt\n      tag_112\n      jumpi\n      invalid\n    tag_112:\n      0x20\n      mul\n      0x20\n      add\n      add\n      mload\n        /* \"PlasmaManager.sol\":6402:6422  _txDecoded[6].toUint */\n      tag_110\n        /* \"PlasmaManager.sol\":6402:6424  _txDecoded[6].toUint() */\n      jump\t// in\n    tag_111:\n        /* \"PlasmaManager.sol\":6389:6424  uint256 _v = _txDecoded[6].toUint() */\n      swap1\n      pop\n        /* \"PlasmaManager.sol\":6430:6440  bytes32 _r */\n      0x00\n        /* \"PlasmaManager.sol\":6443:6468  _txDecoded[7].toBytes32() */\n      tag_113\n        /* \"PlasmaManager.sol\":6443:6453  _txDecoded */\n      dup6\n        /* \"PlasmaManager.sol\":6454:6455  7 */\n      0x07\n        /* \"PlasmaManager.sol\":6443:6456  _txDecoded[7] */\n      dup2\n      mload\n      dup2\n      lt\n      tag_114\n      jumpi\n      invalid\n    tag_114:\n      0x20\n      mul\n      0x20\n      add\n      add\n      mload\n        /* \"PlasmaManager.sol\":6443:6466  _txDecoded[7].toBytes32 */\n      tag_115\n        /* \"PlasmaManager.sol\":6443:6468  _txDecoded[7].toBytes32() */\n      jump\t// in\n    tag_113:\n        /* \"PlasmaManager.sol\":6430:6468  bytes32 _r = _txDecoded[7].toBytes32() */\n      swap1\n      pop\n        /* \"PlasmaManager.sol\":6474:6484  bytes32 _s */\n      0x00\n        /* \"PlasmaManager.sol\":6487:6512  _txDecoded[8].toBytes32() */\n      tag_116\n        /* \"PlasmaManager.sol\":6487:6497  _txDecoded */\n      dup7\n        /* \"PlasmaManager.sol\":6498:6499  8 */\n      0x08\n        /* \"PlasmaManager.sol\":6487:6500  _txDecoded[8] */\n      dup2\n      mload\n      dup2\n      lt\n      tag_117\n      jumpi\n      invalid\n    tag_117:\n      0x20\n      mul\n      0x20\n      add\n      add\n      mload\n        /* \"PlasmaManager.sol\":6487:6510  _txDecoded[8].toBytes32 */\n      tag_115\n        /* \"PlasmaManager.sol\":6487:6512  _txDecoded[8].toBytes32() */\n      jump\t// in\n    tag_116:\n        /* \"PlasmaManager.sol\":6474:6512  bytes32 _s = _txDecoded[8].toBytes32() */\n      swap1\n      pop\n        /* \"PlasmaManager.sol\":6519:6558  bytes[] memory _unsignedTransactionList */\n      0x60\n        /* \"PlasmaManager.sol\":6565:6579  uint8 _actualV */\n      0x00\n        /* \"PlasmaManager.sol\":6585:6601  uint256 _chainId */\n      dup1\n        /* \"PlasmaManager.sol\":6616:6618  28 */\n      0x1c\n        /* \"PlasmaManager.sol\":6611:6613  _v */\n      dup7\n        /* \"PlasmaManager.sol\":6611:6618  _v > 28 */\n      gt\n        /* \"PlasmaManager.sol\":6608:6979  if(_v > 28) {... */\n      iszero\n      tag_118\n      jumpi\n        /* \"PlasmaManager.sol\":6667:6668  9 */\n      0x09\n        /* \"PlasmaManager.sol\":6655:6669  new bytes[](9) */\n      mload(0x40)\n      swap1\n      dup1\n      dup3\n      mstore\n      dup1\n      0x20\n      mul\n      0x20\n      add\n      dup3\n      add\n      0x40\n      mstore\n      dup1\n      iszero\n      tag_119\n      jumpi\n      dup2\n      0x20\n      add\n    tag_120:\n      0x60\n      dup2\n      mstore\n      0x20\n      add\n      swap1\n      0x01\n      swap1\n      sub\n      swap1\n      dup2\n      tag_120\n      jumpi\n      swap1\n      pop\n    tag_119:\n      pop\n        /* \"PlasmaManager.sol\":6628:6669  _unsignedTransactionList = new bytes[](9) */\n      swap3\n      pop\n        /* \"PlasmaManager.sol\":6690:6691  0 */\n      0x00\n        /* \"PlasmaManager.sol\":6685:6686  2 */\n      0x02\n        /* \"PlasmaManager.sol\":6680:6682  _v */\n      dup8\n        /* \"PlasmaManager.sol\":6680:6686  _v % 2 */\n      dup2\n      tag_121\n      jumpi\n      invalid\n    tag_121:\n      mod\n        /* \"PlasmaManager.sol\":6680:6691  _v % 2 == 0 */\n      eq\n        /* \"PlasmaManager.sol\":6677:6763  if(_v % 2 == 0) {... */\n      iszero\n      tag_122\n      jumpi\n        /* \"PlasmaManager.sol\":6714:6716  28 */\n      0x1c\n        /* \"PlasmaManager.sol\":6703:6716  _actualV = 28 */\n      swap2\n      pop\n        /* \"PlasmaManager.sol\":6677:6763  if(_v % 2 == 0) {... */\n      jump(tag_123)\n    tag_122:\n        /* \"PlasmaManager.sol\":6752:6754  27 */\n      0x1b\n        /* \"PlasmaManager.sol\":6741:6754  _actualV = 27 */\n      swap2\n      pop\n        /* \"PlasmaManager.sol\":6677:6763  if(_v % 2 == 0) {... */\n    tag_123:\n        /* \"PlasmaManager.sol\":6804:6805  2 */\n      0x02\n        /* \"PlasmaManager.sol\":6799:6800  8 */\n      0x08\n        /* \"PlasmaManager.sol\":6788:6796  _actualV */\n      dup4\n        /* \"PlasmaManager.sol\":6783:6796  _v - _actualV */\n      0xff\n      and\n        /* \"PlasmaManager.sol\":6783:6785  _v */\n      dup9\n        /* \"PlasmaManager.sol\":6783:6796  _v - _actualV */\n      sub\n        /* \"PlasmaManager.sol\":6783:6800  _v - _actualV - 8 */\n      sub\n        /* \"PlasmaManager.sol\":6782:6805  (_v - _actualV - 8) / 2 */\n      dup2\n      tag_124\n      jumpi\n      invalid\n    tag_124:\n      div\n        /* \"PlasmaManager.sol\":6771:6805  _chainId = (_v - _actualV - 8) / 2 */\n      swap1\n      pop\n        /* \"PlasmaManager.sol\":6844:6882  BytesLib.packedBytesFromUint(_chainId) */\n      tag_125\n        /* \"PlasmaManager.sol\":6873:6881  _chainId */\n      dup2\n        /* \"PlasmaManager.sol\":6844:6872  BytesLib.packedBytesFromUint */\n      tag_126\n        /* \"PlasmaManager.sol\":6844:6882  BytesLib.packedBytesFromUint(_chainId) */\n      jump\t// in\n    tag_125:\n        /* \"PlasmaManager.sol\":6814:6838  _unsignedTransactionList */\n      dup4\n        /* \"PlasmaManager.sol\":6839:6840  6 */\n      0x06\n        /* \"PlasmaManager.sol\":6814:6841  _unsignedTransactionList[6] */\n      dup2\n      mload\n      dup2\n      lt\n      tag_127\n      jumpi\n      invalid\n    tag_127:\n      0x20\n      mul\n      0x20\n      add\n      add\n        /* \"PlasmaManager.sol\":6814:6882  _unsignedTransactionList[6] = BytesLib.packedBytesFromUint(_chainId) */\n      dup2\n      swap1\n      mstore\n      pop\n        /* \"PlasmaManager.sol\":6608:6979  if(_v > 28) {... */\n      jump(tag_128)\n    tag_118:\n        /* \"PlasmaManager.sol\":6942:6943  6 */\n      0x06\n        /* \"PlasmaManager.sol\":6930:6944  new bytes[](6) */\n      mload(0x40)\n      swap1\n      dup1\n      dup3\n      mstore\n      dup1\n      0x20\n      mul\n      0x20\n      add\n      dup3\n      add\n      0x40\n      mstore\n      dup1\n      iszero\n      tag_129\n      jumpi\n      dup2\n      0x20\n      add\n    tag_130:\n      0x60\n      dup2\n      mstore\n      0x20\n      add\n      swap1\n      0x01\n      swap1\n      sub\n      swap1\n      dup2\n      tag_130\n      jumpi\n      swap1\n      pop\n    tag_129:\n      pop\n        /* \"PlasmaManager.sol\":6903:6944  _unsignedTransactionList = new bytes[](6) */\n      swap3\n      pop\n        /* \"PlasmaManager.sol\":6969:6971  _v */\n      dup6\n        /* \"PlasmaManager.sol\":6952:6972  _actualV = uint8(_v) */\n      swap2\n      pop\n        /* \"PlasmaManager.sol\":6608:6979  if(_v > 28) {... */\n    tag_128:\n        /* \"PlasmaManager.sol\":6989:6998  uint256 i */\n      0x00\n        /* \"PlasmaManager.sol\":7001:7002  0 */\n      dup1\n        /* \"PlasmaManager.sol\":6989:7002  uint256 i = 0 */\n      swap1\n      pop\n        /* \"PlasmaManager.sol\":6985:7084  for(uint256 i = 0; i < 6; i++) {... */\n    tag_131:\n        /* \"PlasmaManager.sol\":7008:7009  6 */\n      0x06\n        /* \"PlasmaManager.sol\":7004:7005  i */\n      dup2\n        /* \"PlasmaManager.sol\":7004:7009  i < 6 */\n      lt\n        /* \"PlasmaManager.sol\":6985:7084  for(uint256 i = 0; i < 6; i++) {... */\n      iszero\n      tag_132\n      jumpi\n        /* \"PlasmaManager.sol\":7054:7077  _txDecoded[i].toBytes() */\n      tag_134\n        /* \"PlasmaManager.sol\":7054:7064  _txDecoded */\n      dup11\n        /* \"PlasmaManager.sol\":7065:7066  i */\n      dup3\n        /* \"PlasmaManager.sol\":7054:7067  _txDecoded[i] */\n      dup2\n      mload\n      dup2\n      lt\n      tag_135\n      jumpi\n      invalid\n    tag_135:\n      0x20\n      mul\n      0x20\n      add\n      add\n      mload\n        /* \"PlasmaManager.sol\":7054:7075  _txDecoded[i].toBytes */\n      tag_136\n        /* \"PlasmaManager.sol\":7054:7077  _txDecoded[i].toBytes() */\n      jump\t// in\n    tag_134:\n        /* \"PlasmaManager.sol\":7024:7048  _unsignedTransactionList */\n      dup5\n        /* \"PlasmaManager.sol\":7049:7050  i */\n      dup3\n        /* \"PlasmaManager.sol\":7024:7051  _unsignedTransactionList[i] */\n      dup2\n      mload\n      dup2\n      lt\n      tag_137\n      jumpi\n      invalid\n    tag_137:\n      0x20\n      mul\n      0x20\n      add\n      add\n        /* \"PlasmaManager.sol\":7024:7077  _unsignedTransactionList[i] = _txDecoded[i].toBytes() */\n      dup2\n      swap1\n      mstore\n      pop\n        /* \"PlasmaManager.sol\":7011:7014  i++ */\n      dup1\n      dup1\n      0x01\n      add\n      swap2\n      pop\n      pop\n        /* \"PlasmaManager.sol\":6985:7084  for(uint256 i = 0; i < 6; i++) {... */\n      jump(tag_131)\n    tag_132:\n      pop\n        /* \"PlasmaManager.sol\":7090:7123  bytes memory _unsignedTransaction */\n      0x60\n        /* \"PlasmaManager.sol\":7126:7172  RLPEncode.encodeList(_unsignedTransactionList) */\n      tag_138\n        /* \"PlasmaManager.sol\":7147:7171  _unsignedTransactionList */\n      dup5\n        /* \"PlasmaManager.sol\":7126:7146  RLPEncode.encodeList */\n      tag_139\n        /* \"PlasmaManager.sol\":7126:7172  RLPEncode.encodeList(_unsignedTransactionList) */\n      jump\t// in\n    tag_138:\n        /* \"PlasmaManager.sol\":7090:7172  bytes memory _unsignedTransaction = RLPEncode.encodeList(_unsignedTransactionList) */\n      swap1\n      pop\n        /* \"PlasmaManager.sol\":7179:7194  address _signer */\n      0x00\n        /* \"PlasmaManager.sol\":7197:7257  ecrecover(keccak256(_unsignedTransaction), _actualV, _r, _s) */\n      0x01\n        /* \"PlasmaManager.sol\":7217:7237  _unsignedTransaction */\n      dup3\n        /* \"PlasmaManager.sol\":7207:7238  keccak256(_unsignedTransaction) */\n      dup1\n      mload\n      swap1\n      0x20\n      add\n      keccak256\n        /* \"PlasmaManager.sol\":7240:7248  _actualV */\n      dup6\n        /* \"PlasmaManager.sol\":7250:7252  _r */\n      dup10\n        /* \"PlasmaManager.sol\":7254:7256  _s */\n      dup10\n        /* \"PlasmaManager.sol\":7197:7257  ecrecover(keccak256(_unsignedTransaction), _actualV, _r, _s) */\n      mload(0x40)\n      0x00\n      dup2\n      mstore\n      0x20\n      add\n      0x40\n      mstore\n      mload(0x40)\n      dup1\n      dup6\n      dup2\n      mstore\n      0x20\n      add\n      dup5\n      0xff\n      and\n      0xff\n      and\n      dup2\n      mstore\n      0x20\n      add\n      dup4\n      dup2\n      mstore\n      0x20\n      add\n      dup3\n      dup2\n      mstore\n      0x20\n      add\n      swap5\n      pop\n      pop\n      pop\n      pop\n      pop\n      0x20\n      mload(0x40)\n      0x20\n      dup2\n      sub\n      swap1\n      dup1\n      dup5\n      sub\n      swap1\n      dup6\n      gas\n      staticcall\n      iszero\n        /* \"--CODEGEN--\":8:17   */\n      dup1\n        /* \"--CODEGEN--\":5:7   */\n      iszero\n      tag_141\n      jumpi\n        /* \"--CODEGEN--\":45:61   */\n      returndatasize\n        /* \"--CODEGEN--\":42:43   */\n      0x00\n        /* \"--CODEGEN--\":39:40   */\n      dup1\n        /* \"--CODEGEN--\":24:62   */\n      returndatacopy\n        /* \"--CODEGEN--\":77:93   */\n      returndatasize\n        /* \"--CODEGEN--\":74:75   */\n      0x00\n        /* \"--CODEGEN--\":67:94   */\n      revert\n        /* \"--CODEGEN--\":5:7   */\n    tag_141:\n        /* \"PlasmaManager.sol\":7197:7257  ecrecover(keccak256(_unsignedTransaction), _actualV, _r, _s) */\n      pop\n      pop\n      pop\n      mload(sub(mload(0x40), 0x20))\n        /* \"PlasmaManager.sol\":7179:7257  address _signer = ecrecover(keccak256(_unsignedTransaction), _actualV, _r, _s) */\n      swap1\n      pop\n        /* \"PlasmaManager.sol\":7272:7279  _signer */\n      dup1\n        /* \"PlasmaManager.sol\":7281:7284  _to */\n      dup11\n        /* \"PlasmaManager.sol\":7286:7292  _value */\n      dup11\n        /* \"PlasmaManager.sol\":7294:7302  _chainId */\n      dup6\n        /* \"PlasmaManager.sol\":7264:7303  return (_signer, _to, _value, _chainId) */\n      swap15\n      pop\n      swap15\n      pop\n      swap15\n      pop\n      swap15\n      pop\n      pop\n      pop\n      pop\n      pop\n      pop\n      pop\n      pop\n      pop\n      pop\n      pop\n      pop\n        /* \"PlasmaManager.sol\":6120:7308  function parseTransaction(bytes memory _rawTx) public pure returns (address, address, uint256, uint256) {... */\n      swap2\n      swap4\n      pop\n      swap2\n      swap4\n      jump\t// out\n        /* \"PlasmaManager.sol\":727:755  BunchHeader[] public bunches */\n    tag_49:\n      0x05\n      dup2\n      dup2\n      sload\n      dup2\n      lt\n      tag_142\n      jumpi\n      invalid\n    tag_142:\n      swap1\n      0x00\n      mstore\n      keccak256(0x00, 0x20)\n      swap1\n      0x04\n      mul\n      add\n      0x00\n      swap2\n      pop\n      swap1\n      pop\n      dup1\n      0x00\n      add\n      sload\n      swap1\n      dup1\n      0x01\n      add\n      sload\n      swap1\n      dup1\n      0x02\n      add\n      sload\n      swap1\n      dup1\n      0x03\n      add\n      sload\n      swap1\n      pop\n      dup5\n      jump\t// out\n        /* \"PlasmaManager.sol\":2279:4184  function submitBunchHeader(bytes memory _signedHeader) public {... */\n    tag_55:\n        /* \"PlasmaManager.sol\":2347:2377  RLP.RLPItem[] memory _fullList */\n      0x60\n        /* \"PlasmaManager.sol\":2380:2414  _signedHeader.toRLPItem().toList() */\n      tag_145\n        /* \"PlasmaManager.sol\":2380:2405  _signedHeader.toRLPItem() */\n      tag_146\n        /* \"PlasmaManager.sol\":2380:2393  _signedHeader */\n      dup4\n        /* \"PlasmaManager.sol\":2380:2403  _signedHeader.toRLPItem */\n      tag_103\n        /* \"PlasmaManager.sol\":2380:2405  _signedHeader.toRLPItem() */\n      jump\t// in\n    tag_146:\n        /* \"PlasmaManager.sol\":2380:2412  _signedHeader.toRLPItem().toList */\n      tag_104\n        /* \"PlasmaManager.sol\":2380:2414  _signedHeader.toRLPItem().toList() */\n      jump\t// in\n    tag_145:\n        /* \"PlasmaManager.sol\":2347:2414  RLP.RLPItem[] memory _fullList = _signedHeader.toRLPItem().toList() */\n      swap1\n      pop\n        /* \"PlasmaManager.sol\":2420:2453  RLP.RLPItem[] memory _headerArray */\n      0x60\n        /* \"PlasmaManager.sol\":2456:2477  _fullList[0].toList() */\n      tag_147\n        /* \"PlasmaManager.sol\":2456:2465  _fullList */\n      dup3\n        /* \"PlasmaManager.sol\":2466:2467  0 */\n      0x00\n        /* \"PlasmaManager.sol\":2456:2468  _fullList[0] */\n      dup2\n      mload\n      dup2\n      lt\n      tag_148\n      jumpi\n      invalid\n    tag_148:\n      0x20\n      mul\n      0x20\n      add\n      add\n      mload\n        /* \"PlasmaManager.sol\":2456:2475  _fullList[0].toList */\n      tag_104\n        /* \"PlasmaManager.sol\":2456:2477  _fullList[0].toList() */\n      jump\t// in\n    tag_147:\n        /* \"PlasmaManager.sol\":2420:2477  RLP.RLPItem[] memory _headerArray = _fullList[0].toList() */\n      swap1\n      pop\n        /* \"PlasmaManager.sol\":2514:2515  4 */\n      0x04\n        /* \"PlasmaManager.sol\":2491:2503  _headerArray */\n      dup2\n        /* \"PlasmaManager.sol\":2491:2510  _headerArray.length */\n      mload\n        /* \"PlasmaManager.sol\":2491:2515  _headerArray.length == 4 */\n      eq\n        /* \"PlasmaManager.sol\":2483:2552  require(_headerArray.length == 4, 'bunch header must have 4 members') */\n      tag_149\n      jumpi\n      mload(0x40)\n      0x08c379a000000000000000000000000000000000000000000000000000000000\n      dup2\n      mstore\n      0x04\n      add\n      dup1\n      dup1\n      0x20\n      add\n      dup3\n      dup2\n      sub\n      dup3\n      mstore\n      0x20\n      dup2\n      mstore\n      0x20\n      add\n      dup1\n      0x62756e636820686561646572206d75737420686176652034206d656d62657273\n      dup2\n      mstore\n      pop\n      0x20\n      add\n      swap2\n      pop\n      pop\n      mload(0x40)\n      dup1\n      swap2\n      sub\n      swap1\n      revert\n    tag_149:\n        /* \"PlasmaManager.sol\":2559:2590  BunchHeader memory _bunchHeader */\n      tag_150\n      tag_151\n      jump\t// in\n    tag_150:\n        /* \"PlasmaManager.sol\":2593:2816  BunchHeader({... */\n      mload(0x40)\n      dup1\n      0x80\n      add\n      0x40\n      mstore\n      dup1\n        /* \"PlasmaManager.sol\":2631:2655  _headerArray[0].toUint() */\n      tag_152\n        /* \"PlasmaManager.sol\":2631:2643  _headerArray */\n      dup5\n        /* \"PlasmaManager.sol\":2644:2645  0 */\n      0x00\n        /* \"PlasmaManager.sol\":2631:2646  _headerArray[0] */\n      dup2\n      mload\n      dup2\n      lt\n      tag_153\n      jumpi\n      invalid\n    tag_153:\n      0x20\n      mul\n      0x20\n      add\n      add\n      mload\n        /* \"PlasmaManager.sol\":2631:2653  _headerArray[0].toUint */\n      tag_110\n        /* \"PlasmaManager.sol\":2631:2655  _headerArray[0].toUint() */\n      jump\t// in\n    tag_152:\n        /* \"PlasmaManager.sol\":2593:2816  BunchHeader({... */\n      dup2\n      mstore\n      0x20\n      add\n        /* \"PlasmaManager.sol\":2675:2699  _headerArray[1].toUint() */\n      tag_154\n        /* \"PlasmaManager.sol\":2675:2687  _headerArray */\n      dup5\n        /* \"PlasmaManager.sol\":2688:2689  1 */\n      0x01\n        /* \"PlasmaManager.sol\":2675:2690  _headerArray[1] */\n      dup2\n      mload\n      dup2\n      lt\n      tag_155\n      jumpi\n      invalid\n    tag_155:\n      0x20\n      mul\n      0x20\n      add\n      add\n      mload\n        /* \"PlasmaManager.sol\":2675:2697  _headerArray[1].toUint */\n      tag_110\n        /* \"PlasmaManager.sol\":2675:2699  _headerArray[1].toUint() */\n      jump\t// in\n    tag_154:\n        /* \"PlasmaManager.sol\":2593:2816  BunchHeader({... */\n      dup2\n      mstore\n      0x20\n      add\n        /* \"PlasmaManager.sol\":2729:2756  _headerArray[2].toBytes32() */\n      tag_156\n        /* \"PlasmaManager.sol\":2729:2741  _headerArray */\n      dup5\n        /* \"PlasmaManager.sol\":2742:2743  2 */\n      0x02\n        /* \"PlasmaManager.sol\":2729:2744  _headerArray[2] */\n      dup2\n      mload\n      dup2\n      lt\n      tag_157\n      jumpi\n      invalid\n    tag_157:\n      0x20\n      mul\n      0x20\n      add\n      add\n      mload\n        /* \"PlasmaManager.sol\":2729:2754  _headerArray[2].toBytes32 */\n      tag_115\n        /* \"PlasmaManager.sol\":2729:2756  _headerArray[2].toBytes32() */\n      jump\t// in\n    tag_156:\n        /* \"PlasmaManager.sol\":2593:2816  BunchHeader({... */\n      dup2\n      mstore\n      0x20\n      add\n        /* \"PlasmaManager.sol\":2782:2809  _headerArray[3].toBytes32() */\n      tag_158\n        /* \"PlasmaManager.sol\":2782:2794  _headerArray */\n      dup5\n        /* \"PlasmaManager.sol\":2795:2796  3 */\n      0x03\n        /* \"PlasmaManager.sol\":2782:2797  _headerArray[3] */\n      dup2\n      mload\n      dup2\n      lt\n      tag_159\n      jumpi\n      invalid\n    tag_159:\n      0x20\n      mul\n      0x20\n      add\n      add\n      mload\n        /* \"PlasmaManager.sol\":2782:2807  _headerArray[3].toBytes32 */\n      tag_115\n        /* \"PlasmaManager.sol\":2782:2809  _headerArray[3].toBytes32() */\n      jump\t// in\n    tag_158:\n        /* \"PlasmaManager.sol\":2593:2816  BunchHeader({... */\n      dup2\n      mstore\n      pop\n        /* \"PlasmaManager.sol\":2559:2816  BunchHeader memory _bunchHeader = BunchHeader({... */\n      swap1\n      pop\n        /* \"PlasmaManager.sol\":2864:2889  getNextStartBlockNumber() */\n      tag_160\n        /* \"PlasmaManager.sol\":2864:2887  getNextStartBlockNumber */\n      tag_161\n        /* \"PlasmaManager.sol\":2864:2889  getNextStartBlockNumber() */\n      jump\t// in\n    tag_160:\n        /* \"PlasmaManager.sol\":2831:2843  _bunchHeader */\n      dup2\n        /* \"PlasmaManager.sol\":2831:2860  _bunchHeader.startBlockNumber */\n      0x00\n      add\n      mload\n        /* \"PlasmaManager.sol\":2831:2889  _bunchHeader.startBlockNumber == getNextStartBlockNumber() */\n      eq\n        /* \"PlasmaManager.sol\":2823:2920  require(_bunchHeader.startBlockNumber == getNextStartBlockNumber(), 'invalid start block number') */\n      tag_162\n      jumpi\n      mload(0x40)\n      0x08c379a000000000000000000000000000000000000000000000000000000000\n      dup2\n      mstore\n      0x04\n      add\n      dup1\n      dup1\n      0x20\n      add\n      dup3\n      dup2\n      sub\n      dup3\n      mstore\n      0x1a\n      dup2\n      mstore\n      0x20\n      add\n      dup1\n      0x696e76616c696420737461727420626c6f636b206e756d626572000000000000\n      dup2\n      mstore\n      pop\n      0x20\n      add\n      swap2\n      pop\n      pop\n      mload(0x40)\n      dup1\n      swap2\n      sub\n      swap1\n      revert\n    tag_162:\n        /* \"PlasmaManager.sol\":2927:2950  bytes memory _headerRLP */\n      0x60\n        /* \"PlasmaManager.sol\":2953:2978  _fullList[0].toRLPBytes() */\n      tag_163\n        /* \"PlasmaManager.sol\":2953:2962  _fullList */\n      dup5\n        /* \"PlasmaManager.sol\":2963:2964  0 */\n      0x00\n        /* \"PlasmaManager.sol\":2953:2965  _fullList[0] */\n      dup2\n      mload\n      dup2\n      lt\n      tag_164\n      jumpi\n      invalid\n    tag_164:\n      0x20\n      mul\n      0x20\n      add\n      add\n      mload\n        /* \"PlasmaManager.sol\":2953:2976  _fullList[0].toRLPBytes */\n      tag_165\n        /* \"PlasmaManager.sol\":2953:2978  _fullList[0].toRLPBytes() */\n      jump\t// in\n    tag_163:\n        /* \"PlasmaManager.sol\":2927:2978  bytes memory _headerRLP = _fullList[0].toRLPBytes() */\n      swap1\n      pop\n        /* \"PlasmaManager.sol\":2985:3000  bytes32 _digest */\n      0x00\n        /* \"PlasmaManager.sol\":3046:3061  PERSONAL_PREFIX */\n      mload(0x40)\n      dup1\n      0x40\n      add\n      0x40\n      mstore\n      dup1\n      0x1a\n      dup2\n      mstore\n      0x20\n      add\n      0x19457468657265756d205369676e6564204d6573736167653a0a000000000000\n      dup2\n      mstore\n      pop\n        /* \"PlasmaManager.sol\":3071:3102  _getBytesStr(_headerRLP.length) */\n      tag_166\n        /* \"PlasmaManager.sol\":3084:3094  _headerRLP */\n      dup4\n        /* \"PlasmaManager.sol\":3084:3101  _headerRLP.length */\n      mload\n        /* \"PlasmaManager.sol\":3071:3083  _getBytesStr */\n      tag_167\n        /* \"PlasmaManager.sol\":3071:3102  _getBytesStr(_headerRLP.length) */\n      jump\t// in\n    tag_166:\n        /* \"PlasmaManager.sol\":3112:3122  _headerRLP */\n      dup4\n        /* \"PlasmaManager.sol\":3020:3130  abi.encodePacked(... */\n      add(0x20, mload(0x40))\n      dup1\n      dup5\n      dup1\n      mload\n      swap1\n      0x20\n      add\n      swap1\n      dup1\n      dup4\n      dup4\n        /* \"--CODEGEN--\":36:189   */\n    tag_168:\n        /* \"--CODEGEN--\":66:68   */\n      0x20\n        /* \"--CODEGEN--\":61:64   */\n      dup4\n        /* \"--CODEGEN--\":58:69   */\n      lt\n        /* \"--CODEGEN--\":36:189   */\n      tag_170\n      jumpi\n        /* \"--CODEGEN--\":182:185   */\n      dup1\n        /* \"--CODEGEN--\":176:186   */\n      mload\n        /* \"--CODEGEN--\":171:174   */\n      dup3\n        /* \"--CODEGEN--\":164:187   */\n      mstore\n        /* \"--CODEGEN--\":98:100   */\n      0x20\n        /* \"--CODEGEN--\":93:96   */\n      dup3\n        /* \"--CODEGEN--\":89:101   */\n      add\n        /* \"--CODEGEN--\":82:101   */\n      swap2\n      pop\n        /* \"--CODEGEN--\":123:125   */\n      0x20\n        /* \"--CODEGEN--\":118:121   */\n      dup2\n        /* \"--CODEGEN--\":114:126   */\n      add\n        /* \"--CODEGEN--\":107:126   */\n      swap1\n      pop\n        /* \"--CODEGEN--\":148:150   */\n      0x20\n        /* \"--CODEGEN--\":143:146   */\n      dup4\n        /* \"--CODEGEN--\":139:151   */\n      sub\n        /* \"--CODEGEN--\":132:151   */\n      swap3\n      pop\n        /* \"--CODEGEN--\":36:189   */\n      jump(tag_168)\n    tag_170:\n        /* \"--CODEGEN--\":274:275   */\n      0x01\n        /* \"--CODEGEN--\":267:270   */\n      dup4\n        /* \"--CODEGEN--\":263:265   */\n      0x20\n        /* \"--CODEGEN--\":259:271   */\n      sub\n        /* \"--CODEGEN--\":254:257   */\n      0x0100\n        /* \"--CODEGEN--\":250:272   */\n      exp\n        /* \"--CODEGEN--\":246:276   */\n      sub\n        /* \"--CODEGEN--\":315:319   */\n      dup1\n        /* \"--CODEGEN--\":311:320   */\n      not\n        /* \"--CODEGEN--\":305:308   */\n      dup3\n        /* \"--CODEGEN--\":299:309   */\n      mload\n        /* \"--CODEGEN--\":295:321   */\n      and\n        /* \"--CODEGEN--\":356:360   */\n      dup2\n        /* \"--CODEGEN--\":350:353   */\n      dup5\n        /* \"--CODEGEN--\":344:354   */\n      mload\n        /* \"--CODEGEN--\":340:361   */\n      and\n        /* \"--CODEGEN--\":389:396   */\n      dup1\n        /* \"--CODEGEN--\":380:387   */\n      dup3\n        /* \"--CODEGEN--\":377:397   */\n      or\n        /* \"--CODEGEN--\":372:375   */\n      dup6\n        /* \"--CODEGEN--\":365:398   */\n      mstore\n        /* \"--CODEGEN--\":3:402   */\n      pop\n      pop\n      pop\n        /* \"PlasmaManager.sol\":3020:3130  abi.encodePacked(... */\n      pop\n      pop\n      pop\n      swap1\n      pop\n      add\n      dup4\n      dup1\n      mload\n      swap1\n      0x20\n      add\n      swap1\n      dup1\n      dup4\n      dup4\n        /* \"--CODEGEN--\":36:189   */\n    tag_171:\n        /* \"--CODEGEN--\":66:68   */\n      0x20\n        /* \"--CODEGEN--\":61:64   */\n      dup4\n        /* \"--CODEGEN--\":58:69   */\n      lt\n        /* \"--CODEGEN--\":36:189   */\n      tag_173\n      jumpi\n        /* \"--CODEGEN--\":182:185   */\n      dup1\n        /* \"--CODEGEN--\":176:186   */\n      mload\n        /* \"--CODEGEN--\":171:174   */\n      dup3\n        /* \"--CODEGEN--\":164:187   */\n      mstore\n        /* \"--CODEGEN--\":98:100   */\n      0x20\n        /* \"--CODEGEN--\":93:96   */\n      dup3\n        /* \"--CODEGEN--\":89:101   */\n      add\n        /* \"--CODEGEN--\":82:101   */\n      swap2\n      pop\n        /* \"--CODEGEN--\":123:125   */\n      0x20\n        /* \"--CODEGEN--\":118:121   */\n      dup2\n        /* \"--CODEGEN--\":114:126   */\n      add\n        /* \"--CODEGEN--\":107:126   */\n      swap1\n      pop\n        /* \"--CODEGEN--\":148:150   */\n      0x20\n        /* \"--CODEGEN--\":143:146   */\n      dup4\n        /* \"--CODEGEN--\":139:151   */\n      sub\n        /* \"--CODEGEN--\":132:151   */\n      swap3\n      pop\n        /* \"--CODEGEN--\":36:189   */\n      jump(tag_171)\n    tag_173:\n        /* \"--CODEGEN--\":274:275   */\n      0x01\n        /* \"--CODEGEN--\":267:270   */\n      dup4\n        /* \"--CODEGEN--\":263:265   */\n      0x20\n        /* \"--CODEGEN--\":259:271   */\n      sub\n        /* \"--CODEGEN--\":254:257   */\n      0x0100\n        /* \"--CODEGEN--\":250:272   */\n      exp\n        /* \"--CODEGEN--\":246:276   */\n      sub\n        /* \"--CODEGEN--\":315:319   */\n      dup1\n        /* \"--CODEGEN--\":311:320   */\n      not\n        /* \"--CODEGEN--\":305:308   */\n      dup3\n        /* \"--CODEGEN--\":299:309   */\n      mload\n        /* \"--CODEGEN--\":295:321   */\n      and\n        /* \"--CODEGEN--\":356:360   */\n      dup2\n        /* \"--CODEGEN--\":350:353   */\n      dup5\n        /* \"--CODEGEN--\":344:354   */\n      mload\n        /* \"--CODEGEN--\":340:361   */\n      and\n        /* \"--CODEGEN--\":389:396   */\n      dup1\n        /* \"--CODEGEN--\":380:387   */\n      dup3\n        /* \"--CODEGEN--\":377:397   */\n      or\n        /* \"--CODEGEN--\":372:375   */\n      dup6\n        /* \"--CODEGEN--\":365:398   */\n      mstore\n        /* \"--CODEGEN--\":3:402   */\n      pop\n      pop\n      pop\n        /* \"PlasmaManager.sol\":3020:3130  abi.encodePacked(... */\n      pop\n      pop\n      pop\n      swap1\n      pop\n      add\n      dup3\n      dup1\n      mload\n      swap1\n      0x20\n      add\n      swap1\n      dup1\n      dup4\n      dup4\n        /* \"--CODEGEN--\":36:189   */\n    tag_174:\n        /* \"--CODEGEN--\":66:68   */\n      0x20\n        /* \"--CODEGEN--\":61:64   */\n      dup4\n        /* \"--CODEGEN--\":58:69   */\n      lt\n        /* \"--CODEGEN--\":36:189   */\n      tag_176\n      jumpi\n        /* \"--CODEGEN--\":182:185   */\n      dup1\n        /* \"--CODEGEN--\":176:186   */\n      mload\n        /* \"--CODEGEN--\":171:174   */\n      dup3\n        /* \"--CODEGEN--\":164:187   */\n      mstore\n        /* \"--CODEGEN--\":98:100   */\n      0x20\n        /* \"--CODEGEN--\":93:96   */\n      dup3\n        /* \"--CODEGEN--\":89:101   */\n      add\n        /* \"--CODEGEN--\":82:101   */\n      swap2\n      pop\n        /* \"--CODEGEN--\":123:125   */\n      0x20\n        /* \"--CODEGEN--\":118:121   */\n      dup2\n        /* \"--CODEGEN--\":114:126   */\n      add\n        /* \"--CODEGEN--\":107:126   */\n      swap1\n      pop\n        /* \"--CODEGEN--\":148:150   */\n      0x20\n        /* \"--CODEGEN--\":143:146   */\n      dup4\n        /* \"--CODEGEN--\":139:151   */\n      sub\n        /* \"--CODEGEN--\":132:151   */\n      swap3\n      pop\n        /* \"--CODEGEN--\":36:189   */\n      jump(tag_174)\n    tag_176:\n        /* \"--CODEGEN--\":274:275   */\n      0x01\n        /* \"--CODEGEN--\":267:270   */\n      dup4\n        /* \"--CODEGEN--\":263:265   */\n      0x20\n        /* \"--CODEGEN--\":259:271   */\n      sub\n        /* \"--CODEGEN--\":254:257   */\n      0x0100\n        /* \"--CODEGEN--\":250:272   */\n      exp\n        /* \"--CODEGEN--\":246:276   */\n      sub\n        /* \"--CODEGEN--\":315:319   */\n      dup1\n        /* \"--CODEGEN--\":311:320   */\n      not\n        /* \"--CODEGEN--\":305:308   */\n      dup3\n        /* \"--CODEGEN--\":299:309   */\n      mload\n        /* \"--CODEGEN--\":295:321   */\n      and\n        /* \"--CODEGEN--\":356:360   */\n      dup2\n        /* \"--CODEGEN--\":350:353   */\n      dup5\n        /* \"--CODEGEN--\":344:354   */\n      mload\n        /* \"--CODEGEN--\":340:361   */\n      and\n        /* \"--CODEGEN--\":389:396   */\n      dup1\n        /* \"--CODEGEN--\":380:387   */\n      dup3\n        /* \"--CODEGEN--\":377:397   */\n      or\n        /* \"--CODEGEN--\":372:375   */\n      dup6\n        /* \"--CODEGEN--\":365:398   */\n      mstore\n        /* \"--CODEGEN--\":3:402   */\n      pop\n      pop\n      pop\n        /* \"PlasmaManager.sol\":3020:3130  abi.encodePacked(... */\n      pop\n      pop\n      pop\n      swap1\n      pop\n      add\n      swap4\n      pop\n      pop\n      pop\n      pop\n      mload(0x40)\n        /* \"--CODEGEN--\":49:53   */\n      0x20\n        /* \"--CODEGEN--\":39:46   */\n      dup2\n        /* \"--CODEGEN--\":30:37   */\n      dup4\n        /* \"--CODEGEN--\":26:47   */\n      sub\n        /* \"--CODEGEN--\":22:54   */\n      sub\n        /* \"--CODEGEN--\":13:20   */\n      dup2\n        /* \"--CODEGEN--\":6:55   */\n      mstore\n        /* \"PlasmaManager.sol\":3020:3130  abi.encodePacked(... */\n      swap1\n      0x40\n      mstore\n        /* \"PlasmaManager.sol\":3003:3136  keccak256(... */\n      dup1\n      mload\n      swap1\n      0x20\n      add\n      keccak256\n        /* \"PlasmaManager.sol\":2985:3136  bytes32 _digest = keccak256(... */\n      swap1\n      pop\n        /* \"PlasmaManager.sol\":3148:3164  Bytes32(_digest) */\n      0xf263fdaa282129bf525bc5da5a454ee67eb2b96bc11afab9c6f92896f166b18e\n        /* \"PlasmaManager.sol\":3156:3163  _digest */\n      dup2\n        /* \"PlasmaManager.sol\":3148:3164  Bytes32(_digest) */\n      mload(0x40)\n      dup1\n      dup3\n      dup2\n      mstore\n      0x20\n      add\n      swap2\n      pop\n      pop\n      mload(0x40)\n      dup1\n      swap2\n      sub\n      swap1\n      log1\n        /* \"PlasmaManager.sol\":3171:3203  uint256 _numberOfValidSignatures */\n      0x00\n        /* \"PlasmaManager.sol\":3214:3223  uint256 i */\n      dup1\n        /* \"PlasmaManager.sol\":3226:3227  1 */\n      0x01\n        /* \"PlasmaManager.sol\":3214:3227  uint256 i = 1 */\n      swap1\n      pop\n        /* \"PlasmaManager.sol\":3210:3907  for(uint256 i = 1; i < _fullList.length; i++) {... */\n    tag_177:\n        /* \"PlasmaManager.sol\":3233:3242  _fullList */\n      dup7\n        /* \"PlasmaManager.sol\":3233:3249  _fullList.length */\n      mload\n        /* \"PlasmaManager.sol\":3229:3230  i */\n      dup2\n        /* \"PlasmaManager.sol\":3229:3249  i < _fullList.length */\n      lt\n        /* \"PlasmaManager.sol\":3210:3907  for(uint256 i = 1; i < _fullList.length; i++) {... */\n      iszero\n      tag_178\n      jumpi\n        /* \"PlasmaManager.sol\":3264:3287  bytes memory _signature */\n      0x60\n        /* \"PlasmaManager.sol\":3290:3312  _fullList[i].toBytes() */\n      tag_180\n        /* \"PlasmaManager.sol\":3290:3299  _fullList */\n      dup9\n        /* \"PlasmaManager.sol\":3300:3301  i */\n      dup4\n        /* \"PlasmaManager.sol\":3290:3302  _fullList[i] */\n      dup2\n      mload\n      dup2\n      lt\n      tag_181\n      jumpi\n      invalid\n    tag_181:\n      0x20\n      mul\n      0x20\n      add\n      add\n      mload\n        /* \"PlasmaManager.sol\":3290:3310  _fullList[i].toBytes */\n      tag_136\n        /* \"PlasmaManager.sol\":3290:3312  _fullList[i].toBytes() */\n      jump\t// in\n    tag_180:\n        /* \"PlasmaManager.sol\":3264:3312  bytes memory _signature = _fullList[i].toBytes() */\n      swap1\n      pop\n        /* \"PlasmaManager.sol\":3321:3331  bytes32 _r */\n      0x00\n        /* \"PlasmaManager.sol\":3339:3349  bytes32 _s */\n      dup1\n        /* \"PlasmaManager.sol\":3357:3365  uint8 _v */\n      0x00\n        /* \"PlasmaManager.sol\":3425:3429  0x20 */\n      0x20\n        /* \"PlasmaManager.sol\":3413:3423  _signature */\n      dup5\n        /* \"PlasmaManager.sol\":3409:3430  add(_signature, 0x20) */\n      add\n        /* \"PlasmaManager.sol\":3451:3459  _pointer */\n      dup1\n        /* \"PlasmaManager.sol\":3445:3460  mload(_pointer) */\n      mload\n        /* \"PlasmaManager.sol\":3439:3460  _r := mload(_pointer) */\n      swap4\n      pop\n        /* \"PlasmaManager.sol\":3495:3499  0x20 */\n      0x20\n        /* \"PlasmaManager.sol\":3485:3493  _pointer */\n      dup2\n        /* \"PlasmaManager.sol\":3481:3500  add(_pointer, 0x20) */\n      add\n        /* \"PlasmaManager.sol\":3475:3501  mload(add(_pointer, 0x20)) */\n      mload\n        /* \"PlasmaManager.sol\":3469:3501  _s := mload(add(_pointer, 0x20)) */\n      swap3\n      pop\n        /* \"PlasmaManager.sol\":3544:3548  0x40 */\n      0x40\n        /* \"PlasmaManager.sol\":3534:3542  _pointer */\n      dup2\n        /* \"PlasmaManager.sol\":3530:3549  add(_pointer, 0x40) */\n      add\n        /* \"PlasmaManager.sol\":3524:3550  mload(add(_pointer, 0x40)) */\n      mload\n        /* \"PlasmaManager.sol\":3521:3522  0 */\n      0x00\n        /* \"PlasmaManager.sol\":3516:3551  byte(0, mload(add(_pointer, 0x40))) */\n      byte\n        /* \"PlasmaManager.sol\":3510:3551  _v := byte(0, mload(add(_pointer, 0x40))) */\n      swap2\n      pop\n        /* \"PlasmaManager.sol\":3570:3572  27 */\n      0x1b\n        /* \"PlasmaManager.sol\":3566:3568  _v */\n      dup3\n        /* \"PlasmaManager.sol\":3563:3573  lt(_v, 27) */\n      lt\n        /* \"PlasmaManager.sol\":3560:3562  if */\n      iszero\n      tag_182\n      jumpi\n        /* \"PlasmaManager.sol\":3590:3592  27 */\n      0x1b\n        /* \"PlasmaManager.sol\":3586:3588  _v */\n      dup3\n        /* \"PlasmaManager.sol\":3582:3593  add(_v, 27) */\n      add\n        /* \"PlasmaManager.sol\":3576:3593  _v := add(_v, 27) */\n      swap2\n      pop\n        /* \"PlasmaManager.sol\":3560:3562  if */\n    tag_182:\n        /* \"PlasmaManager.sol\":3383:3603  {... */\n      pop\n        /* \"PlasmaManager.sol\":3625:3627  27 */\n      0x1b\n        /* \"PlasmaManager.sol\":3619:3621  _v */\n      dup2\n        /* \"PlasmaManager.sol\":3619:3627  _v == 27 */\n      0xff\n      and\n      eq\n        /* \"PlasmaManager.sol\":3619:3639  _v == 27 || _v == 28 */\n      dup1\n      tag_183\n      jumpi\n      pop\n        /* \"PlasmaManager.sol\":3637:3639  28 */\n      0x1c\n        /* \"PlasmaManager.sol\":3631:3633  _v */\n      dup2\n        /* \"PlasmaManager.sol\":3631:3639  _v == 28 */\n      0xff\n      and\n      eq\n        /* \"PlasmaManager.sol\":3619:3639  _v == 27 || _v == 28 */\n    tag_183:\n        /* \"PlasmaManager.sol\":3611:3666  require(_v == 27 || _v == 28, 'invalid recovery value') */\n      tag_184\n      jumpi\n      mload(0x40)\n      0x08c379a000000000000000000000000000000000000000000000000000000000\n      dup2\n      mstore\n      0x04\n      add\n      dup1\n      dup1\n      0x20\n      add\n      dup3\n      dup2\n      sub\n      dup3\n      mstore\n      0x16\n      dup2\n      mstore\n      0x20\n      add\n      dup1\n      0x696e76616c6964207265636f766572792076616c756500000000000000000000\n      dup2\n      mstore\n      pop\n      0x20\n      add\n      swap2\n      pop\n      pop\n      mload(0x40)\n      dup1\n      swap2\n      sub\n      swap1\n      revert\n    tag_184:\n        /* \"PlasmaManager.sol\":3675:3690  address _signer */\n      0x00\n        /* \"PlasmaManager.sol\":3693:3723  ecrecover(_digest, _v, _r, _s) */\n      0x01\n        /* \"PlasmaManager.sol\":3703:3710  _digest */\n      dup9\n        /* \"PlasmaManager.sol\":3712:3714  _v */\n      dup4\n        /* \"PlasmaManager.sol\":3716:3718  _r */\n      dup7\n        /* \"PlasmaManager.sol\":3720:3722  _s */\n      dup7\n        /* \"PlasmaManager.sol\":3693:3723  ecrecover(_digest, _v, _r, _s) */\n      mload(0x40)\n      0x00\n      dup2\n      mstore\n      0x20\n      add\n      0x40\n      mstore\n      mload(0x40)\n      dup1\n      dup6\n      dup2\n      mstore\n      0x20\n      add\n      dup5\n      0xff\n      and\n      0xff\n      and\n      dup2\n      mstore\n      0x20\n      add\n      dup4\n      dup2\n      mstore\n      0x20\n      add\n      dup3\n      dup2\n      mstore\n      0x20\n      add\n      swap5\n      pop\n      pop\n      pop\n      pop\n      pop\n      0x20\n      mload(0x40)\n      0x20\n      dup2\n      sub\n      swap1\n      dup1\n      dup5\n      sub\n      swap1\n      dup6\n      gas\n      staticcall\n      iszero\n        /* \"--CODEGEN--\":8:17   */\n      dup1\n        /* \"--CODEGEN--\":5:7   */\n      iszero\n      tag_186\n      jumpi\n        /* \"--CODEGEN--\":45:61   */\n      returndatasize\n        /* \"--CODEGEN--\":42:43   */\n      0x00\n        /* \"--CODEGEN--\":39:40   */\n      dup1\n        /* \"--CODEGEN--\":24:62   */\n      returndatacopy\n        /* \"--CODEGEN--\":77:93   */\n      returndatasize\n        /* \"--CODEGEN--\":74:75   */\n      0x00\n        /* \"--CODEGEN--\":67:94   */\n      revert\n        /* \"--CODEGEN--\":5:7   */\n    tag_186:\n        /* \"PlasmaManager.sol\":3693:3723  ecrecover(_digest, _v, _r, _s) */\n      pop\n      pop\n      pop\n      mload(sub(mload(0x40), 0x20))\n        /* \"PlasmaManager.sol\":3675:3723  address _signer = ecrecover(_digest, _v, _r, _s) */\n      swap1\n      pop\n        /* \"PlasmaManager.sol\":3822:3833  isValidator */\n      0x01\n        /* \"PlasmaManager.sol\":3822:3842  isValidator[_signer] */\n      0x00\n        /* \"PlasmaManager.sol\":3834:3841  _signer */\n      dup3\n        /* \"PlasmaManager.sol\":3822:3842  isValidator[_signer] */\n      0xffffffffffffffffffffffffffffffffffffffff\n      and\n      0xffffffffffffffffffffffffffffffffffffffff\n      and\n      dup2\n      mstore\n      0x20\n      add\n      swap1\n      dup2\n      mstore\n      0x20\n      add\n      0x00\n      keccak256\n      0x00\n      swap1\n      sload\n      swap1\n      0x0100\n      exp\n      swap1\n      div\n      0xff\n      and\n        /* \"PlasmaManager.sol\":3819:3870  if(isValidator[_signer]) _numberOfValidSignatures++ */\n      iszero\n      tag_187\n      jumpi\n        /* \"PlasmaManager.sol\":3844:3870  _numberOfValidSignatures++ */\n      dup7\n      dup1\n      0x01\n      add\n      swap8\n      pop\n      pop\n        /* \"PlasmaManager.sol\":3819:3870  if(isValidator[_signer]) _numberOfValidSignatures++ */\n    tag_187:\n        /* \"PlasmaManager.sol\":3884:3900  Address(_signer) */\n      0xebfb412ded3f9cdb15b75308503b279416e74d382f6ce86eedee0ef3130fa9e3\n        /* \"PlasmaManager.sol\":3892:3899  _signer */\n      dup2\n        /* \"PlasmaManager.sol\":3884:3900  Address(_signer) */\n      mload(0x40)\n      dup1\n      dup3\n      0xffffffffffffffffffffffffffffffffffffffff\n      and\n      0xffffffffffffffffffffffffffffffffffffffff\n      and\n      dup2\n      mstore\n      0x20\n      add\n      swap2\n      pop\n      pop\n      mload(0x40)\n      dup1\n      swap2\n      sub\n      swap1\n      log1\n        /* \"PlasmaManager.sol\":3210:3907  for(uint256 i = 1; i < _fullList.length; i++) {... */\n      pop\n      pop\n      pop\n      pop\n      pop\n        /* \"PlasmaManager.sol\":3251:3254  i++ */\n      dup1\n      dup1\n      0x01\n      add\n      swap2\n      pop\n      pop\n        /* \"PlasmaManager.sol\":3210:3907  for(uint256 i = 1; i < _fullList.length; i++) {... */\n      jump(tag_177)\n    tag_178:\n      pop\n        /* \"PlasmaManager.sol\":3974:3977  100 */\n      0x64\n        /* \"PlasmaManager.sol\":3969:3971  66 */\n      0x42\n        /* \"PlasmaManager.sol\":3948:3966  numberOfValidators */\n      sload(0x00)\n        /* \"PlasmaManager.sol\":3948:3971  numberOfValidators * 66 */\n      mul\n        /* \"PlasmaManager.sol\":3948:3977  numberOfValidators * 66 / 100 */\n      dup2\n      tag_188\n      jumpi\n      invalid\n    tag_188:\n      div\n        /* \"PlasmaManager.sol\":3921:3945  _numberOfValidSignatures */\n      dup2\n        /* \"PlasmaManager.sol\":3921:3977  _numberOfValidSignatures > numberOfValidators * 66 / 100 */\n      gt\n        /* \"PlasmaManager.sol\":3913:4008  require(_numberOfValidSignatures > numberOfValidators * 66 / 100, '66% validators should sign') */\n      tag_189\n      jumpi\n      mload(0x40)\n      0x08c379a000000000000000000000000000000000000000000000000000000000\n      dup2\n      mstore\n      0x04\n      add\n      dup1\n      dup1\n      0x20\n      add\n      dup3\n      dup2\n      sub\n      dup3\n      mstore\n      0x1a\n      dup2\n      mstore\n      0x20\n      add\n      dup1\n      0x3636252076616c696461746f72732073686f756c64207369676e000000000000\n      dup2\n      mstore\n      pop\n      0x20\n      add\n      swap2\n      pop\n      pop\n      mload(0x40)\n      dup1\n      swap2\n      sub\n      swap1\n      revert\n    tag_189:\n        /* \"PlasmaManager.sol\":4015:4034  uint256 _bunchIndex */\n      0x00\n        /* \"PlasmaManager.sol\":4037:4044  bunches */\n      0x05\n        /* \"PlasmaManager.sol\":4037:4051  bunches.length */\n      dup1\n      sload\n      swap1\n      pop\n        /* \"PlasmaManager.sol\":4015:4051  uint256 _bunchIndex = bunches.length */\n      swap1\n      pop\n        /* \"PlasmaManager.sol\":4058:4065  bunches */\n      0x05\n        /* \"PlasmaManager.sol\":4071:4083  _bunchHeader */\n      dup6\n        /* \"PlasmaManager.sol\":4058:4084  bunches.push(_bunchHeader) */\n      swap1\n      dup1\n        /* \"--CODEGEN--\":39:40   */\n      0x01\n        /* \"--CODEGEN--\":33:36   */\n      dup2\n        /* \"--CODEGEN--\":27:37   */\n      sload\n        /* \"--CODEGEN--\":23:41   */\n      add\n        /* \"--CODEGEN--\":57:67   */\n      dup1\n        /* \"--CODEGEN--\":52:55   */\n      dup3\n        /* \"--CODEGEN--\":45:68   */\n      sstore\n        /* \"--CODEGEN--\":79:89   */\n      dup1\n        /* \"--CODEGEN--\":72:89   */\n      swap2\n      pop\n        /* \"--CODEGEN--\":0:93   */\n      pop\n        /* \"PlasmaManager.sol\":4058:4084  bunches.push(_bunchHeader) */\n      0x01\n      swap1\n      sub\n      swap1\n      0x00\n      mstore\n      keccak256(0x00, 0x20)\n      swap1\n      0x04\n      mul\n      add\n      0x00\n      swap1\n      swap2\n      swap1\n      swap2\n      swap1\n      swap2\n      pop\n      0x00\n      dup3\n      add\n      mload\n      dup2\n      0x00\n      add\n      sstore\n      0x20\n      dup3\n      add\n      mload\n      dup2\n      0x01\n      add\n      sstore\n      0x40\n      dup3\n      add\n      mload\n      dup2\n      0x02\n      add\n      sstore\n      0x60\n      dup3\n      add\n      mload\n      dup2\n      0x03\n      add\n      sstore\n      pop\n      pop\n        /* \"PlasmaManager.sol\":4096:4179  NewBunchHeader(_bunchHeader.startBlockNumber, _bunchHeader.bunchDepth, _bunchIndex) */\n      0x435520ea9b14c682112acef5bc8466234d75b18dce73c44a78d905139def419d\n        /* \"PlasmaManager.sol\":4111:4123  _bunchHeader */\n      dup6\n        /* \"PlasmaManager.sol\":4111:4140  _bunchHeader.startBlockNumber */\n      0x00\n      add\n      mload\n        /* \"PlasmaManager.sol\":4142:4154  _bunchHeader */\n      dup7\n        /* \"PlasmaManager.sol\":4142:4165  _bunchHeader.bunchDepth */\n      0x20\n      add\n      mload\n        /* \"PlasmaManager.sol\":4167:4178  _bunchIndex */\n      dup4\n        /* \"PlasmaManager.sol\":4096:4179  NewBunchHeader(_bunchHeader.startBlockNumber, _bunchHeader.bunchDepth, _bunchIndex) */\n      mload(0x40)\n      dup1\n      dup5\n      dup2\n      mstore\n      0x20\n      add\n      dup4\n      dup2\n      mstore\n      0x20\n      add\n      dup3\n      dup2\n      mstore\n      0x20\n      add\n      swap4\n      pop\n      pop\n      pop\n      pop\n      mload(0x40)\n      dup1\n      swap2\n      sub\n      swap1\n      log1\n        /* \"PlasmaManager.sol\":2279:4184  function submitBunchHeader(bytes memory _signedHeader) public {... */\n      pop\n      pop\n      pop\n      pop\n      pop\n      pop\n      pop\n      pop\n      jump\t// out\n        /* \"PlasmaManager.sol\":2161:2275  function setESNDepositAddress(address _esnDepositAddress) public {... */\n    tag_58:\n        /* \"PlasmaManager.sol\":2252:2270  _esnDepositAddress */\n      dup1\n        /* \"PlasmaManager.sol\":2232:2249  esnDepositAddress */\n      0x07\n      0x00\n        /* \"PlasmaManager.sol\":2232:2270  esnDepositAddress = _esnDepositAddress */\n      0x0100\n      exp\n      dup2\n      sload\n      dup2\n      0xffffffffffffffffffffffffffffffffffffffff\n      mul\n      not\n      and\n      swap1\n      dup4\n      0xffffffffffffffffffffffffffffffffffffffff\n      and\n      mul\n      or\n      swap1\n      sstore\n      pop\n        /* \"PlasmaManager.sol\":2161:2275  function setESNDepositAddress(address _esnDepositAddress) public {... */\n      pop\n      jump\t// out\n        /* \"PlasmaManager.sol\":612:664  mapping(bytes32 => bool) public processedWithdrawals */\n    tag_61:\n      mstore(0x20, 0x02)\n      dup1\n      0x00\n      mstore\n      keccak256(0x00, 0x40)\n      0x00\n      swap2\n      pop\n      sload\n      swap1\n      0x0100\n      exp\n      swap1\n      div\n      0xff\n      and\n      dup2\n      jump\t// out\n        /* \"PlasmaManager.sol\":4188:6116  function claimWithdrawal(... */\n    tag_67:\n        /* \"PlasmaManager.sol\":4269:4303  RLP.RLPItem[] memory _decodedProof */\n      0x60\n        /* \"PlasmaManager.sol\":4306:4347  _rawTransactionProof.toRLPItem().toList() */\n      tag_193\n        /* \"PlasmaManager.sol\":4306:4338  _rawTransactionProof.toRLPItem() */\n      tag_194\n        /* \"PlasmaManager.sol\":4306:4326  _rawTransactionProof */\n      dup4\n        /* \"PlasmaManager.sol\":4306:4336  _rawTransactionProof.toRLPItem */\n      tag_103\n        /* \"PlasmaManager.sol\":4306:4338  _rawTransactionProof.toRLPItem() */\n      jump\t// in\n    tag_194:\n        /* \"PlasmaManager.sol\":4306:4345  _rawTransactionProof.toRLPItem().toList */\n      tag_104\n        /* \"PlasmaManager.sol\":4306:4347  _rawTransactionProof.toRLPItem().toList() */\n      jump\t// in\n    tag_193:\n        /* \"PlasmaManager.sol\":4269:4347  RLP.RLPItem[] memory _decodedProof = _rawTransactionProof.toRLPItem().toList() */\n      swap1\n      pop\n        /* \"PlasmaManager.sol\":4354:4373  uint256 _bunchIndex */\n      0x00\n        /* \"PlasmaManager.sol\":4376:4401  _decodedProof[0].toUint() */\n      tag_195\n        /* \"PlasmaManager.sol\":4376:4389  _decodedProof */\n      dup3\n        /* \"PlasmaManager.sol\":4390:4391  0 */\n      0x00\n        /* \"PlasmaManager.sol\":4376:4392  _decodedProof[0] */\n      dup2\n      mload\n      dup2\n      lt\n      tag_196\n      jumpi\n      invalid\n    tag_196:\n      0x20\n      mul\n      0x20\n      add\n      add\n      mload\n        /* \"PlasmaManager.sol\":4376:4399  _decodedProof[0].toUint */\n      tag_110\n        /* \"PlasmaManager.sol\":4376:4401  _decodedProof[0].toUint() */\n      jump\t// in\n    tag_195:\n        /* \"PlasmaManager.sol\":4354:4401  uint256 _bunchIndex = _decodedProof[0].toUint() */\n      swap1\n      pop\n        /* \"PlasmaManager.sol\":4407:4427  uint256 _blockNumber */\n      0x00\n        /* \"PlasmaManager.sol\":4430:4455  _decodedProof[1].toUint() */\n      tag_197\n        /* \"PlasmaManager.sol\":4430:4443  _decodedProof */\n      dup4\n        /* \"PlasmaManager.sol\":4444:4445  1 */\n      0x01\n        /* \"PlasmaManager.sol\":4430:4446  _decodedProof[1] */\n      dup2\n      mload\n      dup2\n      lt\n      tag_198\n      jumpi\n      invalid\n    tag_198:\n      0x20\n      mul\n      0x20\n      add\n      add\n      mload\n        /* \"PlasmaManager.sol\":4430:4453  _decodedProof[1].toUint */\n      tag_110\n        /* \"PlasmaManager.sol\":4430:4455  _decodedProof[1].toUint() */\n      jump\t// in\n    tag_197:\n        /* \"PlasmaManager.sol\":4407:4455  uint256 _blockNumber = _decodedProof[1].toUint() */\n      swap1\n      pop\n        /* \"PlasmaManager.sol\":4461:4492  bytes memory _blockInBunchProof */\n      0x60\n        /* \"PlasmaManager.sol\":4495:4521  _decodedProof[2].toBytes() */\n      tag_199\n        /* \"PlasmaManager.sol\":4495:4508  _decodedProof */\n      dup5\n        /* \"PlasmaManager.sol\":4509:4510  2 */\n      0x02\n        /* \"PlasmaManager.sol\":4495:4511  _decodedProof[2] */\n      dup2\n      mload\n      dup2\n      lt\n      tag_200\n      jumpi\n      invalid\n    tag_200:\n      0x20\n      mul\n      0x20\n      add\n      add\n      mload\n        /* \"PlasmaManager.sol\":4495:4519  _decodedProof[2].toBytes */\n      tag_136\n        /* \"PlasmaManager.sol\":4495:4521  _decodedProof[2].toBytes() */\n      jump\t// in\n    tag_199:\n        /* \"PlasmaManager.sol\":4461:4521  bytes memory _blockInBunchProof = _decodedProof[2].toBytes() */\n      swap1\n      pop\n        /* \"PlasmaManager.sol\":4527:4542  bytes32 _txRoot */\n      0x00\n        /* \"PlasmaManager.sol\":4545:4573  _decodedProof[3].toBytes32() */\n      tag_201\n        /* \"PlasmaManager.sol\":4545:4558  _decodedProof */\n      dup6\n        /* \"PlasmaManager.sol\":4559:4560  3 */\n      0x03\n        /* \"PlasmaManager.sol\":4545:4561  _decodedProof[3] */\n      dup2\n      mload\n      dup2\n      lt\n      tag_202\n      jumpi\n      invalid\n    tag_202:\n      0x20\n      mul\n      0x20\n      add\n      add\n      mload\n        /* \"PlasmaManager.sol\":4545:4571  _decodedProof[3].toBytes32 */\n      tag_115\n        /* \"PlasmaManager.sol\":4545:4573  _decodedProof[3].toBytes32() */\n      jump\t// in\n    tag_201:\n        /* \"PlasmaManager.sol\":4527:4573  bytes32 _txRoot = _decodedProof[3].toBytes32() */\n      swap1\n      pop\n        /* \"PlasmaManager.sol\":4579:4598  bytes memory _rawTx */\n      0x60\n        /* \"PlasmaManager.sol\":4601:4627  _decodedProof[4].toBytes() */\n      tag_203\n        /* \"PlasmaManager.sol\":4601:4614  _decodedProof */\n      dup7\n        /* \"PlasmaManager.sol\":4615:4616  4 */\n      0x04\n        /* \"PlasmaManager.sol\":4601:4617  _decodedProof[4] */\n      dup2\n      mload\n      dup2\n      lt\n      tag_204\n      jumpi\n      invalid\n    tag_204:\n      0x20\n      mul\n      0x20\n      add\n      add\n      mload\n        /* \"PlasmaManager.sol\":4601:4625  _decodedProof[4].toBytes */\n      tag_136\n        /* \"PlasmaManager.sol\":4601:4627  _decodedProof[4].toBytes() */\n      jump\t// in\n    tag_203:\n        /* \"PlasmaManager.sol\":4579:4627  bytes memory _rawTx = _decodedProof[4].toBytes() */\n      swap1\n      pop\n        /* \"PlasmaManager.sol\":4633:4654  bytes memory _txIndex */\n      0x60\n        /* \"PlasmaManager.sol\":4657:4683  _decodedProof[5].toBytes() */\n      tag_205\n        /* \"PlasmaManager.sol\":4657:4670  _decodedProof */\n      dup8\n        /* \"PlasmaManager.sol\":4671:4672  5 */\n      0x05\n        /* \"PlasmaManager.sol\":4657:4673  _decodedProof[5] */\n      dup2\n      mload\n      dup2\n      lt\n      tag_206\n      jumpi\n      invalid\n    tag_206:\n      0x20\n      mul\n      0x20\n      add\n      add\n      mload\n        /* \"PlasmaManager.sol\":4657:4681  _decodedProof[5].toBytes */\n      tag_136\n        /* \"PlasmaManager.sol\":4657:4683  _decodedProof[5].toBytes() */\n      jump\t// in\n    tag_205:\n        /* \"PlasmaManager.sol\":4633:4683  bytes memory _txIndex = _decodedProof[5].toBytes() */\n      swap1\n      pop\n        /* \"PlasmaManager.sol\":4689:4717  bytes memory _txInBlockProof */\n      0x60\n        /* \"PlasmaManager.sol\":4720:4746  _decodedProof[6].toBytes() */\n      tag_207\n        /* \"PlasmaManager.sol\":4720:4733  _decodedProof */\n      dup9\n        /* \"PlasmaManager.sol\":4734:4735  6 */\n      0x06\n        /* \"PlasmaManager.sol\":4720:4736  _decodedProof[6] */\n      dup2\n      mload\n      dup2\n      lt\n      tag_208\n      jumpi\n      invalid\n    tag_208:\n      0x20\n      mul\n      0x20\n      add\n      add\n      mload\n        /* \"PlasmaManager.sol\":4720:4744  _decodedProof[6].toBytes */\n      tag_136\n        /* \"PlasmaManager.sol\":4720:4746  _decodedProof[6].toBytes() */\n      jump\t// in\n    tag_207:\n        /* \"PlasmaManager.sol\":4689:4746  bytes memory _txInBlockProof = _decodedProof[6].toBytes() */\n      swap1\n      pop\n        /* \"PlasmaManager.sol\":4753:4768  bytes32 _txHash */\n      0x00\n        /* \"PlasmaManager.sol\":4781:4787  _rawTx */\n      dup4\n        /* \"PlasmaManager.sol\":4771:4788  keccak256(_rawTx) */\n      dup1\n      mload\n      swap1\n      0x20\n      add\n      keccak256\n        /* \"PlasmaManager.sol\":4753:4788  bytes32 _txHash = keccak256(_rawTx) */\n      swap1\n      pop\n        /* \"PlasmaManager.sol\":4811:4831  processedWithdrawals */\n      0x02\n        /* \"PlasmaManager.sol\":4811:4840  processedWithdrawals[_txHash] */\n      0x00\n        /* \"PlasmaManager.sol\":4832:4839  _txHash */\n      dup3\n        /* \"PlasmaManager.sol\":4811:4840  processedWithdrawals[_txHash] */\n      dup2\n      mstore\n      0x20\n      add\n      swap1\n      dup2\n      mstore\n      0x20\n      add\n      0x00\n      keccak256\n      0x00\n      swap1\n      sload\n      swap1\n      0x0100\n      exp\n      swap1\n      div\n      0xff\n      and\n        /* \"PlasmaManager.sol\":4810:4840  !processedWithdrawals[_txHash] */\n      iszero\n        /* \"PlasmaManager.sol\":4795:4906  require(... */\n      tag_209\n      jumpi\n      mload(0x40)\n      0x08c379a000000000000000000000000000000000000000000000000000000000\n      dup2\n      mstore\n      0x04\n      add\n      dup1\n      dup1\n      0x20\n      add\n      dup3\n      dup2\n      sub\n      dup3\n      mstore\n      0x31\n      dup2\n      mstore\n      0x20\n      add\n      dup1\n      data_fc13d223b0e89774a393f7fd3fe2b806585769765211db5908a5476ec6dfd9e8\n      0x31\n      swap2\n      codecopy\n      0x40\n      add\n      swap2\n      pop\n      pop\n      mload(0x40)\n      dup1\n      swap2\n      sub\n      swap1\n      revert\n    tag_209:\n        /* \"PlasmaManager.sol\":4928:4998  MerklePatriciaProof.verify(_rawTx, _txIndex, _txInBlockProof, _txRoot) */\n      tag_210\n        /* \"PlasmaManager.sol\":4955:4961  _rawTx */\n      dup5\n        /* \"PlasmaManager.sol\":4963:4971  _txIndex */\n      dup5\n        /* \"PlasmaManager.sol\":4973:4988  _txInBlockProof */\n      dup5\n        /* \"PlasmaManager.sol\":4990:4997  _txRoot */\n      dup9\n        /* \"PlasmaManager.sol\":4928:4954  MerklePatriciaProof.verify */\n      tag_211\n        /* \"PlasmaManager.sol\":4928:4998  MerklePatriciaProof.verify(_rawTx, _txIndex, _txInBlockProof, _txRoot) */\n      jump\t// in\n    tag_210:\n        /* \"PlasmaManager.sol\":4913:5044  require(... */\n      tag_212\n      jumpi\n      mload(0x40)\n      0x08c379a000000000000000000000000000000000000000000000000000000000\n      dup2\n      mstore\n      0x04\n      add\n      dup1\n      dup1\n      0x20\n      add\n      dup3\n      dup2\n      sub\n      dup3\n      mstore\n      0x1d\n      dup2\n      mstore\n      0x20\n      add\n      dup1\n      0x496e76616c6964204d65726b6c652050617472696369612050726f6f66000000\n      dup2\n      mstore\n      pop\n      0x20\n      add\n      swap2\n      pop\n      pop\n      mload(0x40)\n      dup1\n      swap2\n      sub\n      swap1\n      revert\n    tag_212:\n        /* \"PlasmaManager.sol\":5377:5578  verifyMerkleProof(... */\n      tag_213\n        /* \"PlasmaManager.sol\":5404:5411  _txRoot */\n      dup6\n        /* \"PlasmaManager.sol\":5454:5461  bunches */\n      0x05\n        /* \"PlasmaManager.sol\":5462:5473  _bunchIndex */\n      dup11\n        /* \"PlasmaManager.sol\":5454:5474  bunches[_bunchIndex] */\n      dup2\n      sload\n      dup2\n      lt\n      tag_214\n      jumpi\n      invalid\n    tag_214:\n      swap1\n      0x00\n      mstore\n      keccak256(0x00, 0x20)\n      swap1\n      0x04\n      mul\n      add\n        /* \"PlasmaManager.sol\":5454:5491  bunches[_bunchIndex].startBlockNumber */\n      0x00\n      add\n      sload\n        /* \"PlasmaManager.sol\":5439:5451  _blockNumber */\n      dup10\n        /* \"PlasmaManager.sol\":5439:5491  _blockNumber - bunches[_bunchIndex].startBlockNumber */\n      sub\n        /* \"PlasmaManager.sol\":5501:5508  bunches */\n      0x05\n        /* \"PlasmaManager.sol\":5509:5520  _bunchIndex */\n      dup12\n        /* \"PlasmaManager.sol\":5501:5521  bunches[_bunchIndex] */\n      dup2\n      sload\n      dup2\n      lt\n      tag_216\n      jumpi\n      invalid\n    tag_216:\n      swap1\n      0x00\n      mstore\n      keccak256(0x00, 0x20)\n      swap1\n      0x04\n      mul\n      add\n        /* \"PlasmaManager.sol\":5501:5542  bunches[_bunchIndex].transactionsMegaRoot */\n      0x02\n      add\n      sload\n        /* \"PlasmaManager.sol\":5552:5570  _blockInBunchProof */\n      dup10\n        /* \"PlasmaManager.sol\":5377:5394  verifyMerkleProof */\n      tag_35\n        /* \"PlasmaManager.sol\":5377:5578  verifyMerkleProof(... */\n      jump\t// in\n    tag_213:\n        /* \"PlasmaManager.sol\":5362:5615  require(... */\n      tag_218\n      jumpi\n      mload(0x40)\n      0x08c379a000000000000000000000000000000000000000000000000000000000\n      dup2\n      mstore\n      0x04\n      add\n      dup1\n      dup1\n      0x20\n      add\n      dup3\n      dup2\n      sub\n      dup3\n      mstore\n      0x14\n      dup2\n      mstore\n      0x20\n      add\n      dup1\n      0x496e76616c6964204d65726b6c652050726f6f66000000000000000000000000\n      dup2\n      mstore\n      pop\n      0x20\n      add\n      swap2\n      pop\n      pop\n      mload(0x40)\n      dup1\n      swap2\n      sub\n      swap1\n      revert\n    tag_218:\n        /* \"PlasmaManager.sol\":5623:5638  address _signer */\n      0x00\n        /* \"PlasmaManager.sol\":5640:5651  address _to */\n      dup1\n        /* \"PlasmaManager.sol\":5653:5667  uint256 _value */\n      0x00\n        /* \"PlasmaManager.sol\":5669:5685  uint256 _chainId */\n      dup1\n        /* \"PlasmaManager.sol\":5689:5713  parseTransaction(_rawTx) */\n      tag_219\n        /* \"PlasmaManager.sol\":5706:5712  _rawTx */\n      dup9\n        /* \"PlasmaManager.sol\":5689:5705  parseTransaction */\n      tag_46\n        /* \"PlasmaManager.sol\":5689:5713  parseTransaction(_rawTx) */\n      jump\t// in\n    tag_219:\n        /* \"PlasmaManager.sol\":5622:5713  (address _signer, address _to, uint256 _value, uint256 _chainId) = parseTransaction(_rawTx) */\n      swap4\n      pop\n      swap4\n      pop\n      swap4\n      pop\n      swap4\n      pop\n        /* \"PlasmaManager.sol\":5742:5759  esnDepositAddress */\n      0x07\n      0x00\n      swap1\n      sload\n      swap1\n      0x0100\n      exp\n      swap1\n      div\n      0xffffffffffffffffffffffffffffffffffffffff\n      and\n        /* \"PlasmaManager.sol\":5735:5759  _to == esnDepositAddress */\n      0xffffffffffffffffffffffffffffffffffffffff\n      and\n        /* \"PlasmaManager.sol\":5735:5738  _to */\n      dup4\n        /* \"PlasmaManager.sol\":5735:5759  _to == esnDepositAddress */\n      0xffffffffffffffffffffffffffffffffffffffff\n      and\n      eq\n        /* \"PlasmaManager.sol\":5720:5821  require(... */\n      tag_220\n      jumpi\n      mload(0x40)\n      0x08c379a000000000000000000000000000000000000000000000000000000000\n      dup2\n      mstore\n      0x04\n      add\n      dup1\n      dup1\n      0x20\n      add\n      dup3\n      dup2\n      sub\n      dup3\n      mstore\n      0x2e\n      dup2\n      mstore\n      0x20\n      add\n      dup1\n      data_077781bc781d69c18b16708e32a7859fb69c8510a105056868d84c2c5ba1f85f\n      0x2e\n      swap2\n      codecopy\n      0x40\n      add\n      swap2\n      pop\n      pop\n      mload(0x40)\n      dup1\n      swap2\n      sub\n      swap1\n      revert\n    tag_220:\n        /* \"PlasmaManager.sol\":857:863  0x2323 */\n      0x2323\n        /* \"PlasmaManager.sol\":5958:5966  _chainId */\n      dup2\n        /* \"PlasmaManager.sol\":5958:5978  _chainId == CHAIN_ID */\n      eq\n        /* \"PlasmaManager.sol\":5943:6030  require(... */\n      tag_221\n      jumpi\n      mload(0x40)\n      0x08c379a000000000000000000000000000000000000000000000000000000000\n      dup2\n      mstore\n      0x04\n      add\n      dup1\n      dup1\n      0x20\n      add\n      dup3\n      dup2\n      sub\n      dup3\n      mstore\n      0x23\n      dup2\n      mstore\n      0x20\n      add\n      dup1\n      data_c04cad1e368f4a31430822da10ca1926a292cad1122c2d1b4897925ce6257dd4\n      0x23\n      swap2\n      codecopy\n      0x40\n      add\n      swap2\n      pop\n      pop\n      mload(0x40)\n      dup1\n      swap2\n      sub\n      swap1\n      revert\n    tag_221:\n        /* \"PlasmaManager.sol\":6069:6073  true */\n      0x01\n        /* \"PlasmaManager.sol\":6037:6057  processedWithdrawals */\n      0x02\n        /* \"PlasmaManager.sol\":6037:6066  processedWithdrawals[_txHash] */\n      0x00\n        /* \"PlasmaManager.sol\":6058:6065  _txHash */\n      dup8\n        /* \"PlasmaManager.sol\":6037:6066  processedWithdrawals[_txHash] */\n      dup2\n      mstore\n      0x20\n      add\n      swap1\n      dup2\n      mstore\n      0x20\n      add\n      0x00\n      keccak256\n      0x00\n        /* \"PlasmaManager.sol\":6037:6073  processedWithdrawals[_txHash] = true */\n      0x0100\n      exp\n      dup2\n      sload\n      dup2\n      0xff\n      mul\n      not\n      and\n      swap1\n      dup4\n      iszero\n      iszero\n      mul\n      or\n      swap1\n      sstore\n      pop\n        /* \"PlasmaManager.sol\":6080:6085  token */\n      0x06\n      0x00\n      swap1\n      sload\n      swap1\n      0x0100\n      exp\n      swap1\n      div\n      0xffffffffffffffffffffffffffffffffffffffff\n      and\n        /* \"PlasmaManager.sol\":6080:6094  token.transfer */\n      0xffffffffffffffffffffffffffffffffffffffff\n      and\n      0xa9059cbb\n        /* \"PlasmaManager.sol\":6095:6102  _signer */\n      dup6\n        /* \"PlasmaManager.sol\":6104:6110  _value */\n      dup5\n        /* \"PlasmaManager.sol\":6080:6111  token.transfer(_signer, _value) */\n      mload(0x40)\n      dup4\n      0xffffffff\n      and\n      0xe0\n      shl\n      dup2\n      mstore\n      0x04\n      add\n      dup1\n      dup4\n      0xffffffffffffffffffffffffffffffffffffffff\n      and\n      0xffffffffffffffffffffffffffffffffffffffff\n      and\n      dup2\n      mstore\n      0x20\n      add\n      dup3\n      dup2\n      mstore\n      0x20\n      add\n      swap3\n      pop\n      pop\n      pop\n      0x20\n      mload(0x40)\n      dup1\n      dup4\n      sub\n      dup2\n      0x00\n      dup8\n      dup1\n      extcodesize\n      iszero\n        /* \"--CODEGEN--\":5:14   */\n      dup1\n        /* \"--CODEGEN--\":2:4   */\n      iszero\n      tag_222\n      jumpi\n        /* \"--CODEGEN--\":27:28   */\n      0x00\n        /* \"--CODEGEN--\":24:25   */\n      dup1\n        /* \"--CODEGEN--\":17:29   */\n      revert\n        /* \"--CODEGEN--\":2:4   */\n    tag_222:\n        /* \"PlasmaManager.sol\":6080:6111  token.transfer(_signer, _value) */\n      pop\n      gas\n      call\n      iszero\n        /* \"--CODEGEN--\":8:17   */\n      dup1\n        /* \"--CODEGEN--\":5:7   */\n      iszero\n      tag_224\n      jumpi\n        /* \"--CODEGEN--\":45:61   */\n      returndatasize\n        /* \"--CODEGEN--\":42:43   */\n      0x00\n        /* \"--CODEGEN--\":39:40   */\n      dup1\n        /* \"--CODEGEN--\":24:62   */\n      returndatacopy\n        /* \"--CODEGEN--\":77:93   */\n      returndatasize\n        /* \"--CODEGEN--\":74:75   */\n      0x00\n        /* \"--CODEGEN--\":67:94   */\n      revert\n        /* \"--CODEGEN--\":5:7   */\n    tag_224:\n        /* \"PlasmaManager.sol\":6080:6111  token.transfer(_signer, _value) */\n      pop\n      pop\n      pop\n      pop\n      mload(0x40)\n      returndatasize\n        /* \"--CODEGEN--\":15:17   */\n      0x20\n        /* \"--CODEGEN--\":10:13   */\n      dup2\n        /* \"--CODEGEN--\":7:18   */\n      lt\n        /* \"--CODEGEN--\":4:6   */\n      iszero\n      tag_225\n      jumpi\n        /* \"--CODEGEN--\":31:32   */\n      0x00\n        /* \"--CODEGEN--\":28:29   */\n      dup1\n        /* \"--CODEGEN--\":21:33   */\n      revert\n        /* \"--CODEGEN--\":4:6   */\n    tag_225:\n        /* \"PlasmaManager.sol\":6080:6111  token.transfer(_signer, _value) */\n      dup2\n      add\n      swap1\n      dup1\n      dup1\n      mload\n      swap1\n      0x20\n      add\n      swap1\n      swap3\n      swap2\n      swap1\n      pop\n      pop\n      pop\n      pop\n        /* \"PlasmaManager.sol\":4188:6116  function claimWithdrawal(... */\n      pop\n      pop\n      pop\n      pop\n      pop\n      pop\n      pop\n      pop\n      pop\n      pop\n      pop\n      pop\n      pop\n      pop\n      jump\t// out\n        /* \"PlasmaManager.sol\":1976:2065  function getAllSigners() public view returns (address[] memory) {... */\n    tag_69:\n        /* \"PlasmaManager.sol\":2022:2038  address[] memory */\n      0x60\n        /* \"PlasmaManager.sol\":2053:2060  signers */\n      0x04\n        /* \"PlasmaManager.sol\":2046:2060  return signers */\n      dup1\n      sload\n      dup1\n      0x20\n      mul\n      0x20\n      add\n      mload(0x40)\n      swap1\n      dup2\n      add\n      0x40\n      mstore\n      dup1\n      swap3\n      swap2\n      swap1\n      dup2\n      dup2\n      mstore\n      0x20\n      add\n      dup3\n      dup1\n      sload\n      dup1\n      iszero\n      tag_227\n      jumpi\n      0x20\n      mul\n      dup3\n      add\n      swap2\n      swap1\n      0x00\n      mstore\n      keccak256(0x00, 0x20)\n      swap1\n    tag_228:\n      dup2\n      0x00\n      swap1\n      sload\n      swap1\n      0x0100\n      exp\n      swap1\n      div\n      0xffffffffffffffffffffffffffffffffffffffff\n      and\n      0xffffffffffffffffffffffffffffffffffffffff\n      and\n      dup2\n      mstore\n      0x20\n      add\n      swap1\n      0x01\n      add\n      swap1\n      dup1\n      dup4\n      gt\n      tag_228\n      jumpi\n    tag_227:\n      pop\n      pop\n      pop\n      pop\n      pop\n      swap1\n      pop\n        /* \"PlasmaManager.sol\":1976:2065  function getAllSigners() public view returns (address[] memory) {... */\n      swap1\n      jump\t// out\n        /* \"PlasmaManager.sol\":528:561  uint256 public numberOfValidators */\n    tag_74:\n      sload(0x00)\n      dup2\n      jump\t// out\n        /* \"PlasmaManager.sol\":1877:1972  function getAllValidators() public view returns (address[] memory) {... */\n    tag_76:\n        /* \"PlasmaManager.sol\":1926:1942  address[] memory */\n      0x60\n        /* \"PlasmaManager.sol\":1957:1967  validators */\n      0x03\n        /* \"PlasmaManager.sol\":1950:1967  return validators */\n      dup1\n      sload\n      dup1\n      0x20\n      mul\n      0x20\n      add\n      mload(0x40)\n      swap1\n      dup2\n      add\n      0x40\n      mstore\n      dup1\n      swap3\n      swap2\n      swap1\n      dup2\n      dup2\n      mstore\n      0x20\n      add\n      dup3\n      dup1\n      sload\n      dup1\n      iszero\n      tag_230\n      jumpi\n      0x20\n      mul\n      dup3\n      add\n      swap2\n      swap1\n      0x00\n      mstore\n      keccak256(0x00, 0x20)\n      swap1\n    tag_231:\n      dup2\n      0x00\n      swap1\n      sload\n      swap1\n      0x0100\n      exp\n      swap1\n      div\n      0xffffffffffffffffffffffffffffffffffffffff\n      and\n      0xffffffffffffffffffffffffffffffffffffffff\n      and\n      dup2\n      mstore\n      0x20\n      add\n      swap1\n      0x01\n      add\n      swap1\n      dup1\n      dup4\n      gt\n      tag_231\n      jumpi\n    tag_230:\n      pop\n      pop\n      pop\n      pop\n      pop\n      swap1\n      pop\n        /* \"PlasmaManager.sol\":1877:1972  function getAllValidators() public view returns (address[] memory) {... */\n      swap1\n      jump\t// out\n        /* \"PlasmaManager.sol\":565:608  mapping(address => bool) public isValidator */\n    tag_82:\n      mstore(0x20, 0x01)\n      dup1\n      0x00\n      mstore\n      keccak256(0x00, 0x40)\n      0x00\n      swap2\n      pop\n      sload\n      swap1\n      0x0100\n      exp\n      swap1\n      div\n      0xff\n      and\n      dup2\n      jump\t// out\n        /* \"PlasmaManager.sol\":929:947  ERC20 public token */\n    tag_84:\n      0x06\n      0x00\n      swap1\n      sload\n      swap1\n      0x0100\n      exp\n      swap1\n      div\n      0xffffffffffffffffffffffffffffffffffffffff\n      and\n      dup2\n      jump\t// out\n        /* \"lib/RLP.sol\":1339:1533  function toRLPItem(bytes memory item) internal pure returns (RLPItem memory) {... */\n    tag_103:\n        /* \"lib/RLP.sol\":1400:1414  RLPItem memory */\n      tag_232\n      tag_233\n      jump\t// in\n    tag_232:\n        /* \"lib/RLP.sol\":1422:1433  uint memPtr */\n      0x00\n        /* \"lib/RLP.sol\":1476:1480  0x20 */\n      0x20\n        /* \"lib/RLP.sol\":1470:1474  item */\n      dup4\n        /* \"lib/RLP.sol\":1466:1481  add(item, 0x20) */\n      add\n        /* \"lib/RLP.sol\":1456:1481  memPtr := add(item, 0x20) */\n      swap1\n      pop\n        /* \"lib/RLP.sol\":1500:1528  RLPItem(item.length, memPtr) */\n      mload(0x40)\n      dup1\n      0x40\n      add\n      0x40\n      mstore\n      dup1\n        /* \"lib/RLP.sol\":1508:1512  item */\n      dup5\n        /* \"lib/RLP.sol\":1508:1519  item.length */\n      mload\n        /* \"lib/RLP.sol\":1500:1528  RLPItem(item.length, memPtr) */\n      dup2\n      mstore\n      0x20\n      add\n        /* \"lib/RLP.sol\":1521:1527  memPtr */\n      dup3\n        /* \"lib/RLP.sol\":1500:1528  RLPItem(item.length, memPtr) */\n      dup2\n      mstore\n      pop\n        /* \"lib/RLP.sol\":1493:1528  return RLPItem(item.length, memPtr) */\n      swap2\n      pop\n      pop\n        /* \"lib/RLP.sol\":1339:1533  function toRLPItem(bytes memory item) internal pure returns (RLPItem memory) {... */\n      swap2\n      swap1\n      pop\n      jump\t// out\n        /* \"lib/RLP.sol\":2250:2705  function toList(RLPItem memory item) internal pure returns (RLPItem[] memory) {... */\n    tag_104:\n        /* \"lib/RLP.sol\":2310:2326  RLPItem[] memory */\n      0x60\n        /* \"lib/RLP.sol\":2342:2354  isList(item) */\n      tag_236\n        /* \"lib/RLP.sol\":2349:2353  item */\n      dup3\n        /* \"lib/RLP.sol\":2342:2348  isList */\n      tag_237\n        /* \"lib/RLP.sol\":2342:2354  isList(item) */\n      jump\t// in\n    tag_236:\n        /* \"lib/RLP.sol\":2334:2355  require(isList(item)) */\n      tag_238\n      jumpi\n        /* \"--CODEGEN--\":12:13   */\n      0x00\n        /* \"--CODEGEN--\":9:10   */\n      dup1\n        /* \"--CODEGEN--\":2:14   */\n      revert\n        /* \"lib/RLP.sol\":2334:2355  require(isList(item)) */\n    tag_238:\n        /* \"lib/RLP.sol\":2362:2372  uint items */\n      0x00\n        /* \"lib/RLP.sol\":2375:2389  numItems(item) */\n      tag_239\n        /* \"lib/RLP.sol\":2384:2388  item */\n      dup4\n        /* \"lib/RLP.sol\":2375:2383  numItems */\n      tag_240\n        /* \"lib/RLP.sol\":2375:2389  numItems(item) */\n      jump\t// in\n    tag_239:\n        /* \"lib/RLP.sol\":2362:2389  uint items = numItems(item) */\n      swap1\n      pop\n        /* \"lib/RLP.sol\":2395:2418  RLPItem[] memory result */\n      0x60\n        /* \"lib/RLP.sol\":2435:2440  items */\n      dup2\n        /* \"lib/RLP.sol\":2421:2441  new RLPItem[](items) */\n      mload(0x40)\n      swap1\n      dup1\n      dup3\n      mstore\n      dup1\n      0x20\n      mul\n      0x20\n      add\n      dup3\n      add\n      0x40\n      mstore\n      dup1\n      iszero\n      tag_241\n      jumpi\n      dup2\n      0x20\n      add\n    tag_242:\n      tag_243\n      tag_244\n      jump\t// in\n    tag_243:\n      dup2\n      mstore\n      0x20\n      add\n      swap1\n      0x01\n      swap1\n      sub\n      swap1\n      dup2\n      tag_242\n      jumpi\n      swap1\n      pop\n    tag_241:\n      pop\n        /* \"lib/RLP.sol\":2395:2441  RLPItem[] memory result = new RLPItem[](items) */\n      swap1\n      pop\n        /* \"lib/RLP.sol\":2448:2459  uint memPtr */\n      0x00\n        /* \"lib/RLP.sol\":2476:2503  _payloadOffset(item.memPtr) */\n      tag_245\n        /* \"lib/RLP.sol\":2491:2495  item */\n      dup6\n        /* \"lib/RLP.sol\":2491:2502  item.memPtr */\n      0x20\n      add\n      mload\n        /* \"lib/RLP.sol\":2476:2490  _payloadOffset */\n      tag_246\n        /* \"lib/RLP.sol\":2476:2503  _payloadOffset(item.memPtr) */\n      jump\t// in\n    tag_245:\n        /* \"lib/RLP.sol\":2462:2466  item */\n      dup6\n        /* \"lib/RLP.sol\":2462:2473  item.memPtr */\n      0x20\n      add\n      mload\n        /* \"lib/RLP.sol\":2462:2503  item.memPtr + _payloadOffset(item.memPtr) */\n      add\n        /* \"lib/RLP.sol\":2448:2503  uint memPtr = item.memPtr + _payloadOffset(item.memPtr) */\n      swap1\n      pop\n        /* \"lib/RLP.sol\":2509:2521  uint dataLen */\n      0x00\n        /* \"lib/RLP.sol\":2532:2538  uint i */\n      dup1\n        /* \"lib/RLP.sol\":2541:2542  0 */\n      0x00\n        /* \"lib/RLP.sol\":2532:2542  uint i = 0 */\n      swap1\n      pop\n        /* \"lib/RLP.sol\":2527:2681  for (uint i = 0; i < items; i++) {... */\n    tag_247:\n        /* \"lib/RLP.sol\":2548:2553  items */\n      dup5\n        /* \"lib/RLP.sol\":2544:2545  i */\n      dup2\n        /* \"lib/RLP.sol\":2544:2553  i < items */\n      lt\n        /* \"lib/RLP.sol\":2527:2681  for (uint i = 0; i < items; i++) {... */\n      iszero\n      tag_248\n      jumpi\n        /* \"lib/RLP.sol\":2578:2597  _itemLength(memPtr) */\n      tag_250\n        /* \"lib/RLP.sol\":2590:2596  memPtr */\n      dup4\n        /* \"lib/RLP.sol\":2578:2589  _itemLength */\n      tag_251\n        /* \"lib/RLP.sol\":2578:2597  _itemLength(memPtr) */\n      jump\t// in\n    tag_250:\n        /* \"lib/RLP.sol\":2568:2597  dataLen = _itemLength(memPtr) */\n      swap2\n      pop\n        /* \"lib/RLP.sol\":2617:2641  RLPItem(dataLen, memPtr) */\n      mload(0x40)\n      dup1\n      0x40\n      add\n      0x40\n      mstore\n      dup1\n        /* \"lib/RLP.sol\":2625:2632  dataLen */\n      dup4\n        /* \"lib/RLP.sol\":2617:2641  RLPItem(dataLen, memPtr) */\n      dup2\n      mstore\n      0x20\n      add\n        /* \"lib/RLP.sol\":2634:2640  memPtr */\n      dup5\n        /* \"lib/RLP.sol\":2617:2641  RLPItem(dataLen, memPtr) */\n      dup2\n      mstore\n      pop\n        /* \"lib/RLP.sol\":2605:2611  result */\n      dup5\n        /* \"lib/RLP.sol\":2612:2613  i */\n      dup3\n        /* \"lib/RLP.sol\":2605:2614  result[i] */\n      dup2\n      mload\n      dup2\n      lt\n      tag_252\n      jumpi\n      invalid\n    tag_252:\n      0x20\n      mul\n      0x20\n      add\n      add\n        /* \"lib/RLP.sol\":2605:2641  result[i] = RLPItem(dataLen, memPtr) */\n      dup2\n      swap1\n      mstore\n      pop\n        /* \"lib/RLP.sol\":2667:2674  dataLen */\n      dup2\n        /* \"lib/RLP.sol\":2658:2664  memPtr */\n      dup4\n        /* \"lib/RLP.sol\":2658:2674  memPtr + dataLen */\n      add\n        /* \"lib/RLP.sol\":2649:2674  memPtr = memPtr + dataLen */\n      swap3\n      pop\n        /* \"lib/RLP.sol\":2555:2558  i++ */\n      dup1\n      dup1\n      0x01\n      add\n      swap2\n      pop\n      pop\n        /* \"lib/RLP.sol\":2527:2681  for (uint i = 0; i < items; i++) {... */\n      jump(tag_247)\n    tag_248:\n      pop\n        /* \"lib/RLP.sol\":2694:2700  result */\n      dup3\n        /* \"lib/RLP.sol\":2687:2700  return result */\n      swap5\n      pop\n      pop\n      pop\n      pop\n      pop\n        /* \"lib/RLP.sol\":2250:2705  function toList(RLPItem memory item) internal pure returns (RLPItem[] memory) {... */\n      swap2\n      swap1\n      pop\n      jump\t// out\n        /* \"lib/RLP.sol\":3775:3952  function toAddress(RLPItem memory item) internal pure returns (address) {... */\n    tag_107:\n        /* \"lib/RLP.sol\":3838:3845  address */\n      0x00\n        /* \"lib/RLP.sol\":3909:3911  21 */\n      0x15\n        /* \"lib/RLP.sol\":3897:3901  item */\n      dup3\n        /* \"lib/RLP.sol\":3897:3905  item.len */\n      0x00\n      add\n      mload\n        /* \"lib/RLP.sol\":3897:3911  item.len == 21 */\n      eq\n        /* \"lib/RLP.sol\":3889:3912  require(item.len == 21) */\n      tag_254\n      jumpi\n        /* \"--CODEGEN--\":12:13   */\n      0x00\n        /* \"--CODEGEN--\":9:10   */\n      dup1\n        /* \"--CODEGEN--\":2:14   */\n      revert\n        /* \"lib/RLP.sol\":3889:3912  require(item.len == 21) */\n    tag_254:\n        /* \"lib/RLP.sol\":3934:3946  toUint(item) */\n      tag_255\n        /* \"lib/RLP.sol\":3941:3945  item */\n      dup3\n        /* \"lib/RLP.sol\":3934:3940  toUint */\n      tag_110\n        /* \"lib/RLP.sol\":3934:3946  toUint(item) */\n      jump\t// in\n    tag_255:\n        /* \"lib/RLP.sol\":3919:3947  return address(toUint(item)) */\n      swap1\n      pop\n        /* \"lib/RLP.sol\":3775:3952  function toAddress(RLPItem memory item) internal pure returns (address) {... */\n      swap2\n      swap1\n      pop\n      jump\t// out\n        /* \"lib/RLP.sol\":3956:4423  function toUint(RLPItem memory item) internal pure returns (uint) {... */\n    tag_110:\n        /* \"lib/RLP.sol\":4016:4020  uint */\n      0x00\n        /* \"lib/RLP.sol\":4047:4048  0 */\n      dup1\n        /* \"lib/RLP.sol\":4036:4040  item */\n      dup3\n        /* \"lib/RLP.sol\":4036:4044  item.len */\n      0x00\n      add\n      mload\n        /* \"lib/RLP.sol\":4036:4048  item.len > 0 */\n      gt\n        /* \"lib/RLP.sol\":4036:4066  item.len > 0 && item.len <= 33 */\n      dup1\n      iszero\n      tag_257\n      jumpi\n      pop\n        /* \"lib/RLP.sol\":4064:4066  33 */\n      0x21\n        /* \"lib/RLP.sol\":4052:4056  item */\n      dup3\n        /* \"lib/RLP.sol\":4052:4060  item.len */\n      0x00\n      add\n      mload\n        /* \"lib/RLP.sol\":4052:4066  item.len <= 33 */\n      gt\n      iszero\n        /* \"lib/RLP.sol\":4036:4066  item.len > 0 && item.len <= 33 */\n    tag_257:\n        /* \"lib/RLP.sol\":4028:4067  require(item.len > 0 && item.len <= 33) */\n      tag_258\n      jumpi\n        /* \"--CODEGEN--\":12:13   */\n      0x00\n        /* \"--CODEGEN--\":9:10   */\n      dup1\n        /* \"--CODEGEN--\":2:14   */\n      revert\n        /* \"lib/RLP.sol\":4028:4067  require(item.len > 0 && item.len <= 33) */\n    tag_258:\n        /* \"lib/RLP.sol\":4074:4085  uint offset */\n      0x00\n        /* \"lib/RLP.sol\":4088:4115  _payloadOffset(item.memPtr) */\n      tag_259\n        /* \"lib/RLP.sol\":4103:4107  item */\n      dup4\n        /* \"lib/RLP.sol\":4103:4114  item.memPtr */\n      0x20\n      add\n      mload\n        /* \"lib/RLP.sol\":4088:4102  _payloadOffset */\n      tag_246\n        /* \"lib/RLP.sol\":4088:4115  _payloadOffset(item.memPtr) */\n      jump\t// in\n    tag_259:\n        /* \"lib/RLP.sol\":4074:4115  uint offset = _payloadOffset(item.memPtr) */\n      swap1\n      pop\n        /* \"lib/RLP.sol\":4121:4129  uint len */\n      0x00\n        /* \"lib/RLP.sol\":4143:4149  offset */\n      dup2\n        /* \"lib/RLP.sol\":4132:4136  item */\n      dup5\n        /* \"lib/RLP.sol\":4132:4140  item.len */\n      0x00\n      add\n      mload\n        /* \"lib/RLP.sol\":4132:4149  item.len - offset */\n      sub\n        /* \"lib/RLP.sol\":4121:4149  uint len = item.len - offset */\n      swap1\n      pop\n        /* \"lib/RLP.sol\":4156:4167  uint result */\n      0x00\n        /* \"lib/RLP.sol\":4173:4184  uint memPtr */\n      dup1\n        /* \"lib/RLP.sol\":4201:4207  offset */\n      dup4\n        /* \"lib/RLP.sol\":4187:4191  item */\n      dup7\n        /* \"lib/RLP.sol\":4187:4198  item.memPtr */\n      0x20\n      add\n      mload\n        /* \"lib/RLP.sol\":4187:4207  item.memPtr + offset */\n      add\n        /* \"lib/RLP.sol\":4173:4207  uint memPtr = item.memPtr + offset */\n      swap1\n      pop\n        /* \"lib/RLP.sol\":4246:4252  memPtr */\n      dup1\n        /* \"lib/RLP.sol\":4240:4253  mload(memPtr) */\n      mload\n        /* \"lib/RLP.sol\":4230:4253  result := mload(memPtr) */\n      swap2\n      pop\n        /* \"lib/RLP.sol\":4324:4326  32 */\n      0x20\n        /* \"lib/RLP.sol\":4319:4322  len */\n      dup4\n        /* \"lib/RLP.sol\":4316:4327  lt(len, 32) */\n      lt\n        /* \"lib/RLP.sol\":4313:4315  if */\n      iszero\n      tag_260\n      jumpi\n        /* \"lib/RLP.sol\":4379:4382  len */\n      dup3\n        /* \"lib/RLP.sol\":4375:4377  32 */\n      0x20\n        /* \"lib/RLP.sol\":4371:4383  sub(32, len) */\n      sub\n        /* \"lib/RLP.sol\":4366:4369  256 */\n      0x0100\n        /* \"lib/RLP.sol\":4362:4384  exp(256, sub(32, len)) */\n      exp\n        /* \"lib/RLP.sol\":4354:4360  result */\n      dup3\n        /* \"lib/RLP.sol\":4350:4385  div(result, exp(256, sub(32, len))) */\n      div\n        /* \"lib/RLP.sol\":4340:4385  result := div(result, exp(256, sub(32, len))) */\n      swap2\n      pop\n        /* \"lib/RLP.sol\":4313:4315  if */\n    tag_260:\n        /* \"lib/RLP.sol\":4412:4418  result */\n      dup2\n        /* \"lib/RLP.sol\":4405:4418  return result */\n      swap5\n      pop\n      pop\n      pop\n      pop\n      pop\n        /* \"lib/RLP.sol\":3956:4423  function toUint(RLPItem memory item) internal pure returns (uint) {... */\n      swap2\n      swap1\n      pop\n      jump\t// out\n        /* \"lib/RLP.sol\":5998:6109  function toBytes32(RLPItem memory item) internal pure returns (bytes32) {... */\n    tag_115:\n        /* \"lib/RLP.sol\":6061:6068  bytes32 */\n      0x00\n        /* \"lib/RLP.sol\":6091:6103  toUint(item) */\n      tag_262\n        /* \"lib/RLP.sol\":6098:6102  item */\n      dup3\n        /* \"lib/RLP.sol\":6091:6097  toUint */\n      tag_110\n        /* \"lib/RLP.sol\":6091:6103  toUint(item) */\n      jump\t// in\n    tag_262:\n        /* \"lib/RLP.sol\":6083:6104  bytes32(toUint(item)) */\n      0x00\n      shl\n        /* \"lib/RLP.sol\":6076:6104  return bytes32(toUint(item)) */\n      swap1\n      pop\n        /* \"lib/RLP.sol\":5998:6109  function toBytes32(RLPItem memory item) internal pure returns (bytes32) {... */\n      swap2\n      swap1\n      pop\n      jump\t// out\n        /* \"lib/BytesLib.sol\":7206:7705  function packedBytesFromUint(uint256 _num) internal pure returns (bytes memory _ret) {... */\n    tag_126:\n        /* \"lib/BytesLib.sol\":7272:7289  bytes memory _ret */\n      0x60\n        /* \"lib/BytesLib.sol\":7301:7322  bytes memory _bytes32 */\n      dup1\n        /* \"lib/BytesLib.sol\":7325:7339  fromUint(_num) */\n      tag_264\n        /* \"lib/BytesLib.sol\":7334:7338  _num */\n      dup4\n        /* \"lib/BytesLib.sol\":7325:7333  fromUint */\n      tag_265\n        /* \"lib/BytesLib.sol\":7325:7339  fromUint(_num) */\n      jump\t// in\n    tag_264:\n        /* \"lib/BytesLib.sol\":7301:7339  bytes memory _bytes32 = fromUint(_num) */\n      swap1\n      pop\n        /* \"lib/BytesLib.sol\":7349:7368  uint256 _startIndex */\n      0x00\n        /* \"lib/BytesLib.sol\":7382:7391  uint256 i */\n      dup1\n        /* \"lib/BytesLib.sol\":7394:7395  0 */\n      0x00\n        /* \"lib/BytesLib.sol\":7382:7395  uint256 i = 0 */\n      swap1\n      pop\n        /* \"lib/BytesLib.sol\":7378:7533  for(uint256 i = 0; i < _bytes32.length; i++) {... */\n    tag_266:\n        /* \"lib/BytesLib.sol\":7401:7409  _bytes32 */\n      dup3\n        /* \"lib/BytesLib.sol\":7401:7416  _bytes32.length */\n      mload\n        /* \"lib/BytesLib.sol\":7397:7398  i */\n      dup2\n        /* \"lib/BytesLib.sol\":7397:7416  i < _bytes32.length */\n      lt\n        /* \"lib/BytesLib.sol\":7378:7533  for(uint256 i = 0; i < _bytes32.length; i++) {... */\n      iszero\n      tag_267\n      jumpi\n        /* \"lib/BytesLib.sol\":7458:7459  0 */\n      0x00\n        /* \"lib/BytesLib.sol\":7453:7460  byte(0) */\n      0xf8\n      shl\n        /* \"lib/BytesLib.sol\":7438:7460  _bytes32[i] != byte(0) */\n      not(0xffffffffffffffffffffffffffffffffffffffffffffffffffffffffffffff)\n      and\n        /* \"lib/BytesLib.sol\":7438:7446  _bytes32 */\n      dup4\n        /* \"lib/BytesLib.sol\":7447:7448  i */\n      dup3\n        /* \"lib/BytesLib.sol\":7438:7449  _bytes32[i] */\n      dup2\n      mload\n      dup2\n      lt\n      tag_269\n      jumpi\n      invalid\n    tag_269:\n      0x20\n      add\n      add\n      mload\n      0xf8\n      shr\n      0xf8\n      shl\n        /* \"lib/BytesLib.sol\":7438:7460  _bytes32[i] != byte(0) */\n      not(0xffffffffffffffffffffffffffffffffffffffffffffffffffffffffffffff)\n      and\n      eq\n        /* \"lib/BytesLib.sol\":7435:7523  if(_bytes32[i] != byte(0)) {... */\n      tag_270\n      jumpi\n        /* \"lib/BytesLib.sol\":7490:7491  i */\n      dup1\n        /* \"lib/BytesLib.sol\":7476:7491  _startIndex = i */\n      swap2\n      pop\n        /* \"lib/BytesLib.sol\":7505:7510  break */\n      jump(tag_267)\n        /* \"lib/BytesLib.sol\":7435:7523  if(_bytes32[i] != byte(0)) {... */\n    tag_270:\n        /* \"lib/BytesLib.sol\":7418:7421  i++ */\n      dup1\n      dup1\n      0x01\n      add\n      swap2\n      pop\n      pop\n        /* \"lib/BytesLib.sol\":7378:7533  for(uint256 i = 0; i < _bytes32.length; i++) {... */\n      jump(tag_266)\n    tag_267:\n      pop\n        /* \"lib/BytesLib.sol\":7564:7575  _startIndex */\n      dup1\n        /* \"lib/BytesLib.sol\":7559:7561  32 */\n      0x20\n        /* \"lib/BytesLib.sol\":7559:7575  32 - _startIndex */\n      sub\n        /* \"lib/BytesLib.sol\":7549:7576  new bytes(32 - _startIndex) */\n      mload(0x40)\n      swap1\n      dup1\n      dup3\n      mstore\n      dup1\n      0x1f\n      add\n      not(0x1f)\n      and\n      0x20\n      add\n      dup3\n      add\n      0x40\n      mstore\n      dup1\n      iszero\n      tag_271\n      jumpi\n      dup2\n      0x20\n      add\n        /* \"--CODEGEN--\":29:30   */\n      0x01\n        /* \"--CODEGEN--\":21:27   */\n      dup3\n        /* \"--CODEGEN--\":17:31   */\n      mul\n        /* \"--CODEGEN--\":124:128   */\n      dup1\n        /* \"--CODEGEN--\":108:122   */\n      calldatasize\n        /* \"--CODEGEN--\":100:106   */\n      dup4\n        /* \"--CODEGEN--\":87:129   */\n      calldatacopy\n        /* \"--CODEGEN--\":155:159   */\n      dup1\n        /* \"--CODEGEN--\":147:153   */\n      dup3\n        /* \"--CODEGEN--\":143:160   */\n      add\n        /* \"--CODEGEN--\":133:160   */\n      swap2\n      pop\n        /* \"--CODEGEN--\":0:164   */\n      pop\n        /* \"lib/BytesLib.sol\":7549:7576  new bytes(32 - _startIndex) */\n      swap1\n      pop\n    tag_271:\n      pop\n        /* \"lib/BytesLib.sol\":7542:7576  _ret = new bytes(32 - _startIndex) */\n      swap3\n      pop\n        /* \"lib/BytesLib.sol\":7590:7599  uint256 i */\n      0x00\n        /* \"lib/BytesLib.sol\":7602:7613  _startIndex */\n      dup2\n        /* \"lib/BytesLib.sol\":7590:7613  uint256 i = _startIndex */\n      swap1\n      pop\n        /* \"lib/BytesLib.sol\":7586:7699  for(uint256 i = _startIndex; i < _bytes32.length; i++) {... */\n    tag_272:\n        /* \"lib/BytesLib.sol\":7619:7627  _bytes32 */\n      dup3\n        /* \"lib/BytesLib.sol\":7619:7634  _bytes32.length */\n      mload\n        /* \"lib/BytesLib.sol\":7615:7616  i */\n      dup2\n        /* \"lib/BytesLib.sol\":7615:7634  i < _bytes32.length */\n      lt\n        /* \"lib/BytesLib.sol\":7586:7699  for(uint256 i = _startIndex; i < _bytes32.length; i++) {... */\n      iszero\n      tag_273\n      jumpi\n        /* \"lib/BytesLib.sol\":7677:7685  _bytes32 */\n      dup3\n        /* \"lib/BytesLib.sol\":7686:7687  i */\n      dup2\n        /* \"lib/BytesLib.sol\":7677:7688  _bytes32[i] */\n      dup2\n      mload\n      dup2\n      lt\n      tag_275\n      jumpi\n      invalid\n    tag_275:\n      0x20\n      add\n      add\n      mload\n      0xf8\n      shr\n      0xf8\n      shl\n        /* \"lib/BytesLib.sol\":7653:7657  _ret */\n      dup5\n        /* \"lib/BytesLib.sol\":7662:7673  _startIndex */\n      dup4\n        /* \"lib/BytesLib.sol\":7658:7659  i */\n      dup4\n        /* \"lib/BytesLib.sol\":7658:7673  i - _startIndex */\n      sub\n        /* \"lib/BytesLib.sol\":7653:7674  _ret[i - _startIndex] */\n      dup2\n      mload\n      dup2\n      lt\n      tag_276\n      jumpi\n      invalid\n    tag_276:\n      0x20\n      add\n      add\n        /* \"lib/BytesLib.sol\":7653:7688  _ret[i - _startIndex] = _bytes32[i] */\n      swap1\n      not(0xffffffffffffffffffffffffffffffffffffffffffffffffffffffffffffff)\n      and\n      swap1\n      dup2\n      0x00\n      byte\n      swap1\n      mstore8\n      pop\n        /* \"lib/BytesLib.sol\":7636:7639  i++ */\n      dup1\n      dup1\n      0x01\n      add\n      swap2\n      pop\n      pop\n        /* \"lib/BytesLib.sol\":7586:7699  for(uint256 i = _startIndex; i < _bytes32.length; i++) {... */\n      jump(tag_272)\n    tag_273:\n      pop\n        /* \"lib/BytesLib.sol\":7206:7705  function packedBytesFromUint(uint256 _num) internal pure returns (bytes memory _ret) {... */\n      pop\n      pop\n      swap2\n      swap1\n      pop\n      jump\t// out\n        /* \"lib/RLP.sol\":5188:5575  function toBytes(RLPItem memory item) internal pure returns (bytes memory) {... */\n    tag_136:\n        /* \"lib/RLP.sol\":5249:5261  bytes memory */\n      0x60\n        /* \"lib/RLP.sol\":5288:5289  0 */\n      0x00\n        /* \"lib/RLP.sol\":5277:5281  item */\n      dup3\n        /* \"lib/RLP.sol\":5277:5285  item.len */\n      0x00\n      add\n      mload\n        /* \"lib/RLP.sol\":5277:5289  item.len > 0 */\n      gt\n        /* \"lib/RLP.sol\":5269:5290  require(item.len > 0) */\n      tag_278\n      jumpi\n        /* \"--CODEGEN--\":12:13   */\n      0x00\n        /* \"--CODEGEN--\":9:10   */\n      dup1\n        /* \"--CODEGEN--\":2:14   */\n      revert\n        /* \"lib/RLP.sol\":5269:5290  require(item.len > 0) */\n    tag_278:\n        /* \"lib/RLP.sol\":5297:5308  uint offset */\n      0x00\n        /* \"lib/RLP.sol\":5311:5338  _payloadOffset(item.memPtr) */\n      tag_279\n        /* \"lib/RLP.sol\":5326:5330  item */\n      dup4\n        /* \"lib/RLP.sol\":5326:5337  item.memPtr */\n      0x20\n      add\n      mload\n        /* \"lib/RLP.sol\":5311:5325  _payloadOffset */\n      tag_246\n        /* \"lib/RLP.sol\":5311:5338  _payloadOffset(item.memPtr) */\n      jump\t// in\n    tag_279:\n        /* \"lib/RLP.sol\":5297:5338  uint offset = _payloadOffset(item.memPtr) */\n      swap1\n      pop\n        /* \"lib/RLP.sol\":5344:5352  uint len */\n      0x00\n        /* \"lib/RLP.sol\":5366:5372  offset */\n      dup2\n        /* \"lib/RLP.sol\":5355:5359  item */\n      dup5\n        /* \"lib/RLP.sol\":5355:5363  item.len */\n      0x00\n      add\n      mload\n        /* \"lib/RLP.sol\":5355:5372  item.len - offset */\n      sub\n        /* \"lib/RLP.sol\":5344:5372  uint len = item.len - offset */\n      swap1\n      pop\n        /* \"lib/RLP.sol\":5393:5412  bytes memory result */\n      0x60\n        /* \"lib/RLP.sol\":5425:5428  len */\n      dup2\n        /* \"lib/RLP.sol\":5415:5429  new bytes(len) */\n      mload(0x40)\n      swap1\n      dup1\n      dup3\n      mstore\n      dup1\n      0x1f\n      add\n      not(0x1f)\n      and\n      0x20\n      add\n      dup3\n      add\n      0x40\n      mstore\n      dup1\n      iszero\n      tag_280\n      jumpi\n      dup2\n      0x20\n      add\n        /* \"--CODEGEN--\":29:30   */\n      0x01\n        /* \"--CODEGEN--\":21:27   */\n      dup3\n        /* \"--CODEGEN--\":17:31   */\n      mul\n        /* \"--CODEGEN--\":124:128   */\n      dup1\n        /* \"--CODEGEN--\":108:122   */\n      calldatasize\n        /* \"--CODEGEN--\":100:106   */\n      dup4\n        /* \"--CODEGEN--\":87:129   */\n      calldatacopy\n        /* \"--CODEGEN--\":155:159   */\n      dup1\n        /* \"--CODEGEN--\":147:153   */\n      dup3\n        /* \"--CODEGEN--\":143:160   */\n      add\n        /* \"--CODEGEN--\":133:160   */\n      swap2\n      pop\n        /* \"--CODEGEN--\":0:164   */\n      pop\n        /* \"lib/RLP.sol\":5415:5429  new bytes(len) */\n      swap1\n      pop\n    tag_280:\n      pop\n        /* \"lib/RLP.sol\":5393:5429  bytes memory result = new bytes(len) */\n      swap1\n      pop\n        /* \"lib/RLP.sol\":5436:5448  uint destPtr */\n      0x00\n        /* \"lib/RLP.sol\":5492:5498  result */\n      dup2\n        /* \"lib/RLP.sol\":5486:5490  0x20 */\n      0x20\n        /* \"lib/RLP.sol\":5482:5499  add(0x20, result) */\n      add\n        /* \"lib/RLP.sol\":5471:5499  destPtr := add(0x20, result) */\n      swap1\n      pop\n        /* \"lib/RLP.sol\":5511:5551  copy(item.memPtr + offset, destPtr, len) */\n      tag_281\n        /* \"lib/RLP.sol\":5530:5536  offset */\n      dup5\n        /* \"lib/RLP.sol\":5516:5520  item */\n      dup8\n        /* \"lib/RLP.sol\":5516:5527  item.memPtr */\n      0x20\n      add\n      mload\n        /* \"lib/RLP.sol\":5516:5536  item.memPtr + offset */\n      add\n        /* \"lib/RLP.sol\":5538:5545  destPtr */\n      dup3\n        /* \"lib/RLP.sol\":5547:5550  len */\n      dup6\n        /* \"lib/RLP.sol\":5511:5515  copy */\n      tag_282\n        /* \"lib/RLP.sol\":5511:5551  copy(item.memPtr + offset, destPtr, len) */\n      jump\t// in\n    tag_281:\n        /* \"lib/RLP.sol\":5564:5570  result */\n      dup2\n        /* \"lib/RLP.sol\":5557:5570  return result */\n      swap5\n      pop\n      pop\n      pop\n      pop\n      pop\n        /* \"lib/RLP.sol\":5188:5575  function toBytes(RLPItem memory item) internal pure returns (bytes memory) {... */\n      swap2\n      swap1\n      pop\n      jump\t// out\n        /* \"lib/RLPEncode.sol\":715:1065  function encodeList(bytes[] memory self)... */\n    tag_139:\n        /* \"lib/RLPEncode.sol\":803:815  bytes memory */\n      0x60\n        /* \"lib/RLPEncode.sol\":831:851  bytes memory encoded */\n      dup1\n        /* \"lib/RLPEncode.sol\":866:875  uint256 i */\n      0x00\n        /* \"lib/RLPEncode.sol\":878:879  0 */\n      dup1\n        /* \"lib/RLPEncode.sol\":866:879  uint256 i = 0 */\n      swap1\n      pop\n        /* \"lib/RLPEncode.sol\":861:983  for (uint256 i = 0; i < self.length; i++) {... */\n    tag_284:\n        /* \"lib/RLPEncode.sol\":885:889  self */\n      dup4\n        /* \"lib/RLPEncode.sol\":885:896  self.length */\n      mload\n        /* \"lib/RLPEncode.sol\":881:882  i */\n      dup2\n        /* \"lib/RLPEncode.sol\":881:896  i < self.length */\n      lt\n        /* \"lib/RLPEncode.sol\":861:983  for (uint256 i = 0; i < self.length; i++) {... */\n      iszero\n      tag_285\n      jumpi\n        /* \"lib/RLPEncode.sol\":927:972  BytesLib.concat(encoded, encodeItem(self[i])) */\n      tag_287\n        /* \"lib/RLPEncode.sol\":943:950  encoded */\n      dup3\n        /* \"lib/RLPEncode.sol\":952:971  encodeItem(self[i]) */\n      tag_288\n        /* \"lib/RLPEncode.sol\":963:967  self */\n      dup7\n        /* \"lib/RLPEncode.sol\":968:969  i */\n      dup5\n        /* \"lib/RLPEncode.sol\":963:970  self[i] */\n      dup2\n      mload\n      dup2\n      lt\n      tag_289\n      jumpi\n      invalid\n    tag_289:\n      0x20\n      mul\n      0x20\n      add\n      add\n      mload\n        /* \"lib/RLPEncode.sol\":952:962  encodeItem */\n      tag_290\n        /* \"lib/RLPEncode.sol\":952:971  encodeItem(self[i]) */\n      jump\t// in\n    tag_288:\n        /* \"lib/RLPEncode.sol\":927:942  BytesLib.concat */\n      tag_291\n        /* \"lib/RLPEncode.sol\":927:972  BytesLib.concat(encoded, encodeItem(self[i])) */\n      jump\t// in\n    tag_287:\n        /* \"lib/RLPEncode.sol\":917:972  encoded = BytesLib.concat(encoded, encodeItem(self[i])) */\n      swap2\n      pop\n        /* \"lib/RLPEncode.sol\":898:901  i++ */\n      dup1\n      dup1\n      0x01\n      add\n      swap2\n      pop\n      pop\n        /* \"lib/RLPEncode.sol\":861:983  for (uint256 i = 0; i < self.length; i++) {... */\n      jump(tag_284)\n    tag_285:\n      pop\n        /* \"lib/RLPEncode.sol\":999:1058  BytesLib.concat(encodeLength(encoded.length, 192), encoded) */\n      tag_292\n        /* \"lib/RLPEncode.sol\":1015:1048  encodeLength(encoded.length, 192) */\n      tag_293\n        /* \"lib/RLPEncode.sol\":1028:1035  encoded */\n      dup3\n        /* \"lib/RLPEncode.sol\":1028:1042  encoded.length */\n      mload\n        /* \"lib/RLPEncode.sol\":1044:1047  192 */\n      0xc0\n        /* \"lib/RLPEncode.sol\":1015:1027  encodeLength */\n      tag_294\n        /* \"lib/RLPEncode.sol\":1015:1048  encodeLength(encoded.length, 192) */\n      jump\t// in\n    tag_293:\n        /* \"lib/RLPEncode.sol\":1050:1057  encoded */\n      dup3\n        /* \"lib/RLPEncode.sol\":999:1014  BytesLib.concat */\n      tag_291\n        /* \"lib/RLPEncode.sol\":999:1058  BytesLib.concat(encodeLength(encoded.length, 192), encoded) */\n      jump\t// in\n    tag_292:\n        /* \"lib/RLPEncode.sol\":992:1058  return BytesLib.concat(encodeLength(encoded.length, 192), encoded) */\n      swap2\n      pop\n      pop\n        /* \"lib/RLPEncode.sol\":715:1065  function encodeList(bytes[] memory self)... */\n      swap2\n      swap1\n      pop\n      jump\t// out\n        /* \"PlasmaManager.sol\":8064:8274  function getNextStartBlockNumber() private view returns (uint256) {... */\n    tag_161:\n        /* \"PlasmaManager.sol\":8121:8128  uint256 */\n      0x00\n        /* \"PlasmaManager.sol\":8157:8158  0 */\n      dup1\n        /* \"PlasmaManager.sol\":8139:8146  bunches */\n      0x05\n        /* \"PlasmaManager.sol\":8139:8153  bunches.length */\n      dup1\n      sload\n      swap1\n      pop\n        /* \"PlasmaManager.sol\":8139:8158  bunches.length == 0 */\n      eq\n        /* \"PlasmaManager.sol\":8136:8168  if(bunches.length == 0) return 0 */\n      iszero\n      tag_296\n      jumpi\n        /* \"PlasmaManager.sol\":8167:8168  0 */\n      0x00\n        /* \"PlasmaManager.sol\":8160:8168  return 0 */\n      swap1\n      pop\n      jump(tag_295)\n        /* \"PlasmaManager.sol\":8136:8168  if(bunches.length == 0) return 0 */\n    tag_296:\n        /* \"PlasmaManager.sol\":8231:8238  bunches */\n      0x05\n        /* \"PlasmaManager.sol\":8256:8257  1 */\n      0x01\n        /* \"PlasmaManager.sol\":8239:8246  bunches */\n      0x05\n        /* \"PlasmaManager.sol\":8239:8253  bunches.length */\n      dup1\n      sload\n      swap1\n      pop\n        /* \"PlasmaManager.sol\":8239:8257  bunches.length - 1 */\n      sub\n        /* \"PlasmaManager.sol\":8231:8258  bunches[bunches.length - 1] */\n      dup2\n      sload\n      dup2\n      lt\n      tag_297\n      jumpi\n      invalid\n    tag_297:\n      swap1\n      0x00\n      mstore\n      keccak256(0x00, 0x20)\n      swap1\n      0x04\n      mul\n      add\n        /* \"PlasmaManager.sol\":8231:8269  bunches[bunches.length - 1].bunchDepth */\n      0x01\n      add\n      sload\n        /* \"PlasmaManager.sol\":8228:8229  2 */\n      0x02\n        /* \"PlasmaManager.sol\":8228:8269  2**bunches[bunches.length - 1].bunchDepth */\n      exp\n        /* \"PlasmaManager.sol\":8181:8188  bunches */\n      0x05\n        /* \"PlasmaManager.sol\":8206:8207  1 */\n      0x01\n        /* \"PlasmaManager.sol\":8189:8196  bunches */\n      0x05\n        /* \"PlasmaManager.sol\":8189:8203  bunches.length */\n      dup1\n      sload\n      swap1\n      pop\n        /* \"PlasmaManager.sol\":8189:8207  bunches.length - 1 */\n      sub\n        /* \"PlasmaManager.sol\":8181:8208  bunches[bunches.length - 1] */\n      dup2\n      sload\n      dup2\n      lt\n      tag_299\n      jumpi\n      invalid\n    tag_299:\n      swap1\n      0x00\n      mstore\n      keccak256(0x00, 0x20)\n      swap1\n      0x04\n      mul\n      add\n        /* \"PlasmaManager.sol\":8181:8225  bunches[bunches.length - 1].startBlockNumber */\n      0x00\n      add\n      sload\n        /* \"PlasmaManager.sol\":8181:8269  bunches[bunches.length - 1].startBlockNumber + 2**bunches[bunches.length - 1].bunchDepth */\n      add\n        /* \"PlasmaManager.sol\":8174:8269  return bunches[bunches.length - 1].startBlockNumber + 2**bunches[bunches.length - 1].bunchDepth */\n      swap1\n      pop\n        /* \"PlasmaManager.sol\":8064:8274  function getNextStartBlockNumber() private view returns (uint256) {... */\n    tag_295:\n      swap1\n      jump\t// out\n        /* \"lib/RLP.sol\":3177:3475  function toRLPBytes(RLPItem memory item) internal pure returns (bytes memory) {... */\n    tag_165:\n        /* \"lib/RLP.sol\":3241:3253  bytes memory */\n      0x60\n        /* \"lib/RLP.sol\":3261:3280  bytes memory result */\n      dup1\n        /* \"lib/RLP.sol\":3293:3297  item */\n      dup3\n        /* \"lib/RLP.sol\":3293:3301  item.len */\n      0x00\n      add\n      mload\n        /* \"lib/RLP.sol\":3283:3302  new bytes(item.len) */\n      mload(0x40)\n      swap1\n      dup1\n      dup3\n      mstore\n      dup1\n      0x1f\n      add\n      not(0x1f)\n      and\n      0x20\n      add\n      dup3\n      add\n      0x40\n      mstore\n      dup1\n      iszero\n      tag_302\n      jumpi\n      dup2\n      0x20\n      add\n        /* \"--CODEGEN--\":29:30   */\n      0x01\n        /* \"--CODEGEN--\":21:27   */\n      dup3\n        /* \"--CODEGEN--\":17:31   */\n      mul\n        /* \"--CODEGEN--\":124:128   */\n      dup1\n        /* \"--CODEGEN--\":108:122   */\n      calldatasize\n        /* \"--CODEGEN--\":100:106   */\n      dup4\n        /* \"--CODEGEN--\":87:129   */\n      calldatacopy\n        /* \"--CODEGEN--\":155:159   */\n      dup1\n        /* \"--CODEGEN--\":147:153   */\n      dup3\n        /* \"--CODEGEN--\":143:160   */\n      add\n        /* \"--CODEGEN--\":133:160   */\n      swap2\n      pop\n        /* \"--CODEGEN--\":0:164   */\n      pop\n        /* \"lib/RLP.sol\":3283:3302  new bytes(item.len) */\n      swap1\n      pop\n    tag_302:\n      pop\n        /* \"lib/RLP.sol\":3261:3302  bytes memory result = new bytes(item.len) */\n      swap1\n      pop\n        /* \"lib/RLP.sol\":3329:3330  0 */\n      0x00\n        /* \"lib/RLP.sol\":3312:3318  result */\n      dup2\n        /* \"lib/RLP.sol\":3312:3325  result.length */\n      mload\n        /* \"lib/RLP.sol\":3312:3330  result.length == 0 */\n      eq\n        /* \"lib/RLP.sol\":3308:3345  if (result.length == 0) return result */\n      iszero\n      tag_303\n      jumpi\n        /* \"lib/RLP.sol\":3339:3345  result */\n      dup1\n        /* \"lib/RLP.sol\":3332:3345  return result */\n      swap2\n      pop\n      pop\n      jump(tag_301)\n        /* \"lib/RLP.sol\":3308:3345  if (result.length == 0) return result */\n    tag_303:\n        /* \"lib/RLP.sol\":3352:3360  uint ptr */\n      0x00\n        /* \"lib/RLP.sol\":3400:3406  result */\n      dup2\n        /* \"lib/RLP.sol\":3394:3398  0x20 */\n      0x20\n        /* \"lib/RLP.sol\":3390:3407  add(0x20, result) */\n      add\n        /* \"lib/RLP.sol\":3383:3407  ptr := add(0x20, result) */\n      swap1\n      pop\n        /* \"lib/RLP.sol\":3419:3451  copy(item.memPtr, ptr, item.len) */\n      tag_304\n        /* \"lib/RLP.sol\":3424:3428  item */\n      dup5\n        /* \"lib/RLP.sol\":3424:3435  item.memPtr */\n      0x20\n      add\n      mload\n        /* \"lib/RLP.sol\":3437:3440  ptr */\n      dup3\n        /* \"lib/RLP.sol\":3442:3446  item */\n      dup7\n        /* \"lib/RLP.sol\":3442:3450  item.len */\n      0x00\n      add\n      mload\n        /* \"lib/RLP.sol\":3419:3423  copy */\n      tag_282\n        /* \"lib/RLP.sol\":3419:3451  copy(item.memPtr, ptr, item.len) */\n      jump\t// in\n    tag_304:\n        /* \"lib/RLP.sol\":3464:3470  result */\n      dup2\n        /* \"lib/RLP.sol\":3457:3470  return result */\n      swap3\n      pop\n      pop\n      pop\n        /* \"lib/RLP.sol\":3177:3475  function toRLPBytes(RLPItem memory item) internal pure returns (bytes memory) {... */\n    tag_301:\n      swap2\n      swap1\n      pop\n      jump\t// out\n        /* \"PlasmaManager.sol\":8403:8766  function _getBytesStr(uint i) private pure returns (bytes memory) {... */\n    tag_167:\n        /* \"PlasmaManager.sol\":8455:8467  bytes memory */\n      0x60\n        /* \"PlasmaManager.sol\":8484:8485  0 */\n      0x00\n        /* \"PlasmaManager.sol\":8479:8480  i */\n      dup3\n        /* \"PlasmaManager.sol\":8479:8485  i == 0 */\n      eq\n        /* \"PlasmaManager.sol\":8475:8512  if (i == 0) {... */\n      iszero\n      tag_306\n      jumpi\n        /* \"PlasmaManager.sol\":8495:8505  return \"0\" */\n      mload(0x40)\n      dup1\n      0x40\n      add\n      0x40\n      mstore\n      dup1\n      0x01\n      dup2\n      mstore\n      0x20\n      add\n      0x3000000000000000000000000000000000000000000000000000000000000000\n      dup2\n      mstore\n      pop\n      swap1\n      pop\n      jump(tag_305)\n        /* \"PlasmaManager.sol\":8475:8512  if (i == 0) {... */\n    tag_306:\n        /* \"PlasmaManager.sol\":8517:8523  uint j */\n      0x00\n        /* \"PlasmaManager.sol\":8526:8527  i */\n      dup3\n        /* \"PlasmaManager.sol\":8517:8527  uint j = i */\n      swap1\n      pop\n        /* \"PlasmaManager.sol\":8533:8541  uint len */\n      0x00\n        /* \"PlasmaManager.sol\":8547:8597  while (j != 0) {... */\n    tag_307:\n        /* \"PlasmaManager.sol\":8559:8560  0 */\n      0x00\n        /* \"PlasmaManager.sol\":8554:8555  j */\n      dup3\n        /* \"PlasmaManager.sol\":8554:8560  j != 0 */\n      eq\n        /* \"PlasmaManager.sol\":8547:8597  while (j != 0) {... */\n      tag_308\n      jumpi\n        /* \"PlasmaManager.sol\":8570:8575  len++ */\n      dup1\n      dup1\n      0x01\n      add\n      swap2\n      pop\n      pop\n        /* \"PlasmaManager.sol\":8588:8590  10 */\n      0x0a\n        /* \"PlasmaManager.sol\":8583:8590  j /= 10 */\n      dup3\n      dup2\n      tag_309\n      jumpi\n      invalid\n    tag_309:\n      div\n      swap2\n      pop\n        /* \"PlasmaManager.sol\":8547:8597  while (j != 0) {... */\n      jump(tag_307)\n    tag_308:\n        /* \"PlasmaManager.sol\":8602:8619  bytes memory bstr */\n      0x60\n        /* \"PlasmaManager.sol\":8632:8635  len */\n      dup2\n        /* \"PlasmaManager.sol\":8622:8636  new bytes(len) */\n      mload(0x40)\n      swap1\n      dup1\n      dup3\n      mstore\n      dup1\n      0x1f\n      add\n      not(0x1f)\n      and\n      0x20\n      add\n      dup3\n      add\n      0x40\n      mstore\n      dup1\n      iszero\n      tag_310\n      jumpi\n      dup2\n      0x20\n      add\n        /* \"--CODEGEN--\":29:30   */\n      0x01\n        /* \"--CODEGEN--\":21:27   */\n      dup3\n        /* \"--CODEGEN--\":17:31   */\n      mul\n        /* \"--CODEGEN--\":124:128   */\n      dup1\n        /* \"--CODEGEN--\":108:122   */\n      calldatasize\n        /* \"--CODEGEN--\":100:106   */\n      dup4\n        /* \"--CODEGEN--\":87:129   */\n      calldatacopy\n        /* \"--CODEGEN--\":155:159   */\n      dup1\n        /* \"--CODEGEN--\":147:153   */\n      dup3\n        /* \"--CODEGEN--\":143:160   */\n      add\n        /* \"--CODEGEN--\":133:160   */\n      swap2\n      pop\n        /* \"--CODEGEN--\":0:164   */\n      pop\n        /* \"PlasmaManager.sol\":8622:8636  new bytes(len) */\n      swap1\n      pop\n    tag_310:\n      pop\n        /* \"PlasmaManager.sol\":8602:8636  bytes memory bstr = new bytes(len) */\n      swap1\n      pop\n        /* \"PlasmaManager.sol\":8642:8648  uint k */\n      0x00\n        /* \"PlasmaManager.sol\":8657:8658  1 */\n      0x01\n        /* \"PlasmaManager.sol\":8651:8654  len */\n      dup4\n        /* \"PlasmaManager.sol\":8651:8658  len - 1 */\n      sub\n        /* \"PlasmaManager.sol\":8642:8658  uint k = len - 1 */\n      swap1\n      pop\n        /* \"PlasmaManager.sol\":8664:8745  while (i != 0) {... */\n    tag_311:\n        /* \"PlasmaManager.sol\":8676:8677  0 */\n      0x00\n        /* \"PlasmaManager.sol\":8671:8672  i */\n      dup7\n        /* \"PlasmaManager.sol\":8671:8677  i != 0 */\n      eq\n        /* \"PlasmaManager.sol\":8664:8745  while (i != 0) {... */\n      tag_312\n      jumpi\n        /* \"PlasmaManager.sol\":8719:8721  10 */\n      0x0a\n        /* \"PlasmaManager.sol\":8715:8716  i */\n      dup7\n        /* \"PlasmaManager.sol\":8715:8721  i % 10 */\n      dup2\n      tag_313\n      jumpi\n      invalid\n    tag_313:\n      mod\n        /* \"PlasmaManager.sol\":8710:8712  48 */\n      0x30\n        /* \"PlasmaManager.sol\":8710:8721  48 + i % 10 */\n      add\n        /* \"PlasmaManager.sol\":8699:8723  byte(uint8(48 + i % 10)) */\n      0xf8\n      shl\n        /* \"PlasmaManager.sol\":8687:8691  bstr */\n      dup3\n        /* \"PlasmaManager.sol\":8692:8695  k-- */\n      dup3\n      dup1\n      0x01\n      swap1\n      sub\n      swap4\n      pop\n        /* \"PlasmaManager.sol\":8687:8696  bstr[k--] */\n      dup2\n      mload\n      dup2\n      lt\n      tag_314\n      jumpi\n      invalid\n    tag_314:\n      0x20\n      add\n      add\n        /* \"PlasmaManager.sol\":8687:8723  bstr[k--] = byte(uint8(48 + i % 10)) */\n      swap1\n      not(0xffffffffffffffffffffffffffffffffffffffffffffffffffffffffffffff)\n      and\n      swap1\n      dup2\n      0x00\n      byte\n      swap1\n      mstore8\n      pop\n        /* \"PlasmaManager.sol\":8736:8738  10 */\n      0x0a\n        /* \"PlasmaManager.sol\":8731:8738  i /= 10 */\n      dup7\n      dup2\n      tag_315\n      jumpi\n      invalid\n    tag_315:\n      div\n      swap6\n      pop\n        /* \"PlasmaManager.sol\":8664:8745  while (i != 0) {... */\n      jump(tag_311)\n    tag_312:\n        /* \"PlasmaManager.sol\":8757:8761  bstr */\n      dup2\n        /* \"PlasmaManager.sol\":8750:8761  return bstr */\n      swap5\n      pop\n      pop\n      pop\n      pop\n      pop\n        /* \"PlasmaManager.sol\":8403:8766  function _getBytesStr(uint i) private pure returns (bytes memory) {... */\n    tag_305:\n      swap2\n      swap1\n      pop\n      jump\t// out\n        /* \"lib/MerklePatriciaProof.sol\":545:3281  function verify(... */\n    tag_211:\n        /* \"lib/MerklePatriciaProof.sol\":711:715  bool */\n      0x00\n        /* \"lib/MerklePatriciaProof.sol\":727:750  RLP.RLPItem memory item */\n      tag_317\n      tag_233\n      jump\t// in\n    tag_317:\n        /* \"lib/MerklePatriciaProof.sol\":753:782  RLP.toRLPItem(rlpParentNodes) */\n      tag_318\n        /* \"lib/MerklePatriciaProof.sol\":767:781  rlpParentNodes */\n      dup5\n        /* \"lib/MerklePatriciaProof.sol\":753:766  RLP.toRLPItem */\n      tag_103\n        /* \"lib/MerklePatriciaProof.sol\":753:782  RLP.toRLPItem(rlpParentNodes) */\n      jump\t// in\n    tag_318:\n        /* \"lib/MerklePatriciaProof.sol\":727:782  RLP.RLPItem memory item = RLP.toRLPItem(rlpParentNodes) */\n      swap1\n      pop\n        /* \"lib/MerklePatriciaProof.sol\":792:824  RLP.RLPItem[] memory parentNodes */\n      0x60\n        /* \"lib/MerklePatriciaProof.sol\":827:843  RLP.toList(item) */\n      tag_319\n        /* \"lib/MerklePatriciaProof.sol\":838:842  item */\n      dup3\n        /* \"lib/MerklePatriciaProof.sol\":827:837  RLP.toList */\n      tag_104\n        /* \"lib/MerklePatriciaProof.sol\":827:843  RLP.toList(item) */\n      jump\t// in\n    tag_319:\n        /* \"lib/MerklePatriciaProof.sol\":792:843  RLP.RLPItem[] memory parentNodes = RLP.toList(item) */\n      swap1\n      pop\n        /* \"lib/MerklePatriciaProof.sol\":854:878  bytes memory currentNode */\n      0x60\n        /* \"lib/MerklePatriciaProof.sol\":888:924  RLP.RLPItem[] memory currentNodeList */\n      dup1\n        /* \"lib/MerklePatriciaProof.sol\":935:950  bytes32 nodeKey */\n      0x00\n        /* \"lib/MerklePatriciaProof.sol\":953:957  root */\n      dup7\n        /* \"lib/MerklePatriciaProof.sol\":935:957  bytes32 nodeKey = root */\n      swap1\n      pop\n        /* \"lib/MerklePatriciaProof.sol\":967:982  uint256 pathPtr */\n      0x00\n        /* \"lib/MerklePatriciaProof.sol\":985:986  0 */\n      dup1\n        /* \"lib/MerklePatriciaProof.sol\":967:986  uint256 pathPtr = 0 */\n      swap1\n      pop\n        /* \"lib/MerklePatriciaProof.sol\":997:1014  bytes memory path */\n      0x60\n        /* \"lib/MerklePatriciaProof.sol\":1017:1045  _getNibbleArray(encodedPath) */\n      tag_320\n        /* \"lib/MerklePatriciaProof.sol\":1033:1044  encodedPath */\n      dup12\n        /* \"lib/MerklePatriciaProof.sol\":1017:1032  _getNibbleArray */\n      tag_321\n        /* \"lib/MerklePatriciaProof.sol\":1017:1045  _getNibbleArray(encodedPath) */\n      jump\t// in\n    tag_320:\n        /* \"lib/MerklePatriciaProof.sol\":997:1045  bytes memory path = _getNibbleArray(encodedPath) */\n      swap1\n      pop\n        /* \"lib/MerklePatriciaProof.sol\":1074:1075  0 */\n      0x00\n        /* \"lib/MerklePatriciaProof.sol\":1059:1063  path */\n      dup2\n        /* \"lib/MerklePatriciaProof.sol\":1059:1070  path.length */\n      mload\n        /* \"lib/MerklePatriciaProof.sol\":1059:1075  path.length == 0 */\n      eq\n        /* \"lib/MerklePatriciaProof.sol\":1055:1114  if (path.length == 0) {... */\n      iszero\n      tag_322\n      jumpi\n        /* \"lib/MerklePatriciaProof.sol\":1098:1103  false */\n      0x00\n        /* \"lib/MerklePatriciaProof.sol\":1091:1103  return false */\n      swap8\n      pop\n      pop\n      pop\n      pop\n      pop\n      pop\n      pop\n      pop\n      jump(tag_316)\n        /* \"lib/MerklePatriciaProof.sol\":1055:1114  if (path.length == 0) {... */\n    tag_322:\n        /* \"lib/MerklePatriciaProof.sol\":1129:1138  uint256 i */\n      0x00\n        /* \"lib/MerklePatriciaProof.sol\":1141:1142  0 */\n      dup1\n        /* \"lib/MerklePatriciaProof.sol\":1129:1142  uint256 i = 0 */\n      swap1\n      pop\n        /* \"lib/MerklePatriciaProof.sol\":1124:3275  for (uint256 i = 0; i < parentNodes.length; i++) {... */\n    tag_323:\n        /* \"lib/MerklePatriciaProof.sol\":1148:1159  parentNodes */\n      dup7\n        /* \"lib/MerklePatriciaProof.sol\":1148:1166  parentNodes.length */\n      mload\n        /* \"lib/MerklePatriciaProof.sol\":1144:1145  i */\n      dup2\n        /* \"lib/MerklePatriciaProof.sol\":1144:1166  i < parentNodes.length */\n      lt\n        /* \"lib/MerklePatriciaProof.sol\":1124:3275  for (uint256 i = 0; i < parentNodes.length; i++) {... */\n      iszero\n      tag_324\n      jumpi\n        /* \"lib/MerklePatriciaProof.sol\":1201:1205  path */\n      dup2\n        /* \"lib/MerklePatriciaProof.sol\":1201:1212  path.length */\n      mload\n        /* \"lib/MerklePatriciaProof.sol\":1191:1198  pathPtr */\n      dup4\n        /* \"lib/MerklePatriciaProof.sol\":1191:1212  pathPtr > path.length */\n      gt\n        /* \"lib/MerklePatriciaProof.sol\":1187:1259  if (pathPtr > path.length) {... */\n      iszero\n      tag_326\n      jumpi\n        /* \"lib/MerklePatriciaProof.sol\":1239:1244  false */\n      0x00\n        /* \"lib/MerklePatriciaProof.sol\":1232:1244  return false */\n      swap9\n      pop\n      pop\n      pop\n      pop\n      pop\n      pop\n      pop\n      pop\n      pop\n      jump(tag_316)\n        /* \"lib/MerklePatriciaProof.sol\":1187:1259  if (pathPtr > path.length) {... */\n    tag_326:\n        /* \"lib/MerklePatriciaProof.sol\":1287:1317  RLP.toRLPBytes(parentNodes[i]) */\n      tag_327\n        /* \"lib/MerklePatriciaProof.sol\":1302:1313  parentNodes */\n      dup8\n        /* \"lib/MerklePatriciaProof.sol\":1314:1315  i */\n      dup3\n        /* \"lib/MerklePatriciaProof.sol\":1302:1316  parentNodes[i] */\n      dup2\n      mload\n      dup2\n      lt\n      tag_328\n      jumpi\n      invalid\n    tag_328:\n      0x20\n      mul\n      0x20\n      add\n      add\n      mload\n        /* \"lib/MerklePatriciaProof.sol\":1287:1301  RLP.toRLPBytes */\n      tag_165\n        /* \"lib/MerklePatriciaProof.sol\":1287:1317  RLP.toRLPBytes(parentNodes[i]) */\n      jump\t// in\n    tag_327:\n        /* \"lib/MerklePatriciaProof.sol\":1273:1317  currentNode = RLP.toRLPBytes(parentNodes[i]) */\n      swap6\n      pop\n        /* \"lib/MerklePatriciaProof.sol\":1356:1367  currentNode */\n      dup6\n        /* \"lib/MerklePatriciaProof.sol\":1346:1368  keccak256(currentNode) */\n      dup1\n      mload\n      swap1\n      0x20\n      add\n      keccak256\n        /* \"lib/MerklePatriciaProof.sol\":1335:1342  nodeKey */\n      dup5\n        /* \"lib/MerklePatriciaProof.sol\":1335:1368  nodeKey != keccak256(currentNode) */\n      eq\n        /* \"lib/MerklePatriciaProof.sol\":1331:1415  if (nodeKey != keccak256(currentNode)) {... */\n      tag_329\n      jumpi\n        /* \"lib/MerklePatriciaProof.sol\":1395:1400  false */\n      0x00\n        /* \"lib/MerklePatriciaProof.sol\":1388:1400  return false */\n      swap9\n      pop\n      pop\n      pop\n      pop\n      pop\n      pop\n      pop\n      pop\n      pop\n      jump(tag_316)\n        /* \"lib/MerklePatriciaProof.sol\":1331:1415  if (nodeKey != keccak256(currentNode)) {... */\n    tag_329:\n        /* \"lib/MerklePatriciaProof.sol\":1446:1472  RLP.toList(parentNodes[i]) */\n      tag_330\n        /* \"lib/MerklePatriciaProof.sol\":1457:1468  parentNodes */\n      dup8\n        /* \"lib/MerklePatriciaProof.sol\":1469:1470  i */\n      dup3\n        /* \"lib/MerklePatriciaProof.sol\":1457:1471  parentNodes[i] */\n      dup2\n      mload\n      dup2\n      lt\n      tag_331\n      jumpi\n      invalid\n    tag_331:\n      0x20\n      mul\n      0x20\n      add\n      add\n      mload\n        /* \"lib/MerklePatriciaProof.sol\":1446:1456  RLP.toList */\n      tag_104\n        /* \"lib/MerklePatriciaProof.sol\":1446:1472  RLP.toList(parentNodes[i]) */\n      jump\t// in\n    tag_330:\n        /* \"lib/MerklePatriciaProof.sol\":1428:1472  currentNodeList = RLP.toList(parentNodes[i]) */\n      swap5\n      pop\n        /* \"lib/MerklePatriciaProof.sol\":1517:1519  17 */\n      0x11\n        /* \"lib/MerklePatriciaProof.sol\":1491:1506  currentNodeList */\n      dup6\n        /* \"lib/MerklePatriciaProof.sol\":1491:1513  currentNodeList.length */\n      mload\n        /* \"lib/MerklePatriciaProof.sol\":1491:1519  currentNodeList.length == 17 */\n      eq\n        /* \"lib/MerklePatriciaProof.sol\":1487:3265  if (currentNodeList.length == 17) {... */\n      iszero\n      tag_332\n      jumpi\n        /* \"lib/MerklePatriciaProof.sol\":1554:1558  path */\n      dup2\n        /* \"lib/MerklePatriciaProof.sol\":1554:1565  path.length */\n      mload\n        /* \"lib/MerklePatriciaProof.sol\":1543:1550  pathPtr */\n      dup4\n        /* \"lib/MerklePatriciaProof.sol\":1543:1565  pathPtr == path.length */\n      eq\n        /* \"lib/MerklePatriciaProof.sol\":1539:1873  if (pathPtr == path.length) {... */\n      iszero\n      tag_333\n      jumpi\n        /* \"lib/MerklePatriciaProof.sol\":1699:1704  value */\n      dup13\n        /* \"lib/MerklePatriciaProof.sol\":1689:1705  keccak256(value) */\n      dup1\n      mload\n      swap1\n      0x20\n      add\n      keccak256\n        /* \"lib/MerklePatriciaProof.sol\":1628:1660  RLP.toBytes(currentNodeList[16]) */\n      tag_334\n        /* \"lib/MerklePatriciaProof.sol\":1640:1655  currentNodeList */\n      dup7\n        /* \"lib/MerklePatriciaProof.sol\":1656:1658  16 */\n      0x10\n        /* \"lib/MerklePatriciaProof.sol\":1640:1659  currentNodeList[16] */\n      dup2\n      mload\n      dup2\n      lt\n      tag_335\n      jumpi\n      invalid\n    tag_335:\n      0x20\n      mul\n      0x20\n      add\n      add\n      mload\n        /* \"lib/MerklePatriciaProof.sol\":1628:1639  RLP.toBytes */\n      tag_136\n        /* \"lib/MerklePatriciaProof.sol\":1628:1660  RLP.toBytes(currentNodeList[16]) */\n      jump\t// in\n    tag_334:\n        /* \"lib/MerklePatriciaProof.sol\":1618:1661  keccak256(RLP.toBytes(currentNodeList[16])) */\n      dup1\n      mload\n      swap1\n      0x20\n      add\n      keccak256\n        /* \"lib/MerklePatriciaProof.sol\":1618:1705  keccak256(RLP.toBytes(currentNodeList[16])) ==... */\n      eq\n        /* \"lib/MerklePatriciaProof.sol\":1589:1855  if (... */\n      iszero\n      tag_336\n      jumpi\n        /* \"lib/MerklePatriciaProof.sol\":1761:1765  true */\n      0x01\n        /* \"lib/MerklePatriciaProof.sol\":1754:1765  return true */\n      swap9\n      pop\n      pop\n      pop\n      pop\n      pop\n      pop\n      pop\n      pop\n      pop\n      jump(tag_316)\n        /* \"lib/MerklePatriciaProof.sol\":1589:1855  if (... */\n    tag_336:\n        /* \"lib/MerklePatriciaProof.sol\":1827:1832  false */\n      0x00\n        /* \"lib/MerklePatriciaProof.sol\":1820:1832  return false */\n      swap9\n      pop\n      pop\n      pop\n      pop\n      pop\n      pop\n      pop\n      pop\n      pop\n      jump(tag_316)\n        /* \"lib/MerklePatriciaProof.sol\":1539:1873  if (pathPtr == path.length) {... */\n    tag_333:\n        /* \"lib/MerklePatriciaProof.sol\":1891:1911  uint8 nextPathNibble */\n      0x00\n        /* \"lib/MerklePatriciaProof.sol\":1920:1924  path */\n      dup3\n        /* \"lib/MerklePatriciaProof.sol\":1925:1932  pathPtr */\n      dup5\n        /* \"lib/MerklePatriciaProof.sol\":1920:1933  path[pathPtr] */\n      dup2\n      mload\n      dup2\n      lt\n      tag_338\n      jumpi\n      invalid\n    tag_338:\n      0x20\n      add\n      add\n      mload\n      0xf8\n      shr\n      0xf8\n      shl\n        /* \"lib/MerklePatriciaProof.sol\":1914:1934  uint8(path[pathPtr]) */\n      0xf8\n      shr\n        /* \"lib/MerklePatriciaProof.sol\":1891:1934  uint8 nextPathNibble = uint8(path[pathPtr]) */\n      swap1\n      pop\n        /* \"lib/MerklePatriciaProof.sol\":1973:1975  16 */\n      0x10\n        /* \"lib/MerklePatriciaProof.sol\":1956:1970  nextPathNibble */\n      dup2\n        /* \"lib/MerklePatriciaProof.sol\":1956:1975  nextPathNibble > 16 */\n      0xff\n      and\n      gt\n        /* \"lib/MerklePatriciaProof.sol\":1952:2030  if (nextPathNibble > 16) {... */\n      iszero\n      tag_339\n      jumpi\n        /* \"lib/MerklePatriciaProof.sol\":2006:2011  false */\n      0x00\n        /* \"lib/MerklePatriciaProof.sol\":1999:2011  return false */\n      swap10\n      pop\n      pop\n      pop\n      pop\n      pop\n      pop\n      pop\n      pop\n      pop\n      pop\n      jump(tag_316)\n        /* \"lib/MerklePatriciaProof.sol\":1952:2030  if (nextPathNibble > 16) {... */\n    tag_339:\n        /* \"lib/MerklePatriciaProof.sol\":2086:2135  RLP.toUintStrict(currentNodeList[nextPathNibble]) */\n      tag_340\n        /* \"lib/MerklePatriciaProof.sol\":2103:2118  currentNodeList */\n      dup7\n        /* \"lib/MerklePatriciaProof.sol\":2119:2133  nextPathNibble */\n      dup3\n        /* \"lib/MerklePatriciaProof.sol\":2103:2134  currentNodeList[nextPathNibble] */\n      0xff\n      and\n      dup2\n      mload\n      dup2\n      lt\n      tag_341\n      jumpi\n      invalid\n    tag_341:\n      0x20\n      mul\n      0x20\n      add\n      add\n      mload\n        /* \"lib/MerklePatriciaProof.sol\":2086:2102  RLP.toUintStrict */\n      tag_342\n        /* \"lib/MerklePatriciaProof.sol\":2086:2135  RLP.toUintStrict(currentNodeList[nextPathNibble]) */\n      jump\t// in\n    tag_340:\n        /* \"lib/MerklePatriciaProof.sol\":2057:2153  bytes32(... */\n      0x00\n      shl\n        /* \"lib/MerklePatriciaProof.sol\":2047:2153  nodeKey = bytes32(... */\n      swap5\n      pop\n        /* \"lib/MerklePatriciaProof.sol\":2182:2183  1 */\n      0x01\n        /* \"lib/MerklePatriciaProof.sol\":2171:2183  pathPtr += 1 */\n      dup5\n      add\n      swap4\n      pop\n        /* \"lib/MerklePatriciaProof.sol\":1487:3265  if (currentNodeList.length == 17) {... */\n      pop\n      jump(tag_343)\n    tag_332:\n        /* \"lib/MerklePatriciaProof.sol\":2234:2235  2 */\n      0x02\n        /* \"lib/MerklePatriciaProof.sol\":2208:2223  currentNodeList */\n      dup6\n        /* \"lib/MerklePatriciaProof.sol\":2208:2230  currentNodeList.length */\n      mload\n        /* \"lib/MerklePatriciaProof.sol\":2208:2235  currentNodeList.length == 2 */\n      eq\n        /* \"lib/MerklePatriciaProof.sol\":2204:3265  if (currentNodeList.length == 2) {... */\n      iszero\n      tag_344\n      jumpi\n        /* \"lib/MerklePatriciaProof.sol\":2266:2410  _nibblesToTraverse(... */\n      tag_345\n        /* \"lib/MerklePatriciaProof.sol\":2306:2337  RLP.toBytes(currentNodeList[0]) */\n      tag_346\n        /* \"lib/MerklePatriciaProof.sol\":2318:2333  currentNodeList */\n      dup7\n        /* \"lib/MerklePatriciaProof.sol\":2334:2335  0 */\n      0x00\n        /* \"lib/MerklePatriciaProof.sol\":2318:2336  currentNodeList[0] */\n      dup2\n      mload\n      dup2\n      lt\n      tag_347\n      jumpi\n      invalid\n    tag_347:\n      0x20\n      mul\n      0x20\n      add\n      add\n      mload\n        /* \"lib/MerklePatriciaProof.sol\":2306:2317  RLP.toBytes */\n      tag_136\n        /* \"lib/MerklePatriciaProof.sol\":2306:2337  RLP.toBytes(currentNodeList[0]) */\n      jump\t// in\n    tag_346:\n        /* \"lib/MerklePatriciaProof.sol\":2359:2363  path */\n      dup4\n        /* \"lib/MerklePatriciaProof.sol\":2385:2392  pathPtr */\n      dup6\n        /* \"lib/MerklePatriciaProof.sol\":2266:2284  _nibblesToTraverse */\n      tag_348\n        /* \"lib/MerklePatriciaProof.sol\":2266:2410  _nibblesToTraverse(... */\n      jump\t// in\n    tag_345:\n        /* \"lib/MerklePatriciaProof.sol\":2255:2410  pathPtr += _nibblesToTraverse(... */\n      dup4\n      add\n      swap3\n      pop\n        /* \"lib/MerklePatriciaProof.sol\":2443:2447  path */\n      dup2\n        /* \"lib/MerklePatriciaProof.sol\":2443:2454  path.length */\n      mload\n        /* \"lib/MerklePatriciaProof.sol\":2432:2439  pathPtr */\n      dup4\n        /* \"lib/MerklePatriciaProof.sol\":2432:2454  pathPtr == path.length */\n      eq\n        /* \"lib/MerklePatriciaProof.sol\":2428:2793  if (pathPtr == path.length) {... */\n      iszero\n      tag_349\n      jumpi\n        /* \"lib/MerklePatriciaProof.sol\":2619:2624  value */\n      dup13\n        /* \"lib/MerklePatriciaProof.sol\":2609:2625  keccak256(value) */\n      dup1\n      mload\n      swap1\n      0x20\n      add\n      keccak256\n        /* \"lib/MerklePatriciaProof.sol\":2549:2580  RLP.toBytes(currentNodeList[1]) */\n      tag_350\n        /* \"lib/MerklePatriciaProof.sol\":2561:2576  currentNodeList */\n      dup7\n        /* \"lib/MerklePatriciaProof.sol\":2577:2578  1 */\n      0x01\n        /* \"lib/MerklePatriciaProof.sol\":2561:2579  currentNodeList[1] */\n      dup2\n      mload\n      dup2\n      lt\n      tag_351\n      jumpi\n      invalid\n    tag_351:\n      0x20\n      mul\n      0x20\n      add\n      add\n      mload\n        /* \"lib/MerklePatriciaProof.sol\":2549:2560  RLP.toBytes */\n      tag_136\n        /* \"lib/MerklePatriciaProof.sol\":2549:2580  RLP.toBytes(currentNodeList[1]) */\n      jump\t// in\n    tag_350:\n        /* \"lib/MerklePatriciaProof.sol\":2539:2581  keccak256(RLP.toBytes(currentNodeList[1])) */\n      dup1\n      mload\n      swap1\n      0x20\n      add\n      keccak256\n        /* \"lib/MerklePatriciaProof.sol\":2539:2625  keccak256(RLP.toBytes(currentNodeList[1])) ==... */\n      eq\n        /* \"lib/MerklePatriciaProof.sol\":2510:2775  if (... */\n      iszero\n      tag_352\n      jumpi\n        /* \"lib/MerklePatriciaProof.sol\":2681:2685  true */\n      0x01\n        /* \"lib/MerklePatriciaProof.sol\":2674:2685  return true */\n      swap9\n      pop\n      pop\n      pop\n      pop\n      pop\n      pop\n      pop\n      pop\n      pop\n      jump(tag_316)\n        /* \"lib/MerklePatriciaProof.sol\":2510:2775  if (... */\n    tag_352:\n        /* \"lib/MerklePatriciaProof.sol\":2747:2752  false */\n      0x00\n        /* \"lib/MerklePatriciaProof.sol\":2740:2752  return false */\n      swap9\n      pop\n      pop\n      pop\n      pop\n      pop\n      pop\n      pop\n      pop\n      pop\n      jump(tag_316)\n        /* \"lib/MerklePatriciaProof.sol\":2428:2793  if (pathPtr == path.length) {... */\n    tag_349:\n        /* \"lib/MerklePatriciaProof.sol\":3053:3054  0 */\n      0x00\n        /* \"lib/MerklePatriciaProof.sol\":2869:3029  _nibblesToTraverse(... */\n      tag_354\n        /* \"lib/MerklePatriciaProof.sol\":2913:2944  RLP.toBytes(currentNodeList[0]) */\n      tag_355\n        /* \"lib/MerklePatriciaProof.sol\":2925:2940  currentNodeList */\n      dup8\n        /* \"lib/MerklePatriciaProof.sol\":2941:2942  0 */\n      0x00\n        /* \"lib/MerklePatriciaProof.sol\":2925:2943  currentNodeList[0] */\n      dup2\n      mload\n      dup2\n      lt\n      tag_356\n      jumpi\n      invalid\n    tag_356:\n      0x20\n      mul\n      0x20\n      add\n      add\n      mload\n        /* \"lib/MerklePatriciaProof.sol\":2913:2924  RLP.toBytes */\n      tag_136\n        /* \"lib/MerklePatriciaProof.sol\":2913:2944  RLP.toBytes(currentNodeList[0]) */\n      jump\t// in\n    tag_355:\n        /* \"lib/MerklePatriciaProof.sol\":2970:2974  path */\n      dup5\n        /* \"lib/MerklePatriciaProof.sol\":3000:3007  pathPtr */\n      dup7\n        /* \"lib/MerklePatriciaProof.sol\":2869:2887  _nibblesToTraverse */\n      tag_348\n        /* \"lib/MerklePatriciaProof.sol\":2869:3029  _nibblesToTraverse(... */\n      jump\t// in\n    tag_354:\n        /* \"lib/MerklePatriciaProof.sol\":2869:3054  _nibblesToTraverse(... */\n      eq\n        /* \"lib/MerklePatriciaProof.sol\":2844:3126  if (... */\n      iszero\n      tag_357\n      jumpi\n        /* \"lib/MerklePatriciaProof.sol\":3102:3107  false */\n      0x00\n        /* \"lib/MerklePatriciaProof.sol\":3095:3107  return false */\n      swap9\n      pop\n      pop\n      pop\n      pop\n      pop\n      pop\n      pop\n      pop\n      pop\n      jump(tag_316)\n        /* \"lib/MerklePatriciaProof.sol\":2844:3126  if (... */\n    tag_357:\n        /* \"lib/MerklePatriciaProof.sol\":3162:3198  RLP.toUintStrict(currentNodeList[1]) */\n      tag_358\n        /* \"lib/MerklePatriciaProof.sol\":3179:3194  currentNodeList */\n      dup6\n        /* \"lib/MerklePatriciaProof.sol\":3195:3196  1 */\n      0x01\n        /* \"lib/MerklePatriciaProof.sol\":3179:3197  currentNodeList[1] */\n      dup2\n      mload\n      dup2\n      lt\n      tag_359\n      jumpi\n      invalid\n    tag_359:\n      0x20\n      mul\n      0x20\n      add\n      add\n      mload\n        /* \"lib/MerklePatriciaProof.sol\":3162:3178  RLP.toUintStrict */\n      tag_342\n        /* \"lib/MerklePatriciaProof.sol\":3162:3198  RLP.toUintStrict(currentNodeList[1]) */\n      jump\t// in\n    tag_358:\n        /* \"lib/MerklePatriciaProof.sol\":3154:3199  bytes32(RLP.toUintStrict(currentNodeList[1])) */\n      0x00\n      shl\n        /* \"lib/MerklePatriciaProof.sol\":3144:3199  nodeKey = bytes32(RLP.toUintStrict(currentNodeList[1])) */\n      swap4\n      pop\n        /* \"lib/MerklePatriciaProof.sol\":2204:3265  if (currentNodeList.length == 2) {... */\n      jump(tag_360)\n    tag_344:\n        /* \"lib/MerklePatriciaProof.sol\":3245:3250  false */\n      0x00\n        /* \"lib/MerklePatriciaProof.sol\":3238:3250  return false */\n      swap9\n      pop\n      pop\n      pop\n      pop\n      pop\n      pop\n      pop\n      pop\n      pop\n      jump(tag_316)\n        /* \"lib/MerklePatriciaProof.sol\":2204:3265  if (currentNodeList.length == 2) {... */\n    tag_360:\n        /* \"lib/MerklePatriciaProof.sol\":1487:3265  if (currentNodeList.length == 17) {... */\n    tag_343:\n        /* \"lib/MerklePatriciaProof.sol\":1168:1171  i++ */\n      dup1\n      dup1\n      0x01\n      add\n      swap2\n      pop\n      pop\n        /* \"lib/MerklePatriciaProof.sol\":1124:3275  for (uint256 i = 0; i < parentNodes.length; i++) {... */\n      jump(tag_323)\n    tag_324:\n      pop\n        /* \"lib/MerklePatriciaProof.sol\":545:3281  function verify(... */\n      pop\n      pop\n      pop\n      pop\n      pop\n      pop\n      pop\n    tag_316:\n      swap5\n      swap4\n      pop\n      pop\n      pop\n      pop\n      jump\t// out\n        /* \"lib/RLP.sol\":2805:3086  function isList(RLPItem memory item) internal pure returns (bool) {... */\n    tag_237:\n        /* \"lib/RLP.sol\":2865:2869  bool */\n      0x00\n        /* \"lib/RLP.sol\":2892:2893  0 */\n      dup1\n        /* \"lib/RLP.sol\":2880:2884  item */\n      dup3\n        /* \"lib/RLP.sol\":2880:2888  item.len */\n      0x00\n      add\n      mload\n        /* \"lib/RLP.sol\":2880:2893  item.len == 0 */\n      eq\n        /* \"lib/RLP.sol\":2877:2907  if(item.len == 0) return false */\n      iszero\n      tag_362\n      jumpi\n        /* \"lib/RLP.sol\":2902:2907  false */\n      0x00\n        /* \"lib/RLP.sol\":2895:2907  return false */\n      swap1\n      pop\n      jump(tag_361)\n        /* \"lib/RLP.sol\":2877:2907  if(item.len == 0) return false */\n    tag_362:\n        /* \"lib/RLP.sol\":2914:2925  uint8 byte0 */\n      0x00\n        /* \"lib/RLP.sol\":2931:2942  uint memPtr */\n      dup1\n        /* \"lib/RLP.sol\":2945:2949  item */\n      dup4\n        /* \"lib/RLP.sol\":2945:2956  item.memPtr */\n      0x20\n      add\n      mload\n        /* \"lib/RLP.sol\":2931:2956  uint memPtr = item.memPtr */\n      swap1\n      pop\n        /* \"lib/RLP.sol\":3002:3008  memPtr */\n      dup1\n        /* \"lib/RLP.sol\":2996:3009  mload(memPtr) */\n      mload\n        /* \"lib/RLP.sol\":2993:2994  0 */\n      0x00\n        /* \"lib/RLP.sol\":2988:3010  byte(0, mload(memPtr)) */\n      byte\n        /* \"lib/RLP.sol\":2979:3010  byte0 := byte(0, mload(memPtr)) */\n      swap2\n      pop\n        /* \"lib/RLP.sol\":264:268  0xc0 */\n      0xc0\n        /* \"lib/RLP.sol\":3025:3049  byte0 < LIST_SHORT_START */\n      0xff\n      and\n        /* \"lib/RLP.sol\":3025:3030  byte0 */\n      dup3\n        /* \"lib/RLP.sol\":3025:3049  byte0 < LIST_SHORT_START */\n      0xff\n      and\n      lt\n        /* \"lib/RLP.sol\":3022:3063  if(byte0 < LIST_SHORT_START) return false */\n      iszero\n      tag_363\n      jumpi\n        /* \"lib/RLP.sol\":3058:3063  false */\n      0x00\n        /* \"lib/RLP.sol\":3051:3063  return false */\n      swap3\n      pop\n      pop\n      pop\n      jump(tag_361)\n        /* \"lib/RLP.sol\":3022:3063  if(byte0 < LIST_SHORT_START) return false */\n    tag_363:\n        /* \"lib/RLP.sol\":3077:3081  true */\n      0x01\n        /* \"lib/RLP.sol\":3070:3081  return true */\n      swap3\n      pop\n      pop\n      pop\n        /* \"lib/RLP.sol\":2805:3086  function isList(RLPItem memory item) internal pure returns (bool) {... */\n    tag_361:\n      swap2\n      swap1\n      pop\n      jump\t// out\n        /* \"lib/RLP.sol\":6205:6575  function numItems(RLPItem memory item) private pure returns (uint) {... */\n    tag_240:\n        /* \"lib/RLP.sol\":6266:6270  uint */\n      0x00\n        /* \"lib/RLP.sol\":6294:6295  0 */\n      dup1\n        /* \"lib/RLP.sol\":6282:6286  item */\n      dup3\n        /* \"lib/RLP.sol\":6282:6290  item.len */\n      0x00\n      add\n      mload\n        /* \"lib/RLP.sol\":6282:6295  item.len == 0 */\n      eq\n        /* \"lib/RLP.sol\":6278:6305  if (item.len == 0) return 0 */\n      iszero\n      tag_365\n      jumpi\n        /* \"lib/RLP.sol\":6304:6305  0 */\n      0x00\n        /* \"lib/RLP.sol\":6297:6305  return 0 */\n      swap1\n      pop\n      jump(tag_364)\n        /* \"lib/RLP.sol\":6278:6305  if (item.len == 0) return 0 */\n    tag_365:\n        /* \"lib/RLP.sol\":6312:6322  uint count */\n      0x00\n        /* \"lib/RLP.sol\":6325:6326  0 */\n      dup1\n        /* \"lib/RLP.sol\":6312:6326  uint count = 0 */\n      swap1\n      pop\n        /* \"lib/RLP.sol\":6332:6344  uint currPtr */\n      0x00\n        /* \"lib/RLP.sol\":6361:6388  _payloadOffset(item.memPtr) */\n      tag_366\n        /* \"lib/RLP.sol\":6376:6380  item */\n      dup5\n        /* \"lib/RLP.sol\":6376:6387  item.memPtr */\n      0x20\n      add\n      mload\n        /* \"lib/RLP.sol\":6361:6375  _payloadOffset */\n      tag_246\n        /* \"lib/RLP.sol\":6361:6388  _payloadOffset(item.memPtr) */\n      jump\t// in\n    tag_366:\n        /* \"lib/RLP.sol\":6347:6351  item */\n      dup5\n        /* \"lib/RLP.sol\":6347:6358  item.memPtr */\n      0x20\n      add\n      mload\n        /* \"lib/RLP.sol\":6347:6388  item.memPtr + _payloadOffset(item.memPtr) */\n      add\n        /* \"lib/RLP.sol\":6332:6388  uint currPtr = item.memPtr + _payloadOffset(item.memPtr) */\n      swap1\n      pop\n        /* \"lib/RLP.sol\":6394:6405  uint endPtr */\n      0x00\n        /* \"lib/RLP.sol\":6422:6426  item */\n      dup5\n        /* \"lib/RLP.sol\":6422:6430  item.len */\n      0x00\n      add\n      mload\n        /* \"lib/RLP.sol\":6408:6412  item */\n      dup6\n        /* \"lib/RLP.sol\":6408:6419  item.memPtr */\n      0x20\n      add\n      mload\n        /* \"lib/RLP.sol\":6408:6430  item.memPtr + item.len */\n      add\n        /* \"lib/RLP.sol\":6394:6430  uint endPtr = item.memPtr + item.len */\n      swap1\n      pop\n        /* \"lib/RLP.sol\":6436:6552  while (currPtr < endPtr) {... */\n    tag_367:\n        /* \"lib/RLP.sol\":6453:6459  endPtr */\n      dup1\n        /* \"lib/RLP.sol\":6443:6450  currPtr */\n      dup3\n        /* \"lib/RLP.sol\":6443:6459  currPtr < endPtr */\n      lt\n        /* \"lib/RLP.sol\":6436:6552  while (currPtr < endPtr) {... */\n      iszero\n      tag_368\n      jumpi\n        /* \"lib/RLP.sol\":6489:6509  _itemLength(currPtr) */\n      tag_369\n        /* \"lib/RLP.sol\":6501:6508  currPtr */\n      dup3\n        /* \"lib/RLP.sol\":6489:6500  _itemLength */\n      tag_251\n        /* \"lib/RLP.sol\":6489:6509  _itemLength(currPtr) */\n      jump\t// in\n    tag_369:\n        /* \"lib/RLP.sol\":6479:6486  currPtr */\n      dup3\n        /* \"lib/RLP.sol\":6479:6509  currPtr + _itemLength(currPtr) */\n      add\n        /* \"lib/RLP.sol\":6469:6509  currPtr = currPtr + _itemLength(currPtr) */\n      swap2\n      pop\n        /* \"lib/RLP.sol\":6538:6545  count++ */\n      dup3\n      dup1\n      0x01\n      add\n      swap4\n      pop\n      pop\n        /* \"lib/RLP.sol\":6436:6552  while (currPtr < endPtr) {... */\n      jump(tag_367)\n    tag_368:\n        /* \"lib/RLP.sol\":6565:6570  count */\n      dup3\n        /* \"lib/RLP.sol\":6558:6570  return count */\n      swap4\n      pop\n      pop\n      pop\n      pop\n        /* \"lib/RLP.sol\":6205:6575  function numItems(RLPItem memory item) private pure returns (uint) {... */\n    tag_364:\n      swap2\n      swap1\n      pop\n      jump\t// out\n        /* \"lib/RLP.sol\":7757:8234  function _payloadOffset(uint memPtr) private pure returns (uint) {... */\n    tag_246:\n        /* \"lib/RLP.sol\":7816:7820  uint */\n      0x00\n        /* \"lib/RLP.sol\":7828:7838  uint byte0 */\n      dup1\n        /* \"lib/RLP.sol\":7884:7890  memPtr */\n      dup3\n        /* \"lib/RLP.sol\":7878:7891  mload(memPtr) */\n      mload\n        /* \"lib/RLP.sol\":7875:7876  0 */\n      0x00\n        /* \"lib/RLP.sol\":7870:7892  byte(0, mload(memPtr)) */\n      byte\n        /* \"lib/RLP.sol\":7861:7892  byte0 := byte(0, mload(memPtr)) */\n      swap1\n      pop\n        /* \"lib/RLP.sol\":176:180  0x80 */\n      0x80\n        /* \"lib/RLP.sol\":7908:7934  byte0 < STRING_SHORT_START */\n      0xff\n      and\n        /* \"lib/RLP.sol\":7908:7913  byte0 */\n      dup2\n        /* \"lib/RLP.sol\":7908:7934  byte0 < STRING_SHORT_START */\n      lt\n        /* \"lib/RLP.sol\":7904:8229  if (byte0 < STRING_SHORT_START)... */\n      iszero\n      tag_371\n      jumpi\n        /* \"lib/RLP.sol\":7949:7950  0 */\n      0x00\n        /* \"lib/RLP.sol\":7942:7950  return 0 */\n      swap2\n      pop\n      pop\n      jump(tag_370)\n        /* \"lib/RLP.sol\":7904:8229  if (byte0 < STRING_SHORT_START)... */\n    tag_371:\n        /* \"lib/RLP.sol\":220:224  0xb8 */\n      0xb8\n        /* \"lib/RLP.sol\":7965:7990  byte0 < STRING_LONG_START */\n      0xff\n      and\n        /* \"lib/RLP.sol\":7965:7970  byte0 */\n      dup2\n        /* \"lib/RLP.sol\":7965:7990  byte0 < STRING_LONG_START */\n      lt\n        /* \"lib/RLP.sol\":7965:8048  byte0 < STRING_LONG_START || (byte0 >= LIST_SHORT_START && byte0 < LIST_LONG_START) */\n      dup1\n      tag_373\n      jumpi\n      pop\n        /* \"lib/RLP.sol\":264:268  0xc0 */\n      0xc0\n        /* \"lib/RLP.sol\":7995:8020  byte0 >= LIST_SHORT_START */\n      0xff\n      and\n        /* \"lib/RLP.sol\":7995:8000  byte0 */\n      dup2\n        /* \"lib/RLP.sol\":7995:8020  byte0 >= LIST_SHORT_START */\n      lt\n      iszero\n        /* \"lib/RLP.sol\":7995:8047  byte0 >= LIST_SHORT_START && byte0 < LIST_LONG_START */\n      dup1\n      iszero\n      tag_374\n      jumpi\n      pop\n        /* \"lib/RLP.sol\":308:312  0xf8 */\n      0xf8\n        /* \"lib/RLP.sol\":8024:8047  byte0 < LIST_LONG_START */\n      0xff\n      and\n        /* \"lib/RLP.sol\":8024:8029  byte0 */\n      dup2\n        /* \"lib/RLP.sol\":8024:8047  byte0 < LIST_LONG_START */\n      lt\n        /* \"lib/RLP.sol\":7995:8047  byte0 >= LIST_SHORT_START && byte0 < LIST_LONG_START */\n    tag_374:\n        /* \"lib/RLP.sol\":7965:8048  byte0 < STRING_LONG_START || (byte0 >= LIST_SHORT_START && byte0 < LIST_LONG_START) */\n    tag_373:\n        /* \"lib/RLP.sol\":7961:8229  if (byte0 < STRING_LONG_START || (byte0 >= LIST_SHORT_START && byte0 < LIST_LONG_START))... */\n      iszero\n      tag_375\n      jumpi\n        /* \"lib/RLP.sol\":8063:8064  1 */\n      0x01\n        /* \"lib/RLP.sol\":8056:8064  return 1 */\n      swap2\n      pop\n      pop\n      jump(tag_370)\n        /* \"lib/RLP.sol\":7961:8229  if (byte0 < STRING_LONG_START || (byte0 >= LIST_SHORT_START && byte0 < LIST_LONG_START))... */\n    tag_375:\n        /* \"lib/RLP.sol\":264:268  0xc0 */\n      0xc0\n        /* \"lib/RLP.sol\":8079:8103  byte0 < LIST_SHORT_START */\n      0xff\n      and\n        /* \"lib/RLP.sol\":8079:8084  byte0 */\n      dup2\n        /* \"lib/RLP.sol\":8079:8103  byte0 < LIST_SHORT_START */\n      lt\n        /* \"lib/RLP.sol\":8075:8229  if (byte0 < LIST_SHORT_START)  // being explicit... */\n      iszero\n      tag_377\n      jumpi\n        /* \"lib/RLP.sol\":8171:8172  1 */\n      0x01\n        /* \"lib/RLP.sol\":8166:8167  1 */\n      dup1\n        /* \"lib/RLP.sol\":220:224  0xb8 */\n      0xb8\n        /* \"lib/RLP.sol\":8146:8167  STRING_LONG_START - 1 */\n      sub\n        /* \"lib/RLP.sol\":8137:8168  byte0 - (STRING_LONG_START - 1) */\n      0xff\n      and\n        /* \"lib/RLP.sol\":8137:8142  byte0 */\n      dup3\n        /* \"lib/RLP.sol\":8137:8168  byte0 - (STRING_LONG_START - 1) */\n      sub\n        /* \"lib/RLP.sol\":8137:8172  byte0 - (STRING_LONG_START - 1) + 1 */\n      add\n        /* \"lib/RLP.sol\":8130:8172  return byte0 - (STRING_LONG_START - 1) + 1 */\n      swap2\n      pop\n      pop\n      jump(tag_370)\n        /* \"lib/RLP.sol\":8075:8229  if (byte0 < LIST_SHORT_START)  // being explicit... */\n    tag_377:\n        /* \"lib/RLP.sol\":8228:8229  1 */\n      0x01\n        /* \"lib/RLP.sol\":8223:8224  1 */\n      dup1\n        /* \"lib/RLP.sol\":308:312  0xf8 */\n      0xf8\n        /* \"lib/RLP.sol\":8205:8224  LIST_LONG_START - 1 */\n      sub\n        /* \"lib/RLP.sol\":8196:8225  byte0 - (LIST_LONG_START - 1) */\n      0xff\n      and\n        /* \"lib/RLP.sol\":8196:8201  byte0 */\n      dup3\n        /* \"lib/RLP.sol\":8196:8225  byte0 - (LIST_LONG_START - 1) */\n      sub\n        /* \"lib/RLP.sol\":8196:8229  byte0 - (LIST_LONG_START - 1) + 1 */\n      add\n        /* \"lib/RLP.sol\":8189:8229  return byte0 - (LIST_LONG_START - 1) + 1 */\n      swap2\n      pop\n      pop\n        /* \"lib/RLP.sol\":7757:8234  function _payloadOffset(uint memPtr) private pure returns (uint) {... */\n    tag_370:\n      swap2\n      swap1\n      pop\n      jump\t// out\n        /* \"lib/RLP.sol\":6620:7709  function _itemLength(uint memPtr) private pure returns (uint) {... */\n    tag_251:\n        /* \"lib/RLP.sol\":6676:6680  uint */\n      0x00\n        /* \"lib/RLP.sol\":6688:6700  uint itemLen */\n      dup1\n        /* \"lib/RLP.sol\":6706:6716  uint byte0 */\n      0x00\n        /* \"lib/RLP.sol\":6762:6768  memPtr */\n      dup4\n        /* \"lib/RLP.sol\":6756:6769  mload(memPtr) */\n      mload\n        /* \"lib/RLP.sol\":6753:6754  0 */\n      0x00\n        /* \"lib/RLP.sol\":6748:6770  byte(0, mload(memPtr)) */\n      byte\n        /* \"lib/RLP.sol\":6739:6770  byte0 := byte(0, mload(memPtr)) */\n      swap1\n      pop\n        /* \"lib/RLP.sol\":176:180  0x80 */\n      0x80\n        /* \"lib/RLP.sol\":6786:6812  byte0 < STRING_SHORT_START */\n      0xff\n      and\n        /* \"lib/RLP.sol\":6786:6791  byte0 */\n      dup2\n        /* \"lib/RLP.sol\":6786:6812  byte0 < STRING_SHORT_START */\n      lt\n        /* \"lib/RLP.sol\":6782:7684  if (byte0 < STRING_SHORT_START)... */\n      iszero\n      tag_380\n      jumpi\n        /* \"lib/RLP.sol\":6830:6831  1 */\n      0x01\n        /* \"lib/RLP.sol\":6820:6831  itemLen = 1 */\n      swap2\n      pop\n        /* \"lib/RLP.sol\":6782:7684  if (byte0 < STRING_SHORT_START)... */\n      jump(tag_381)\n    tag_380:\n        /* \"lib/RLP.sol\":220:224  0xb8 */\n      0xb8\n        /* \"lib/RLP.sol\":6847:6872  byte0 < STRING_LONG_START */\n      0xff\n      and\n        /* \"lib/RLP.sol\":6847:6852  byte0 */\n      dup2\n        /* \"lib/RLP.sol\":6847:6872  byte0 < STRING_LONG_START */\n      lt\n        /* \"lib/RLP.sol\":6843:7684  if (byte0 < STRING_LONG_START)... */\n      iszero\n      tag_382\n      jumpi\n        /* \"lib/RLP.sol\":6919:6920  1 */\n      0x01\n        /* \"lib/RLP.sol\":176:180  0x80 */\n      0x80\n        /* \"lib/RLP.sol\":6890:6916  byte0 - STRING_SHORT_START */\n      0xff\n      and\n        /* \"lib/RLP.sol\":6890:6895  byte0 */\n      dup3\n        /* \"lib/RLP.sol\":6890:6916  byte0 - STRING_SHORT_START */\n      sub\n        /* \"lib/RLP.sol\":6890:6920  byte0 - STRING_SHORT_START + 1 */\n      add\n        /* \"lib/RLP.sol\":6880:6920  itemLen = byte0 - STRING_SHORT_START + 1 */\n      swap2\n      pop\n        /* \"lib/RLP.sol\":6843:7684  if (byte0 < STRING_LONG_START)... */\n      jump(tag_383)\n    tag_382:\n        /* \"lib/RLP.sol\":264:268  0xc0 */\n      0xc0\n        /* \"lib/RLP.sol\":6936:6960  byte0 < LIST_SHORT_START */\n      0xff\n      and\n        /* \"lib/RLP.sol\":6936:6941  byte0 */\n      dup2\n        /* \"lib/RLP.sol\":6936:6960  byte0 < LIST_SHORT_START */\n      lt\n        /* \"lib/RLP.sol\":6932:7684  if (byte0 < LIST_SHORT_START) {... */\n      iszero\n      tag_384\n      jumpi\n        /* \"lib/RLP.sol\":7015:7019  0xb7 */\n      0xb7\n        /* \"lib/RLP.sol\":7008:7013  byte0 */\n      dup2\n        /* \"lib/RLP.sol\":7004:7020  sub(byte0, 0xb7) */\n      sub\n        /* \"lib/RLP.sol\":7086:7087  1 */\n      0x01\n        /* \"lib/RLP.sol\":7078:7084  memPtr */\n      dup6\n        /* \"lib/RLP.sol\":7074:7088  add(memPtr, 1) */\n      add\n        /* \"lib/RLP.sol\":7064:7088  memPtr := add(memPtr, 1) */\n      swap5\n      pop\n        /* \"lib/RLP.sol\":7209:7216  byteLen */\n      dup1\n        /* \"lib/RLP.sol\":7205:7207  32 */\n      0x20\n        /* \"lib/RLP.sol\":7201:7217  sub(32, byteLen) */\n      sub\n        /* \"lib/RLP.sol\":7196:7199  256 */\n      0x0100\n        /* \"lib/RLP.sol\":7192:7218  exp(256, sub(32, byteLen)) */\n      exp\n        /* \"lib/RLP.sol\":7183:7189  memPtr */\n      dup6\n        /* \"lib/RLP.sol\":7177:7190  mload(memPtr) */\n      mload\n        /* \"lib/RLP.sol\":7173:7219  div(mload(memPtr), exp(256, sub(32, byteLen))) */\n      div\n        /* \"lib/RLP.sol\":7298:7299  1 */\n      0x01\n        /* \"lib/RLP.sol\":7289:7296  byteLen */\n      dup3\n        /* \"lib/RLP.sol\":7285:7300  add(byteLen, 1) */\n      add\n        /* \"lib/RLP.sol\":7276:7283  dataLen */\n      dup2\n        /* \"lib/RLP.sol\":7272:7301  add(dataLen, add(byteLen, 1)) */\n      add\n        /* \"lib/RLP.sol\":7261:7301  itemLen := add(dataLen, add(byteLen, 1)) */\n      swap4\n      pop\n        /* \"lib/RLP.sol\":6979:7309  {... */\n      pop\n      pop\n      jump(tag_385)\n    tag_384:\n        /* \"lib/RLP.sol\":308:312  0xf8 */\n      0xf8\n        /* \"lib/RLP.sol\":7330:7353  byte0 < LIST_LONG_START */\n      0xff\n      and\n        /* \"lib/RLP.sol\":7330:7335  byte0 */\n      dup2\n        /* \"lib/RLP.sol\":7330:7353  byte0 < LIST_LONG_START */\n      lt\n        /* \"lib/RLP.sol\":7326:7684  if (byte0 < LIST_LONG_START) {... */\n      iszero\n      tag_386\n      jumpi\n        /* \"lib/RLP.sol\":7400:7401  1 */\n      0x01\n        /* \"lib/RLP.sol\":264:268  0xc0 */\n      0xc0\n        /* \"lib/RLP.sol\":7373:7397  byte0 - LIST_SHORT_START */\n      0xff\n      and\n        /* \"lib/RLP.sol\":7373:7378  byte0 */\n      dup3\n        /* \"lib/RLP.sol\":7373:7397  byte0 - LIST_SHORT_START */\n      sub\n        /* \"lib/RLP.sol\":7373:7401  byte0 - LIST_SHORT_START + 1 */\n      add\n        /* \"lib/RLP.sol\":7363:7401  itemLen = byte0 - LIST_SHORT_START + 1 */\n      swap2\n      pop\n        /* \"lib/RLP.sol\":7326:7684  if (byte0 < LIST_LONG_START) {... */\n      jump(tag_387)\n    tag_386:\n        /* \"lib/RLP.sol\":7472:7476  0xf7 */\n      0xf7\n        /* \"lib/RLP.sol\":7465:7470  byte0 */\n      dup2\n        /* \"lib/RLP.sol\":7461:7477  sub(byte0, 0xf7) */\n      sub\n        /* \"lib/RLP.sol\":7508:7509  1 */\n      0x01\n        /* \"lib/RLP.sol\":7500:7506  memPtr */\n      dup6\n        /* \"lib/RLP.sol\":7496:7510  add(memPtr, 1) */\n      add\n        /* \"lib/RLP.sol\":7486:7510  memPtr := add(memPtr, 1) */\n      swap5\n      pop\n        /* \"lib/RLP.sol\":7571:7578  byteLen */\n      dup1\n        /* \"lib/RLP.sol\":7567:7569  32 */\n      0x20\n        /* \"lib/RLP.sol\":7563:7579  sub(32, byteLen) */\n      sub\n        /* \"lib/RLP.sol\":7558:7561  256 */\n      0x0100\n        /* \"lib/RLP.sol\":7554:7580  exp(256, sub(32, byteLen)) */\n      exp\n        /* \"lib/RLP.sol\":7545:7551  memPtr */\n      dup6\n        /* \"lib/RLP.sol\":7539:7552  mload(memPtr) */\n      mload\n        /* \"lib/RLP.sol\":7535:7581  div(mload(memPtr), exp(256, sub(32, byteLen))) */\n      div\n        /* \"lib/RLP.sol\":7667:7668  1 */\n      0x01\n        /* \"lib/RLP.sol\":7658:7665  byteLen */\n      dup3\n        /* \"lib/RLP.sol\":7654:7669  add(byteLen, 1) */\n      add\n        /* \"lib/RLP.sol\":7645:7652  dataLen */\n      dup2\n        /* \"lib/RLP.sol\":7641:7670  add(dataLen, add(byteLen, 1)) */\n      add\n        /* \"lib/RLP.sol\":7630:7670  itemLen := add(dataLen, add(byteLen, 1)) */\n      swap4\n      pop\n        /* \"lib/RLP.sol\":7436:7678  {... */\n      pop\n      pop\n    tag_387:\n        /* \"lib/RLP.sol\":6932:7684  if (byte0 < LIST_SHORT_START) {... */\n    tag_385:\n        /* \"lib/RLP.sol\":6843:7684  if (byte0 < STRING_LONG_START)... */\n    tag_383:\n        /* \"lib/RLP.sol\":6782:7684  if (byte0 < STRING_SHORT_START)... */\n    tag_381:\n        /* \"lib/RLP.sol\":7697:7704  itemLen */\n      dup2\n        /* \"lib/RLP.sol\":7690:7704  return itemLen */\n      swap3\n      pop\n      pop\n      pop\n        /* \"lib/RLP.sol\":6620:7709  function _itemLength(uint memPtr) private pure returns (uint) {... */\n      swap2\n      swap1\n      pop\n      jump\t// out\n        /* \"lib/BytesLib.sol\":7020:7200  function fromUint(uint256 _num) internal pure returns (bytes memory _ret) {... */\n    tag_265:\n        /* \"lib/BytesLib.sol\":7075:7092  bytes memory _ret */\n      0x60\n        /* \"lib/BytesLib.sol\":7121:7123  32 */\n      0x20\n        /* \"lib/BytesLib.sol\":7111:7124  new bytes(32) */\n      mload(0x40)\n      swap1\n      dup1\n      dup3\n      mstore\n      dup1\n      0x1f\n      add\n      not(0x1f)\n      and\n      0x20\n      add\n      dup3\n      add\n      0x40\n      mstore\n      dup1\n      iszero\n      tag_389\n      jumpi\n      dup2\n      0x20\n      add\n        /* \"--CODEGEN--\":29:30   */\n      0x01\n        /* \"--CODEGEN--\":21:27   */\n      dup3\n        /* \"--CODEGEN--\":17:31   */\n      mul\n        /* \"--CODEGEN--\":124:128   */\n      dup1\n        /* \"--CODEGEN--\":108:122   */\n      calldatasize\n        /* \"--CODEGEN--\":100:106   */\n      dup4\n        /* \"--CODEGEN--\":87:129   */\n      calldatacopy\n        /* \"--CODEGEN--\":155:159   */\n      dup1\n        /* \"--CODEGEN--\":147:153   */\n      dup3\n        /* \"--CODEGEN--\":143:160   */\n      add\n        /* \"--CODEGEN--\":133:160   */\n      swap2\n      pop\n        /* \"--CODEGEN--\":0:164   */\n      pop\n        /* \"lib/BytesLib.sol\":7111:7124  new bytes(32) */\n      swap1\n      pop\n    tag_389:\n      pop\n        /* \"lib/BytesLib.sol\":7104:7124  _ret = new bytes(32) */\n      swap1\n      pop\n        /* \"lib/BytesLib.sol\":7179:7183  _num */\n      dup2\n        /* \"lib/BytesLib.sol\":7174:7176  32 */\n      0x20\n        /* \"lib/BytesLib.sol\":7168:7172  _ret */\n      dup3\n        /* \"lib/BytesLib.sol\":7164:7177  add(_ret, 32) */\n      add\n        /* \"lib/BytesLib.sol\":7157:7184  mstore(add(_ret, 32), _num) */\n      mstore\n        /* \"lib/BytesLib.sol\":7143:7194  {... */\n      swap2\n      swap1\n      pop\n      jump\t// out\n        /* \"lib/RLP.sol\":8376:8991  function copy(uint src, uint dest, uint len) private pure {... */\n    tag_282:\n        /* \"lib/RLP.sol\":8451:8452  0 */\n      0x00\n        /* \"lib/RLP.sol\":8444:8447  len */\n      dup2\n        /* \"lib/RLP.sol\":8444:8452  len == 0 */\n      eq\n        /* \"lib/RLP.sol\":8440:8461  if (len == 0) return; */\n      iszero\n      tag_391\n      jumpi\n        /* \"lib/RLP.sol\":8454:8461  return; */\n      jump(tag_390)\n        /* \"lib/RLP.sol\":8440:8461  if (len == 0) return; */\n    tag_391:\n        /* \"lib/RLP.sol\":8510:8670  for (; len >= WORD_SIZE; len -= WORD_SIZE) {... */\n    tag_392:\n        /* \"lib/RLP.sol\":343:345  32 */\n      0x20\n        /* \"lib/RLP.sol\":8517:8533  len >= WORD_SIZE */\n      0xff\n      and\n        /* \"lib/RLP.sol\":8517:8520  len */\n      dup2\n        /* \"lib/RLP.sol\":8517:8533  len >= WORD_SIZE */\n      lt\n        /* \"lib/RLP.sol\":8510:8670  for (; len >= WORD_SIZE; len -= WORD_SIZE) {... */\n      tag_393\n      jumpi\n        /* \"lib/RLP.sol\":8601:8604  src */\n      dup3\n        /* \"lib/RLP.sol\":8595:8605  mload(src) */\n      mload\n        /* \"lib/RLP.sol\":8589:8593  dest */\n      dup3\n        /* \"lib/RLP.sol\":8582:8606  mstore(dest, mload(src)) */\n      mstore\n        /* \"lib/RLP.sol\":343:345  32 */\n      0x20\n        /* \"lib/RLP.sol\":8622:8638  src += WORD_SIZE */\n      0xff\n      and\n      dup4\n      add\n      swap3\n      pop\n        /* \"lib/RLP.sol\":343:345  32 */\n      0x20\n        /* \"lib/RLP.sol\":8646:8663  dest += WORD_SIZE */\n      0xff\n      and\n      dup3\n      add\n      swap2\n      pop\n        /* \"lib/RLP.sol\":343:345  32 */\n      0x20\n        /* \"lib/RLP.sol\":8535:8551  len -= WORD_SIZE */\n      0xff\n      and\n      dup2\n      sub\n      swap1\n      pop\n        /* \"lib/RLP.sol\":8510:8670  for (; len >= WORD_SIZE; len -= WORD_SIZE) {... */\n      jump(tag_392)\n    tag_393:\n        /* \"lib/RLP.sol\":8752:8761  uint mask */\n      0x00\n        /* \"lib/RLP.sol\":8791:8792  1 */\n      0x01\n        /* \"lib/RLP.sol\":8784:8787  len */\n      dup3\n        /* \"lib/RLP.sol\":343:345  32 */\n      0x20\n        /* \"lib/RLP.sol\":8772:8787  WORD_SIZE - len */\n      0xff\n      and\n      sub\n        /* \"lib/RLP.sol\":8764:8767  256 */\n      0x0100\n        /* \"lib/RLP.sol\":8764:8788  256 ** (WORD_SIZE - len) */\n      exp\n        /* \"lib/RLP.sol\":8764:8792  256 ** (WORD_SIZE - len) - 1 */\n      sub\n        /* \"lib/RLP.sol\":8752:8792  uint mask = 256 ** (WORD_SIZE - len) - 1 */\n      swap1\n      pop\n        /* \"lib/RLP.sol\":8850:8854  mask */\n      dup1\n        /* \"lib/RLP.sol\":8846:8855  not(mask) */\n      not\n        /* \"lib/RLP.sol\":8840:8843  src */\n      dup5\n        /* \"lib/RLP.sol\":8834:8844  mload(src) */\n      mload\n        /* \"lib/RLP.sol\":8830:8856  and(mload(src), not(mask)) */\n      and\n        /* \"lib/RLP.sol\":8912:8916  mask */\n      dup2\n        /* \"lib/RLP.sol\":8905:8909  dest */\n      dup5\n        /* \"lib/RLP.sol\":8899:8910  mload(dest) */\n      mload\n        /* \"lib/RLP.sol\":8895:8917  and(mload(dest), mask) */\n      and\n        /* \"lib/RLP.sol\":8972:8979  srcpart */\n      dup2\n        /* \"lib/RLP.sol\":8962:8970  destpart */\n      dup2\n        /* \"lib/RLP.sol\":8959:8980  or(destpart, srcpart) */\n      or\n        /* \"lib/RLP.sol\":8953:8957  dest */\n      dup6\n        /* \"lib/RLP.sol\":8946:8981  mstore(dest, or(destpart, srcpart)) */\n      mstore\n        /* \"lib/RLP.sol\":8807:8987  {... */\n      pop\n      pop\n      pop\n    tag_390:\n      pop\n      pop\n      pop\n      jump\t// out\n        /* \"lib/RLPEncode.sol\":282:679  function encodeItem(bytes memory self)... */\n    tag_290:\n        /* \"lib/RLPEncode.sol\":368:380  bytes memory */\n      0x60\n        /* \"lib/RLPEncode.sol\":396:416  bytes memory encoded */\n      dup1\n        /* \"lib/RLPEncode.sol\":445:446  1 */\n      0x01\n        /* \"lib/RLPEncode.sol\":430:434  self */\n      dup4\n        /* \"lib/RLPEncode.sol\":430:441  self.length */\n      mload\n        /* \"lib/RLPEncode.sol\":430:446  self.length == 1 */\n      eq\n        /* \"lib/RLPEncode.sol\":430:478  self.length == 1 && uint8(self[0] & 0xFF) < 0x80 */\n      dup1\n      iszero\n      tag_396\n      jumpi\n      pop\n        /* \"lib/RLPEncode.sol\":474:478  0x80 */\n      0x80\n        /* \"lib/RLPEncode.sol\":466:470  0xFF */\n      0xff\n        /* \"lib/RLPEncode.sol\":456:470  self[0] & 0xFF */\n      0xf8\n      shl\n        /* \"lib/RLPEncode.sol\":456:460  self */\n      dup5\n        /* \"lib/RLPEncode.sol\":461:462  0 */\n      0x00\n        /* \"lib/RLPEncode.sol\":456:463  self[0] */\n      dup2\n      mload\n      dup2\n      lt\n      tag_397\n      jumpi\n      invalid\n    tag_397:\n      0x20\n      add\n      add\n      mload\n      0xf8\n      shr\n      0xf8\n      shl\n        /* \"lib/RLPEncode.sol\":456:470  self[0] & 0xFF */\n      and\n        /* \"lib/RLPEncode.sol\":450:471  uint8(self[0] & 0xFF) */\n      0xf8\n      shr\n        /* \"lib/RLPEncode.sol\":450:478  uint8(self[0] & 0xFF) < 0x80 */\n      0xff\n      and\n      lt\n        /* \"lib/RLPEncode.sol\":430:478  self.length == 1 && uint8(self[0] & 0xFF) < 0x80 */\n    tag_396:\n        /* \"lib/RLPEncode.sol\":426:649  if (self.length == 1 && uint8(self[0] & 0xFF) < 0x80) {... */\n      iszero\n      tag_398\n      jumpi\n        /* \"lib/RLPEncode.sol\":514:515  1 */\n      0x01\n        /* \"lib/RLPEncode.sol\":504:516  new bytes(1) */\n      mload(0x40)\n      swap1\n      dup1\n      dup3\n      mstore\n      dup1\n      0x1f\n      add\n      not(0x1f)\n      and\n      0x20\n      add\n      dup3\n      add\n      0x40\n      mstore\n      dup1\n      iszero\n      tag_399\n      jumpi\n      dup2\n      0x20\n      add\n        /* \"--CODEGEN--\":29:30   */\n      0x01\n        /* \"--CODEGEN--\":21:27   */\n      dup3\n        /* \"--CODEGEN--\":17:31   */\n      mul\n        /* \"--CODEGEN--\":124:128   */\n      dup1\n        /* \"--CODEGEN--\":108:122   */\n      calldatasize\n        /* \"--CODEGEN--\":100:106   */\n      dup4\n        /* \"--CODEGEN--\":87:129   */\n      calldatacopy\n        /* \"--CODEGEN--\":155:159   */\n      dup1\n        /* \"--CODEGEN--\":147:153   */\n      dup3\n        /* \"--CODEGEN--\":143:160   */\n      add\n        /* \"--CODEGEN--\":133:160   */\n      swap2\n      pop\n        /* \"--CODEGEN--\":0:164   */\n      pop\n        /* \"lib/RLPEncode.sol\":504:516  new bytes(1) */\n      swap1\n      pop\n    tag_399:\n      pop\n        /* \"lib/RLPEncode.sol\":494:516  encoded = new bytes(1) */\n      swap1\n      pop\n        /* \"lib/RLPEncode.sol\":540:544  self */\n      dup3\n        /* \"lib/RLPEncode.sol\":530:544  encoded = self */\n      swap1\n      pop\n        /* \"lib/RLPEncode.sol\":426:649  if (self.length == 1 && uint8(self[0] & 0xFF) < 0x80) {... */\n      jump(tag_400)\n    tag_398:\n        /* \"lib/RLPEncode.sol\":585:638  BytesLib.concat(encodeLength(self.length, 128), self) */\n      tag_401\n        /* \"lib/RLPEncode.sol\":601:631  encodeLength(self.length, 128) */\n      tag_402\n        /* \"lib/RLPEncode.sol\":614:618  self */\n      dup5\n        /* \"lib/RLPEncode.sol\":614:625  self.length */\n      mload\n        /* \"lib/RLPEncode.sol\":627:630  128 */\n      0x80\n        /* \"lib/RLPEncode.sol\":601:613  encodeLength */\n      tag_294\n        /* \"lib/RLPEncode.sol\":601:631  encodeLength(self.length, 128) */\n      jump\t// in\n    tag_402:\n        /* \"lib/RLPEncode.sol\":633:637  self */\n      dup5\n        /* \"lib/RLPEncode.sol\":585:600  BytesLib.concat */\n      tag_291\n        /* \"lib/RLPEncode.sol\":585:638  BytesLib.concat(encodeLength(self.length, 128), self) */\n      jump\t// in\n    tag_401:\n        /* \"lib/RLPEncode.sol\":575:638  encoded = BytesLib.concat(encodeLength(self.length, 128), self) */\n      swap1\n      pop\n        /* \"lib/RLPEncode.sol\":426:649  if (self.length == 1 && uint8(self[0] & 0xFF) < 0x80) {... */\n    tag_400:\n        /* \"lib/RLPEncode.sol\":665:672  encoded */\n      dup1\n        /* \"lib/RLPEncode.sol\":658:672  return encoded */\n      swap2\n      pop\n      pop\n        /* \"lib/RLPEncode.sol\":282:679  function encodeItem(bytes memory self)... */\n      swap2\n      swap1\n      pop\n      jump\t// out\n        /* \"lib/BytesLib.sol\":74:3067  function concat(bytes memory _preBytes, bytes memory _postBytes)... */\n    tag_291:\n        /* \"lib/BytesLib.sol\":186:198  bytes memory */\n      0x60\n        /* \"lib/BytesLib.sol\":214:236  bytes memory tempBytes */\n      dup1\n        /* \"lib/BytesLib.sol\":418:422  0x40 */\n      0x40\n        /* \"lib/BytesLib.sol\":412:423  mload(0x40) */\n      mload\n        /* \"lib/BytesLib.sol\":399:423  tempBytes := mload(0x40) */\n      swap1\n      pop\n        /* \"lib/BytesLib.sol\":575:584  _preBytes */\n      dup4\n        /* \"lib/BytesLib.sol\":569:585  mload(_preBytes) */\n      mload\n        /* \"lib/BytesLib.sol\":616:622  length */\n      dup1\n        /* \"lib/BytesLib.sol\":605:614  tempBytes */\n      dup3\n        /* \"lib/BytesLib.sol\":598:623  mstore(tempBytes, length) */\n      mstore\n        /* \"lib/BytesLib.sol\":858:862  0x20 */\n      0x20\n        /* \"lib/BytesLib.sol\":847:856  tempBytes */\n      dup3\n        /* \"lib/BytesLib.sol\":843:863  add(tempBytes, 0x20) */\n      add\n        /* \"lib/BytesLib.sol\":1007:1013  length */\n      dup2\n        /* \"lib/BytesLib.sol\":1003:1005  mc */\n      dup2\n        /* \"lib/BytesLib.sol\":999:1014  add(mc, length) */\n      add\n        /* \"lib/BytesLib.sol\":1201:1205  0x20 */\n      0x20\n        /* \"lib/BytesLib.sol\":1190:1199  _preBytes */\n      dup8\n        /* \"lib/BytesLib.sol\":1186:1206  add(_preBytes, 0x20) */\n      add\n        /* \"lib/BytesLib.sol\":1028:1553  for {... */\n    tag_404:\n        /* \"lib/BytesLib.sol\":1228:1231  end */\n      dup2\n        /* \"lib/BytesLib.sol\":1224:1226  mc */\n      dup4\n        /* \"lib/BytesLib.sol\":1221:1232  lt(mc, end) */\n      lt\n        /* \"lib/BytesLib.sol\":1028:1553  for {... */\n      iszero\n      tag_406\n      jumpi\n        /* \"lib/BytesLib.sol\":1535:1537  cc */\n      dup1\n        /* \"lib/BytesLib.sol\":1529:1538  mload(cc) */\n      mload\n        /* \"lib/BytesLib.sol\":1525:1527  mc */\n      dup4\n        /* \"lib/BytesLib.sol\":1518:1539  mstore(mc, mload(cc)) */\n      mstore\n        /* \"lib/BytesLib.sol\":1335:1339  0x20 */\n      0x20\n        /* \"lib/BytesLib.sol\":1331:1333  mc */\n      dup4\n        /* \"lib/BytesLib.sol\":1327:1340  add(mc, 0x20) */\n      add\n        /* \"lib/BytesLib.sol\":1321:1340  mc := add(mc, 0x20) */\n      swap3\n      pop\n        /* \"lib/BytesLib.sol\":1371:1375  0x20 */\n      0x20\n        /* \"lib/BytesLib.sol\":1367:1369  cc */\n      dup2\n        /* \"lib/BytesLib.sol\":1363:1376  add(cc, 0x20) */\n      add\n        /* \"lib/BytesLib.sol\":1357:1376  cc := add(cc, 0x20) */\n      swap1\n      pop\n        /* \"lib/BytesLib.sol\":1028:1553  for {... */\n      jump(tag_404)\n    tag_406:\n        /* \"lib/BytesLib.sol\":1032:1220  {... */\n      pop\n        /* \"lib/BytesLib.sol\":1770:1780  _postBytes */\n      dup6\n        /* \"lib/BytesLib.sol\":1764:1781  mload(_postBytes) */\n      mload\n        /* \"lib/BytesLib.sol\":1754:1781  length := mload(_postBytes) */\n      swap3\n      pop\n        /* \"lib/BytesLib.sol\":1830:1839  tempBytes */\n      dup4\n        /* \"lib/BytesLib.sol\":1824:1840  mload(tempBytes) */\n      mload\n        /* \"lib/BytesLib.sol\":1816:1822  length */\n      dup4\n        /* \"lib/BytesLib.sol\":1812:1841  add(length, mload(tempBytes)) */\n      add\n        /* \"lib/BytesLib.sol\":1801:1810  tempBytes */\n      dup5\n        /* \"lib/BytesLib.sol\":1794:1842  mstore(tempBytes, add(length, mload(tempBytes))) */\n      mstore\n        /* \"lib/BytesLib.sol\":1986:1989  end */\n      dup1\n        /* \"lib/BytesLib.sol\":1980:1989  mc := end */\n      swap2\n      pop\n        /* \"lib/BytesLib.sol\":2131:2137  length */\n      dup3\n        /* \"lib/BytesLib.sol\":2127:2129  mc */\n      dup3\n        /* \"lib/BytesLib.sol\":2123:2138  add(mc, length) */\n      add\n        /* \"lib/BytesLib.sol\":2116:2138  end := add(mc, length) */\n      swap1\n      pop\n        /* \"lib/BytesLib.sol\":2200:2204  0x20 */\n      0x20\n        /* \"lib/BytesLib.sol\":2188:2198  _postBytes */\n      dup7\n        /* \"lib/BytesLib.sol\":2184:2205  add(_postBytes, 0x20) */\n      add\n        /* \"lib/BytesLib.sol\":2152:2373  for {... */\n    tag_407:\n        /* \"lib/BytesLib.sol\":2227:2230  end */\n      dup2\n        /* \"lib/BytesLib.sol\":2223:2225  mc */\n      dup4\n        /* \"lib/BytesLib.sol\":2220:2231  lt(mc, end) */\n      lt\n        /* \"lib/BytesLib.sol\":2152:2373  for {... */\n      iszero\n      tag_409\n      jumpi\n        /* \"lib/BytesLib.sol\":2355:2357  cc */\n      dup1\n        /* \"lib/BytesLib.sol\":2349:2358  mload(cc) */\n      mload\n        /* \"lib/BytesLib.sol\":2345:2347  mc */\n      dup4\n        /* \"lib/BytesLib.sol\":2338:2359  mstore(mc, mload(cc)) */\n      mstore\n        /* \"lib/BytesLib.sol\":2264:2268  0x20 */\n      0x20\n        /* \"lib/BytesLib.sol\":2260:2262  mc */\n      dup4\n        /* \"lib/BytesLib.sol\":2256:2269  add(mc, 0x20) */\n      add\n        /* \"lib/BytesLib.sol\":2250:2269  mc := add(mc, 0x20) */\n      swap3\n      pop\n        /* \"lib/BytesLib.sol\":2300:2304  0x20 */\n      0x20\n        /* \"lib/BytesLib.sol\":2296:2298  cc */\n      dup2\n        /* \"lib/BytesLib.sol\":2292:2305  add(cc, 0x20) */\n      add\n        /* \"lib/BytesLib.sol\":2286:2305  cc := add(cc, 0x20) */\n      swap1\n      pop\n        /* \"lib/BytesLib.sol\":2152:2373  for {... */\n      jump(tag_407)\n    tag_409:\n        /* \"lib/BytesLib.sol\":2156:2219  {... */\n      pop\n        /* \"lib/BytesLib.sol\":2951:2953  31 */\n      0x1f\n        /* \"lib/BytesLib.sol\":2947:2954  not(31) */\n      not\n        /* \"lib/BytesLib.sol\":2922:2924  31 */\n      0x1f\n        /* \"lib/BytesLib.sol\":2907:2916  _preBytes */\n      dup9\n        /* \"lib/BytesLib.sol\":2901:2917  mload(_preBytes) */\n      mload\n        /* \"lib/BytesLib.sol\":2893:2899  length */\n      dup6\n        /* \"lib/BytesLib.sol\":2889:2918  add(length, mload(_preBytes)) */\n      add\n        /* \"lib/BytesLib.sol\":2882:2919  iszero(add(length, mload(_preBytes))) */\n      iszero\n        /* \"lib/BytesLib.sol\":2877:2880  end */\n      dup4\n        /* \"lib/BytesLib.sol\":2873:2920  add(end, iszero(add(length, mload(_preBytes)))) */\n      add\n        /* \"lib/BytesLib.sol\":2869:2925  add(add(end, iszero(add(length, mload(_preBytes)))), 31) */\n      add\n        /* \"lib/BytesLib.sol\":2844:3011  and(... */\n      and\n        /* \"lib/BytesLib.sol\":2822:2826  0x40 */\n      0x40\n        /* \"lib/BytesLib.sol\":2798:3025  mstore(... */\n      mstore\n        /* \"lib/BytesLib.sol\":255:3035  {... */\n      pop\n      pop\n      pop\n        /* \"lib/BytesLib.sol\":3051:3060  tempBytes */\n      dup1\n        /* \"lib/BytesLib.sol\":3044:3060  return tempBytes */\n      swap2\n      pop\n      pop\n        /* \"lib/BytesLib.sol\":74:3067  function concat(bytes memory _preBytes, bytes memory _postBytes)... */\n      swap3\n      swap2\n      pop\n      pop\n      jump\t// out\n        /* \"lib/RLPEncode.sol\":1802:2520  function encodeLength(uint256 L, uint256 offset)... */\n    tag_294:\n        /* \"lib/RLPEncode.sol\":1898:1910  bytes memory */\n      0x60\n        /* \"lib/RLPEncode.sol\":1934:1936  56 */\n      0x38\n        /* \"lib/RLPEncode.sol\":1930:1931  L */\n      dup4\n        /* \"lib/RLPEncode.sol\":1930:1936  L < 56 */\n      lt\n        /* \"lib/RLPEncode.sol\":1926:2514  if (L < 56) {... */\n      iszero\n      tag_411\n      jumpi\n        /* \"lib/RLPEncode.sol\":1952:1971  bytes memory prefix */\n      0x60\n        /* \"lib/RLPEncode.sol\":1984:1985  1 */\n      0x01\n        /* \"lib/RLPEncode.sol\":1974:1986  new bytes(1) */\n      mload(0x40)\n      swap1\n      dup1\n      dup3\n      mstore\n      dup1\n      0x1f\n      add\n      not(0x1f)\n      and\n      0x20\n      add\n      dup3\n      add\n      0x40\n      mstore\n      dup1\n      iszero\n      tag_412\n      jumpi\n      dup2\n      0x20\n      add\n        /* \"--CODEGEN--\":29:30   */\n      0x01\n        /* \"--CODEGEN--\":21:27   */\n      dup3\n        /* \"--CODEGEN--\":17:31   */\n      mul\n        /* \"--CODEGEN--\":124:128   */\n      dup1\n        /* \"--CODEGEN--\":108:122   */\n      calldatasize\n        /* \"--CODEGEN--\":100:106   */\n      dup4\n        /* \"--CODEGEN--\":87:129   */\n      calldatacopy\n        /* \"--CODEGEN--\":155:159   */\n      dup1\n        /* \"--CODEGEN--\":147:153   */\n      dup3\n        /* \"--CODEGEN--\":143:160   */\n      add\n        /* \"--CODEGEN--\":133:160   */\n      swap2\n      pop\n        /* \"--CODEGEN--\":0:164   */\n      pop\n        /* \"lib/RLPEncode.sol\":1974:1986  new bytes(1) */\n      swap1\n      pop\n    tag_412:\n      pop\n        /* \"lib/RLPEncode.sol\":1952:1986  bytes memory prefix = new bytes(1) */\n      swap1\n      pop\n        /* \"lib/RLPEncode.sol\":2029:2035  offset */\n      dup3\n        /* \"lib/RLPEncode.sol\":2025:2026  L */\n      dup5\n        /* \"lib/RLPEncode.sol\":2025:2035  L + offset */\n      add\n        /* \"lib/RLPEncode.sol\":2012:2037  bytes1(uint8(L + offset)) */\n      0xf8\n      shl\n        /* \"lib/RLPEncode.sol\":2000:2006  prefix */\n      dup2\n        /* \"lib/RLPEncode.sol\":2007:2008  0 */\n      0x00\n        /* \"lib/RLPEncode.sol\":2000:2009  prefix[0] */\n      dup2\n      mload\n      dup2\n      lt\n      tag_413\n      jumpi\n      invalid\n    tag_413:\n      0x20\n      add\n      add\n        /* \"lib/RLPEncode.sol\":2000:2037  prefix[0] = bytes1(uint8(L + offset)) */\n      swap1\n      not(0xffffffffffffffffffffffffffffffffffffffffffffffffffffffffffffff)\n      and\n      swap1\n      dup2\n      0x00\n      byte\n      swap1\n      mstore8\n      pop\n        /* \"lib/RLPEncode.sol\":2058:2064  prefix */\n      dup1\n        /* \"lib/RLPEncode.sol\":2051:2064  return prefix */\n      swap2\n      pop\n      pop\n      jump(tag_410)\n        /* \"lib/RLPEncode.sol\":1926:2514  if (L < 56) {... */\n    tag_411:\n        /* \"lib/RLPEncode.sol\":2176:2190  uint256 lenLen */\n      0x00\n        /* \"lib/RLPEncode.sol\":2204:2213  uint256 i */\n      dup1\n        /* \"lib/RLPEncode.sol\":2216:2219  0x1 */\n      0x01\n        /* \"lib/RLPEncode.sol\":2204:2219  uint256 i = 0x1 */\n      swap1\n      pop\n        /* \"lib/RLPEncode.sol\":2234:2322  while (L / i != 0) {... */\n    tag_415:\n        /* \"lib/RLPEncode.sol\":2250:2251  0 */\n      0x00\n        /* \"lib/RLPEncode.sol\":2245:2246  i */\n      dup2\n        /* \"lib/RLPEncode.sol\":2241:2242  L */\n      dup7\n        /* \"lib/RLPEncode.sol\":2241:2246  L / i */\n      dup2\n      tag_417\n      jumpi\n      invalid\n    tag_417:\n      div\n        /* \"lib/RLPEncode.sol\":2241:2251  L / i != 0 */\n      eq\n        /* \"lib/RLPEncode.sol\":2234:2322  while (L / i != 0) {... */\n      tag_416\n      jumpi\n        /* \"lib/RLPEncode.sol\":2271:2279  lenLen++ */\n      dup2\n      dup1\n      0x01\n      add\n      swap3\n      pop\n      pop\n        /* \"lib/RLPEncode.sol\":2302:2307  0x100 */\n      0x0100\n        /* \"lib/RLPEncode.sol\":2297:2307  i *= 0x100 */\n      dup2\n      mul\n      swap1\n      pop\n        /* \"lib/RLPEncode.sol\":2234:2322  while (L / i != 0) {... */\n      jump(tag_415)\n    tag_416:\n        /* \"lib/RLPEncode.sol\":2336:2356  bytes memory prefix0 */\n      0x60\n        /* \"lib/RLPEncode.sol\":2359:2395  getLengthBytes(offset + 55 + lenLen) */\n      tag_418\n        /* \"lib/RLPEncode.sol\":2388:2394  lenLen */\n      dup4\n        /* \"lib/RLPEncode.sol\":2383:2385  55 */\n      0x37\n        /* \"lib/RLPEncode.sol\":2374:2380  offset */\n      dup8\n        /* \"lib/RLPEncode.sol\":2374:2385  offset + 55 */\n      add\n        /* \"lib/RLPEncode.sol\":2374:2394  offset + 55 + lenLen */\n      add\n        /* \"lib/RLPEncode.sol\":2359:2373  getLengthBytes */\n      tag_419\n        /* \"lib/RLPEncode.sol\":2359:2395  getLengthBytes(offset + 55 + lenLen) */\n      jump\t// in\n    tag_418:\n        /* \"lib/RLPEncode.sol\":2336:2395  bytes memory prefix0 = getLengthBytes(offset + 55 + lenLen) */\n      swap1\n      pop\n        /* \"lib/RLPEncode.sol\":2409:2429  bytes memory prefix1 */\n      0x60\n        /* \"lib/RLPEncode.sol\":2432:2449  getLengthBytes(L) */\n      tag_420\n        /* \"lib/RLPEncode.sol\":2447:2448  L */\n      dup8\n        /* \"lib/RLPEncode.sol\":2432:2446  getLengthBytes */\n      tag_419\n        /* \"lib/RLPEncode.sol\":2432:2449  getLengthBytes(L) */\n      jump\t// in\n    tag_420:\n        /* \"lib/RLPEncode.sol\":2409:2449  bytes memory prefix1 = getLengthBytes(L) */\n      swap1\n      pop\n        /* \"lib/RLPEncode.sol\":2470:2503  BytesLib.concat(prefix0, prefix1) */\n      tag_421\n        /* \"lib/RLPEncode.sol\":2486:2493  prefix0 */\n      dup3\n        /* \"lib/RLPEncode.sol\":2495:2502  prefix1 */\n      dup3\n        /* \"lib/RLPEncode.sol\":2470:2485  BytesLib.concat */\n      tag_291\n        /* \"lib/RLPEncode.sol\":2470:2503  BytesLib.concat(prefix0, prefix1) */\n      jump\t// in\n    tag_421:\n        /* \"lib/RLPEncode.sol\":2463:2503  return BytesLib.concat(prefix0, prefix1) */\n      swap5\n      pop\n      pop\n      pop\n      pop\n      pop\n        /* \"lib/RLPEncode.sol\":1802:2520  function encodeLength(uint256 L, uint256 offset)... */\n    tag_410:\n      swap3\n      swap2\n      pop\n      pop\n      jump\t// out\n        /* \"lib/MerklePatriciaProof.sol\":4277:5074  function _getNibbleArray(bytes memory b)... */\n    tag_321:\n        /* \"lib/MerklePatriciaProof.sol\":4364:4376  bytes memory */\n      0x60\n        /* \"lib/MerklePatriciaProof.sol\":4392:4412  bytes memory nibbles */\n      dup1\n        /* \"lib/MerklePatriciaProof.sol\":4437:4438  0 */\n      0x00\n        /* \"lib/MerklePatriciaProof.sol\":4426:4427  b */\n      dup4\n        /* \"lib/MerklePatriciaProof.sol\":4426:4434  b.length */\n      mload\n        /* \"lib/MerklePatriciaProof.sol\":4426:4438  b.length > 0 */\n      gt\n        /* \"lib/MerklePatriciaProof.sol\":4422:5044  if (b.length > 0) {... */\n      iszero\n      tag_423\n      jumpi\n        /* \"lib/MerklePatriciaProof.sol\":4454:4466  uint8 offset */\n      0x00\n        /* \"lib/MerklePatriciaProof.sol\":4480:4494  uint8 hpNibble */\n      dup1\n        /* \"lib/MerklePatriciaProof.sol\":4503:4529  _getNthNibbleOfBytes(0, b) */\n      tag_424\n        /* \"lib/MerklePatriciaProof.sol\":4524:4525  0 */\n      0x00\n        /* \"lib/MerklePatriciaProof.sol\":4527:4528  b */\n      dup7\n        /* \"lib/MerklePatriciaProof.sol\":4503:4523  _getNthNibbleOfBytes */\n      tag_425\n        /* \"lib/MerklePatriciaProof.sol\":4503:4529  _getNthNibbleOfBytes(0, b) */\n      jump\t// in\n    tag_424:\n        /* \"lib/MerklePatriciaProof.sol\":4497:4530  uint8(_getNthNibbleOfBytes(0, b)) */\n      0xf8\n      shr\n        /* \"lib/MerklePatriciaProof.sol\":4480:4530  uint8 hpNibble = uint8(_getNthNibbleOfBytes(0, b)) */\n      swap1\n      pop\n        /* \"lib/MerklePatriciaProof.sol\":4560:4561  1 */\n      0x01\n        /* \"lib/MerklePatriciaProof.sol\":4548:4556  hpNibble */\n      dup2\n        /* \"lib/MerklePatriciaProof.sol\":4548:4561  hpNibble == 1 */\n      0xff\n      and\n      eq\n        /* \"lib/MerklePatriciaProof.sol\":4548:4578  hpNibble == 1 || hpNibble == 3 */\n      dup1\n      tag_426\n      jumpi\n      pop\n        /* \"lib/MerklePatriciaProof.sol\":4577:4578  3 */\n      0x03\n        /* \"lib/MerklePatriciaProof.sol\":4565:4573  hpNibble */\n      dup2\n        /* \"lib/MerklePatriciaProof.sol\":4565:4578  hpNibble == 3 */\n      0xff\n      and\n      eq\n        /* \"lib/MerklePatriciaProof.sol\":4548:4578  hpNibble == 1 || hpNibble == 3 */\n    tag_426:\n        /* \"lib/MerklePatriciaProof.sol\":4544:4885  if (hpNibble == 1 || hpNibble == 3) {... */\n      iszero\n      tag_427\n      jumpi\n        /* \"lib/MerklePatriciaProof.sol\":4633:4634  1 */\n      0x01\n        /* \"lib/MerklePatriciaProof.sol\":4629:4630  2 */\n      0x02\n        /* \"lib/MerklePatriciaProof.sol\":4618:4619  b */\n      dup7\n        /* \"lib/MerklePatriciaProof.sol\":4618:4626  b.length */\n      mload\n        /* \"lib/MerklePatriciaProof.sol\":4618:4630  b.length * 2 */\n      mul\n        /* \"lib/MerklePatriciaProof.sol\":4618:4634  b.length * 2 - 1 */\n      sub\n        /* \"lib/MerklePatriciaProof.sol\":4608:4635  new bytes(b.length * 2 - 1) */\n      mload(0x40)\n      swap1\n      dup1\n      dup3\n      mstore\n      dup1\n      0x1f\n      add\n      not(0x1f)\n      and\n      0x20\n      add\n      dup3\n      add\n      0x40\n      mstore\n      dup1\n      iszero\n      tag_428\n      jumpi\n      dup2\n      0x20\n      add\n        /* \"--CODEGEN--\":29:30   */\n      0x01\n        /* \"--CODEGEN--\":21:27   */\n      dup3\n        /* \"--CODEGEN--\":17:31   */\n      mul\n        /* \"--CODEGEN--\":124:128   */\n      dup1\n        /* \"--CODEGEN--\":108:122   */\n      calldatasize\n        /* \"--CODEGEN--\":100:106   */\n      dup4\n        /* \"--CODEGEN--\":87:129   */\n      calldatacopy\n        /* \"--CODEGEN--\":155:159   */\n      dup1\n        /* \"--CODEGEN--\":147:153   */\n      dup3\n        /* \"--CODEGEN--\":143:160   */\n      add\n        /* \"--CODEGEN--\":133:160   */\n      swap2\n      pop\n        /* \"--CODEGEN--\":0:164   */\n      pop\n        /* \"lib/MerklePatriciaProof.sol\":4608:4635  new bytes(b.length * 2 - 1) */\n      swap1\n      pop\n    tag_428:\n      pop\n        /* \"lib/MerklePatriciaProof.sol\":4598:4635  nibbles = new bytes(b.length * 2 - 1) */\n      swap3\n      pop\n        /* \"lib/MerklePatriciaProof.sol\":4653:4669  bytes1 oddNibble */\n      0x00\n        /* \"lib/MerklePatriciaProof.sol\":4672:4698  _getNthNibbleOfBytes(1, b) */\n      tag_429\n        /* \"lib/MerklePatriciaProof.sol\":4693:4694  1 */\n      0x01\n        /* \"lib/MerklePatriciaProof.sol\":4696:4697  b */\n      dup8\n        /* \"lib/MerklePatriciaProof.sol\":4672:4692  _getNthNibbleOfBytes */\n      tag_425\n        /* \"lib/MerklePatriciaProof.sol\":4672:4698  _getNthNibbleOfBytes(1, b) */\n      jump\t// in\n    tag_429:\n        /* \"lib/MerklePatriciaProof.sol\":4653:4698  bytes1 oddNibble = _getNthNibbleOfBytes(1, b) */\n      swap1\n      pop\n        /* \"lib/MerklePatriciaProof.sol\":4729:4738  oddNibble */\n      dup1\n        /* \"lib/MerklePatriciaProof.sol\":4716:4723  nibbles */\n      dup5\n        /* \"lib/MerklePatriciaProof.sol\":4724:4725  0 */\n      0x00\n        /* \"lib/MerklePatriciaProof.sol\":4716:4726  nibbles[0] */\n      dup2\n      mload\n      dup2\n      lt\n      tag_430\n      jumpi\n      invalid\n    tag_430:\n      0x20\n      add\n      add\n        /* \"lib/MerklePatriciaProof.sol\":4716:4738  nibbles[0] = oddNibble */\n      swap1\n      not(0xffffffffffffffffffffffffffffffffffffffffffffffffffffffffffffff)\n      and\n      swap1\n      dup2\n      0x00\n      byte\n      swap1\n      mstore8\n      pop\n        /* \"lib/MerklePatriciaProof.sol\":4765:4766  1 */\n      0x01\n        /* \"lib/MerklePatriciaProof.sol\":4756:4766  offset = 1 */\n      swap3\n      pop\n        /* \"lib/MerklePatriciaProof.sol\":4544:4885  if (hpNibble == 1 || hpNibble == 3) {... */\n      pop\n      jump(tag_431)\n    tag_427:\n        /* \"lib/MerklePatriciaProof.sol\":4840:4841  2 */\n      0x02\n        /* \"lib/MerklePatriciaProof.sol\":4836:4837  2 */\n      dup1\n        /* \"lib/MerklePatriciaProof.sol\":4825:4826  b */\n      dup7\n        /* \"lib/MerklePatriciaProof.sol\":4825:4833  b.length */\n      mload\n        /* \"lib/MerklePatriciaProof.sol\":4825:4837  b.length * 2 */\n      mul\n        /* \"lib/MerklePatriciaProof.sol\":4825:4841  b.length * 2 - 2 */\n      sub\n        /* \"lib/MerklePatriciaProof.sol\":4815:4842  new bytes(b.length * 2 - 2) */\n      mload(0x40)\n      swap1\n      dup1\n      dup3\n      mstore\n      dup1\n      0x1f\n      add\n      not(0x1f)\n      and\n      0x20\n      add\n      dup3\n      add\n      0x40\n      mstore\n      dup1\n      iszero\n      tag_432\n      jumpi\n      dup2\n      0x20\n      add\n        /* \"--CODEGEN--\":29:30   */\n      0x01\n        /* \"--CODEGEN--\":21:27   */\n      dup3\n        /* \"--CODEGEN--\":17:31   */\n      mul\n        /* \"--CODEGEN--\":124:128   */\n      dup1\n        /* \"--CODEGEN--\":108:122   */\n      calldatasize\n        /* \"--CODEGEN--\":100:106   */\n      dup4\n        /* \"--CODEGEN--\":87:129   */\n      calldatacopy\n        /* \"--CODEGEN--\":155:159   */\n      dup1\n        /* \"--CODEGEN--\":147:153   */\n      dup3\n        /* \"--CODEGEN--\":143:160   */\n      add\n        /* \"--CODEGEN--\":133:160   */\n      swap2\n      pop\n        /* \"--CODEGEN--\":0:164   */\n      pop\n        /* \"lib/MerklePatriciaProof.sol\":4815:4842  new bytes(b.length * 2 - 2) */\n      swap1\n      pop\n    tag_432:\n      pop\n        /* \"lib/MerklePatriciaProof.sol\":4805:4842  nibbles = new bytes(b.length * 2 - 2) */\n      swap3\n      pop\n        /* \"lib/MerklePatriciaProof.sol\":4869:4870  0 */\n      0x00\n        /* \"lib/MerklePatriciaProof.sol\":4860:4870  offset = 0 */\n      swap2\n      pop\n        /* \"lib/MerklePatriciaProof.sol\":4544:4885  if (hpNibble == 1 || hpNibble == 3) {... */\n    tag_431:\n        /* \"lib/MerklePatriciaProof.sol\":4904:4913  uint256 i */\n      0x00\n        /* \"lib/MerklePatriciaProof.sol\":4916:4922  offset */\n      dup3\n        /* \"lib/MerklePatriciaProof.sol\":4904:4922  uint256 i = offset */\n      0xff\n      and\n      swap1\n      pop\n        /* \"lib/MerklePatriciaProof.sol\":4899:5034  for (uint256 i = offset; i < nibbles.length; i++) {... */\n    tag_433:\n        /* \"lib/MerklePatriciaProof.sol\":4928:4935  nibbles */\n      dup4\n        /* \"lib/MerklePatriciaProof.sol\":4928:4942  nibbles.length */\n      mload\n        /* \"lib/MerklePatriciaProof.sol\":4924:4925  i */\n      dup2\n        /* \"lib/MerklePatriciaProof.sol\":4924:4942  i < nibbles.length */\n      lt\n        /* \"lib/MerklePatriciaProof.sol\":4899:5034  for (uint256 i = offset; i < nibbles.length; i++) {... */\n      iszero\n      tag_434\n      jumpi\n        /* \"lib/MerklePatriciaProof.sol\":4980:5019  _getNthNibbleOfBytes(i - offset + 2, b) */\n      tag_436\n        /* \"lib/MerklePatriciaProof.sol\":5014:5015  2 */\n      0x02\n        /* \"lib/MerklePatriciaProof.sol\":5005:5011  offset */\n      dup5\n        /* \"lib/MerklePatriciaProof.sol\":5001:5011  i - offset */\n      0xff\n      and\n        /* \"lib/MerklePatriciaProof.sol\":5001:5002  i */\n      dup4\n        /* \"lib/MerklePatriciaProof.sol\":5001:5011  i - offset */\n      sub\n        /* \"lib/MerklePatriciaProof.sol\":5001:5015  i - offset + 2 */\n      add\n        /* \"lib/MerklePatriciaProof.sol\":5017:5018  b */\n      dup8\n        /* \"lib/MerklePatriciaProof.sol\":4980:5000  _getNthNibbleOfBytes */\n      tag_425\n        /* \"lib/MerklePatriciaProof.sol\":4980:5019  _getNthNibbleOfBytes(i - offset + 2, b) */\n      jump\t// in\n    tag_436:\n        /* \"lib/MerklePatriciaProof.sol\":4967:4974  nibbles */\n      dup5\n        /* \"lib/MerklePatriciaProof.sol\":4975:4976  i */\n      dup3\n        /* \"lib/MerklePatriciaProof.sol\":4967:4977  nibbles[i] */\n      dup2\n      mload\n      dup2\n      lt\n      tag_437\n      jumpi\n      invalid\n    tag_437:\n      0x20\n      add\n      add\n        /* \"lib/MerklePatriciaProof.sol\":4967:5019  nibbles[i] = _getNthNibbleOfBytes(i - offset + 2, b) */\n      swap1\n      not(0xffffffffffffffffffffffffffffffffffffffffffffffffffffffffffffff)\n      and\n      swap1\n      dup2\n      0x00\n      byte\n      swap1\n      mstore8\n      pop\n        /* \"lib/MerklePatriciaProof.sol\":4944:4947  i++ */\n      dup1\n      dup1\n      0x01\n      add\n      swap2\n      pop\n      pop\n        /* \"lib/MerklePatriciaProof.sol\":4899:5034  for (uint256 i = offset; i < nibbles.length; i++) {... */\n      jump(tag_433)\n    tag_434:\n      pop\n        /* \"lib/MerklePatriciaProof.sol\":4422:5044  if (b.length > 0) {... */\n      pop\n      pop\n    tag_423:\n        /* \"lib/MerklePatriciaProof.sol\":5060:5067  nibbles */\n      dup1\n        /* \"lib/MerklePatriciaProof.sol\":5053:5067  return nibbles */\n      swap2\n      pop\n      pop\n        /* \"lib/MerklePatriciaProof.sol\":4277:5074  function _getNibbleArray(bytes memory b)... */\n      swap2\n      swap1\n      pop\n      jump\t// out\n        /* \"lib/RLP.sol\":4931:5184  function toUintStrict(RLPItem memory item) internal pure returns (uint) {... */\n    tag_342:\n        /* \"lib/RLP.sol\":4997:5001  uint */\n      0x00\n        /* \"lib/RLP.sol\":5052:5054  33 */\n      0x21\n        /* \"lib/RLP.sol\":5040:5044  item */\n      dup3\n        /* \"lib/RLP.sol\":5040:5048  item.len */\n      0x00\n      add\n      mload\n        /* \"lib/RLP.sol\":5040:5054  item.len == 33 */\n      eq\n        /* \"lib/RLP.sol\":5032:5055  require(item.len == 33) */\n      tag_439\n      jumpi\n        /* \"--CODEGEN--\":12:13   */\n      0x00\n        /* \"--CODEGEN--\":9:10   */\n      dup1\n        /* \"--CODEGEN--\":2:14   */\n      revert\n        /* \"lib/RLP.sol\":5032:5055  require(item.len == 33) */\n    tag_439:\n        /* \"lib/RLP.sol\":5062:5073  uint result */\n      0x00\n        /* \"lib/RLP.sol\":5079:5090  uint memPtr */\n      dup1\n        /* \"lib/RLP.sol\":5107:5108  1 */\n      0x01\n        /* \"lib/RLP.sol\":5093:5097  item */\n      dup5\n        /* \"lib/RLP.sol\":5093:5104  item.memPtr */\n      0x20\n      add\n      mload\n        /* \"lib/RLP.sol\":5093:5108  item.memPtr + 1 */\n      add\n        /* \"lib/RLP.sol\":5079:5108  uint memPtr = item.memPtr + 1 */\n      swap1\n      pop\n        /* \"lib/RLP.sol\":5147:5153  memPtr */\n      dup1\n        /* \"lib/RLP.sol\":5141:5154  mload(memPtr) */\n      mload\n        /* \"lib/RLP.sol\":5131:5154  result := mload(memPtr) */\n      swap2\n      pop\n        /* \"lib/RLP.sol\":5173:5179  result */\n      dup2\n        /* \"lib/RLP.sol\":5166:5179  return result */\n      swap3\n      pop\n      pop\n      pop\n        /* \"lib/RLP.sol\":4931:5184  function toUintStrict(RLPItem memory item) internal pure returns (uint) {... */\n      swap2\n      swap1\n      pop\n      jump\t// out\n        /* \"lib/MerklePatriciaProof.sol\":3287:4237  function _nibblesToTraverse(... */\n    tag_348:\n        /* \"lib/MerklePatriciaProof.sol\":3436:3443  uint256 */\n      0x00\n        /* \"lib/MerklePatriciaProof.sol\":3455:3466  uint256 len */\n      dup1\n        /* \"lib/MerklePatriciaProof.sol\":3661:3685  bytes memory partialPath */\n      0x60\n        /* \"lib/MerklePatriciaProof.sol\":3688:3723  _getNibbleArray(encodedPartialPath) */\n      tag_441\n        /* \"lib/MerklePatriciaProof.sol\":3704:3722  encodedPartialPath */\n      dup7\n        /* \"lib/MerklePatriciaProof.sol\":3688:3703  _getNibbleArray */\n      tag_321\n        /* \"lib/MerklePatriciaProof.sol\":3688:3723  _getNibbleArray(encodedPartialPath) */\n      jump\t// in\n    tag_441:\n        /* \"lib/MerklePatriciaProof.sol\":3661:3723  bytes memory partialPath = _getNibbleArray(encodedPartialPath) */\n      swap1\n      pop\n        /* \"lib/MerklePatriciaProof.sol\":3733:3756  bytes memory slicedPath */\n      0x60\n        /* \"lib/MerklePatriciaProof.sol\":3769:3780  partialPath */\n      dup2\n        /* \"lib/MerklePatriciaProof.sol\":3769:3787  partialPath.length */\n      mload\n        /* \"lib/MerklePatriciaProof.sol\":3759:3788  new bytes(partialPath.length) */\n      mload(0x40)\n      swap1\n      dup1\n      dup3\n      mstore\n      dup1\n      0x1f\n      add\n      not(0x1f)\n      and\n      0x20\n      add\n      dup3\n      add\n      0x40\n      mstore\n      dup1\n      iszero\n      tag_442\n      jumpi\n      dup2\n      0x20\n      add\n        /* \"--CODEGEN--\":29:30   */\n      0x01\n        /* \"--CODEGEN--\":21:27   */\n      dup3\n        /* \"--CODEGEN--\":17:31   */\n      mul\n        /* \"--CODEGEN--\":124:128   */\n      dup1\n        /* \"--CODEGEN--\":108:122   */\n      calldatasize\n        /* \"--CODEGEN--\":100:106   */\n      dup4\n        /* \"--CODEGEN--\":87:129   */\n      calldatacopy\n        /* \"--CODEGEN--\":155:159   */\n      dup1\n        /* \"--CODEGEN--\":147:153   */\n      dup3\n        /* \"--CODEGEN--\":143:160   */\n      add\n        /* \"--CODEGEN--\":133:160   */\n      swap2\n      pop\n        /* \"--CODEGEN--\":0:164   */\n      pop\n        /* \"lib/MerklePatriciaProof.sol\":3759:3788  new bytes(partialPath.length) */\n      swap1\n      pop\n    tag_442:\n      pop\n        /* \"lib/MerklePatriciaProof.sol\":3733:3788  bytes memory slicedPath = new bytes(partialPath.length) */\n      swap1\n      pop\n        /* \"lib/MerklePatriciaProof.sol\":3899:3908  uint256 i */\n      0x00\n        /* \"lib/MerklePatriciaProof.sol\":3911:3918  pathPtr */\n      dup6\n        /* \"lib/MerklePatriciaProof.sol\":3899:3918  uint256 i = pathPtr */\n      swap1\n      pop\n        /* \"lib/MerklePatriciaProof.sol\":3894:4061  for (uint256 i = pathPtr; i < pathPtr + partialPath.length; i++) {... */\n    tag_443:\n        /* \"lib/MerklePatriciaProof.sol\":3934:3945  partialPath */\n      dup3\n        /* \"lib/MerklePatriciaProof.sol\":3934:3952  partialPath.length */\n      mload\n        /* \"lib/MerklePatriciaProof.sol\":3924:3931  pathPtr */\n      dup7\n        /* \"lib/MerklePatriciaProof.sol\":3924:3952  pathPtr + partialPath.length */\n      add\n        /* \"lib/MerklePatriciaProof.sol\":3920:3921  i */\n      dup2\n        /* \"lib/MerklePatriciaProof.sol\":3920:3952  i < pathPtr + partialPath.length */\n      lt\n        /* \"lib/MerklePatriciaProof.sol\":3894:4061  for (uint256 i = pathPtr; i < pathPtr + partialPath.length; i++) {... */\n      iszero\n      tag_444\n      jumpi\n        /* \"lib/MerklePatriciaProof.sol\":3973:3990  bytes1 pathNibble */\n      0x00\n        /* \"lib/MerklePatriciaProof.sol\":3993:3997  path */\n      dup8\n        /* \"lib/MerklePatriciaProof.sol\":3998:3999  i */\n      dup3\n        /* \"lib/MerklePatriciaProof.sol\":3993:4000  path[i] */\n      dup2\n      mload\n      dup2\n      lt\n      tag_446\n      jumpi\n      invalid\n    tag_446:\n      0x20\n      add\n      add\n      mload\n      0xf8\n      shr\n      0xf8\n      shl\n        /* \"lib/MerklePatriciaProof.sol\":3973:4000  bytes1 pathNibble = path[i] */\n      swap1\n      pop\n        /* \"lib/MerklePatriciaProof.sol\":4040:4050  pathNibble */\n      dup1\n        /* \"lib/MerklePatriciaProof.sol\":4014:4024  slicedPath */\n      dup4\n        /* \"lib/MerklePatriciaProof.sol\":4029:4036  pathPtr */\n      dup9\n        /* \"lib/MerklePatriciaProof.sol\":4025:4026  i */\n      dup5\n        /* \"lib/MerklePatriciaProof.sol\":4025:4036  i - pathPtr */\n      sub\n        /* \"lib/MerklePatriciaProof.sol\":4014:4037  slicedPath[i - pathPtr] */\n      dup2\n      mload\n      dup2\n      lt\n      tag_447\n      jumpi\n      invalid\n    tag_447:\n      0x20\n      add\n      add\n        /* \"lib/MerklePatriciaProof.sol\":4014:4050  slicedPath[i - pathPtr] = pathNibble */\n      swap1\n      not(0xffffffffffffffffffffffffffffffffffffffffffffffffffffffffffffff)\n      and\n      swap1\n      dup2\n      0x00\n      byte\n      swap1\n      mstore8\n      pop\n        /* \"lib/MerklePatriciaProof.sol\":3894:4061  for (uint256 i = pathPtr; i < pathPtr + partialPath.length; i++) {... */\n      pop\n        /* \"lib/MerklePatriciaProof.sol\":3954:3957  i++ */\n      dup1\n      dup1\n      0x01\n      add\n      swap2\n      pop\n      pop\n        /* \"lib/MerklePatriciaProof.sol\":3894:4061  for (uint256 i = pathPtr; i < pathPtr + partialPath.length; i++) {... */\n      jump(tag_443)\n    tag_444:\n      pop\n        /* \"lib/MerklePatriciaProof.sol\":4111:4121  slicedPath */\n      dup1\n        /* \"lib/MerklePatriciaProof.sol\":4101:4122  keccak256(slicedPath) */\n      dup1\n      mload\n      swap1\n      0x20\n      add\n      keccak256\n        /* \"lib/MerklePatriciaProof.sol\":4085:4096  partialPath */\n      dup3\n        /* \"lib/MerklePatriciaProof.sol\":4075:4097  keccak256(partialPath) */\n      dup1\n      mload\n      swap1\n      0x20\n      add\n      keccak256\n        /* \"lib/MerklePatriciaProof.sol\":4075:4122  keccak256(partialPath) == keccak256(slicedPath) */\n      eq\n        /* \"lib/MerklePatriciaProof.sol\":4071:4211  if (keccak256(partialPath) == keccak256(slicedPath)) {... */\n      iszero\n      tag_448\n      jumpi\n        /* \"lib/MerklePatriciaProof.sol\":4144:4155  partialPath */\n      dup2\n        /* \"lib/MerklePatriciaProof.sol\":4144:4162  partialPath.length */\n      mload\n        /* \"lib/MerklePatriciaProof.sol\":4138:4162  len = partialPath.length */\n      swap3\n      pop\n        /* \"lib/MerklePatriciaProof.sol\":4071:4211  if (keccak256(partialPath) == keccak256(slicedPath)) {... */\n      jump(tag_449)\n    tag_448:\n        /* \"lib/MerklePatriciaProof.sol\":4199:4200  0 */\n      0x00\n        /* \"lib/MerklePatriciaProof.sol\":4193:4200  len = 0 */\n      swap3\n      pop\n        /* \"lib/MerklePatriciaProof.sol\":4071:4211  if (keccak256(partialPath) == keccak256(slicedPath)) {... */\n    tag_449:\n        /* \"lib/MerklePatriciaProof.sol\":4227:4230  len */\n      dup3\n        /* \"lib/MerklePatriciaProof.sol\":4220:4230  return len */\n      swap4\n      pop\n      pop\n      pop\n      pop\n        /* \"lib/MerklePatriciaProof.sol\":3287:4237  function _nibblesToTraverse(... */\n      swap4\n      swap3\n      pop\n      pop\n      pop\n      jump\t// out\n        /* \"lib/RLPEncode.sol\":2526:3078  function getLengthBytes(uint256 x) internal pure returns (bytes memory b) {... */\n    tag_419:\n        /* \"lib/RLPEncode.sol\":2584:2598  bytes memory b */\n      0x60\n        /* \"lib/RLPEncode.sol\":2797:2811  uint256 nBytes */\n      0x00\n        /* \"lib/RLPEncode.sol\":2814:2815  1 */\n      0x01\n        /* \"lib/RLPEncode.sol\":2797:2815  uint256 nBytes = 1 */\n      swap1\n      pop\n        /* \"lib/RLPEncode.sol\":2833:2836  255 */\n      0xff\n        /* \"lib/RLPEncode.sol\":2829:2830  x */\n      dup4\n        /* \"lib/RLPEncode.sol\":2829:2836  x > 255 */\n      gt\n        /* \"lib/RLPEncode.sol\":2825:2873  if (x > 255) {... */\n      iszero\n      tag_451\n      jumpi\n        /* \"lib/RLPEncode.sol\":2861:2862  2 */\n      0x02\n        /* \"lib/RLPEncode.sol\":2852:2862  nBytes = 2 */\n      swap1\n      pop\n        /* \"lib/RLPEncode.sol\":2825:2873  if (x > 255) {... */\n    tag_451:\n        /* \"lib/RLPEncode.sol\":2897:2903  nBytes */\n      dup1\n        /* \"lib/RLPEncode.sol\":2887:2904  new bytes(nBytes) */\n      mload(0x40)\n      swap1\n      dup1\n      dup3\n      mstore\n      dup1\n      0x1f\n      add\n      not(0x1f)\n      and\n      0x20\n      add\n      dup3\n      add\n      0x40\n      mstore\n      dup1\n      iszero\n      tag_452\n      jumpi\n      dup2\n      0x20\n      add\n        /* \"--CODEGEN--\":29:30   */\n      0x01\n        /* \"--CODEGEN--\":21:27   */\n      dup3\n        /* \"--CODEGEN--\":17:31   */\n      mul\n        /* \"--CODEGEN--\":124:128   */\n      dup1\n        /* \"--CODEGEN--\":108:122   */\n      calldatasize\n        /* \"--CODEGEN--\":100:106   */\n      dup4\n        /* \"--CODEGEN--\":87:129   */\n      calldatacopy\n        /* \"--CODEGEN--\":155:159   */\n      dup1\n        /* \"--CODEGEN--\":147:153   */\n      dup3\n        /* \"--CODEGEN--\":143:160   */\n      add\n        /* \"--CODEGEN--\":133:160   */\n      swap2\n      pop\n        /* \"--CODEGEN--\":0:164   */\n      pop\n        /* \"lib/RLPEncode.sol\":2887:2904  new bytes(nBytes) */\n      swap1\n      pop\n    tag_452:\n      pop\n        /* \"lib/RLPEncode.sol\":2883:2904  b = new bytes(nBytes) */\n      swap2\n      pop\n        /* \"lib/RLPEncode.sol\":2962:2971  uint256 i */\n      0x00\n        /* \"lib/RLPEncode.sol\":2974:2975  0 */\n      dup1\n        /* \"lib/RLPEncode.sol\":2962:2975  uint256 i = 0 */\n      swap1\n      pop\n        /* \"lib/RLPEncode.sol\":2957:3072  for (uint256 i = 0; i < nBytes; i++) {... */\n    tag_453:\n        /* \"lib/RLPEncode.sol\":2981:2987  nBytes */\n      dup2\n        /* \"lib/RLPEncode.sol\":2977:2978  i */\n      dup2\n        /* \"lib/RLPEncode.sol\":2977:2987  i < nBytes */\n      lt\n        /* \"lib/RLPEncode.sol\":2957:3072  for (uint256 i = 0; i < nBytes; i++) {... */\n      iszero\n      tag_454\n      jumpi\n        /* \"lib/RLPEncode.sol\":3055:3056  i */\n      dup1\n        /* \"lib/RLPEncode.sol\":3051:3052  1 */\n      0x01\n        /* \"lib/RLPEncode.sol\":3042:3048  nBytes */\n      dup4\n        /* \"lib/RLPEncode.sol\":3042:3052  nBytes - 1 */\n      sub\n        /* \"lib/RLPEncode.sol\":3042:3056  nBytes - 1 - i */\n      sub\n        /* \"lib/RLPEncode.sol\":3037:3038  8 */\n      0x08\n        /* \"lib/RLPEncode.sol\":3037:3057  8 * (nBytes - 1 - i) */\n      mul\n        /* \"lib/RLPEncode.sol\":3033:3034  2 */\n      0x02\n        /* \"lib/RLPEncode.sol\":3033:3058  2**(8 * (nBytes - 1 - i)) */\n      exp\n        /* \"lib/RLPEncode.sol\":3028:3029  x */\n      dup5\n        /* \"lib/RLPEncode.sol\":3028:3059  x / (2**(8 * (nBytes - 1 - i))) */\n      dup2\n      tag_456\n      jumpi\n      invalid\n    tag_456:\n      div\n        /* \"lib/RLPEncode.sol\":3015:3061  bytes1(uint8(x / (2**(8 * (nBytes - 1 - i))))) */\n      0xf8\n      shl\n        /* \"lib/RLPEncode.sol\":3008:3009  b */\n      dup4\n        /* \"lib/RLPEncode.sol\":3010:3011  i */\n      dup3\n        /* \"lib/RLPEncode.sol\":3008:3012  b[i] */\n      dup2\n      mload\n      dup2\n      lt\n      tag_457\n      jumpi\n      invalid\n    tag_457:\n      0x20\n      add\n      add\n        /* \"lib/RLPEncode.sol\":3008:3061  b[i] = bytes1(uint8(x / (2**(8 * (nBytes - 1 - i))))) */\n      swap1\n      not(0xffffffffffffffffffffffffffffffffffffffffffffffffffffffffffffff)\n      and\n      swap1\n      dup2\n      0x00\n      byte\n      swap1\n      mstore8\n      pop\n        /* \"lib/RLPEncode.sol\":2989:2992  i++ */\n      dup1\n      dup1\n      0x01\n      add\n      swap2\n      pop\n      pop\n        /* \"lib/RLPEncode.sol\":2957:3072  for (uint256 i = 0; i < nBytes; i++) {... */\n      jump(tag_453)\n    tag_454:\n      pop\n        /* \"lib/RLPEncode.sol\":2526:3078  function getLengthBytes(uint256 x) internal pure returns (bytes memory b) {... */\n      pop\n      swap2\n      swap1\n      pop\n      jump\t// out\n        /* \"lib/MerklePatriciaProof.sol\":5080:5335  function _getNthNibbleOfBytes(uint256 n, bytes memory str)... */\n    tag_425:\n        /* \"lib/MerklePatriciaProof.sol\":5185:5191  bytes1 */\n      0x00\n        /* \"lib/MerklePatriciaProof.sol\":5259:5260  0 */\n      dup1\n        /* \"lib/MerklePatriciaProof.sol\":5254:5255  2 */\n      0x02\n        /* \"lib/MerklePatriciaProof.sol\":5250:5251  n */\n      dup5\n        /* \"lib/MerklePatriciaProof.sol\":5250:5255  n % 2 */\n      dup2\n      tag_459\n      jumpi\n      invalid\n    tag_459:\n      mod\n        /* \"lib/MerklePatriciaProof.sol\":5250:5260  n % 2 == 0 */\n      eq\n        /* \"lib/MerklePatriciaProof.sol\":5250:5314  n % 2 == 0 ? uint8(str[n / 2]) / 0x10 : uint8(str[n / 2]) % 0x10 */\n      tag_460\n      jumpi\n        /* \"lib/MerklePatriciaProof.sol\":5310:5314  0x10 */\n      0x10\n        /* \"lib/MerklePatriciaProof.sol\":5296:5299  str */\n      dup3\n        /* \"lib/MerklePatriciaProof.sol\":5304:5305  2 */\n      0x02\n        /* \"lib/MerklePatriciaProof.sol\":5300:5301  n */\n      dup6\n        /* \"lib/MerklePatriciaProof.sol\":5300:5305  n / 2 */\n      dup2\n      tag_461\n      jumpi\n      invalid\n    tag_461:\n      div\n        /* \"lib/MerklePatriciaProof.sol\":5296:5306  str[n / 2] */\n      dup2\n      mload\n      dup2\n      lt\n      tag_462\n      jumpi\n      invalid\n    tag_462:\n      0x20\n      add\n      add\n      mload\n      0xf8\n      shr\n      0xf8\n      shl\n        /* \"lib/MerklePatriciaProof.sol\":5290:5307  uint8(str[n / 2]) */\n      0xf8\n      shr\n        /* \"lib/MerklePatriciaProof.sol\":5290:5314  uint8(str[n / 2]) % 0x10 */\n      0xff\n      and\n      dup2\n      tag_463\n      jumpi\n      invalid\n    tag_463:\n      mod\n        /* \"lib/MerklePatriciaProof.sol\":5250:5314  n % 2 == 0 ? uint8(str[n / 2]) / 0x10 : uint8(str[n / 2]) % 0x10 */\n      jump(tag_464)\n    tag_460:\n        /* \"lib/MerklePatriciaProof.sol\":5283:5287  0x10 */\n      0x10\n        /* \"lib/MerklePatriciaProof.sol\":5269:5272  str */\n      dup3\n        /* \"lib/MerklePatriciaProof.sol\":5277:5278  2 */\n      0x02\n        /* \"lib/MerklePatriciaProof.sol\":5273:5274  n */\n      dup6\n        /* \"lib/MerklePatriciaProof.sol\":5273:5278  n / 2 */\n      dup2\n      tag_465\n      jumpi\n      invalid\n    tag_465:\n      div\n        /* \"lib/MerklePatriciaProof.sol\":5269:5279  str[n / 2] */\n      dup2\n      mload\n      dup2\n      lt\n      tag_466\n      jumpi\n      invalid\n    tag_466:\n      0x20\n      add\n      add\n      mload\n      0xf8\n      shr\n      0xf8\n      shl\n        /* \"lib/MerklePatriciaProof.sol\":5263:5280  uint8(str[n / 2]) */\n      0xf8\n      shr\n        /* \"lib/MerklePatriciaProof.sol\":5263:5287  uint8(str[n / 2]) / 0x10 */\n      0xff\n      and\n      dup2\n      tag_467\n      jumpi\n      invalid\n    tag_467:\n      div\n        /* \"lib/MerklePatriciaProof.sol\":5250:5314  n % 2 == 0 ? uint8(str[n / 2]) / 0x10 : uint8(str[n / 2]) % 0x10 */\n    tag_464:\n        /* \"lib/MerklePatriciaProof.sol\":5226:5328  bytes1(... */\n      0xf8\n      shl\n        /* \"lib/MerklePatriciaProof.sol\":5207:5328  return... */\n      swap1\n      pop\n        /* \"lib/MerklePatriciaProof.sol\":5080:5335  function _getNthNibbleOfBytes(uint256 n, bytes memory str)... */\n      swap3\n      swap2\n      pop\n      pop\n      jump\t// out\n        /* \"PlasmaManager.sol\":257:8768  contract PlasmaManager {... */\n    tag_151:\n      mload(0x40)\n      dup1\n      0x80\n      add\n      0x40\n      mstore\n      dup1\n      0x00\n      dup2\n      mstore\n      0x20\n      add\n      0x00\n      dup2\n      mstore\n      0x20\n      add\n      0x00\n      dup1\n      not\n      and\n      dup2\n      mstore\n      0x20\n      add\n      0x00\n      dup1\n      not\n      and\n      dup2\n      mstore\n      pop\n      swap1\n      jump\t// out\n    tag_233:\n      mload(0x40)\n      dup1\n      0x40\n      add\n      0x40\n      mstore\n      dup1\n      0x00\n      dup2\n      mstore\n      0x20\n      add\n      0x00\n      dup2\n      mstore\n      pop\n      swap1\n      jump\t// out\n    tag_244:\n      mload(0x40)\n      dup1\n      0x40\n      add\n      0x40\n      mstore\n      dup1\n      0x00\n      dup2\n      mstore\n      0x20\n      add\n      0x00\n      dup2\n      mstore\n      pop\n      swap1\n      jump\t// out\n    stop\n    data_077781bc781d69c18b16708e32a7859fb69c8510a105056868d84c2c5ba1f85f 7472616e736665722073686f756c64206265206d61646520746f2045534e204465706f7369742041646472657373\n    data_c04cad1e368f4a31430822da10ca1926a292cad1122c2d1b4897925ce6257dd4 696e76616c696420636861696e206964206f6620746865207472616e73616374696f6e\n    data_fc13d223b0e89774a393f7fd3fe2b806585769765211db5908a5476ec6dfd9e8 416c72656164792070726f636573736564207769746864726177616c20666f722074686973207472616e73616374696f6e\n\n    auxdata: 0xa264697066735822122025dabe2ec0b678833eb40d3f78c43ee611fb23632bfd5bb38f0cd21cbeb1e14a64736f6c63430006030033\n}\n","bytecode":{"linkReferences":{},"object":"60806040523480156200001157600080fd5b506040516200303f3803806200303f833981810160405260408110156200003757600080fd5b81019080805160405193929190846401000000008211156200005857600080fd5b838201915060208201858111156200006f57600080fd5b82518660208202830111640100000000821117156200008d57600080fd5b8083526020830192505050908051906020019060200280838360005b83811015620000c6578082015181840152602081019050620000a9565b505050509050016040526020018051906020019092919050505060008090505b8251811015620001695760018060008584815181106200010257fe5b602002602001015173ffffffffffffffffffffffffffffffffffffffff1673ffffffffffffffffffffffffffffffffffffffff16815260200190815260200160002060006101000a81548160ff0219169083151502179055508080600101915050620000e6565b50815160008190555081600390805190602001906200018a929190620001d4565b5080600660006101000a81548173ffffffffffffffffffffffffffffffffffffffff021916908373ffffffffffffffffffffffffffffffffffffffff1602179055505050620002a9565b82805482825590600052602060002090810192821562000250579160200282015b828111156200024f5782518260006101000a81548173ffffffffffffffffffffffffffffffffffffffff021916908373ffffffffffffffffffffffffffffffffffffffff16021790555091602001919060010190620001f5565b5b5090506200025f919062000263565b5090565b620002a691905b80821115620002a257600081816101000a81549073ffffffffffffffffffffffffffffffffffffffff0219169055506001016200026a565b5090565b90565b612d8680620002b96000396000f3fe608060405234801561001057600080fd5b506004361061010b5760003560e01c806376f5e6da116100a2578063d42f2f3511610071578063d42f2f35146106fc578063d6832ea91461075b578063f3513a3714610779578063facd743b146107d8578063fc0c546a146108345761010b565b806376f5e6da146104fc578063974275cf146105b7578063bf49d631146105fb578063ca5d0926146106415761010b565b80632ceea82a116100de5780632ceea82a146102dd57806335aa2e44146102fb5780636750d35b1461036957806375080de8146104a55761010b565b80630a917b151461011057806315c09850146101345780632079fb9a1461017e578063255032ab146101ec575b600080fd5b61011861087e565b604051808260ff1660ff16815260200191505060405180910390f35b61013c610891565b604051808273ffffffffffffffffffffffffffffffffffffffff1673ffffffffffffffffffffffffffffffffffffffff16815260200191505060405180910390f35b6101aa6004803603602081101561019457600080fd5b81019080803590602001909291905050506108b7565b604051808273ffffffffffffffffffffffffffffffffffffffff1673ffffffffffffffffffffffffffffffffffffffff16815260200191505060405180910390f35b6102c36004803603608081101561020257600080fd5b810190808035906020019092919080359060200190929190803590602001909291908035906020019064010000000081111561023d57600080fd5b82018360208201111561024f57600080fd5b8035906020019184600183028401116401000000008311171561027157600080fd5b91908080601f016020809104026020016040519081016040528093929190818152602001838380828437600081840152601f19601f8201169050808301925050505050505091929192905050506108f3565b604051808215151515815260200191505060405180910390f35b6102e5610a3a565b6040518082815260200191505060405180910390f35b6103276004803603602081101561031157600080fd5b8101908080359060200190929190505050610a47565b604051808273ffffffffffffffffffffffffffffffffffffffff1673ffffffffffffffffffffffffffffffffffffffff16815260200191505060405180910390f35b6104226004803603602081101561037f57600080fd5b810190808035906020019064010000000081111561039c57600080fd5b8201836020820111156103ae57600080fd5b803590602001918460018302840111640100000000831117156103d057600080fd5b91908080601f016020809104026020016040519081016040528093929190818152602001838380828437600081840152601f19601f820116905080830192505050505050509192919290505050610a83565b604051808573ffffffffffffffffffffffffffffffffffffffff1673ffffffffffffffffffffffffffffffffffffffff1681526020018473ffffffffffffffffffffffffffffffffffffffff1673ffffffffffffffffffffffffffffffffffffffff16815260200183815260200182815260200194505050505060405180910390f35b6104d1600480360360208110156104bb57600080fd5b8101908080359060200190929190505050610d0e565b6040518085815260200184815260200183815260200182815260200194505050505060405180910390f35b6105b56004803603602081101561051257600080fd5b810190808035906020019064010000000081111561052f57600080fd5b82018360208201111561054157600080fd5b8035906020019184600183028401116401000000008311171561056357600080fd5b91908080601f016020809104026020016040519081016040528093929190818152602001838380828437600081840152601f19601f820116905080830192505050505050509192919290505050610d4b565b005b6105f9600480360360208110156105cd57600080fd5b81019080803573ffffffffffffffffffffffffffffffffffffffff169060200190929190505050611425565b005b6106276004803603602081101561061157600080fd5b8101908080359060200190929190505050611469565b604051808215151515815260200191505060405180910390f35b6106fa6004803603602081101561065757600080fd5b810190808035906020019064010000000081111561067457600080fd5b82018360208201111561068657600080fd5b803590602001918460018302840111640100000000831117156106a857600080fd5b91908080601f016020809104026020016040519081016040528093929190818152602001838380828437600081840152601f19601f820116905080830192505050505050509192919290505050611489565b005b61070461197a565b6040518080602001828103825283818151815260200191508051906020019060200280838360005b8381101561074757808201518184015260208101905061072c565b505050509050019250505060405180910390f35b610763611a08565b6040518082815260200191505060405180910390f35b610781611a0e565b6040518080602001828103825283818151815260200191508051906020019060200280838360005b838110156107c45780820151818401526020810190506107a9565b505050509050019250505060405180910390f35b61081a600480360360208110156107ee57600080fd5b81019080803573ffffffffffffffffffffffffffffffffffffffff169060200190929190505050611a9c565b604051808215151515815260200191505060405180910390f35b61083c611abc565b604051808273ffffffffffffffffffffffffffffffffffffffff1673ffffffffffffffffffffffffffffffffffffffff16815260200191505060405180910390f35b600760149054906101000a900460ff1681565b600760009054906101000a900473ffffffffffffffffffffffffffffffffffffffff1681565b600481815481106108c457fe5b906000526020600020016000915054906101000a900473ffffffffffffffffffffffffffffffffffffffff1681565b60008060008690506000602085518161090857fe5b061461097c576040517f08c379a00000000000000000000000000000000000000000000000000000000081526004018080602001828103825260148152602001807f496e76616c69642070726f6f66206c656e67746800000000000000000000000081525060200191505060405180910390fd5b60008690506000602090505b85518111610a29578086015193506000600283816109a257fe5b0614156109df5782846040516020018083815260200182815260200192505050604051602081830303815290604052805190602001209250610a11565b838360405160200180838152602001828152602001925050506040516020818303038152906040528051906020012092505b60028281610a1b57fe5b049150602081019050610988565b508582149350505050949350505050565b6000600580549050905090565b60038181548110610a5457fe5b906000526020600020016000915054906101000a900473ffffffffffffffffffffffffffffffffffffffff1681565b6000806000806060610a9c610a9787611ae2565b611b10565b90506000610abd82600381518110610ab057fe5b6020026020010151611bed565b90506000610ade83600481518110610ad157fe5b6020026020010151611c10565b90506000610aff84600681518110610af257fe5b6020026020010151611c10565b90506000610b2085600781518110610b1357fe5b6020026020010151611c81565b90506000610b4186600881518110610b3457fe5b6020026020010151611c81565b90506060600080601c861115610be5576009604051908082528060200260200182016040528015610b8657816020015b6060815260200190600190039081610b715790505b509250600060028781610b9557fe5b061415610ba557601c9150610baa565b601b91505b600260088360ff1688030381610bbc57fe5b049050610bc881611c96565b83600681518110610bd557fe5b6020026020010181905250610c21565b6006604051908082528060200260200182016040528015610c1a57816020015b6060815260200190600190039081610c055790505b5092508591505b60008090505b6006811015610c7057610c4c8a8281518110610c3f57fe5b6020026020010151611de1565b848281518110610c5857fe5b60200260200101819052508080600101915050610c27565b506060610c7c84611e6d565b905060006001828051906020012085898960405160008152602001604052604051808581526020018460ff1660ff1681526020018381526020018281526020019450505050506020604051602081039080840390855afa158015610ce4573d6000803e3d6000fd5b505050602060405103519050808a8a859e509e509e509e5050505050505050505050509193509193565b60058181548110610d1b57fe5b90600052602060002090600402016000915090508060000154908060010154908060020154908060030154905084565b6060610d5e610d5983611ae2565b611b10565b90506060610d7f82600081518110610d7257fe5b6020026020010151611b10565b90506004815114610df8576040517f08c379a00000000000000000000000000000000000000000000000000000000081526004018080602001828103825260208152602001807f62756e636820686561646572206d75737420686176652034206d656d6265727381525060200191505060405180910390fd5b610e00612c6c565b6040518060800160405280610e2884600081518110610e1b57fe5b6020026020010151611c10565b8152602001610e4a84600181518110610e3d57fe5b6020026020010151611c10565b8152602001610e6c84600281518110610e5f57fe5b6020026020010151611c81565b8152602001610e8e84600381518110610e8157fe5b6020026020010151611c81565b8152509050610e9b611ed1565b816000015114610f13576040517f08c379a000000000000000000000000000000000000000000000000000000000815260040180806020018281038252601a8152602001807f696e76616c696420737461727420626c6f636b206e756d62657200000000000081525060200191505060405180910390fd5b6060610f3284600081518110610f2557fe5b6020026020010151611f41565b905060006040518060400160405280601a81526020017f19457468657265756d205369676e6564204d6573736167653a0a000000000000815250610f768351611fb7565b836040516020018084805190602001908083835b60208310610fad5780518252602082019150602081019050602083039250610f8a565b6001836020036101000a03801982511681845116808217855250505050505090500183805190602001908083835b60208310610ffe5780518252602082019150602081019050602083039250610fdb565b6001836020036101000a03801982511681845116808217855250505050505090500182805190602001908083835b6020831061104f578051825260208201915060208101905060208303925061102c565b6001836020036101000a03801982511681845116808217855250505050505090500193505050506040516020818303038152906040528051906020012090507ff263fdaa282129bf525bc5da5a454ee67eb2b96bc11afab9c6f92896f166b18e816040518082815260200191505060405180910390a1600080600190505b86518110156112e75760606110f48883815181106110e757fe5b6020026020010151611de1565b90506000806000602084018051935060208101519250604081015160001a9150601b82101561112457601b820191505b50601b8160ff16148061113a5750601c8160ff16145b6111ac576040517f08c379a00000000000000000000000000000000000000000000000000000000081526004018080602001828103825260168152602001807f696e76616c6964207265636f766572792076616c75650000000000000000000081525060200191505060405180910390fd5b600060018883868660405160008152602001604052604051808581526020018460ff1660ff1681526020018381526020018281526020019450505050506020604051602081039080840390855afa15801561120b573d6000803e3d6000fd5b505050602060405103519050600160008273ffffffffffffffffffffffffffffffffffffffff1673ffffffffffffffffffffffffffffffffffffffff16815260200190815260200160002060009054906101000a900460ff16156112725786806001019750505b7febfb412ded3f9cdb15b75308503b279416e74d382f6ce86eedee0ef3130fa9e381604051808273ffffffffffffffffffffffffffffffffffffffff1673ffffffffffffffffffffffffffffffffffffffff16815260200191505060405180910390a1505050505080806001019150506110cd565b506064604260005402816112f757fe5b04811161136c576040517f08c379a000000000000000000000000000000000000000000000000000000000815260040180806020018281038252601a8152602001807f3636252076616c696461746f72732073686f756c64207369676e00000000000081525060200191505060405180910390fd5b6000600580549050905060058590806001815401808255809150506001900390600052602060002090600402016000909190919091506000820151816000015560208201518160010155604082015181600201556060820151816003015550507f435520ea9b14c682112acef5bc8466234d75b18dce73c44a78d905139def419d856000015186602001518360405180848152602001838152602001828152602001935050505060405180910390a15050505050505050565b80600760006101000a81548173ffffffffffffffffffffffffffffffffffffffff021916908373ffffffffffffffffffffffffffffffffffffffff16021790555050565b60026020528060005260406000206000915054906101000a900460ff1681565b606061149c61149783611ae2565b611b10565b905060006114bd826000815181106114b057fe5b6020026020010151611c10565b905060006114de836001815181106114d157fe5b6020026020010151611c10565b905060606114ff846002815181106114f257fe5b6020026020010151611de1565b905060006115208560038151811061151357fe5b6020026020010151611c81565b905060606115418660048151811061153457fe5b6020026020010151611de1565b905060606115628760058151811061155557fe5b6020026020010151611de1565b905060606115838860068151811061157657fe5b6020026020010151611de1565b90506000838051906020012090506002600082815260200190815260200160002060009054906101000a900460ff1615611608576040517f08c379a0000000000000000000000000000000000000000000000000000000008152600401808060200182810382526031815260200180612d206031913960400191505060405180910390fd5b611614848484886120e4565b611686576040517f08c379a000000000000000000000000000000000000000000000000000000000815260040180806020018281038252601d8152602001807f496e76616c6964204d65726b6c652050617472696369612050726f6f6600000081525060200191505060405180910390fd5b6116d08560058a8154811061169757fe5b906000526020600020906004020160000154890360058b815481106116b857fe5b906000526020600020906004020160020154896108f3565b611742576040517f08c379a00000000000000000000000000000000000000000000000000000000081526004018080602001828103825260148152602001807f496e76616c6964204d65726b6c652050726f6f6600000000000000000000000081525060200191505060405180910390fd5b60008060008061175188610a83565b9350935093509350600760009054906101000a900473ffffffffffffffffffffffffffffffffffffffff1673ffffffffffffffffffffffffffffffffffffffff168373ffffffffffffffffffffffffffffffffffffffff16146117ff576040517f08c379a000000000000000000000000000000000000000000000000000000000815260040180806020018281038252602e815260200180612ccf602e913960400191505060405180910390fd5b6123238114611859576040517f08c379a0000000000000000000000000000000000000000000000000000000008152600401808060200182810382526023815260200180612cfd6023913960400191505060405180910390fd5b60016002600087815260200190815260200160002060006101000a81548160ff021916908315150217905550600660009054906101000a900473ffffffffffffffffffffffffffffffffffffffff1673ffffffffffffffffffffffffffffffffffffffff1663a9059cbb85846040518363ffffffff1660e01b8152600401808373ffffffffffffffffffffffffffffffffffffffff1673ffffffffffffffffffffffffffffffffffffffff16815260200182815260200192505050602060405180830381600087803b15801561192e57600080fd5b505af1158015611942573d6000803e3d6000fd5b505050506040513d602081101561195857600080fd5b8101908080519060200190929190505050505050505050505050505050505050565b606060048054806020026020016040519081016040528092919081815260200182805480156119fe57602002820191906000526020600020905b8160009054906101000a900473ffffffffffffffffffffffffffffffffffffffff1673ffffffffffffffffffffffffffffffffffffffff16815260200190600101908083116119b4575b5050505050905090565b60005481565b60606003805480602002602001604051908101604052809291908181526020018280548015611a9257602002820191906000526020600020905b8160009054906101000a900473ffffffffffffffffffffffffffffffffffffffff1673ffffffffffffffffffffffffffffffffffffffff1681526020019060010190808311611a48575b5050505050905090565b60016020528060005260406000206000915054906101000a900460ff1681565b600660009054906101000a900473ffffffffffffffffffffffffffffffffffffffff1681565b611aea612c9a565b600060208301905060405180604001604052808451815260200182815250915050919050565b6060611b1b826123ba565b611b2457600080fd5b6000611b2f83612408565b9050606081604051908082528060200260200182016040528015611b6d57816020015b611b5a612cb4565b815260200190600190039081611b525790505b5090506000611b7f8560200151612479565b8560200151019050600080600090505b84811015611be057611ba083612502565b9150604051806040016040528083815260200184815250848281518110611bc357fe5b602002602001018190525081830192508080600101915050611b8f565b5082945050505050919050565b60006015826000015114611c0057600080fd5b611c0982611c10565b9050919050565b6000808260000151118015611c2a57506021826000015111155b611c3357600080fd5b6000611c428360200151612479565b90506000818460000151039050600080838660200151019050805191506020831015611c7557826020036101000a820491505b81945050505050919050565b6000611c8c82611c10565b60001b9050919050565b606080611ca2836125ba565b9050600080600090505b8251811015611d2f57600060f81b7effffffffffffffffffffffffffffffffffffffffffffffffffffffffffffff1916838281518110611ce857fe5b602001015160f81c60f81b7effffffffffffffffffffffffffffffffffffffffffffffffffffffffffffff191614611d2257809150611d2f565b8080600101915050611cac565b50806020036040519080825280601f01601f191660200182016040528015611d665781602001600182028036833780820191505090505b50925060008190505b8251811015611dd957828181518110611d8457fe5b602001015160f81c60f81b8483830381518110611d9d57fe5b60200101907effffffffffffffffffffffffffffffffffffffffffffffffffffffffffffff1916908160001a9053508080600101915050611d6f565b505050919050565b60606000826000015111611df457600080fd5b6000611e038360200151612479565b905060008184600001510390506060816040519080825280601f01601f191660200182016040528015611e455781602001600182028036833780820191505090505b5090506000816020019050611e618487602001510182856125fe565b81945050505050919050565b60608060008090505b8351811015611eb357611ea482611e9f868481518110611e9257fe5b6020026020010151612665565b612701565b91508080600101915050611e76565b50611ec9611ec3825160c061278b565b82612701565b915050919050565b6000806005805490501415611ee95760009050611f3e565b600560016005805490500381548110611efe57fe5b90600052602060002090600402016001015460020a600560016005805490500381548110611f2857fe5b9060005260206000209060040201600001540190505b90565b60608082600001516040519080825280601f01601f191660200182016040528015611f7b5781602001600182028036833780820191505090505b509050600081511415611f915780915050611fb2565b6000816020019050611fac84602001518286600001516125fe565b81925050505b919050565b60606000821415611fff576040518060400160405280600181526020017f300000000000000000000000000000000000000000000000000000000000000081525090506120df565b600082905060005b60008214612029578080600101915050600a828161202157fe5b049150612007565b6060816040519080825280601f01601f19166020018201604052801561205e5781602001600182028036833780820191505090505b50905060006001830390505b600086146120d757600a868161207c57fe5b0660300160f81b8282806001900393508151811061209657fe5b60200101907effffffffffffffffffffffffffffffffffffffffffffffffffffffffffffff1916908160001a905350600a86816120cf57fe5b04955061206a565b819450505050505b919050565b60006120ee612c9a565b6120f784611ae2565b9050606061210482611b10565b905060608060008690506000809050606061211e8b61287d565b905060008151141561213a5760009750505050505050506123b2565b60008090505b86518110156123a9578151831115612163576000985050505050505050506123b2565b61217f87828151811061217257fe5b6020026020010151611f41565b9550858051906020012084146121a0576000985050505050505050506123b2565b6121bc8782815181106121af57fe5b6020026020010151611b10565b9450601185511415612291578151831415612225578c805190602001206121f6866010815181106121e957fe5b6020026020010151611de1565b805190602001201415612214576001985050505050505050506123b2565b6000985050505050505050506123b2565b600082848151811061223357fe5b602001015160f81c60f81b60f81c905060108160ff16111561226157600099505050505050505050506123b2565b612280868260ff168151811061227357fe5b6020026020010151612a04565b60001b94506001840193505061239c565b60028551141561238a576122c26122bb866000815181106122ae57fe5b6020026020010151611de1565b8385612a32565b830192508151831415612323578c805190602001206122f4866001815181106122e757fe5b6020026020010151611de1565b805190602001201415612312576001985050505050505050506123b2565b6000985050505050505050506123b2565b600061234c6123458760008151811061233857fe5b6020026020010151611de1565b8486612a32565b1415612363576000985050505050505050506123b2565b6123808560018151811061237357fe5b6020026020010151612a04565b60001b935061239b565b6000985050505050505050506123b2565b5b8080600101915050612140565b50505050505050505b949350505050565b600080826000015114156123d15760009050612403565b60008083602001519050805160001a915060c060ff168260ff1610156123fc57600092505050612403565b6001925050505b919050565b6000808260000151141561241f5760009050612474565b600080905060006124338460200151612479565b84602001510190506000846000015185602001510190505b8082101561246d5761245c82612502565b82019150828060010193505061244b565b8293505050505b919050565b600080825160001a9050608060ff168110156124995760009150506124fd565b60b860ff168110806124be575060c060ff1681101580156124bd575060f860ff1681105b5b156124cd5760019150506124fd565b60c060ff168110156124ed5760018060b80360ff168203019150506124fd565b60018060f80360ff168203019150505b919050565b6000806000835160001a9050608060ff1681101561252357600191506125b0565b60b860ff16811015612540576001608060ff1682030191506125af565b60c060ff168110156125705760b78103600185019450806020036101000a855104600182018101935050506125ae565b60f860ff1681101561258d57600160c060ff1682030191506125ad565b60f78103600185019450806020036101000a855104600182018101935050505b5b5b5b8192505050919050565b606060206040519080825280601f01601f1916602001820160405280156125f05781602001600182028036833780820191505090505b509050816020820152919050565b600081141561260c57612660565b5b602060ff16811061263c5782518252602060ff1683019250602060ff1682019150602060ff168103905061260d565b6000600182602060ff16036101000a03905080198451168184511681811785525050505b505050565b6060806001835114801561269c5750608060ff60f81b8460008151811061268857fe5b602001015160f81c60f81b1660f81c60ff16105b156126e05760016040519080825280601f01601f1916602001820160405280156126d55781602001600182028036833780820191505090505b5090508290506126f8565b6126f56126ef8451608061278b565b84612701565b90505b80915050919050565b6060806040519050835180825260208201818101602087015b81831015612737578051835260208301925060208101905061271a565b50855192508351830184528091508282019050602086015b8183101561276c578051835260208301925060208101905061274f565b50601f19601f8851850115830101166040525050508091505092915050565b6060603883101561281a57606060016040519080825280601f01601f1916602001820160405280156127cc5781602001600182028036833780820191505090505b50905082840160f81b816000815181106127e257fe5b60200101907effffffffffffffffffffffffffffffffffffffffffffffffffffffffffffff1916908160001a90535080915050612877565b600080600190505b600081868161282d57fe5b041461284757818060010192505061010081029050612822565b6060612857836037870101612b25565b9050606061286487612b25565b90506128708282612701565b9450505050505b92915050565b6060806000835111156129fb57600080612898600086612be6565b60f81c905060018160ff1614806128b2575060038160ff16145b1561294a5760016002865102036040519080825280601f01601f1916602001820160405280156128f15781602001600182028036833780820191505090505b5092506000612901600187612be6565b9050808460008151811061291157fe5b60200101907effffffffffffffffffffffffffffffffffffffffffffffffffffffffffffff1916908160001a905350600192505061298b565b600280865102036040519080825280601f01601f1916602001820160405280156129835781602001600182028036833780820191505090505b509250600091505b60008260ff1690505b83518110156129f7576129af60028460ff1683030187612be6565b8482815181106129bb57fe5b60200101907effffffffffffffffffffffffffffffffffffffffffffffffffffffffffffff1916908160001a9053508080600101915050612994565b5050505b80915050919050565b60006021826000015114612a1757600080fd5b60008060018460200151019050805191508192505050919050565b6000806060612a408661287d565b9050606081516040519080825280601f01601f191660200182016040528015612a785781602001600182028036833780820191505090505b50905060008590505b82518601811015612af3576000878281518110612a9a57fe5b602001015160f81c60f81b9050808388840381518110612ab657fe5b60200101907effffffffffffffffffffffffffffffffffffffffffffffffffffffffffffff1916908160001a905350508080600101915050612a81565b50808051906020012082805190602001201415612b135781519250612b18565b600092505b8293505050509392505050565b606060006001905060ff831115612b3b57600290505b806040519080825280601f01601f191660200182016040528015612b6e5781602001600182028036833780820191505090505b50915060008090505b81811015612bdf5780600183030360080260020a8481612b9357fe5b0460f81b838281518110612ba357fe5b60200101907effffffffffffffffffffffffffffffffffffffffffffffffffffffffffffff1916908160001a9053508080600101915050612b77565b5050919050565b60008060028481612bf357fe5b0614612c2f5760108260028581612c0657fe5b0481518110612c1157fe5b602001015160f81c60f81b60f81c60ff1681612c2957fe5b06612c61565b60108260028581612c3c57fe5b0481518110612c4757fe5b602001015160f81c60f81b60f81c60ff1681612c5f57fe5b045b60f81b905092915050565b6040518060800160405280600081526020016000815260200160008019168152602001600080191681525090565b604051806040016040528060008152602001600081525090565b60405180604001604052806000815260200160008152509056fe7472616e736665722073686f756c64206265206d61646520746f2045534e204465706f7369742041646472657373696e76616c696420636861696e206964206f6620746865207472616e73616374696f6e416c72656164792070726f636573736564207769746864726177616c20666f722074686973207472616e73616374696f6ea264697066735822122025dabe2ec0b678833eb40d3f78c43ee611fb23632bfd5bb38f0cd21cbeb1e14a64736f6c63430006030033","opcodes":"PUSH1 0x80 PUSH1 0x40 MSTORE CALLVALUE DUP1 ISZERO PUSH3 0x11 JUMPI PUSH1 0x0 DUP1 REVERT JUMPDEST POP PUSH1 0x40 MLOAD PUSH3 0x303F CODESIZE SUB DUP1 PUSH3 0x303F DUP4 CODECOPY DUP2 DUP2 ADD PUSH1 0x40 MSTORE PUSH1 0x40 DUP2 LT ISZERO PUSH3 0x37 JUMPI PUSH1 0x0 DUP1 REVERT JUMPDEST DUP2 ADD SWAP1 DUP1 DUP1 MLOAD PUSH1 0x40 MLOAD SWAP4 SWAP3 SWAP2 SWAP1 DUP5 PUSH5 0x100000000 DUP3 GT ISZERO PUSH3 0x58 JUMPI PUSH1 0x0 DUP1 REVERT JUMPDEST DUP4 DUP3 ADD SWAP2 POP PUSH1 0x20 DUP3 ADD DUP6 DUP2 GT ISZERO PUSH3 0x6F JUMPI PUSH1 0x0 DUP1 REVERT JUMPDEST DUP3 MLOAD DUP7 PUSH1 0x20 DUP3 MUL DUP4 ADD GT PUSH5 0x100000000 DUP3 GT OR ISZERO PUSH3 0x8D JUMPI PUSH1 0x0 DUP1 REVERT JUMPDEST DUP1 DUP4 MSTORE PUSH1 0x20 DUP4 ADD SWAP3 POP POP POP SWAP1 DUP1 MLOAD SWAP1 PUSH1 0x20 ADD SWAP1 PUSH1 0x20 MUL DUP1 DUP4 DUP4 PUSH1 0x0 JUMPDEST DUP4 DUP2 LT ISZERO PUSH3 0xC6 JUMPI DUP1 DUP3 ADD MLOAD DUP2 DUP5 ADD MSTORE PUSH1 0x20 DUP2 ADD SWAP1 POP PUSH3 0xA9 JUMP JUMPDEST POP POP POP POP SWAP1 POP ADD PUSH1 0x40 MSTORE PUSH1 0x20 ADD DUP1 MLOAD SWAP1 PUSH1 0x20 ADD SWAP1 SWAP3 SWAP2 SWAP1 POP POP POP PUSH1 0x0 DUP1 SWAP1 POP JUMPDEST DUP3 MLOAD DUP2 LT ISZERO PUSH3 0x169 JUMPI PUSH1 0x1 DUP1 PUSH1 0x0 DUP6 DUP5 DUP2 MLOAD DUP2 LT PUSH3 0x102 JUMPI INVALID JUMPDEST PUSH1 0x20 MUL PUSH1 0x20 ADD ADD MLOAD PUSH20 0xFFFFFFFFFFFFFFFFFFFFFFFFFFFFFFFFFFFFFFFF AND PUSH20 0xFFFFFFFFFFFFFFFFFFFFFFFFFFFFFFFFFFFFFFFF AND DUP2 MSTORE PUSH1 0x20 ADD SWAP1 DUP2 MSTORE PUSH1 0x20 ADD PUSH1 0x0 KECCAK256 PUSH1 0x0 PUSH2 0x100 EXP DUP2 SLOAD DUP2 PUSH1 0xFF MUL NOT AND SWAP1 DUP4 ISZERO ISZERO MUL OR SWAP1 SSTORE POP DUP1 DUP1 PUSH1 0x1 ADD SWAP2 POP POP PUSH3 0xE6 JUMP JUMPDEST POP DUP2 MLOAD PUSH1 0x0 DUP2 SWAP1 SSTORE POP DUP2 PUSH1 0x3 SWAP1 DUP1 MLOAD SWAP1 PUSH1 0x20 ADD SWAP1 PUSH3 0x18A SWAP3 SWAP2 SWAP1 PUSH3 0x1D4 JUMP JUMPDEST POP DUP1 PUSH1 0x6 PUSH1 0x0 PUSH2 0x100 EXP DUP2 SLOAD DUP2 PUSH20 0xFFFFFFFFFFFFFFFFFFFFFFFFFFFFFFFFFFFFFFFF MUL NOT AND SWAP1 DUP4 PUSH20 0xFFFFFFFFFFFFFFFFFFFFFFFFFFFFFFFFFFFFFFFF AND MUL OR SWAP1 SSTORE POP POP POP PUSH3 0x2A9 JUMP JUMPDEST DUP3 DUP1 SLOAD DUP3 DUP3 SSTORE SWAP1 PUSH1 0x0 MSTORE PUSH1 0x20 PUSH1 0x0 KECCAK256 SWAP1 DUP2 ADD SWAP3 DUP3 ISZERO PUSH3 0x250 JUMPI SWAP2 PUSH1 0x20 MUL DUP3 ADD JUMPDEST DUP3 DUP2 GT ISZERO PUSH3 0x24F JUMPI DUP3 MLOAD DUP3 PUSH1 0x0 PUSH2 0x100 EXP DUP2 SLOAD DUP2 PUSH20 0xFFFFFFFFFFFFFFFFFFFFFFFFFFFFFFFFFFFFFFFF MUL NOT AND SWAP1 DUP4 PUSH20 0xFFFFFFFFFFFFFFFFFFFFFFFFFFFFFFFFFFFFFFFF AND MUL OR SWAP1 SSTORE POP SWAP2 PUSH1 0x20 ADD SWAP2 SWAP1 PUSH1 0x1 ADD SWAP1 PUSH3 0x1F5 JUMP JUMPDEST JUMPDEST POP SWAP1 POP PUSH3 0x25F SWAP2 SWAP1 PUSH3 0x263 JUMP JUMPDEST POP SWAP1 JUMP JUMPDEST PUSH3 0x2A6 SWAP2 SWAP1 JUMPDEST DUP1 DUP3 GT ISZERO PUSH3 0x2A2 JUMPI PUSH1 0x0 DUP2 DUP2 PUSH2 0x100 EXP DUP2 SLOAD SWAP1 PUSH20 0xFFFFFFFFFFFFFFFFFFFFFFFFFFFFFFFFFFFFFFFF MUL NOT AND SWAP1 SSTORE POP PUSH1 0x1 ADD PUSH3 0x26A JUMP JUMPDEST POP SWAP1 JUMP JUMPDEST SWAP1 JUMP JUMPDEST PUSH2 0x2D86 DUP1 PUSH3 0x2B9 PUSH1 0x0 CODECOPY PUSH1 0x0 RETURN INVALID PUSH1 0x80 PUSH1 0x40 MSTORE CALLVALUE DUP1 ISZERO PUSH2 0x10 JUMPI PUSH1 0x0 DUP1 REVERT JUMPDEST POP PUSH1 0x4 CALLDATASIZE LT PUSH2 0x10B JUMPI PUSH1 0x0 CALLDATALOAD PUSH1 0xE0 SHR DUP1 PUSH4 0x76F5E6DA GT PUSH2 0xA2 JUMPI DUP1 PUSH4 0xD42F2F35 GT PUSH2 0x71 JUMPI DUP1 PUSH4 0xD42F2F35 EQ PUSH2 0x6FC JUMPI DUP1 PUSH4 0xD6832EA9 EQ PUSH2 0x75B JUMPI DUP1 PUSH4 0xF3513A37 EQ PUSH2 0x779 JUMPI DUP1 PUSH4 0xFACD743B EQ PUSH2 0x7D8 JUMPI DUP1 PUSH4 0xFC0C546A EQ PUSH2 0x834 JUMPI PUSH2 0x10B JUMP JUMPDEST DUP1 PUSH4 0x76F5E6DA EQ PUSH2 0x4FC JUMPI DUP1 PUSH4 0x974275CF EQ PUSH2 0x5B7 JUMPI DUP1 PUSH4 0xBF49D631 EQ PUSH2 0x5FB JUMPI DUP1 PUSH4 0xCA5D0926 EQ PUSH2 0x641 JUMPI PUSH2 0x10B JUMP JUMPDEST DUP1 PUSH4 0x2CEEA82A GT PUSH2 0xDE JUMPI DUP1 PUSH4 0x2CEEA82A EQ PUSH2 0x2DD JUMPI DUP1 PUSH4 0x35AA2E44 EQ PUSH2 0x2FB JUMPI DUP1 PUSH4 0x6750D35B EQ PUSH2 0x369 JUMPI DUP1 PUSH4 0x75080DE8 EQ PUSH2 0x4A5 JUMPI PUSH2 0x10B JUMP JUMPDEST DUP1 PUSH4 0xA917B15 EQ PUSH2 0x110 JUMPI DUP1 PUSH4 0x15C09850 EQ PUSH2 0x134 JUMPI DUP1 PUSH4 0x2079FB9A EQ PUSH2 0x17E JUMPI DUP1 PUSH4 0x255032AB EQ PUSH2 0x1EC JUMPI JUMPDEST PUSH1 0x0 DUP1 REVERT JUMPDEST PUSH2 0x118 PUSH2 0x87E JUMP JUMPDEST PUSH1 0x40 MLOAD DUP1 DUP3 PUSH1 0xFF AND PUSH1 0xFF AND DUP2 MSTORE PUSH1 0x20 ADD SWAP2 POP POP PUSH1 0x40 MLOAD DUP1 SWAP2 SUB SWAP1 RETURN JUMPDEST PUSH2 0x13C PUSH2 0x891 JUMP JUMPDEST PUSH1 0x40 MLOAD DUP1 DUP3 PUSH20 0xFFFFFFFFFFFFFFFFFFFFFFFFFFFFFFFFFFFFFFFF AND PUSH20 0xFFFFFFFFFFFFFFFFFFFFFFFFFFFFFFFFFFFFFFFF AND DUP2 MSTORE PUSH1 0x20 ADD SWAP2 POP POP PUSH1 0x40 MLOAD DUP1 SWAP2 SUB SWAP1 RETURN JUMPDEST PUSH2 0x1AA PUSH1 0x4 DUP1 CALLDATASIZE SUB PUSH1 0x20 DUP2 LT ISZERO PUSH2 0x194 JUMPI PUSH1 0x0 DUP1 REVERT JUMPDEST DUP2 ADD SWAP1 DUP1 DUP1 CALLDATALOAD SWAP1 PUSH1 0x20 ADD SWAP1 SWAP3 SWAP2 SWAP1 POP POP POP PUSH2 0x8B7 JUMP JUMPDEST PUSH1 0x40 MLOAD DUP1 DUP3 PUSH20 0xFFFFFFFFFFFFFFFFFFFFFFFFFFFFFFFFFFFFFFFF AND PUSH20 0xFFFFFFFFFFFFFFFFFFFFFFFFFFFFFFFFFFFFFFFF AND DUP2 MSTORE PUSH1 0x20 ADD SWAP2 POP POP PUSH1 0x40 MLOAD DUP1 SWAP2 SUB SWAP1 RETURN JUMPDEST PUSH2 0x2C3 PUSH1 0x4 DUP1 CALLDATASIZE SUB PUSH1 0x80 DUP2 LT ISZERO PUSH2 0x202 JUMPI PUSH1 0x0 DUP1 REVERT JUMPDEST DUP2 ADD SWAP1 DUP1 DUP1 CALLDATALOAD SWAP1 PUSH1 0x20 ADD SWAP1 SWAP3 SWAP2 SWAP1 DUP1 CALLDATALOAD SWAP1 PUSH1 0x20 ADD SWAP1 SWAP3 SWAP2 SWAP1 DUP1 CALLDATALOAD SWAP1 PUSH1 0x20 ADD SWAP1 SWAP3 SWAP2 SWAP1 DUP1 CALLDATALOAD SWAP1 PUSH1 0x20 ADD SWAP1 PUSH5 0x100000000 DUP2 GT ISZERO PUSH2 0x23D JUMPI PUSH1 0x0 DUP1 REVERT JUMPDEST DUP3 ADD DUP4 PUSH1 0x20 DUP3 ADD GT ISZERO PUSH2 0x24F JUMPI PUSH1 0x0 DUP1 REVERT JUMPDEST DUP1 CALLDATALOAD SWAP1 PUSH1 0x20 ADD SWAP2 DUP5 PUSH1 0x1 DUP4 MUL DUP5 ADD GT PUSH5 0x100000000 DUP4 GT OR ISZERO PUSH2 0x271 JUMPI PUSH1 0x0 DUP1 REVERT JUMPDEST SWAP2 SWAP1 DUP1 DUP1 PUSH1 0x1F ADD PUSH1 0x20 DUP1 SWAP2 DIV MUL PUSH1 0x20 ADD PUSH1 0x40 MLOAD SWAP1 DUP2 ADD PUSH1 0x40 MSTORE DUP1 SWAP4 SWAP3 SWAP2 SWAP1 DUP2 DUP2 MSTORE PUSH1 0x20 ADD DUP4 DUP4 DUP1 DUP3 DUP5 CALLDATACOPY PUSH1 0x0 DUP2 DUP5 ADD MSTORE PUSH1 0x1F NOT PUSH1 0x1F DUP3 ADD AND SWAP1 POP DUP1 DUP4 ADD SWAP3 POP POP POP POP POP POP POP SWAP2 SWAP3 SWAP2 SWAP3 SWAP1 POP POP POP PUSH2 0x8F3 JUMP JUMPDEST PUSH1 0x40 MLOAD DUP1 DUP3 ISZERO ISZERO ISZERO ISZERO DUP2 MSTORE PUSH1 0x20 ADD SWAP2 POP POP PUSH1 0x40 MLOAD DUP1 SWAP2 SUB SWAP1 RETURN JUMPDEST PUSH2 0x2E5 PUSH2 0xA3A JUMP JUMPDEST PUSH1 0x40 MLOAD DUP1 DUP3 DUP2 MSTORE PUSH1 0x20 ADD SWAP2 POP POP PUSH1 0x40 MLOAD DUP1 SWAP2 SUB SWAP1 RETURN JUMPDEST PUSH2 0x327 PUSH1 0x4 DUP1 CALLDATASIZE SUB PUSH1 0x20 DUP2 LT ISZERO PUSH2 0x311 JUMPI PUSH1 0x0 DUP1 REVERT JUMPDEST DUP2 ADD SWAP1 DUP1 DUP1 CALLDATALOAD SWAP1 PUSH1 0x20 ADD SWAP1 SWAP3 SWAP2 SWAP1 POP POP POP PUSH2 0xA47 JUMP JUMPDEST PUSH1 0x40 MLOAD DUP1 DUP3 PUSH20 0xFFFFFFFFFFFFFFFFFFFFFFFFFFFFFFFFFFFFFFFF AND PUSH20 0xFFFFFFFFFFFFFFFFFFFFFFFFFFFFFFFFFFFFFFFF AND DUP2 MSTORE PUSH1 0x20 ADD SWAP2 POP POP PUSH1 0x40 MLOAD DUP1 SWAP2 SUB SWAP1 RETURN JUMPDEST PUSH2 0x422 PUSH1 0x4 DUP1 CALLDATASIZE SUB PUSH1 0x20 DUP2 LT ISZERO PUSH2 0x37F JUMPI PUSH1 0x0 DUP1 REVERT JUMPDEST DUP2 ADD SWAP1 DUP1 DUP1 CALLDATALOAD SWAP1 PUSH1 0x20 ADD SWAP1 PUSH5 0x100000000 DUP2 GT ISZERO PUSH2 0x39C JUMPI PUSH1 0x0 DUP1 REVERT JUMPDEST DUP3 ADD DUP4 PUSH1 0x20 DUP3 ADD GT ISZERO PUSH2 0x3AE JUMPI PUSH1 0x0 DUP1 REVERT JUMPDEST DUP1 CALLDATALOAD SWAP1 PUSH1 0x20 ADD SWAP2 DUP5 PUSH1 0x1 DUP4 MUL DUP5 ADD GT PUSH5 0x100000000 DUP4 GT OR ISZERO PUSH2 0x3D0 JUMPI PUSH1 0x0 DUP1 REVERT JUMPDEST SWAP2 SWAP1 DUP1 DUP1 PUSH1 0x1F ADD PUSH1 0x20 DUP1 SWAP2 DIV MUL PUSH1 0x20 ADD PUSH1 0x40 MLOAD SWAP1 DUP2 ADD PUSH1 0x40 MSTORE DUP1 SWAP4 SWAP3 SWAP2 SWAP1 DUP2 DUP2 MSTORE PUSH1 0x20 ADD DUP4 DUP4 DUP1 DUP3 DUP5 CALLDATACOPY PUSH1 0x0 DUP2 DUP5 ADD MSTORE PUSH1 0x1F NOT PUSH1 0x1F DUP3 ADD AND SWAP1 POP DUP1 DUP4 ADD SWAP3 POP POP POP POP POP POP POP SWAP2 SWAP3 SWAP2 SWAP3 SWAP1 POP POP POP PUSH2 0xA83 JUMP JUMPDEST PUSH1 0x40 MLOAD DUP1 DUP6 PUSH20 0xFFFFFFFFFFFFFFFFFFFFFFFFFFFFFFFFFFFFFFFF AND PUSH20 0xFFFFFFFFFFFFFFFFFFFFFFFFFFFFFFFFFFFFFFFF AND DUP2 MSTORE PUSH1 0x20 ADD DUP5 PUSH20 0xFFFFFFFFFFFFFFFFFFFFFFFFFFFFFFFFFFFFFFFF AND PUSH20 0xFFFFFFFFFFFFFFFFFFFFFFFFFFFFFFFFFFFFFFFF AND DUP2 MSTORE PUSH1 0x20 ADD DUP4 DUP2 MSTORE PUSH1 0x20 ADD DUP3 DUP2 MSTORE PUSH1 0x20 ADD SWAP5 POP POP POP POP POP PUSH1 0x40 MLOAD DUP1 SWAP2 SUB SWAP1 RETURN JUMPDEST PUSH2 0x4D1 PUSH1 0x4 DUP1 CALLDATASIZE SUB PUSH1 0x20 DUP2 LT ISZERO PUSH2 0x4BB JUMPI PUSH1 0x0 DUP1 REVERT JUMPDEST DUP2 ADD SWAP1 DUP1 DUP1 CALLDATALOAD SWAP1 PUSH1 0x20 ADD SWAP1 SWAP3 SWAP2 SWAP1 POP POP POP PUSH2 0xD0E JUMP JUMPDEST PUSH1 0x40 MLOAD DUP1 DUP6 DUP2 MSTORE PUSH1 0x20 ADD DUP5 DUP2 MSTORE PUSH1 0x20 ADD DUP4 DUP2 MSTORE PUSH1 0x20 ADD DUP3 DUP2 MSTORE PUSH1 0x20 ADD SWAP5 POP POP POP POP POP PUSH1 0x40 MLOAD DUP1 SWAP2 SUB SWAP1 RETURN JUMPDEST PUSH2 0x5B5 PUSH1 0x4 DUP1 CALLDATASIZE SUB PUSH1 0x20 DUP2 LT ISZERO PUSH2 0x512 JUMPI PUSH1 0x0 DUP1 REVERT JUMPDEST DUP2 ADD SWAP1 DUP1 DUP1 CALLDATALOAD SWAP1 PUSH1 0x20 ADD SWAP1 PUSH5 0x100000000 DUP2 GT ISZERO PUSH2 0x52F JUMPI PUSH1 0x0 DUP1 REVERT JUMPDEST DUP3 ADD DUP4 PUSH1 0x20 DUP3 ADD GT ISZERO PUSH2 0x541 JUMPI PUSH1 0x0 DUP1 REVERT JUMPDEST DUP1 CALLDATALOAD SWAP1 PUSH1 0x20 ADD SWAP2 DUP5 PUSH1 0x1 DUP4 MUL DUP5 ADD GT PUSH5 0x100000000 DUP4 GT OR ISZERO PUSH2 0x563 JUMPI PUSH1 0x0 DUP1 REVERT JUMPDEST SWAP2 SWAP1 DUP1 DUP1 PUSH1 0x1F ADD PUSH1 0x20 DUP1 SWAP2 DIV MUL PUSH1 0x20 ADD PUSH1 0x40 MLOAD SWAP1 DUP2 ADD PUSH1 0x40 MSTORE DUP1 SWAP4 SWAP3 SWAP2 SWAP1 DUP2 DUP2 MSTORE PUSH1 0x20 ADD DUP4 DUP4 DUP1 DUP3 DUP5 CALLDATACOPY PUSH1 0x0 DUP2 DUP5 ADD MSTORE PUSH1 0x1F NOT PUSH1 0x1F DUP3 ADD AND SWAP1 POP DUP1 DUP4 ADD SWAP3 POP POP POP POP POP POP POP SWAP2 SWAP3 SWAP2 SWAP3 SWAP1 POP POP POP PUSH2 0xD4B JUMP JUMPDEST STOP JUMPDEST PUSH2 0x5F9 PUSH1 0x4 DUP1 CALLDATASIZE SUB PUSH1 0x20 DUP2 LT ISZERO PUSH2 0x5CD JUMPI PUSH1 0x0 DUP1 REVERT JUMPDEST DUP2 ADD SWAP1 DUP1 DUP1 CALLDATALOAD PUSH20 0xFFFFFFFFFFFFFFFFFFFFFFFFFFFFFFFFFFFFFFFF AND SWAP1 PUSH1 0x20 ADD SWAP1 SWAP3 SWAP2 SWAP1 POP POP POP PUSH2 0x1425 JUMP JUMPDEST STOP JUMPDEST PUSH2 0x627 PUSH1 0x4 DUP1 CALLDATASIZE SUB PUSH1 0x20 DUP2 LT ISZERO PUSH2 0x611 JUMPI PUSH1 0x0 DUP1 REVERT JUMPDEST DUP2 ADD SWAP1 DUP1 DUP1 CALLDATALOAD SWAP1 PUSH1 0x20 ADD SWAP1 SWAP3 SWAP2 SWAP1 POP POP POP PUSH2 0x1469 JUMP JUMPDEST PUSH1 0x40 MLOAD DUP1 DUP3 ISZERO ISZERO ISZERO ISZERO DUP2 MSTORE PUSH1 0x20 ADD SWAP2 POP POP PUSH1 0x40 MLOAD DUP1 SWAP2 SUB SWAP1 RETURN JUMPDEST PUSH2 0x6FA PUSH1 0x4 DUP1 CALLDATASIZE SUB PUSH1 0x20 DUP2 LT ISZERO PUSH2 0x657 JUMPI PUSH1 0x0 DUP1 REVERT JUMPDEST DUP2 ADD SWAP1 DUP1 DUP1 CALLDATALOAD SWAP1 PUSH1 0x20 ADD SWAP1 PUSH5 0x100000000 DUP2 GT ISZERO PUSH2 0x674 JUMPI PUSH1 0x0 DUP1 REVERT JUMPDEST DUP3 ADD DUP4 PUSH1 0x20 DUP3 ADD GT ISZERO PUSH2 0x686 JUMPI PUSH1 0x0 DUP1 REVERT JUMPDEST DUP1 CALLDATALOAD SWAP1 PUSH1 0x20 ADD SWAP2 DUP5 PUSH1 0x1 DUP4 MUL DUP5 ADD GT PUSH5 0x100000000 DUP4 GT OR ISZERO PUSH2 0x6A8 JUMPI PUSH1 0x0 DUP1 REVERT JUMPDEST SWAP2 SWAP1 DUP1 DUP1 PUSH1 0x1F ADD PUSH1 0x20 DUP1 SWAP2 DIV MUL PUSH1 0x20 ADD PUSH1 0x40 MLOAD SWAP1 DUP2 ADD PUSH1 0x40 MSTORE DUP1 SWAP4 SWAP3 SWAP2 SWAP1 DUP2 DUP2 MSTORE PUSH1 0x20 ADD DUP4 DUP4 DUP1 DUP3 DUP5 CALLDATACOPY PUSH1 0x0 DUP2 DUP5 ADD MSTORE PUSH1 0x1F NOT PUSH1 0x1F DUP3 ADD AND SWAP1 POP DUP1 DUP4 ADD SWAP3 POP POP POP POP POP POP POP SWAP2 SWAP3 SWAP2 SWAP3 SWAP1 POP POP POP PUSH2 0x1489 JUMP JUMPDEST STOP JUMPDEST PUSH2 0x704 PUSH2 0x197A JUMP JUMPDEST PUSH1 0x40 MLOAD DUP1 DUP1 PUSH1 0x20 ADD DUP3 DUP2 SUB DUP3 MSTORE DUP4 DUP2 DUP2 MLOAD DUP2 MSTORE PUSH1 0x20 ADD SWAP2 POP DUP1 MLOAD SWAP1 PUSH1 0x20 ADD SWAP1 PUSH1 0x20 MUL DUP1 DUP4 DUP4 PUSH1 0x0 JUMPDEST DUP4 DUP2 LT ISZERO PUSH2 0x747 JUMPI DUP1 DUP3 ADD MLOAD DUP2 DUP5 ADD MSTORE PUSH1 0x20 DUP2 ADD SWAP1 POP PUSH2 0x72C JUMP JUMPDEST POP POP POP POP SWAP1 POP ADD SWAP3 POP POP POP PUSH1 0x40 MLOAD DUP1 SWAP2 SUB SWAP1 RETURN JUMPDEST PUSH2 0x763 PUSH2 0x1A08 JUMP JUMPDEST PUSH1 0x40 MLOAD DUP1 DUP3 DUP2 MSTORE PUSH1 0x20 ADD SWAP2 POP POP PUSH1 0x40 MLOAD DUP1 SWAP2 SUB SWAP1 RETURN JUMPDEST PUSH2 0x781 PUSH2 0x1A0E JUMP JUMPDEST PUSH1 0x40 MLOAD DUP1 DUP1 PUSH1 0x20 ADD DUP3 DUP2 SUB DUP3 MSTORE DUP4 DUP2 DUP2 MLOAD DUP2 MSTORE PUSH1 0x20 ADD SWAP2 POP DUP1 MLOAD SWAP1 PUSH1 0x20 ADD SWAP1 PUSH1 0x20 MUL DUP1 DUP4 DUP4 PUSH1 0x0 JUMPDEST DUP4 DUP2 LT ISZERO PUSH2 0x7C4 JUMPI DUP1 DUP3 ADD MLOAD DUP2 DUP5 ADD MSTORE PUSH1 0x20 DUP2 ADD SWAP1 POP PUSH2 0x7A9 JUMP JUMPDEST POP POP POP POP SWAP1 POP ADD SWAP3 POP POP POP PUSH1 0x40 MLOAD DUP1 SWAP2 SUB SWAP1 RETURN JUMPDEST PUSH2 0x81A PUSH1 0x4 DUP1 CALLDATASIZE SUB PUSH1 0x20 DUP2 LT ISZERO PUSH2 0x7EE JUMPI PUSH1 0x0 DUP1 REVERT JUMPDEST DUP2 ADD SWAP1 DUP1 DUP1 CALLDATALOAD PUSH20 0xFFFFFFFFFFFFFFFFFFFFFFFFFFFFFFFFFFFFFFFF AND SWAP1 PUSH1 0x20 ADD SWAP1 SWAP3 SWAP2 SWAP1 POP POP POP PUSH2 0x1A9C JUMP JUMPDEST PUSH1 0x40 MLOAD DUP1 DUP3 ISZERO ISZERO ISZERO ISZERO DUP2 MSTORE PUSH1 0x20 ADD SWAP2 POP POP PUSH1 0x40 MLOAD DUP1 SWAP2 SUB SWAP1 RETURN JUMPDEST PUSH2 0x83C PUSH2 0x1ABC JUMP JUMPDEST PUSH1 0x40 MLOAD DUP1 DUP3 PUSH20 0xFFFFFFFFFFFFFFFFFFFFFFFFFFFFFFFFFFFFFFFF AND PUSH20 0xFFFFFFFFFFFFFFFFFFFFFFFFFFFFFFFFFFFFFFFF AND DUP2 MSTORE PUSH1 0x20 ADD SWAP2 POP POP PUSH1 0x40 MLOAD DUP1 SWAP2 SUB SWAP1 RETURN JUMPDEST PUSH1 0x7 PUSH1 0x14 SWAP1 SLOAD SWAP1 PUSH2 0x100 EXP SWAP1 DIV PUSH1 0xFF AND DUP2 JUMP JUMPDEST PUSH1 0x7 PUSH1 0x0 SWAP1 SLOAD SWAP1 PUSH2 0x100 EXP SWAP1 DIV PUSH20 0xFFFFFFFFFFFFFFFFFFFFFFFFFFFFFFFFFFFFFFFF AND DUP2 JUMP JUMPDEST PUSH1 0x4 DUP2 DUP2 SLOAD DUP2 LT PUSH2 0x8C4 JUMPI INVALID JUMPDEST SWAP1 PUSH1 0x0 MSTORE PUSH1 0x20 PUSH1 0x0 KECCAK256 ADD PUSH1 0x0 SWAP2 POP SLOAD SWAP1 PUSH2 0x100 EXP SWAP1 DIV PUSH20 0xFFFFFFFFFFFFFFFFFFFFFFFFFFFFFFFFFFFFFFFF AND DUP2 JUMP JUMPDEST PUSH1 0x0 DUP1 PUSH1 0x0 DUP7 SWAP1 POP PUSH1 0x0 PUSH1 0x20 DUP6 MLOAD DUP2 PUSH2 0x908 JUMPI INVALID JUMPDEST MOD EQ PUSH2 0x97C JUMPI PUSH1 0x40 MLOAD PUSH32 0x8C379A000000000000000000000000000000000000000000000000000000000 DUP2 MSTORE PUSH1 0x4 ADD DUP1 DUP1 PUSH1 0x20 ADD DUP3 DUP2 SUB DUP3 MSTORE PUSH1 0x14 DUP2 MSTORE PUSH1 0x20 ADD DUP1 PUSH32 0x496E76616C69642070726F6F66206C656E677468000000000000000000000000 DUP2 MSTORE POP PUSH1 0x20 ADD SWAP2 POP POP PUSH1 0x40 MLOAD DUP1 SWAP2 SUB SWAP1 REVERT JUMPDEST PUSH1 0x0 DUP7 SWAP1 POP PUSH1 0x0 PUSH1 0x20 SWAP1 POP JUMPDEST DUP6 MLOAD DUP2 GT PUSH2 0xA29 JUMPI DUP1 DUP7 ADD MLOAD SWAP4 POP PUSH1 0x0 PUSH1 0x2 DUP4 DUP2 PUSH2 0x9A2 JUMPI INVALID JUMPDEST MOD EQ ISZERO PUSH2 0x9DF JUMPI DUP3 DUP5 PUSH1 0x40 MLOAD PUSH1 0x20 ADD DUP1 DUP4 DUP2 MSTORE PUSH1 0x20 ADD DUP3 DUP2 MSTORE PUSH1 0x20 ADD SWAP3 POP POP POP PUSH1 0x40 MLOAD PUSH1 0x20 DUP2 DUP4 SUB SUB DUP2 MSTORE SWAP1 PUSH1 0x40 MSTORE DUP1 MLOAD SWAP1 PUSH1 0x20 ADD KECCAK256 SWAP3 POP PUSH2 0xA11 JUMP JUMPDEST DUP4 DUP4 PUSH1 0x40 MLOAD PUSH1 0x20 ADD DUP1 DUP4 DUP2 MSTORE PUSH1 0x20 ADD DUP3 DUP2 MSTORE PUSH1 0x20 ADD SWAP3 POP POP POP PUSH1 0x40 MLOAD PUSH1 0x20 DUP2 DUP4 SUB SUB DUP2 MSTORE SWAP1 PUSH1 0x40 MSTORE DUP1 MLOAD SWAP1 PUSH1 0x20 ADD KECCAK256 SWAP3 POP JUMPDEST PUSH1 0x2 DUP3 DUP2 PUSH2 0xA1B JUMPI INVALID JUMPDEST DIV SWAP2 POP PUSH1 0x20 DUP2 ADD SWAP1 POP PUSH2 0x988 JUMP JUMPDEST POP DUP6 DUP3 EQ SWAP4 POP POP POP POP SWAP5 SWAP4 POP POP POP POP JUMP JUMPDEST PUSH1 0x0 PUSH1 0x5 DUP1 SLOAD SWAP1 POP SWAP1 POP SWAP1 JUMP JUMPDEST PUSH1 0x3 DUP2 DUP2 SLOAD DUP2 LT PUSH2 0xA54 JUMPI INVALID JUMPDEST SWAP1 PUSH1 0x0 MSTORE PUSH1 0x20 PUSH1 0x0 KECCAK256 ADD PUSH1 0x0 SWAP2 POP SLOAD SWAP1 PUSH2 0x100 EXP SWAP1 DIV PUSH20 0xFFFFFFFFFFFFFFFFFFFFFFFFFFFFFFFFFFFFFFFF AND DUP2 JUMP JUMPDEST PUSH1 0x0 DUP1 PUSH1 0x0 DUP1 PUSH1 0x60 PUSH2 0xA9C PUSH2 0xA97 DUP8 PUSH2 0x1AE2 JUMP JUMPDEST PUSH2 0x1B10 JUMP JUMPDEST SWAP1 POP PUSH1 0x0 PUSH2 0xABD DUP3 PUSH1 0x3 DUP2 MLOAD DUP2 LT PUSH2 0xAB0 JUMPI INVALID JUMPDEST PUSH1 0x20 MUL PUSH1 0x20 ADD ADD MLOAD PUSH2 0x1BED JUMP JUMPDEST SWAP1 POP PUSH1 0x0 PUSH2 0xADE DUP4 PUSH1 0x4 DUP2 MLOAD DUP2 LT PUSH2 0xAD1 JUMPI INVALID JUMPDEST PUSH1 0x20 MUL PUSH1 0x20 ADD ADD MLOAD PUSH2 0x1C10 JUMP JUMPDEST SWAP1 POP PUSH1 0x0 PUSH2 0xAFF DUP5 PUSH1 0x6 DUP2 MLOAD DUP2 LT PUSH2 0xAF2 JUMPI INVALID JUMPDEST PUSH1 0x20 MUL PUSH1 0x20 ADD ADD MLOAD PUSH2 0x1C10 JUMP JUMPDEST SWAP1 POP PUSH1 0x0 PUSH2 0xB20 DUP6 PUSH1 0x7 DUP2 MLOAD DUP2 LT PUSH2 0xB13 JUMPI INVALID JUMPDEST PUSH1 0x20 MUL PUSH1 0x20 ADD ADD MLOAD PUSH2 0x1C81 JUMP JUMPDEST SWAP1 POP PUSH1 0x0 PUSH2 0xB41 DUP7 PUSH1 0x8 DUP2 MLOAD DUP2 LT PUSH2 0xB34 JUMPI INVALID JUMPDEST PUSH1 0x20 MUL PUSH1 0x20 ADD ADD MLOAD PUSH2 0x1C81 JUMP JUMPDEST SWAP1 POP PUSH1 0x60 PUSH1 0x0 DUP1 PUSH1 0x1C DUP7 GT ISZERO PUSH2 0xBE5 JUMPI PUSH1 0x9 PUSH1 0x40 MLOAD SWAP1 DUP1 DUP3 MSTORE DUP1 PUSH1 0x20 MUL PUSH1 0x20 ADD DUP3 ADD PUSH1 0x40 MSTORE DUP1 ISZERO PUSH2 0xB86 JUMPI DUP2 PUSH1 0x20 ADD JUMPDEST PUSH1 0x60 DUP2 MSTORE PUSH1 0x20 ADD SWAP1 PUSH1 0x1 SWAP1 SUB SWAP1 DUP2 PUSH2 0xB71 JUMPI SWAP1 POP JUMPDEST POP SWAP3 POP PUSH1 0x0 PUSH1 0x2 DUP8 DUP2 PUSH2 0xB95 JUMPI INVALID JUMPDEST MOD EQ ISZERO PUSH2 0xBA5 JUMPI PUSH1 0x1C SWAP2 POP PUSH2 0xBAA JUMP JUMPDEST PUSH1 0x1B SWAP2 POP JUMPDEST PUSH1 0x2 PUSH1 0x8 DUP4 PUSH1 0xFF AND DUP9 SUB SUB DUP2 PUSH2 0xBBC JUMPI INVALID JUMPDEST DIV SWAP1 POP PUSH2 0xBC8 DUP2 PUSH2 0x1C96 JUMP JUMPDEST DUP4 PUSH1 0x6 DUP2 MLOAD DUP2 LT PUSH2 0xBD5 JUMPI INVALID JUMPDEST PUSH1 0x20 MUL PUSH1 0x20 ADD ADD DUP2 SWAP1 MSTORE POP PUSH2 0xC21 JUMP JUMPDEST PUSH1 0x6 PUSH1 0x40 MLOAD SWAP1 DUP1 DUP3 MSTORE DUP1 PUSH1 0x20 MUL PUSH1 0x20 ADD DUP3 ADD PUSH1 0x40 MSTORE DUP1 ISZERO PUSH2 0xC1A JUMPI DUP2 PUSH1 0x20 ADD JUMPDEST PUSH1 0x60 DUP2 MSTORE PUSH1 0x20 ADD SWAP1 PUSH1 0x1 SWAP1 SUB SWAP1 DUP2 PUSH2 0xC05 JUMPI SWAP1 POP JUMPDEST POP SWAP3 POP DUP6 SWAP2 POP JUMPDEST PUSH1 0x0 DUP1 SWAP1 POP JUMPDEST PUSH1 0x6 DUP2 LT ISZERO PUSH2 0xC70 JUMPI PUSH2 0xC4C DUP11 DUP3 DUP2 MLOAD DUP2 LT PUSH2 0xC3F JUMPI INVALID JUMPDEST PUSH1 0x20 MUL PUSH1 0x20 ADD ADD MLOAD PUSH2 0x1DE1 JUMP JUMPDEST DUP5 DUP3 DUP2 MLOAD DUP2 LT PUSH2 0xC58 JUMPI INVALID JUMPDEST PUSH1 0x20 MUL PUSH1 0x20 ADD ADD DUP2 SWAP1 MSTORE POP DUP1 DUP1 PUSH1 0x1 ADD SWAP2 POP POP PUSH2 0xC27 JUMP JUMPDEST POP PUSH1 0x60 PUSH2 0xC7C DUP5 PUSH2 0x1E6D JUMP JUMPDEST SWAP1 POP PUSH1 0x0 PUSH1 0x1 DUP3 DUP1 MLOAD SWAP1 PUSH1 0x20 ADD KECCAK256 DUP6 DUP10 DUP10 PUSH1 0x40 MLOAD PUSH1 0x0 DUP2 MSTORE PUSH1 0x20 ADD PUSH1 0x40 MSTORE PUSH1 0x40 MLOAD DUP1 DUP6 DUP2 MSTORE PUSH1 0x20 ADD DUP5 PUSH1 0xFF AND PUSH1 0xFF AND DUP2 MSTORE PUSH1 0x20 ADD DUP4 DUP2 MSTORE PUSH1 0x20 ADD DUP3 DUP2 MSTORE PUSH1 0x20 ADD SWAP5 POP POP POP POP POP PUSH1 0x20 PUSH1 0x40 MLOAD PUSH1 0x20 DUP2 SUB SWAP1 DUP1 DUP5 SUB SWAP1 DUP6 GAS STATICCALL ISZERO DUP1 ISZERO PUSH2 0xCE4 JUMPI RETURNDATASIZE PUSH1 0x0 DUP1 RETURNDATACOPY RETURNDATASIZE PUSH1 0x0 REVERT JUMPDEST POP POP POP PUSH1 0x20 PUSH1 0x40 MLOAD SUB MLOAD SWAP1 POP DUP1 DUP11 DUP11 DUP6 SWAP15 POP SWAP15 POP SWAP15 POP SWAP15 POP POP POP POP POP POP POP POP POP POP POP POP SWAP2 SWAP4 POP SWAP2 SWAP4 JUMP JUMPDEST PUSH1 0x5 DUP2 DUP2 SLOAD DUP2 LT PUSH2 0xD1B JUMPI INVALID JUMPDEST SWAP1 PUSH1 0x0 MSTORE PUSH1 0x20 PUSH1 0x0 KECCAK256 SWAP1 PUSH1 0x4 MUL ADD PUSH1 0x0 SWAP2 POP SWAP1 POP DUP1 PUSH1 0x0 ADD SLOAD SWAP1 DUP1 PUSH1 0x1 ADD SLOAD SWAP1 DUP1 PUSH1 0x2 ADD SLOAD SWAP1 DUP1 PUSH1 0x3 ADD SLOAD SWAP1 POP DUP5 JUMP JUMPDEST PUSH1 0x60 PUSH2 0xD5E PUSH2 0xD59 DUP4 PUSH2 0x1AE2 JUMP JUMPDEST PUSH2 0x1B10 JUMP JUMPDEST SWAP1 POP PUSH1 0x60 PUSH2 0xD7F DUP3 PUSH1 0x0 DUP2 MLOAD DUP2 LT PUSH2 0xD72 JUMPI INVALID JUMPDEST PUSH1 0x20 MUL PUSH1 0x20 ADD ADD MLOAD PUSH2 0x1B10 JUMP JUMPDEST SWAP1 POP PUSH1 0x4 DUP2 MLOAD EQ PUSH2 0xDF8 JUMPI PUSH1 0x40 MLOAD PUSH32 0x8C379A000000000000000000000000000000000000000000000000000000000 DUP2 MSTORE PUSH1 0x4 ADD DUP1 DUP1 PUSH1 0x20 ADD DUP3 DUP2 SUB DUP3 MSTORE PUSH1 0x20 DUP2 MSTORE PUSH1 0x20 ADD DUP1 PUSH32 0x62756E636820686561646572206D75737420686176652034206D656D62657273 DUP2 MSTORE POP PUSH1 0x20 ADD SWAP2 POP POP PUSH1 0x40 MLOAD DUP1 SWAP2 SUB SWAP1 REVERT JUMPDEST PUSH2 0xE00 PUSH2 0x2C6C JUMP JUMPDEST PUSH1 0x40 MLOAD DUP1 PUSH1 0x80 ADD PUSH1 0x40 MSTORE DUP1 PUSH2 0xE28 DUP5 PUSH1 0x0 DUP2 MLOAD DUP2 LT PUSH2 0xE1B JUMPI INVALID JUMPDEST PUSH1 0x20 MUL PUSH1 0x20 ADD ADD MLOAD PUSH2 0x1C10 JUMP JUMPDEST DUP2 MSTORE PUSH1 0x20 ADD PUSH2 0xE4A DUP5 PUSH1 0x1 DUP2 MLOAD DUP2 LT PUSH2 0xE3D JUMPI INVALID JUMPDEST PUSH1 0x20 MUL PUSH1 0x20 ADD ADD MLOAD PUSH2 0x1C10 JUMP JUMPDEST DUP2 MSTORE PUSH1 0x20 ADD PUSH2 0xE6C DUP5 PUSH1 0x2 DUP2 MLOAD DUP2 LT PUSH2 0xE5F JUMPI INVALID JUMPDEST PUSH1 0x20 MUL PUSH1 0x20 ADD ADD MLOAD PUSH2 0x1C81 JUMP JUMPDEST DUP2 MSTORE PUSH1 0x20 ADD PUSH2 0xE8E DUP5 PUSH1 0x3 DUP2 MLOAD DUP2 LT PUSH2 0xE81 JUMPI INVALID JUMPDEST PUSH1 0x20 MUL PUSH1 0x20 ADD ADD MLOAD PUSH2 0x1C81 JUMP JUMPDEST DUP2 MSTORE POP SWAP1 POP PUSH2 0xE9B PUSH2 0x1ED1 JUMP JUMPDEST DUP2 PUSH1 0x0 ADD MLOAD EQ PUSH2 0xF13 JUMPI PUSH1 0x40 MLOAD PUSH32 0x8C379A000000000000000000000000000000000000000000000000000000000 DUP2 MSTORE PUSH1 0x4 ADD DUP1 DUP1 PUSH1 0x20 ADD DUP3 DUP2 SUB DUP3 MSTORE PUSH1 0x1A DUP2 MSTORE PUSH1 0x20 ADD DUP1 PUSH32 0x696E76616C696420737461727420626C6F636B206E756D626572000000000000 DUP2 MSTORE POP PUSH1 0x20 ADD SWAP2 POP POP PUSH1 0x40 MLOAD DUP1 SWAP2 SUB SWAP1 REVERT JUMPDEST PUSH1 0x60 PUSH2 0xF32 DUP5 PUSH1 0x0 DUP2 MLOAD DUP2 LT PUSH2 0xF25 JUMPI INVALID JUMPDEST PUSH1 0x20 MUL PUSH1 0x20 ADD ADD MLOAD PUSH2 0x1F41 JUMP JUMPDEST SWAP1 POP PUSH1 0x0 PUSH1 0x40 MLOAD DUP1 PUSH1 0x40 ADD PUSH1 0x40 MSTORE DUP1 PUSH1 0x1A DUP2 MSTORE PUSH1 0x20 ADD PUSH32 0x19457468657265756D205369676E6564204D6573736167653A0A000000000000 DUP2 MSTORE POP PUSH2 0xF76 DUP4 MLOAD PUSH2 0x1FB7 JUMP JUMPDEST DUP4 PUSH1 0x40 MLOAD PUSH1 0x20 ADD DUP1 DUP5 DUP1 MLOAD SWAP1 PUSH1 0x20 ADD SWAP1 DUP1 DUP4 DUP4 JUMPDEST PUSH1 0x20 DUP4 LT PUSH2 0xFAD JUMPI DUP1 MLOAD DUP3 MSTORE PUSH1 0x20 DUP3 ADD SWAP2 POP PUSH1 0x20 DUP2 ADD SWAP1 POP PUSH1 0x20 DUP4 SUB SWAP3 POP PUSH2 0xF8A JUMP JUMPDEST PUSH1 0x1 DUP4 PUSH1 0x20 SUB PUSH2 0x100 EXP SUB DUP1 NOT DUP3 MLOAD AND DUP2 DUP5 MLOAD AND DUP1 DUP3 OR DUP6 MSTORE POP POP POP POP POP POP SWAP1 POP ADD DUP4 DUP1 MLOAD SWAP1 PUSH1 0x20 ADD SWAP1 DUP1 DUP4 DUP4 JUMPDEST PUSH1 0x20 DUP4 LT PUSH2 0xFFE JUMPI DUP1 MLOAD DUP3 MSTORE PUSH1 0x20 DUP3 ADD SWAP2 POP PUSH1 0x20 DUP2 ADD SWAP1 POP PUSH1 0x20 DUP4 SUB SWAP3 POP PUSH2 0xFDB JUMP JUMPDEST PUSH1 0x1 DUP4 PUSH1 0x20 SUB PUSH2 0x100 EXP SUB DUP1 NOT DUP3 MLOAD AND DUP2 DUP5 MLOAD AND DUP1 DUP3 OR DUP6 MSTORE POP POP POP POP POP POP SWAP1 POP ADD DUP3 DUP1 MLOAD SWAP1 PUSH1 0x20 ADD SWAP1 DUP1 DUP4 DUP4 JUMPDEST PUSH1 0x20 DUP4 LT PUSH2 0x104F JUMPI DUP1 MLOAD DUP3 MSTORE PUSH1 0x20 DUP3 ADD SWAP2 POP PUSH1 0x20 DUP2 ADD SWAP1 POP PUSH1 0x20 DUP4 SUB SWAP3 POP PUSH2 0x102C JUMP JUMPDEST PUSH1 0x1 DUP4 PUSH1 0x20 SUB PUSH2 0x100 EXP SUB DUP1 NOT DUP3 MLOAD AND DUP2 DUP5 MLOAD AND DUP1 DUP3 OR DUP6 MSTORE POP POP POP POP POP POP SWAP1 POP ADD SWAP4 POP POP POP POP PUSH1 0x40 MLOAD PUSH1 0x20 DUP2 DUP4 SUB SUB DUP2 MSTORE SWAP1 PUSH1 0x40 MSTORE DUP1 MLOAD SWAP1 PUSH1 0x20 ADD KECCAK256 SWAP1 POP PUSH32 0xF263FDAA282129BF525BC5DA5A454EE67EB2B96BC11AFAB9C6F92896F166B18E DUP2 PUSH1 0x40 MLOAD DUP1 DUP3 DUP2 MSTORE PUSH1 0x20 ADD SWAP2 POP POP PUSH1 0x40 MLOAD DUP1 SWAP2 SUB SWAP1 LOG1 PUSH1 0x0 DUP1 PUSH1 0x1 SWAP1 POP JUMPDEST DUP7 MLOAD DUP2 LT ISZERO PUSH2 0x12E7 JUMPI PUSH1 0x60 PUSH2 0x10F4 DUP9 DUP4 DUP2 MLOAD DUP2 LT PUSH2 0x10E7 JUMPI INVALID JUMPDEST PUSH1 0x20 MUL PUSH1 0x20 ADD ADD MLOAD PUSH2 0x1DE1 JUMP JUMPDEST SWAP1 POP PUSH1 0x0 DUP1 PUSH1 0x0 PUSH1 0x20 DUP5 ADD DUP1 MLOAD SWAP4 POP PUSH1 0x20 DUP2 ADD MLOAD SWAP3 POP PUSH1 0x40 DUP2 ADD MLOAD PUSH1 0x0 BYTE SWAP2 POP PUSH1 0x1B DUP3 LT ISZERO PUSH2 0x1124 JUMPI PUSH1 0x1B DUP3 ADD SWAP2 POP JUMPDEST POP PUSH1 0x1B DUP2 PUSH1 0xFF AND EQ DUP1 PUSH2 0x113A JUMPI POP PUSH1 0x1C DUP2 PUSH1 0xFF AND EQ JUMPDEST PUSH2 0x11AC JUMPI PUSH1 0x40 MLOAD PUSH32 0x8C379A000000000000000000000000000000000000000000000000000000000 DUP2 MSTORE PUSH1 0x4 ADD DUP1 DUP1 PUSH1 0x20 ADD DUP3 DUP2 SUB DUP3 MSTORE PUSH1 0x16 DUP2 MSTORE PUSH1 0x20 ADD DUP1 PUSH32 0x696E76616C6964207265636F766572792076616C756500000000000000000000 DUP2 MSTORE POP PUSH1 0x20 ADD SWAP2 POP POP PUSH1 0x40 MLOAD DUP1 SWAP2 SUB SWAP1 REVERT JUMPDEST PUSH1 0x0 PUSH1 0x1 DUP9 DUP4 DUP7 DUP7 PUSH1 0x40 MLOAD PUSH1 0x0 DUP2 MSTORE PUSH1 0x20 ADD PUSH1 0x40 MSTORE PUSH1 0x40 MLOAD DUP1 DUP6 DUP2 MSTORE PUSH1 0x20 ADD DUP5 PUSH1 0xFF AND PUSH1 0xFF AND DUP2 MSTORE PUSH1 0x20 ADD DUP4 DUP2 MSTORE PUSH1 0x20 ADD DUP3 DUP2 MSTORE PUSH1 0x20 ADD SWAP5 POP POP POP POP POP PUSH1 0x20 PUSH1 0x40 MLOAD PUSH1 0x20 DUP2 SUB SWAP1 DUP1 DUP5 SUB SWAP1 DUP6 GAS STATICCALL ISZERO DUP1 ISZERO PUSH2 0x120B JUMPI RETURNDATASIZE PUSH1 0x0 DUP1 RETURNDATACOPY RETURNDATASIZE PUSH1 0x0 REVERT JUMPDEST POP POP POP PUSH1 0x20 PUSH1 0x40 MLOAD SUB MLOAD SWAP1 POP PUSH1 0x1 PUSH1 0x0 DUP3 PUSH20 0xFFFFFFFFFFFFFFFFFFFFFFFFFFFFFFFFFFFFFFFF AND PUSH20 0xFFFFFFFFFFFFFFFFFFFFFFFFFFFFFFFFFFFFFFFF AND DUP2 MSTORE PUSH1 0x20 ADD SWAP1 DUP2 MSTORE PUSH1 0x20 ADD PUSH1 0x0 KECCAK256 PUSH1 0x0 SWAP1 SLOAD SWAP1 PUSH2 0x100 EXP SWAP1 DIV PUSH1 0xFF AND ISZERO PUSH2 0x1272 JUMPI DUP7 DUP1 PUSH1 0x1 ADD SWAP8 POP POP JUMPDEST PUSH32 0xEBFB412DED3F9CDB15B75308503B279416E74D382F6CE86EEDEE0EF3130FA9E3 DUP2 PUSH1 0x40 MLOAD DUP1 DUP3 PUSH20 0xFFFFFFFFFFFFFFFFFFFFFFFFFFFFFFFFFFFFFFFF AND PUSH20 0xFFFFFFFFFFFFFFFFFFFFFFFFFFFFFFFFFFFFFFFF AND DUP2 MSTORE PUSH1 0x20 ADD SWAP2 POP POP PUSH1 0x40 MLOAD DUP1 SWAP2 SUB SWAP1 LOG1 POP POP POP POP POP DUP1 DUP1 PUSH1 0x1 ADD SWAP2 POP POP PUSH2 0x10CD JUMP JUMPDEST POP PUSH1 0x64 PUSH1 0x42 PUSH1 0x0 SLOAD MUL DUP2 PUSH2 0x12F7 JUMPI INVALID JUMPDEST DIV DUP2 GT PUSH2 0x136C JUMPI PUSH1 0x40 MLOAD PUSH32 0x8C379A000000000000000000000000000000000000000000000000000000000 DUP2 MSTORE PUSH1 0x4 ADD DUP1 DUP1 PUSH1 0x20 ADD DUP3 DUP2 SUB DUP3 MSTORE PUSH1 0x1A DUP2 MSTORE PUSH1 0x20 ADD DUP1 PUSH32 0x3636252076616C696461746F72732073686F756C64207369676E000000000000 DUP2 MSTORE POP PUSH1 0x20 ADD SWAP2 POP POP PUSH1 0x40 MLOAD DUP1 SWAP2 SUB SWAP1 REVERT JUMPDEST PUSH1 0x0 PUSH1 0x5 DUP1 SLOAD SWAP1 POP SWAP1 POP PUSH1 0x5 DUP6 SWAP1 DUP1 PUSH1 0x1 DUP2 SLOAD ADD DUP1 DUP3 SSTORE DUP1 SWAP2 POP POP PUSH1 0x1 SWAP1 SUB SWAP1 PUSH1 0x0 MSTORE PUSH1 0x20 PUSH1 0x0 KECCAK256 SWAP1 PUSH1 0x4 MUL ADD PUSH1 0x0 SWAP1 SWAP2 SWAP1 SWAP2 SWAP1 SWAP2 POP PUSH1 0x0 DUP3 ADD MLOAD DUP2 PUSH1 0x0 ADD SSTORE PUSH1 0x20 DUP3 ADD MLOAD DUP2 PUSH1 0x1 ADD SSTORE PUSH1 0x40 DUP3 ADD MLOAD DUP2 PUSH1 0x2 ADD SSTORE PUSH1 0x60 DUP3 ADD MLOAD DUP2 PUSH1 0x3 ADD SSTORE POP POP PUSH32 0x435520EA9B14C682112ACEF5BC8466234D75B18DCE73C44A78D905139DEF419D DUP6 PUSH1 0x0 ADD MLOAD DUP7 PUSH1 0x20 ADD MLOAD DUP4 PUSH1 0x40 MLOAD DUP1 DUP5 DUP2 MSTORE PUSH1 0x20 ADD DUP4 DUP2 MSTORE PUSH1 0x20 ADD DUP3 DUP2 MSTORE PUSH1 0x20 ADD SWAP4 POP POP POP POP PUSH1 0x40 MLOAD DUP1 SWAP2 SUB SWAP1 LOG1 POP POP POP POP POP POP POP POP JUMP JUMPDEST DUP1 PUSH1 0x7 PUSH1 0x0 PUSH2 0x100 EXP DUP2 SLOAD DUP2 PUSH20 0xFFFFFFFFFFFFFFFFFFFFFFFFFFFFFFFFFFFFFFFF MUL NOT AND SWAP1 DUP4 PUSH20 0xFFFFFFFFFFFFFFFFFFFFFFFFFFFFFFFFFFFFFFFF AND MUL OR SWAP1 SSTORE POP POP JUMP JUMPDEST PUSH1 0x2 PUSH1 0x20 MSTORE DUP1 PUSH1 0x0 MSTORE PUSH1 0x40 PUSH1 0x0 KECCAK256 PUSH1 0x0 SWAP2 POP SLOAD SWAP1 PUSH2 0x100 EXP SWAP1 DIV PUSH1 0xFF AND DUP2 JUMP JUMPDEST PUSH1 0x60 PUSH2 0x149C PUSH2 0x1497 DUP4 PUSH2 0x1AE2 JUMP JUMPDEST PUSH2 0x1B10 JUMP JUMPDEST SWAP1 POP PUSH1 0x0 PUSH2 0x14BD DUP3 PUSH1 0x0 DUP2 MLOAD DUP2 LT PUSH2 0x14B0 JUMPI INVALID JUMPDEST PUSH1 0x20 MUL PUSH1 0x20 ADD ADD MLOAD PUSH2 0x1C10 JUMP JUMPDEST SWAP1 POP PUSH1 0x0 PUSH2 0x14DE DUP4 PUSH1 0x1 DUP2 MLOAD DUP2 LT PUSH2 0x14D1 JUMPI INVALID JUMPDEST PUSH1 0x20 MUL PUSH1 0x20 ADD ADD MLOAD PUSH2 0x1C10 JUMP JUMPDEST SWAP1 POP PUSH1 0x60 PUSH2 0x14FF DUP5 PUSH1 0x2 DUP2 MLOAD DUP2 LT PUSH2 0x14F2 JUMPI INVALID JUMPDEST PUSH1 0x20 MUL PUSH1 0x20 ADD ADD MLOAD PUSH2 0x1DE1 JUMP JUMPDEST SWAP1 POP PUSH1 0x0 PUSH2 0x1520 DUP6 PUSH1 0x3 DUP2 MLOAD DUP2 LT PUSH2 0x1513 JUMPI INVALID JUMPDEST PUSH1 0x20 MUL PUSH1 0x20 ADD ADD MLOAD PUSH2 0x1C81 JUMP JUMPDEST SWAP1 POP PUSH1 0x60 PUSH2 0x1541 DUP7 PUSH1 0x4 DUP2 MLOAD DUP2 LT PUSH2 0x1534 JUMPI INVALID JUMPDEST PUSH1 0x20 MUL PUSH1 0x20 ADD ADD MLOAD PUSH2 0x1DE1 JUMP JUMPDEST SWAP1 POP PUSH1 0x60 PUSH2 0x1562 DUP8 PUSH1 0x5 DUP2 MLOAD DUP2 LT PUSH2 0x1555 JUMPI INVALID JUMPDEST PUSH1 0x20 MUL PUSH1 0x20 ADD ADD MLOAD PUSH2 0x1DE1 JUMP JUMPDEST SWAP1 POP PUSH1 0x60 PUSH2 0x1583 DUP9 PUSH1 0x6 DUP2 MLOAD DUP2 LT PUSH2 0x1576 JUMPI INVALID JUMPDEST PUSH1 0x20 MUL PUSH1 0x20 ADD ADD MLOAD PUSH2 0x1DE1 JUMP JUMPDEST SWAP1 POP PUSH1 0x0 DUP4 DUP1 MLOAD SWAP1 PUSH1 0x20 ADD KECCAK256 SWAP1 POP PUSH1 0x2 PUSH1 0x0 DUP3 DUP2 MSTORE PUSH1 0x20 ADD SWAP1 DUP2 MSTORE PUSH1 0x20 ADD PUSH1 0x0 KECCAK256 PUSH1 0x0 SWAP1 SLOAD SWAP1 PUSH2 0x100 EXP SWAP1 DIV PUSH1 0xFF AND ISZERO PUSH2 0x1608 JUMPI PUSH1 0x40 MLOAD PUSH32 0x8C379A000000000000000000000000000000000000000000000000000000000 DUP2 MSTORE PUSH1 0x4 ADD DUP1 DUP1 PUSH1 0x20 ADD DUP3 DUP2 SUB DUP3 MSTORE PUSH1 0x31 DUP2 MSTORE PUSH1 0x20 ADD DUP1 PUSH2 0x2D20 PUSH1 0x31 SWAP2 CODECOPY PUSH1 0x40 ADD SWAP2 POP POP PUSH1 0x40 MLOAD DUP1 SWAP2 SUB SWAP1 REVERT JUMPDEST PUSH2 0x1614 DUP5 DUP5 DUP5 DUP9 PUSH2 0x20E4 JUMP JUMPDEST PUSH2 0x1686 JUMPI PUSH1 0x40 MLOAD PUSH32 0x8C379A000000000000000000000000000000000000000000000000000000000 DUP2 MSTORE PUSH1 0x4 ADD DUP1 DUP1 PUSH1 0x20 ADD DUP3 DUP2 SUB DUP3 MSTORE PUSH1 0x1D DUP2 MSTORE PUSH1 0x20 ADD DUP1 PUSH32 0x496E76616C6964204D65726B6C652050617472696369612050726F6F66000000 DUP2 MSTORE POP PUSH1 0x20 ADD SWAP2 POP POP PUSH1 0x40 MLOAD DUP1 SWAP2 SUB SWAP1 REVERT JUMPDEST PUSH2 0x16D0 DUP6 PUSH1 0x5 DUP11 DUP2 SLOAD DUP2 LT PUSH2 0x1697 JUMPI INVALID JUMPDEST SWAP1 PUSH1 0x0 MSTORE PUSH1 0x20 PUSH1 0x0 KECCAK256 SWAP1 PUSH1 0x4 MUL ADD PUSH1 0x0 ADD SLOAD DUP10 SUB PUSH1 0x5 DUP12 DUP2 SLOAD DUP2 LT PUSH2 0x16B8 JUMPI INVALID JUMPDEST SWAP1 PUSH1 0x0 MSTORE PUSH1 0x20 PUSH1 0x0 KECCAK256 SWAP1 PUSH1 0x4 MUL ADD PUSH1 0x2 ADD SLOAD DUP10 PUSH2 0x8F3 JUMP JUMPDEST PUSH2 0x1742 JUMPI PUSH1 0x40 MLOAD PUSH32 0x8C379A000000000000000000000000000000000000000000000000000000000 DUP2 MSTORE PUSH1 0x4 ADD DUP1 DUP1 PUSH1 0x20 ADD DUP3 DUP2 SUB DUP3 MSTORE PUSH1 0x14 DUP2 MSTORE PUSH1 0x20 ADD DUP1 PUSH32 0x496E76616C6964204D65726B6C652050726F6F66000000000000000000000000 DUP2 MSTORE POP PUSH1 0x20 ADD SWAP2 POP POP PUSH1 0x40 MLOAD DUP1 SWAP2 SUB SWAP1 REVERT JUMPDEST PUSH1 0x0 DUP1 PUSH1 0x0 DUP1 PUSH2 0x1751 DUP9 PUSH2 0xA83 JUMP JUMPDEST SWAP4 POP SWAP4 POP SWAP4 POP SWAP4 POP PUSH1 0x7 PUSH1 0x0 SWAP1 SLOAD SWAP1 PUSH2 0x100 EXP SWAP1 DIV PUSH20 0xFFFFFFFFFFFFFFFFFFFFFFFFFFFFFFFFFFFFFFFF AND PUSH20 0xFFFFFFFFFFFFFFFFFFFFFFFFFFFFFFFFFFFFFFFF AND DUP4 PUSH20 0xFFFFFFFFFFFFFFFFFFFFFFFFFFFFFFFFFFFFFFFF AND EQ PUSH2 0x17FF JUMPI PUSH1 0x40 MLOAD PUSH32 0x8C379A000000000000000000000000000000000000000000000000000000000 DUP2 MSTORE PUSH1 0x4 ADD DUP1 DUP1 PUSH1 0x20 ADD DUP3 DUP2 SUB DUP3 MSTORE PUSH1 0x2E DUP2 MSTORE PUSH1 0x20 ADD DUP1 PUSH2 0x2CCF PUSH1 0x2E SWAP2 CODECOPY PUSH1 0x40 ADD SWAP2 POP POP PUSH1 0x40 MLOAD DUP1 SWAP2 SUB SWAP1 REVERT JUMPDEST PUSH2 0x2323 DUP2 EQ PUSH2 0x1859 JUMPI PUSH1 0x40 MLOAD PUSH32 0x8C379A000000000000000000000000000000000000000000000000000000000 DUP2 MSTORE PUSH1 0x4 ADD DUP1 DUP1 PUSH1 0x20 ADD DUP3 DUP2 SUB DUP3 MSTORE PUSH1 0x23 DUP2 MSTORE PUSH1 0x20 ADD DUP1 PUSH2 0x2CFD PUSH1 0x23 SWAP2 CODECOPY PUSH1 0x40 ADD SWAP2 POP POP PUSH1 0x40 MLOAD DUP1 SWAP2 SUB SWAP1 REVERT JUMPDEST PUSH1 0x1 PUSH1 0x2 PUSH1 0x0 DUP8 DUP2 MSTORE PUSH1 0x20 ADD SWAP1 DUP2 MSTORE PUSH1 0x20 ADD PUSH1 0x0 KECCAK256 PUSH1 0x0 PUSH2 0x100 EXP DUP2 SLOAD DUP2 PUSH1 0xFF MUL NOT AND SWAP1 DUP4 ISZERO ISZERO MUL OR SWAP1 SSTORE POP PUSH1 0x6 PUSH1 0x0 SWAP1 SLOAD SWAP1 PUSH2 0x100 EXP SWAP1 DIV PUSH20 0xFFFFFFFFFFFFFFFFFFFFFFFFFFFFFFFFFFFFFFFF AND PUSH20 0xFFFFFFFFFFFFFFFFFFFFFFFFFFFFFFFFFFFFFFFF AND PUSH4 0xA9059CBB DUP6 DUP5 PUSH1 0x40 MLOAD DUP4 PUSH4 0xFFFFFFFF AND PUSH1 0xE0 SHL DUP2 MSTORE PUSH1 0x4 ADD DUP1 DUP4 PUSH20 0xFFFFFFFFFFFFFFFFFFFFFFFFFFFFFFFFFFFFFFFF AND PUSH20 0xFFFFFFFFFFFFFFFFFFFFFFFFFFFFFFFFFFFFFFFF AND DUP2 MSTORE PUSH1 0x20 ADD DUP3 DUP2 MSTORE PUSH1 0x20 ADD SWAP3 POP POP POP PUSH1 0x20 PUSH1 0x40 MLOAD DUP1 DUP4 SUB DUP2 PUSH1 0x0 DUP8 DUP1 EXTCODESIZE ISZERO DUP1 ISZERO PUSH2 0x192E JUMPI PUSH1 0x0 DUP1 REVERT JUMPDEST POP GAS CALL ISZERO DUP1 ISZERO PUSH2 0x1942 JUMPI RETURNDATASIZE PUSH1 0x0 DUP1 RETURNDATACOPY RETURNDATASIZE PUSH1 0x0 REVERT JUMPDEST POP POP POP POP PUSH1 0x40 MLOAD RETURNDATASIZE PUSH1 0x20 DUP2 LT ISZERO PUSH2 0x1958 JUMPI PUSH1 0x0 DUP1 REVERT JUMPDEST DUP2 ADD SWAP1 DUP1 DUP1 MLOAD SWAP1 PUSH1 0x20 ADD SWAP1 SWAP3 SWAP2 SWAP1 POP POP POP POP POP POP POP POP POP POP POP POP POP POP POP POP POP POP JUMP JUMPDEST PUSH1 0x60 PUSH1 0x4 DUP1 SLOAD DUP1 PUSH1 0x20 MUL PUSH1 0x20 ADD PUSH1 0x40 MLOAD SWAP1 DUP2 ADD PUSH1 0x40 MSTORE DUP1 SWAP3 SWAP2 SWAP1 DUP2 DUP2 MSTORE PUSH1 0x20 ADD DUP3 DUP1 SLOAD DUP1 ISZERO PUSH2 0x19FE JUMPI PUSH1 0x20 MUL DUP3 ADD SWAP2 SWAP1 PUSH1 0x0 MSTORE PUSH1 0x20 PUSH1 0x0 KECCAK256 SWAP1 JUMPDEST DUP2 PUSH1 0x0 SWAP1 SLOAD SWAP1 PUSH2 0x100 EXP SWAP1 DIV PUSH20 0xFFFFFFFFFFFFFFFFFFFFFFFFFFFFFFFFFFFFFFFF AND PUSH20 0xFFFFFFFFFFFFFFFFFFFFFFFFFFFFFFFFFFFFFFFF AND DUP2 MSTORE PUSH1 0x20 ADD SWAP1 PUSH1 0x1 ADD SWAP1 DUP1 DUP4 GT PUSH2 0x19B4 JUMPI JUMPDEST POP POP POP POP POP SWAP1 POP SWAP1 JUMP JUMPDEST PUSH1 0x0 SLOAD DUP2 JUMP JUMPDEST PUSH1 0x60 PUSH1 0x3 DUP1 SLOAD DUP1 PUSH1 0x20 MUL PUSH1 0x20 ADD PUSH1 0x40 MLOAD SWAP1 DUP2 ADD PUSH1 0x40 MSTORE DUP1 SWAP3 SWAP2 SWAP1 DUP2 DUP2 MSTORE PUSH1 0x20 ADD DUP3 DUP1 SLOAD DUP1 ISZERO PUSH2 0x1A92 JUMPI PUSH1 0x20 MUL DUP3 ADD SWAP2 SWAP1 PUSH1 0x0 MSTORE PUSH1 0x20 PUSH1 0x0 KECCAK256 SWAP1 JUMPDEST DUP2 PUSH1 0x0 SWAP1 SLOAD SWAP1 PUSH2 0x100 EXP SWAP1 DIV PUSH20 0xFFFFFFFFFFFFFFFFFFFFFFFFFFFFFFFFFFFFFFFF AND PUSH20 0xFFFFFFFFFFFFFFFFFFFFFFFFFFFFFFFFFFFFFFFF AND DUP2 MSTORE PUSH1 0x20 ADD SWAP1 PUSH1 0x1 ADD SWAP1 DUP1 DUP4 GT PUSH2 0x1A48 JUMPI JUMPDEST POP POP POP POP POP SWAP1 POP SWAP1 JUMP JUMPDEST PUSH1 0x1 PUSH1 0x20 MSTORE DUP1 PUSH1 0x0 MSTORE PUSH1 0x40 PUSH1 0x0 KECCAK256 PUSH1 0x0 SWAP2 POP SLOAD SWAP1 PUSH2 0x100 EXP SWAP1 DIV PUSH1 0xFF AND DUP2 JUMP JUMPDEST PUSH1 0x6 PUSH1 0x0 SWAP1 SLOAD SWAP1 PUSH2 0x100 EXP SWAP1 DIV PUSH20 0xFFFFFFFFFFFFFFFFFFFFFFFFFFFFFFFFFFFFFFFF AND DUP2 JUMP JUMPDEST PUSH2 0x1AEA PUSH2 0x2C9A JUMP JUMPDEST PUSH1 0x0 PUSH1 0x20 DUP4 ADD SWAP1 POP PUSH1 0x40 MLOAD DUP1 PUSH1 0x40 ADD PUSH1 0x40 MSTORE DUP1 DUP5 MLOAD DUP2 MSTORE PUSH1 0x20 ADD DUP3 DUP2 MSTORE POP SWAP2 POP POP SWAP2 SWAP1 POP JUMP JUMPDEST PUSH1 0x60 PUSH2 0x1B1B DUP3 PUSH2 0x23BA JUMP JUMPDEST PUSH2 0x1B24 JUMPI PUSH1 0x0 DUP1 REVERT JUMPDEST PUSH1 0x0 PUSH2 0x1B2F DUP4 PUSH2 0x2408 JUMP JUMPDEST SWAP1 POP PUSH1 0x60 DUP2 PUSH1 0x40 MLOAD SWAP1 DUP1 DUP3 MSTORE DUP1 PUSH1 0x20 MUL PUSH1 0x20 ADD DUP3 ADD PUSH1 0x40 MSTORE DUP1 ISZERO PUSH2 0x1B6D JUMPI DUP2 PUSH1 0x20 ADD JUMPDEST PUSH2 0x1B5A PUSH2 0x2CB4 JUMP JUMPDEST DUP2 MSTORE PUSH1 0x20 ADD SWAP1 PUSH1 0x1 SWAP1 SUB SWAP1 DUP2 PUSH2 0x1B52 JUMPI SWAP1 POP JUMPDEST POP SWAP1 POP PUSH1 0x0 PUSH2 0x1B7F DUP6 PUSH1 0x20 ADD MLOAD PUSH2 0x2479 JUMP JUMPDEST DUP6 PUSH1 0x20 ADD MLOAD ADD SWAP1 POP PUSH1 0x0 DUP1 PUSH1 0x0 SWAP1 POP JUMPDEST DUP5 DUP2 LT ISZERO PUSH2 0x1BE0 JUMPI PUSH2 0x1BA0 DUP4 PUSH2 0x2502 JUMP JUMPDEST SWAP2 POP PUSH1 0x40 MLOAD DUP1 PUSH1 0x40 ADD PUSH1 0x40 MSTORE DUP1 DUP4 DUP2 MSTORE PUSH1 0x20 ADD DUP5 DUP2 MSTORE POP DUP5 DUP3 DUP2 MLOAD DUP2 LT PUSH2 0x1BC3 JUMPI INVALID JUMPDEST PUSH1 0x20 MUL PUSH1 0x20 ADD ADD DUP2 SWAP1 MSTORE POP DUP2 DUP4 ADD SWAP3 POP DUP1 DUP1 PUSH1 0x1 ADD SWAP2 POP POP PUSH2 0x1B8F JUMP JUMPDEST POP DUP3 SWAP5 POP POP POP POP POP SWAP2 SWAP1 POP JUMP JUMPDEST PUSH1 0x0 PUSH1 0x15 DUP3 PUSH1 0x0 ADD MLOAD EQ PUSH2 0x1C00 JUMPI PUSH1 0x0 DUP1 REVERT JUMPDEST PUSH2 0x1C09 DUP3 PUSH2 0x1C10 JUMP JUMPDEST SWAP1 POP SWAP2 SWAP1 POP JUMP JUMPDEST PUSH1 0x0 DUP1 DUP3 PUSH1 0x0 ADD MLOAD GT DUP1 ISZERO PUSH2 0x1C2A JUMPI POP PUSH1 0x21 DUP3 PUSH1 0x0 ADD MLOAD GT ISZERO JUMPDEST PUSH2 0x1C33 JUMPI PUSH1 0x0 DUP1 REVERT JUMPDEST PUSH1 0x0 PUSH2 0x1C42 DUP4 PUSH1 0x20 ADD MLOAD PUSH2 0x2479 JUMP JUMPDEST SWAP1 POP PUSH1 0x0 DUP2 DUP5 PUSH1 0x0 ADD MLOAD SUB SWAP1 POP PUSH1 0x0 DUP1 DUP4 DUP7 PUSH1 0x20 ADD MLOAD ADD SWAP1 POP DUP1 MLOAD SWAP2 POP PUSH1 0x20 DUP4 LT ISZERO PUSH2 0x1C75 JUMPI DUP3 PUSH1 0x20 SUB PUSH2 0x100 EXP DUP3 DIV SWAP2 POP JUMPDEST DUP2 SWAP5 POP POP POP POP POP SWAP2 SWAP1 POP JUMP JUMPDEST PUSH1 0x0 PUSH2 0x1C8C DUP3 PUSH2 0x1C10 JUMP JUMPDEST PUSH1 0x0 SHL SWAP1 POP SWAP2 SWAP1 POP JUMP JUMPDEST PUSH1 0x60 DUP1 PUSH2 0x1CA2 DUP4 PUSH2 0x25BA JUMP JUMPDEST SWAP1 POP PUSH1 0x0 DUP1 PUSH1 0x0 SWAP1 POP JUMPDEST DUP3 MLOAD DUP2 LT ISZERO PUSH2 0x1D2F JUMPI PUSH1 0x0 PUSH1 0xF8 SHL PUSH31 0xFFFFFFFFFFFFFFFFFFFFFFFFFFFFFFFFFFFFFFFFFFFFFFFFFFFFFFFFFFFFFF NOT AND DUP4 DUP3 DUP2 MLOAD DUP2 LT PUSH2 0x1CE8 JUMPI INVALID JUMPDEST PUSH1 0x20 ADD ADD MLOAD PUSH1 0xF8 SHR PUSH1 0xF8 SHL PUSH31 0xFFFFFFFFFFFFFFFFFFFFFFFFFFFFFFFFFFFFFFFFFFFFFFFFFFFFFFFFFFFFFF NOT AND EQ PUSH2 0x1D22 JUMPI DUP1 SWAP2 POP PUSH2 0x1D2F JUMP JUMPDEST DUP1 DUP1 PUSH1 0x1 ADD SWAP2 POP POP PUSH2 0x1CAC JUMP JUMPDEST POP DUP1 PUSH1 0x20 SUB PUSH1 0x40 MLOAD SWAP1 DUP1 DUP3 MSTORE DUP1 PUSH1 0x1F ADD PUSH1 0x1F NOT AND PUSH1 0x20 ADD DUP3 ADD PUSH1 0x40 MSTORE DUP1 ISZERO PUSH2 0x1D66 JUMPI DUP2 PUSH1 0x20 ADD PUSH1 0x1 DUP3 MUL DUP1 CALLDATASIZE DUP4 CALLDATACOPY DUP1 DUP3 ADD SWAP2 POP POP SWAP1 POP JUMPDEST POP SWAP3 POP PUSH1 0x0 DUP2 SWAP1 POP JUMPDEST DUP3 MLOAD DUP2 LT ISZERO PUSH2 0x1DD9 JUMPI DUP3 DUP2 DUP2 MLOAD DUP2 LT PUSH2 0x1D84 JUMPI INVALID JUMPDEST PUSH1 0x20 ADD ADD MLOAD PUSH1 0xF8 SHR PUSH1 0xF8 SHL DUP5 DUP4 DUP4 SUB DUP2 MLOAD DUP2 LT PUSH2 0x1D9D JUMPI INVALID JUMPDEST PUSH1 0x20 ADD ADD SWAP1 PUSH31 0xFFFFFFFFFFFFFFFFFFFFFFFFFFFFFFFFFFFFFFFFFFFFFFFFFFFFFFFFFFFFFF NOT AND SWAP1 DUP2 PUSH1 0x0 BYTE SWAP1 MSTORE8 POP DUP1 DUP1 PUSH1 0x1 ADD SWAP2 POP POP PUSH2 0x1D6F JUMP JUMPDEST POP POP POP SWAP2 SWAP1 POP JUMP JUMPDEST PUSH1 0x60 PUSH1 0x0 DUP3 PUSH1 0x0 ADD MLOAD GT PUSH2 0x1DF4 JUMPI PUSH1 0x0 DUP1 REVERT JUMPDEST PUSH1 0x0 PUSH2 0x1E03 DUP4 PUSH1 0x20 ADD MLOAD PUSH2 0x2479 JUMP JUMPDEST SWAP1 POP PUSH1 0x0 DUP2 DUP5 PUSH1 0x0 ADD MLOAD SUB SWAP1 POP PUSH1 0x60 DUP2 PUSH1 0x40 MLOAD SWAP1 DUP1 DUP3 MSTORE DUP1 PUSH1 0x1F ADD PUSH1 0x1F NOT AND PUSH1 0x20 ADD DUP3 ADD PUSH1 0x40 MSTORE DUP1 ISZERO PUSH2 0x1E45 JUMPI DUP2 PUSH1 0x20 ADD PUSH1 0x1 DUP3 MUL DUP1 CALLDATASIZE DUP4 CALLDATACOPY DUP1 DUP3 ADD SWAP2 POP POP SWAP1 POP JUMPDEST POP SWAP1 POP PUSH1 0x0 DUP2 PUSH1 0x20 ADD SWAP1 POP PUSH2 0x1E61 DUP5 DUP8 PUSH1 0x20 ADD MLOAD ADD DUP3 DUP6 PUSH2 0x25FE JUMP JUMPDEST DUP2 SWAP5 POP POP POP POP POP SWAP2 SWAP1 POP JUMP JUMPDEST PUSH1 0x60 DUP1 PUSH1 0x0 DUP1 SWAP1 POP JUMPDEST DUP4 MLOAD DUP2 LT ISZERO PUSH2 0x1EB3 JUMPI PUSH2 0x1EA4 DUP3 PUSH2 0x1E9F DUP7 DUP5 DUP2 MLOAD DUP2 LT PUSH2 0x1E92 JUMPI INVALID JUMPDEST PUSH1 0x20 MUL PUSH1 0x20 ADD ADD MLOAD PUSH2 0x2665 JUMP JUMPDEST PUSH2 0x2701 JUMP JUMPDEST SWAP2 POP DUP1 DUP1 PUSH1 0x1 ADD SWAP2 POP POP PUSH2 0x1E76 JUMP JUMPDEST POP PUSH2 0x1EC9 PUSH2 0x1EC3 DUP3 MLOAD PUSH1 0xC0 PUSH2 0x278B JUMP JUMPDEST DUP3 PUSH2 0x2701 JUMP JUMPDEST SWAP2 POP POP SWAP2 SWAP1 POP JUMP JUMPDEST PUSH1 0x0 DUP1 PUSH1 0x5 DUP1 SLOAD SWAP1 POP EQ ISZERO PUSH2 0x1EE9 JUMPI PUSH1 0x0 SWAP1 POP PUSH2 0x1F3E JUMP JUMPDEST PUSH1 0x5 PUSH1 0x1 PUSH1 0x5 DUP1 SLOAD SWAP1 POP SUB DUP2 SLOAD DUP2 LT PUSH2 0x1EFE JUMPI INVALID JUMPDEST SWAP1 PUSH1 0x0 MSTORE PUSH1 0x20 PUSH1 0x0 KECCAK256 SWAP1 PUSH1 0x4 MUL ADD PUSH1 0x1 ADD SLOAD PUSH1 0x2 EXP PUSH1 0x5 PUSH1 0x1 PUSH1 0x5 DUP1 SLOAD SWAP1 POP SUB DUP2 SLOAD DUP2 LT PUSH2 0x1F28 JUMPI INVALID JUMPDEST SWAP1 PUSH1 0x0 MSTORE PUSH1 0x20 PUSH1 0x0 KECCAK256 SWAP1 PUSH1 0x4 MUL ADD PUSH1 0x0 ADD SLOAD ADD SWAP1 POP JUMPDEST SWAP1 JUMP JUMPDEST PUSH1 0x60 DUP1 DUP3 PUSH1 0x0 ADD MLOAD PUSH1 0x40 MLOAD SWAP1 DUP1 DUP3 MSTORE DUP1 PUSH1 0x1F ADD PUSH1 0x1F NOT AND PUSH1 0x20 ADD DUP3 ADD PUSH1 0x40 MSTORE DUP1 ISZERO PUSH2 0x1F7B JUMPI DUP2 PUSH1 0x20 ADD PUSH1 0x1 DUP3 MUL DUP1 CALLDATASIZE DUP4 CALLDATACOPY DUP1 DUP3 ADD SWAP2 POP POP SWAP1 POP JUMPDEST POP SWAP1 POP PUSH1 0x0 DUP2 MLOAD EQ ISZERO PUSH2 0x1F91 JUMPI DUP1 SWAP2 POP POP PUSH2 0x1FB2 JUMP JUMPDEST PUSH1 0x0 DUP2 PUSH1 0x20 ADD SWAP1 POP PUSH2 0x1FAC DUP5 PUSH1 0x20 ADD MLOAD DUP3 DUP7 PUSH1 0x0 ADD MLOAD PUSH2 0x25FE JUMP JUMPDEST DUP2 SWAP3 POP POP POP JUMPDEST SWAP2 SWAP1 POP JUMP JUMPDEST PUSH1 0x60 PUSH1 0x0 DUP3 EQ ISZERO PUSH2 0x1FFF JUMPI PUSH1 0x40 MLOAD DUP1 PUSH1 0x40 ADD PUSH1 0x40 MSTORE DUP1 PUSH1 0x1 DUP2 MSTORE PUSH1 0x20 ADD PUSH32 0x3000000000000000000000000000000000000000000000000000000000000000 DUP2 MSTORE POP SWAP1 POP PUSH2 0x20DF JUMP JUMPDEST PUSH1 0x0 DUP3 SWAP1 POP PUSH1 0x0 JUMPDEST PUSH1 0x0 DUP3 EQ PUSH2 0x2029 JUMPI DUP1 DUP1 PUSH1 0x1 ADD SWAP2 POP POP PUSH1 0xA DUP3 DUP2 PUSH2 0x2021 JUMPI INVALID JUMPDEST DIV SWAP2 POP PUSH2 0x2007 JUMP JUMPDEST PUSH1 0x60 DUP2 PUSH1 0x40 MLOAD SWAP1 DUP1 DUP3 MSTORE DUP1 PUSH1 0x1F ADD PUSH1 0x1F NOT AND PUSH1 0x20 ADD DUP3 ADD PUSH1 0x40 MSTORE DUP1 ISZERO PUSH2 0x205E JUMPI DUP2 PUSH1 0x20 ADD PUSH1 0x1 DUP3 MUL DUP1 CALLDATASIZE DUP4 CALLDATACOPY DUP1 DUP3 ADD SWAP2 POP POP SWAP1 POP JUMPDEST POP SWAP1 POP PUSH1 0x0 PUSH1 0x1 DUP4 SUB SWAP1 POP JUMPDEST PUSH1 0x0 DUP7 EQ PUSH2 0x20D7 JUMPI PUSH1 0xA DUP7 DUP2 PUSH2 0x207C JUMPI INVALID JUMPDEST MOD PUSH1 0x30 ADD PUSH1 0xF8 SHL DUP3 DUP3 DUP1 PUSH1 0x1 SWAP1 SUB SWAP4 POP DUP2 MLOAD DUP2 LT PUSH2 0x2096 JUMPI INVALID JUMPDEST PUSH1 0x20 ADD ADD SWAP1 PUSH31 0xFFFFFFFFFFFFFFFFFFFFFFFFFFFFFFFFFFFFFFFFFFFFFFFFFFFFFFFFFFFFFF NOT AND SWAP1 DUP2 PUSH1 0x0 BYTE SWAP1 MSTORE8 POP PUSH1 0xA DUP7 DUP2 PUSH2 0x20CF JUMPI INVALID JUMPDEST DIV SWAP6 POP PUSH2 0x206A JUMP JUMPDEST DUP2 SWAP5 POP POP POP POP POP JUMPDEST SWAP2 SWAP1 POP JUMP JUMPDEST PUSH1 0x0 PUSH2 0x20EE PUSH2 0x2C9A JUMP JUMPDEST PUSH2 0x20F7 DUP5 PUSH2 0x1AE2 JUMP JUMPDEST SWAP1 POP PUSH1 0x60 PUSH2 0x2104 DUP3 PUSH2 0x1B10 JUMP JUMPDEST SWAP1 POP PUSH1 0x60 DUP1 PUSH1 0x0 DUP7 SWAP1 POP PUSH1 0x0 DUP1 SWAP1 POP PUSH1 0x60 PUSH2 0x211E DUP12 PUSH2 0x287D JUMP JUMPDEST SWAP1 POP PUSH1 0x0 DUP2 MLOAD EQ ISZERO PUSH2 0x213A JUMPI PUSH1 0x0 SWAP8 POP POP POP POP POP POP POP POP PUSH2 0x23B2 JUMP JUMPDEST PUSH1 0x0 DUP1 SWAP1 POP JUMPDEST DUP7 MLOAD DUP2 LT ISZERO PUSH2 0x23A9 JUMPI DUP2 MLOAD DUP4 GT ISZERO PUSH2 0x2163 JUMPI PUSH1 0x0 SWAP9 POP POP POP POP POP POP POP POP POP PUSH2 0x23B2 JUMP JUMPDEST PUSH2 0x217F DUP8 DUP3 DUP2 MLOAD DUP2 LT PUSH2 0x2172 JUMPI INVALID JUMPDEST PUSH1 0x20 MUL PUSH1 0x20 ADD ADD MLOAD PUSH2 0x1F41 JUMP JUMPDEST SWAP6 POP DUP6 DUP1 MLOAD SWAP1 PUSH1 0x20 ADD KECCAK256 DUP5 EQ PUSH2 0x21A0 JUMPI PUSH1 0x0 SWAP9 POP POP POP POP POP POP POP POP POP PUSH2 0x23B2 JUMP JUMPDEST PUSH2 0x21BC DUP8 DUP3 DUP2 MLOAD DUP2 LT PUSH2 0x21AF JUMPI INVALID JUMPDEST PUSH1 0x20 MUL PUSH1 0x20 ADD ADD MLOAD PUSH2 0x1B10 JUMP JUMPDEST SWAP5 POP PUSH1 0x11 DUP6 MLOAD EQ ISZERO PUSH2 0x2291 JUMPI DUP2 MLOAD DUP4 EQ ISZERO PUSH2 0x2225 JUMPI DUP13 DUP1 MLOAD SWAP1 PUSH1 0x20 ADD KECCAK256 PUSH2 0x21F6 DUP7 PUSH1 0x10 DUP2 MLOAD DUP2 LT PUSH2 0x21E9 JUMPI INVALID JUMPDEST PUSH1 0x20 MUL PUSH1 0x20 ADD ADD MLOAD PUSH2 0x1DE1 JUMP JUMPDEST DUP1 MLOAD SWAP1 PUSH1 0x20 ADD KECCAK256 EQ ISZERO PUSH2 0x2214 JUMPI PUSH1 0x1 SWAP9 POP POP POP POP POP POP POP POP POP PUSH2 0x23B2 JUMP JUMPDEST PUSH1 0x0 SWAP9 POP POP POP POP POP POP POP POP POP PUSH2 0x23B2 JUMP JUMPDEST PUSH1 0x0 DUP3 DUP5 DUP2 MLOAD DUP2 LT PUSH2 0x2233 JUMPI INVALID JUMPDEST PUSH1 0x20 ADD ADD MLOAD PUSH1 0xF8 SHR PUSH1 0xF8 SHL PUSH1 0xF8 SHR SWAP1 POP PUSH1 0x10 DUP2 PUSH1 0xFF AND GT ISZERO PUSH2 0x2261 JUMPI PUSH1 0x0 SWAP10 POP POP POP POP POP POP POP POP POP POP PUSH2 0x23B2 JUMP JUMPDEST PUSH2 0x2280 DUP7 DUP3 PUSH1 0xFF AND DUP2 MLOAD DUP2 LT PUSH2 0x2273 JUMPI INVALID JUMPDEST PUSH1 0x20 MUL PUSH1 0x20 ADD ADD MLOAD PUSH2 0x2A04 JUMP JUMPDEST PUSH1 0x0 SHL SWAP5 POP PUSH1 0x1 DUP5 ADD SWAP4 POP POP PUSH2 0x239C JUMP JUMPDEST PUSH1 0x2 DUP6 MLOAD EQ ISZERO PUSH2 0x238A JUMPI PUSH2 0x22C2 PUSH2 0x22BB DUP7 PUSH1 0x0 DUP2 MLOAD DUP2 LT PUSH2 0x22AE JUMPI INVALID JUMPDEST PUSH1 0x20 MUL PUSH1 0x20 ADD ADD MLOAD PUSH2 0x1DE1 JUMP JUMPDEST DUP4 DUP6 PUSH2 0x2A32 JUMP JUMPDEST DUP4 ADD SWAP3 POP DUP2 MLOAD DUP4 EQ ISZERO PUSH2 0x2323 JUMPI DUP13 DUP1 MLOAD SWAP1 PUSH1 0x20 ADD KECCAK256 PUSH2 0x22F4 DUP7 PUSH1 0x1 DUP2 MLOAD DUP2 LT PUSH2 0x22E7 JUMPI INVALID JUMPDEST PUSH1 0x20 MUL PUSH1 0x20 ADD ADD MLOAD PUSH2 0x1DE1 JUMP JUMPDEST DUP1 MLOAD SWAP1 PUSH1 0x20 ADD KECCAK256 EQ ISZERO PUSH2 0x2312 JUMPI PUSH1 0x1 SWAP9 POP POP POP POP POP POP POP POP POP PUSH2 0x23B2 JUMP JUMPDEST PUSH1 0x0 SWAP9 POP POP POP POP POP POP POP POP POP PUSH2 0x23B2 JUMP JUMPDEST PUSH1 0x0 PUSH2 0x234C PUSH2 0x2345 DUP8 PUSH1 0x0 DUP2 MLOAD DUP2 LT PUSH2 0x2338 JUMPI INVALID JUMPDEST PUSH1 0x20 MUL PUSH1 0x20 ADD ADD MLOAD PUSH2 0x1DE1 JUMP JUMPDEST DUP5 DUP7 PUSH2 0x2A32 JUMP JUMPDEST EQ ISZERO PUSH2 0x2363 JUMPI PUSH1 0x0 SWAP9 POP POP POP POP POP POP POP POP POP PUSH2 0x23B2 JUMP JUMPDEST PUSH2 0x2380 DUP6 PUSH1 0x1 DUP2 MLOAD DUP2 LT PUSH2 0x2373 JUMPI INVALID JUMPDEST PUSH1 0x20 MUL PUSH1 0x20 ADD ADD MLOAD PUSH2 0x2A04 JUMP JUMPDEST PUSH1 0x0 SHL SWAP4 POP PUSH2 0x239B JUMP JUMPDEST PUSH1 0x0 SWAP9 POP POP POP POP POP POP POP POP POP PUSH2 0x23B2 JUMP JUMPDEST JUMPDEST DUP1 DUP1 PUSH1 0x1 ADD SWAP2 POP POP PUSH2 0x2140 JUMP JUMPDEST POP POP POP POP POP POP POP POP JUMPDEST SWAP5 SWAP4 POP POP POP POP JUMP JUMPDEST PUSH1 0x0 DUP1 DUP3 PUSH1 0x0 ADD MLOAD EQ ISZERO PUSH2 0x23D1 JUMPI PUSH1 0x0 SWAP1 POP PUSH2 0x2403 JUMP JUMPDEST PUSH1 0x0 DUP1 DUP4 PUSH1 0x20 ADD MLOAD SWAP1 POP DUP1 MLOAD PUSH1 0x0 BYTE SWAP2 POP PUSH1 0xC0 PUSH1 0xFF AND DUP3 PUSH1 0xFF AND LT ISZERO PUSH2 0x23FC JUMPI PUSH1 0x0 SWAP3 POP POP POP PUSH2 0x2403 JUMP JUMPDEST PUSH1 0x1 SWAP3 POP POP POP JUMPDEST SWAP2 SWAP1 POP JUMP JUMPDEST PUSH1 0x0 DUP1 DUP3 PUSH1 0x0 ADD MLOAD EQ ISZERO PUSH2 0x241F JUMPI PUSH1 0x0 SWAP1 POP PUSH2 0x2474 JUMP JUMPDEST PUSH1 0x0 DUP1 SWAP1 POP PUSH1 0x0 PUSH2 0x2433 DUP5 PUSH1 0x20 ADD MLOAD PUSH2 0x2479 JUMP JUMPDEST DUP5 PUSH1 0x20 ADD MLOAD ADD SWAP1 POP PUSH1 0x0 DUP5 PUSH1 0x0 ADD MLOAD DUP6 PUSH1 0x20 ADD MLOAD ADD SWAP1 POP JUMPDEST DUP1 DUP3 LT ISZERO PUSH2 0x246D JUMPI PUSH2 0x245C DUP3 PUSH2 0x2502 JUMP JUMPDEST DUP3 ADD SWAP2 POP DUP3 DUP1 PUSH1 0x1 ADD SWAP4 POP POP PUSH2 0x244B JUMP JUMPDEST DUP3 SWAP4 POP POP POP POP JUMPDEST SWAP2 SWAP1 POP JUMP JUMPDEST PUSH1 0x0 DUP1 DUP3 MLOAD PUSH1 0x0 BYTE SWAP1 POP PUSH1 0x80 PUSH1 0xFF AND DUP2 LT ISZERO PUSH2 0x2499 JUMPI PUSH1 0x0 SWAP2 POP POP PUSH2 0x24FD JUMP JUMPDEST PUSH1 0xB8 PUSH1 0xFF AND DUP2 LT DUP1 PUSH2 0x24BE JUMPI POP PUSH1 0xC0 PUSH1 0xFF AND DUP2 LT ISZERO DUP1 ISZERO PUSH2 0x24BD JUMPI POP PUSH1 0xF8 PUSH1 0xFF AND DUP2 LT JUMPDEST JUMPDEST ISZERO PUSH2 0x24CD JUMPI PUSH1 0x1 SWAP2 POP POP PUSH2 0x24FD JUMP JUMPDEST PUSH1 0xC0 PUSH1 0xFF AND DUP2 LT ISZERO PUSH2 0x24ED JUMPI PUSH1 0x1 DUP1 PUSH1 0xB8 SUB PUSH1 0xFF AND DUP3 SUB ADD SWAP2 POP POP PUSH2 0x24FD JUMP JUMPDEST PUSH1 0x1 DUP1 PUSH1 0xF8 SUB PUSH1 0xFF AND DUP3 SUB ADD SWAP2 POP POP JUMPDEST SWAP2 SWAP1 POP JUMP JUMPDEST PUSH1 0x0 DUP1 PUSH1 0x0 DUP4 MLOAD PUSH1 0x0 BYTE SWAP1 POP PUSH1 0x80 PUSH1 0xFF AND DUP2 LT ISZERO PUSH2 0x2523 JUMPI PUSH1 0x1 SWAP2 POP PUSH2 0x25B0 JUMP JUMPDEST PUSH1 0xB8 PUSH1 0xFF AND DUP2 LT ISZERO PUSH2 0x2540 JUMPI PUSH1 0x1 PUSH1 0x80 PUSH1 0xFF AND DUP3 SUB ADD SWAP2 POP PUSH2 0x25AF JUMP JUMPDEST PUSH1 0xC0 PUSH1 0xFF AND DUP2 LT ISZERO PUSH2 0x2570 JUMPI PUSH1 0xB7 DUP2 SUB PUSH1 0x1 DUP6 ADD SWAP5 POP DUP1 PUSH1 0x20 SUB PUSH2 0x100 EXP DUP6 MLOAD DIV PUSH1 0x1 DUP3 ADD DUP2 ADD SWAP4 POP POP POP PUSH2 0x25AE JUMP JUMPDEST PUSH1 0xF8 PUSH1 0xFF AND DUP2 LT ISZERO PUSH2 0x258D JUMPI PUSH1 0x1 PUSH1 0xC0 PUSH1 0xFF AND DUP3 SUB ADD SWAP2 POP PUSH2 0x25AD JUMP JUMPDEST PUSH1 0xF7 DUP2 SUB PUSH1 0x1 DUP6 ADD SWAP5 POP DUP1 PUSH1 0x20 SUB PUSH2 0x100 EXP DUP6 MLOAD DIV PUSH1 0x1 DUP3 ADD DUP2 ADD SWAP4 POP POP POP JUMPDEST JUMPDEST JUMPDEST JUMPDEST DUP2 SWAP3 POP POP POP SWAP2 SWAP1 POP JUMP JUMPDEST PUSH1 0x60 PUSH1 0x20 PUSH1 0x40 MLOAD SWAP1 DUP1 DUP3 MSTORE DUP1 PUSH1 0x1F ADD PUSH1 0x1F NOT AND PUSH1 0x20 ADD DUP3 ADD PUSH1 0x40 MSTORE DUP1 ISZERO PUSH2 0x25F0 JUMPI DUP2 PUSH1 0x20 ADD PUSH1 0x1 DUP3 MUL DUP1 CALLDATASIZE DUP4 CALLDATACOPY DUP1 DUP3 ADD SWAP2 POP POP SWAP1 POP JUMPDEST POP SWAP1 POP DUP2 PUSH1 0x20 DUP3 ADD MSTORE SWAP2 SWAP1 POP JUMP JUMPDEST PUSH1 0x0 DUP2 EQ ISZERO PUSH2 0x260C JUMPI PUSH2 0x2660 JUMP JUMPDEST JUMPDEST PUSH1 0x20 PUSH1 0xFF AND DUP2 LT PUSH2 0x263C JUMPI DUP3 MLOAD DUP3 MSTORE PUSH1 0x20 PUSH1 0xFF AND DUP4 ADD SWAP3 POP PUSH1 0x20 PUSH1 0xFF AND DUP3 ADD SWAP2 POP PUSH1 0x20 PUSH1 0xFF AND DUP2 SUB SWAP1 POP PUSH2 0x260D JUMP JUMPDEST PUSH1 0x0 PUSH1 0x1 DUP3 PUSH1 0x20 PUSH1 0xFF AND SUB PUSH2 0x100 EXP SUB SWAP1 POP DUP1 NOT DUP5 MLOAD AND DUP2 DUP5 MLOAD AND DUP2 DUP2 OR DUP6 MSTORE POP POP POP JUMPDEST POP POP POP JUMP JUMPDEST PUSH1 0x60 DUP1 PUSH1 0x1 DUP4 MLOAD EQ DUP1 ISZERO PUSH2 0x269C JUMPI POP PUSH1 0x80 PUSH1 0xFF PUSH1 0xF8 SHL DUP5 PUSH1 0x0 DUP2 MLOAD DUP2 LT PUSH2 0x2688 JUMPI INVALID JUMPDEST PUSH1 0x20 ADD ADD MLOAD PUSH1 0xF8 SHR PUSH1 0xF8 SHL AND PUSH1 0xF8 SHR PUSH1 0xFF AND LT JUMPDEST ISZERO PUSH2 0x26E0 JUMPI PUSH1 0x1 PUSH1 0x40 MLOAD SWAP1 DUP1 DUP3 MSTORE DUP1 PUSH1 0x1F ADD PUSH1 0x1F NOT AND PUSH1 0x20 ADD DUP3 ADD PUSH1 0x40 MSTORE DUP1 ISZERO PUSH2 0x26D5 JUMPI DUP2 PUSH1 0x20 ADD PUSH1 0x1 DUP3 MUL DUP1 CALLDATASIZE DUP4 CALLDATACOPY DUP1 DUP3 ADD SWAP2 POP POP SWAP1 POP JUMPDEST POP SWAP1 POP DUP3 SWAP1 POP PUSH2 0x26F8 JUMP JUMPDEST PUSH2 0x26F5 PUSH2 0x26EF DUP5 MLOAD PUSH1 0x80 PUSH2 0x278B JUMP JUMPDEST DUP5 PUSH2 0x2701 JUMP JUMPDEST SWAP1 POP JUMPDEST DUP1 SWAP2 POP POP SWAP2 SWAP1 POP JUMP JUMPDEST PUSH1 0x60 DUP1 PUSH1 0x40 MLOAD SWAP1 POP DUP4 MLOAD DUP1 DUP3 MSTORE PUSH1 0x20 DUP3 ADD DUP2 DUP2 ADD PUSH1 0x20 DUP8 ADD JUMPDEST DUP2 DUP4 LT ISZERO PUSH2 0x2737 JUMPI DUP1 MLOAD DUP4 MSTORE PUSH1 0x20 DUP4 ADD SWAP3 POP PUSH1 0x20 DUP2 ADD SWAP1 POP PUSH2 0x271A JUMP JUMPDEST POP DUP6 MLOAD SWAP3 POP DUP4 MLOAD DUP4 ADD DUP5 MSTORE DUP1 SWAP2 POP DUP3 DUP3 ADD SWAP1 POP PUSH1 0x20 DUP7 ADD JUMPDEST DUP2 DUP4 LT ISZERO PUSH2 0x276C JUMPI DUP1 MLOAD DUP4 MSTORE PUSH1 0x20 DUP4 ADD SWAP3 POP PUSH1 0x20 DUP2 ADD SWAP1 POP PUSH2 0x274F JUMP JUMPDEST POP PUSH1 0x1F NOT PUSH1 0x1F DUP9 MLOAD DUP6 ADD ISZERO DUP4 ADD ADD AND PUSH1 0x40 MSTORE POP POP POP DUP1 SWAP2 POP POP SWAP3 SWAP2 POP POP JUMP JUMPDEST PUSH1 0x60 PUSH1 0x38 DUP4 LT ISZERO PUSH2 0x281A JUMPI PUSH1 0x60 PUSH1 0x1 PUSH1 0x40 MLOAD SWAP1 DUP1 DUP3 MSTORE DUP1 PUSH1 0x1F ADD PUSH1 0x1F NOT AND PUSH1 0x20 ADD DUP3 ADD PUSH1 0x40 MSTORE DUP1 ISZERO PUSH2 0x27CC JUMPI DUP2 PUSH1 0x20 ADD PUSH1 0x1 DUP3 MUL DUP1 CALLDATASIZE DUP4 CALLDATACOPY DUP1 DUP3 ADD SWAP2 POP POP SWAP1 POP JUMPDEST POP SWAP1 POP DUP3 DUP5 ADD PUSH1 0xF8 SHL DUP2 PUSH1 0x0 DUP2 MLOAD DUP2 LT PUSH2 0x27E2 JUMPI INVALID JUMPDEST PUSH1 0x20 ADD ADD SWAP1 PUSH31 0xFFFFFFFFFFFFFFFFFFFFFFFFFFFFFFFFFFFFFFFFFFFFFFFFFFFFFFFFFFFFFF NOT AND SWAP1 DUP2 PUSH1 0x0 BYTE SWAP1 MSTORE8 POP DUP1 SWAP2 POP POP PUSH2 0x2877 JUMP JUMPDEST PUSH1 0x0 DUP1 PUSH1 0x1 SWAP1 POP JUMPDEST PUSH1 0x0 DUP2 DUP7 DUP2 PUSH2 0x282D JUMPI INVALID JUMPDEST DIV EQ PUSH2 0x2847 JUMPI DUP2 DUP1 PUSH1 0x1 ADD SWAP3 POP POP PUSH2 0x100 DUP2 MUL SWAP1 POP PUSH2 0x2822 JUMP JUMPDEST PUSH1 0x60 PUSH2 0x2857 DUP4 PUSH1 0x37 DUP8 ADD ADD PUSH2 0x2B25 JUMP JUMPDEST SWAP1 POP PUSH1 0x60 PUSH2 0x2864 DUP8 PUSH2 0x2B25 JUMP JUMPDEST SWAP1 POP PUSH2 0x2870 DUP3 DUP3 PUSH2 0x2701 JUMP JUMPDEST SWAP5 POP POP POP POP POP JUMPDEST SWAP3 SWAP2 POP POP JUMP JUMPDEST PUSH1 0x60 DUP1 PUSH1 0x0 DUP4 MLOAD GT ISZERO PUSH2 0x29FB JUMPI PUSH1 0x0 DUP1 PUSH2 0x2898 PUSH1 0x0 DUP7 PUSH2 0x2BE6 JUMP JUMPDEST PUSH1 0xF8 SHR SWAP1 POP PUSH1 0x1 DUP2 PUSH1 0xFF AND EQ DUP1 PUSH2 0x28B2 JUMPI POP PUSH1 0x3 DUP2 PUSH1 0xFF AND EQ JUMPDEST ISZERO PUSH2 0x294A JUMPI PUSH1 0x1 PUSH1 0x2 DUP7 MLOAD MUL SUB PUSH1 0x40 MLOAD SWAP1 DUP1 DUP3 MSTORE DUP1 PUSH1 0x1F ADD PUSH1 0x1F NOT AND PUSH1 0x20 ADD DUP3 ADD PUSH1 0x40 MSTORE DUP1 ISZERO PUSH2 0x28F1 JUMPI DUP2 PUSH1 0x20 ADD PUSH1 0x1 DUP3 MUL DUP1 CALLDATASIZE DUP4 CALLDATACOPY DUP1 DUP3 ADD SWAP2 POP POP SWAP1 POP JUMPDEST POP SWAP3 POP PUSH1 0x0 PUSH2 0x2901 PUSH1 0x1 DUP8 PUSH2 0x2BE6 JUMP JUMPDEST SWAP1 POP DUP1 DUP5 PUSH1 0x0 DUP2 MLOAD DUP2 LT PUSH2 0x2911 JUMPI INVALID JUMPDEST PUSH1 0x20 ADD ADD SWAP1 PUSH31 0xFFFFFFFFFFFFFFFFFFFFFFFFFFFFFFFFFFFFFFFFFFFFFFFFFFFFFFFFFFFFFF NOT AND SWAP1 DUP2 PUSH1 0x0 BYTE SWAP1 MSTORE8 POP PUSH1 0x1 SWAP3 POP POP PUSH2 0x298B JUMP JUMPDEST PUSH1 0x2 DUP1 DUP7 MLOAD MUL SUB PUSH1 0x40 MLOAD SWAP1 DUP1 DUP3 MSTORE DUP1 PUSH1 0x1F ADD PUSH1 0x1F NOT AND PUSH1 0x20 ADD DUP3 ADD PUSH1 0x40 MSTORE DUP1 ISZERO PUSH2 0x2983 JUMPI DUP2 PUSH1 0x20 ADD PUSH1 0x1 DUP3 MUL DUP1 CALLDATASIZE DUP4 CALLDATACOPY DUP1 DUP3 ADD SWAP2 POP POP SWAP1 POP JUMPDEST POP SWAP3 POP PUSH1 0x0 SWAP2 POP JUMPDEST PUSH1 0x0 DUP3 PUSH1 0xFF AND SWAP1 POP JUMPDEST DUP4 MLOAD DUP2 LT ISZERO PUSH2 0x29F7 JUMPI PUSH2 0x29AF PUSH1 0x2 DUP5 PUSH1 0xFF AND DUP4 SUB ADD DUP8 PUSH2 0x2BE6 JUMP JUMPDEST DUP5 DUP3 DUP2 MLOAD DUP2 LT PUSH2 0x29BB JUMPI INVALID JUMPDEST PUSH1 0x20 ADD ADD SWAP1 PUSH31 0xFFFFFFFFFFFFFFFFFFFFFFFFFFFFFFFFFFFFFFFFFFFFFFFFFFFFFFFFFFFFFF NOT AND SWAP1 DUP2 PUSH1 0x0 BYTE SWAP1 MSTORE8 POP DUP1 DUP1 PUSH1 0x1 ADD SWAP2 POP POP PUSH2 0x2994 JUMP JUMPDEST POP POP POP JUMPDEST DUP1 SWAP2 POP POP SWAP2 SWAP1 POP JUMP JUMPDEST PUSH1 0x0 PUSH1 0x21 DUP3 PUSH1 0x0 ADD MLOAD EQ PUSH2 0x2A17 JUMPI PUSH1 0x0 DUP1 REVERT JUMPDEST PUSH1 0x0 DUP1 PUSH1 0x1 DUP5 PUSH1 0x20 ADD MLOAD ADD SWAP1 POP DUP1 MLOAD SWAP2 POP DUP2 SWAP3 POP POP POP SWAP2 SWAP1 POP JUMP JUMPDEST PUSH1 0x0 DUP1 PUSH1 0x60 PUSH2 0x2A40 DUP7 PUSH2 0x287D JUMP JUMPDEST SWAP1 POP PUSH1 0x60 DUP2 MLOAD PUSH1 0x40 MLOAD SWAP1 DUP1 DUP3 MSTORE DUP1 PUSH1 0x1F ADD PUSH1 0x1F NOT AND PUSH1 0x20 ADD DUP3 ADD PUSH1 0x40 MSTORE DUP1 ISZERO PUSH2 0x2A78 JUMPI DUP2 PUSH1 0x20 ADD PUSH1 0x1 DUP3 MUL DUP1 CALLDATASIZE DUP4 CALLDATACOPY DUP1 DUP3 ADD SWAP2 POP POP SWAP1 POP JUMPDEST POP SWAP1 POP PUSH1 0x0 DUP6 SWAP1 POP JUMPDEST DUP3 MLOAD DUP7 ADD DUP2 LT ISZERO PUSH2 0x2AF3 JUMPI PUSH1 0x0 DUP8 DUP3 DUP2 MLOAD DUP2 LT PUSH2 0x2A9A JUMPI INVALID JUMPDEST PUSH1 0x20 ADD ADD MLOAD PUSH1 0xF8 SHR PUSH1 0xF8 SHL SWAP1 POP DUP1 DUP4 DUP9 DUP5 SUB DUP2 MLOAD DUP2 LT PUSH2 0x2AB6 JUMPI INVALID JUMPDEST PUSH1 0x20 ADD ADD SWAP1 PUSH31 0xFFFFFFFFFFFFFFFFFFFFFFFFFFFFFFFFFFFFFFFFFFFFFFFFFFFFFFFFFFFFFF NOT AND SWAP1 DUP2 PUSH1 0x0 BYTE SWAP1 MSTORE8 POP POP DUP1 DUP1 PUSH1 0x1 ADD SWAP2 POP POP PUSH2 0x2A81 JUMP JUMPDEST POP DUP1 DUP1 MLOAD SWAP1 PUSH1 0x20 ADD KECCAK256 DUP3 DUP1 MLOAD SWAP1 PUSH1 0x20 ADD KECCAK256 EQ ISZERO PUSH2 0x2B13 JUMPI DUP2 MLOAD SWAP3 POP PUSH2 0x2B18 JUMP JUMPDEST PUSH1 0x0 SWAP3 POP JUMPDEST DUP3 SWAP4 POP POP POP POP SWAP4 SWAP3 POP POP POP JUMP JUMPDEST PUSH1 0x60 PUSH1 0x0 PUSH1 0x1 SWAP1 POP PUSH1 0xFF DUP4 GT ISZERO PUSH2 0x2B3B JUMPI PUSH1 0x2 SWAP1 POP JUMPDEST DUP1 PUSH1 0x40 MLOAD SWAP1 DUP1 DUP3 MSTORE DUP1 PUSH1 0x1F ADD PUSH1 0x1F NOT AND PUSH1 0x20 ADD DUP3 ADD PUSH1 0x40 MSTORE DUP1 ISZERO PUSH2 0x2B6E JUMPI DUP2 PUSH1 0x20 ADD PUSH1 0x1 DUP3 MUL DUP1 CALLDATASIZE DUP4 CALLDATACOPY DUP1 DUP3 ADD SWAP2 POP POP SWAP1 POP JUMPDEST POP SWAP2 POP PUSH1 0x0 DUP1 SWAP1 POP JUMPDEST DUP2 DUP2 LT ISZERO PUSH2 0x2BDF JUMPI DUP1 PUSH1 0x1 DUP4 SUB SUB PUSH1 0x8 MUL PUSH1 0x2 EXP DUP5 DUP2 PUSH2 0x2B93 JUMPI INVALID JUMPDEST DIV PUSH1 0xF8 SHL DUP4 DUP3 DUP2 MLOAD DUP2 LT PUSH2 0x2BA3 JUMPI INVALID JUMPDEST PUSH1 0x20 ADD ADD SWAP1 PUSH31 0xFFFFFFFFFFFFFFFFFFFFFFFFFFFFFFFFFFFFFFFFFFFFFFFFFFFFFFFFFFFFFF NOT AND SWAP1 DUP2 PUSH1 0x0 BYTE SWAP1 MSTORE8 POP DUP1 DUP1 PUSH1 0x1 ADD SWAP2 POP POP PUSH2 0x2B77 JUMP JUMPDEST POP POP SWAP2 SWAP1 POP JUMP JUMPDEST PUSH1 0x0 DUP1 PUSH1 0x2 DUP5 DUP2 PUSH2 0x2BF3 JUMPI INVALID JUMPDEST MOD EQ PUSH2 0x2C2F JUMPI PUSH1 0x10 DUP3 PUSH1 0x2 DUP6 DUP2 PUSH2 0x2C06 JUMPI INVALID JUMPDEST DIV DUP2 MLOAD DUP2 LT PUSH2 0x2C11 JUMPI INVALID JUMPDEST PUSH1 0x20 ADD ADD MLOAD PUSH1 0xF8 SHR PUSH1 0xF8 SHL PUSH1 0xF8 SHR PUSH1 0xFF AND DUP2 PUSH2 0x2C29 JUMPI INVALID JUMPDEST MOD PUSH2 0x2C61 JUMP JUMPDEST PUSH1 0x10 DUP3 PUSH1 0x2 DUP6 DUP2 PUSH2 0x2C3C JUMPI INVALID JUMPDEST DIV DUP2 MLOAD DUP2 LT PUSH2 0x2C47 JUMPI INVALID JUMPDEST PUSH1 0x20 ADD ADD MLOAD PUSH1 0xF8 SHR PUSH1 0xF8 SHL PUSH1 0xF8 SHR PUSH1 0xFF AND DUP2 PUSH2 0x2C5F JUMPI INVALID JUMPDEST DIV JUMPDEST PUSH1 0xF8 SHL SWAP1 POP SWAP3 SWAP2 POP POP JUMP JUMPDEST PUSH1 0x40 MLOAD DUP1 PUSH1 0x80 ADD PUSH1 0x40 MSTORE DUP1 PUSH1 0x0 DUP2 MSTORE PUSH1 0x20 ADD PUSH1 0x0 DUP2 MSTORE PUSH1 0x20 ADD PUSH1 0x0 DUP1 NOT AND DUP2 MSTORE PUSH1 0x20 ADD PUSH1 0x0 DUP1 NOT AND DUP2 MSTORE POP SWAP1 JUMP JUMPDEST PUSH1 0x40 MLOAD DUP1 PUSH1 0x40 ADD PUSH1 0x40 MSTORE DUP1 PUSH1 0x0 DUP2 MSTORE PUSH1 0x20 ADD PUSH1 0x0 DUP2 MSTORE POP SWAP1 JUMP JUMPDEST PUSH1 0x40 MLOAD DUP1 PUSH1 0x40 ADD PUSH1 0x40 MSTORE DUP1 PUSH1 0x0 DUP2 MSTORE PUSH1 0x20 ADD PUSH1 0x0 DUP2 MSTORE POP SWAP1 JUMP INVALID PUSH21 0x72616E736665722073686F756C64206265206D6164 PUSH6 0x20746F204553 0x4E KECCAK256 DIFFICULTY PUSH6 0x706F73697420 COINBASE PUSH5 0x6472657373 PUSH10 0x6E76616C696420636861 PUSH10 0x6E206964206F66207468 PUSH6 0x207472616E73 PUSH2 0x6374 PUSH10 0x6F6E416C726561647920 PUSH17 0x726F636573736564207769746864726177 PUSH2 0x6C20 PUSH7 0x6F722074686973 KECCAK256 PUSH21 0x72616E73616374696F6EA264697066735822122025 0xDA 0xBE 0x2E 0xC0 0xB6 PUSH25 0x833EB40D3F78C43EE611FB23632BFD5BB38F0CD21CBEB1E14A PUSH5 0x736F6C6343 STOP MOD SUB STOP CALLER "},"gasEstimates":{"creation":{"codeDepositCost":"2330800","executionCost":"infinite","totalCost":"infinite"},"external":{"bunches(uint256)":"4590","claimWithdrawal(bytes)":"infinite","esnDepositAddress()":"1099","getAllSigners()":"infinite","getAllValidators()":"infinite","isValidator(address)":"1294","lastBunchIndex()":"1044","numberOfValidators()":"1049","parseTransaction(bytes)":"infinite","processedWithdrawals(bytes32)":"1267","setESNDepositAddress(address)":"21146","signers(uint256)":"2085","submitBunchHeader(bytes)":"infinite","token()":"1163","validators(uint256)":"2062","verifyMerkleProof(bytes32,uint256,bytes32,bytes)":"infinite","zemse()":"1127"},"internal":{"_getBytesStr(uint256)":"infinite","getNextStartBlockNumber()":"7502"}},"methodIdentifiers":{"bunches(uint256)":"75080de8","claimWithdrawal(bytes)":"ca5d0926","esnDepositAddress()":"15c09850","getAllSigners()":"d42f2f35","getAllValidators()":"f3513a37","isValidator(address)":"facd743b","lastBunchIndex()":"2ceea82a","numberOfValidators()":"d6832ea9","parseTransaction(bytes)":"6750d35b","processedWithdrawals(bytes32)":"bf49d631","setESNDepositAddress(address)":"974275cf","signers(uint256)":"2079fb9a","submitBunchHeader(bytes)":"76f5e6da","token()":"fc0c546a","validators(uint256)":"35aa2e44","verifyMerkleProof(bytes32,uint256,bytes32,bytes)":"255032ab","zemse()":"0a917b15"}},"storageLayout":{"storage":[{"astId":269,"contract":"PlasmaManager.sol:PlasmaManager","label":"numberOfValidators","offset":0,"slot":"0","type":"t_uint256"},{"astId":273,"contract":"PlasmaManager.sol:PlasmaManager","label":"isValidator","offset":0,"slot":"1","type":"t_mapping(t_address,t_bool)"},{"astId":277,"contract":"PlasmaManager.sol:PlasmaManager","label":"processedWithdrawals","offset":0,"slot":"2","type":"t_mapping(t_bytes32,t_bool)"},{"astId":280,"contract":"PlasmaManager.sol:PlasmaManager","label":"validators","offset":0,"slot":"3","type":"t_array(t_address)dyn_storage"},{"astId":283,"contract":"PlasmaManager.sol:PlasmaManager","label":"signers","offset":0,"slot":"4","type":"t_array(t_address)dyn_storage"},{"astId":286,"contract":"PlasmaManager.sol:PlasmaManager","label":"bunches","offset":0,"slot":"5","type":"t_array(t_struct(BunchHeader)267_storage)dyn_storage"},{"astId":294,"contract":"PlasmaManager.sol:PlasmaManager","label":"token","offset":0,"slot":"6","type":"t_contract(ERC20)244"},{"astId":296,"contract":"PlasmaManager.sol:PlasmaManager","label":"esnDepositAddress","offset":0,"slot":"7","type":"t_address"},{"astId":298,"contract":"PlasmaManager.sol:PlasmaManager","label":"zemse","offset":20,"slot":"7","type":"t_uint8"}],"types":{"t_address":{"encoding":"inplace","label":"address","numberOfBytes":"20"},"t_array(t_address)dyn_storage":{"base":"t_address","encoding":"dynamic_array","label":"address[]","numberOfBytes":"32"},"t_array(t_struct(BunchHeader)267_storage)dyn_storage":{"base":"t_struct(BunchHeader)267_storage","encoding":"dynamic_array","label":"struct PlasmaManager.BunchHeader[]","numberOfBytes":"32"},"t_bool":{"encoding":"inplace","label":"bool","numberOfBytes":"1"},"t_bytes32":{"encoding":"inplace","label":"bytes32","numberOfBytes":"32"},"t_contract(ERC20)244":{"encoding":"inplace","label":"contract ERC20","numberOfBytes":"20"},"t_mapping(t_address,t_bool)":{"encoding":"mapping","key":"t_address","label":"mapping(address => bool)","numberOfBytes":"32","value":"t_bool"},"t_mapping(t_bytes32,t_bool)":{"encoding":"mapping","key":"t_bytes32","label":"mapping(bytes32 => bool)","numberOfBytes":"32","value":"t_bool"},"t_struct(BunchHeader)267_storage":{"encoding":"inplace","label":"struct PlasmaManager.BunchHeader","members":[{"astId":260,"contract":"PlasmaManager.sol:PlasmaManager","label":"startBlockNumber","offset":0,"slot":"0","type":"t_uint256"},{"astId":262,"contract":"PlasmaManager.sol:PlasmaManager","label":"bunchDepth","offset":0,"slot":"1","type":"t_uint256"},{"astId":264,"contract":"PlasmaManager.sol:PlasmaManager","label":"transactionsMegaRoot","offset":0,"slot":"2","type":"t_bytes32"},{"astId":266,"contract":"PlasmaManager.sol:PlasmaManager","label":"receiptsMegaRoot","offset":0,"slot":"3","type":"t_bytes32"}],"numberOfBytes":"128"},"t_uint256":{"encoding":"inplace","label":"uint256","numberOfBytes":"32"},"t_uint8":{"encoding":"inplace","label":"uint8","numberOfBytes":"1"}}},"userdoc":{"methods":{}}}